:0200000460009A
:10000000464346420004015600000000010303007D
:1000100000000000000000000000000000000000E0
:1000200000000000000000000000000000000000D0
:1000300000000000000000000000000000000000C0
:100040001000000001040700000000000000000094
:100050000000800000000000000000000000000020
:100060000000000000000000000000000000000090
:100070000000000000000000000000000000000080
:10008000EB04180A063204260000000000000000FD
:10009000050404240000000000000000000000002F
:1000A0000000000000000000000000000000000050
:1000B0000604000000000000000000000000000036
:1000C0000000000000000000000000000000000030
:1000D00020041808000000000000000000000000DC
:1000E0000000000000000000000000000000000010
:1000F0000000000000000000000000000000000000
:10010000D8041808000000000000000000000000F3
:100110000204180804200000000000000000000095
:1001200000000000000000000000000000000000CF
:10013000600400000000000000000000000000005B
:1001400000000000000000000000000000000000AF
:10015000000000000000000000000000000000009F
:10016000000000000000000000000000000000008F
:10017000000000000000000000000000000000007F
:10018000000000000000000000000000000000006F
:10019000000000000000000000000000000000005F
:1001A000000000000000000000000000000000004F
:1001B000000000000000000000000000000000003F
:1001C000000100000010000001000000000000001D
:1001D000000001000000000000000000000000001E
:1001E000000000000000000000000000000000000F
:1001F00000000000000000000000000000000000FF
:10100000D10020410020006000000000000000002E
:1010100020100060001000600000000000000000D0
:10102000000000600000800000000000FFFFFFFFE4
:10200000000001201D250060C9250060915C006072
:10201000C5250060C5250060C525006000000000E2
:10202000000000000000000000000000D12500605A
:10203000C525006000000000D52500605534006013
:10204000DD250060E1250060E5250060E9250060F0
:10205000ED250060F1250060F5250060F9250060A0
:10206000FD2500600126006005260060092600604D
:102070000D260060112600601526006019260060FC
:102080001D260060C5250060C5250060C5250060CF
:102090008536006099360060292600602D26006094
:1020A0003126006035260060392600603D2600603C
:1020B0004126006045260060492600604D260060EC
:1020C0005126006055260060592600605D2600609C
:1020D0006126006065260060C5250060C52500609A
:1020E000C5250060C5250060C5250060C5250060C8
:1020F000C5250060C5250060C5250060C5250060B8
:10210000C5250060C5250060C5250060C5250060A7
:10211000C5250060C5250060C5250060C525006097
:10212000692600606D2600607126006075260060DB
:1021300079260060C5250060C5250060C5250060C2
:10214000C5250060C5250060C5250060C525006067
:10215000C5250060C5250060C5250060C525006057
:10216000C5250060C5250060C5250060C525006047
:10217000C5250060C5250060C5250060C525006037
:10218000C5250060C5250060C5250060C525006027
:10219000C5250060C5250060C5250060C525006017
:1021A000C5250060C52500607D260060C52500604E
:1021B000C5250060C5250060C5250060C5250060F7
:1021C000C5250060C5250060C5250060C5250060E7
:1021D000C5250060C5250060C5250060C5250060D7
:1021E000C5250060C5250060C5250060C5250060C7
:1021F00081260060C5250060852600608926006074
:10220000C5250060C52500608D2600609126006010
:10221000C5250060C5250060C5250060C525006096
:10222000C5250060C5250060C5250060C525006086
:10223000C5250060C5250060C5250060C525006076
:10224000C5250060C5250060C5250060C525006066
:10225000C5250060C5250060C5250060C525006056
:10226000C5250060C5250060C5250060C525006046
:10227000C5250060C5250060C5250060C525006036
:10228000C5250060C5250060C5250060C525006026
:10229000C5250060C5250060C5250060C525006016
:1022A000C5250060C5250060C5250060C525006006
:1022B000C5250060C5250060C5250060C5250060F6
:1022C000C5250060C5250060C5250060C5250060E6
:1022D000C5250060C5250060C5250060C5250060D6
:1022E000C5250060C5250060C5250060C5250060C6
:1022F000C5250060C5250060C5250060C5250060B6
:10230000C5250060C5250060C5250060C5250060A5
:10231000C5250060C5250060C5250060C525006095
:10232000C5250060C5250060C5250060C525006085
:10233000C5250060C5250060C5250060C525006075
:10234000C5250060C5250060C5250060C525006065
:10235000C5250060C5250060C5250060C525006055
:10236000C5250060C5250060C5250060C525006045
:10237000C5250060C5250060C5250060C525006035
:10238000C5250060C5250060C5250060C525006025
:10239000C5250060C5250060C5250060C525006015
:1023A000C5250060C5250060C5250060C525006005
:1023B000C5250060C5250060C5250060C5250060F5
:1023C000C5250060C5250060C5250060C5250060E5
:1023D000C5250060C5250060C5250060C5250060D5
:1023E000C5250060C5250060C5250060C5250060C5
:1023F000C5250060C5250060C5250060FFFFFFFF03
:1024000090F800F06DE9024520F007016FF0000C34
:1024100010F0070491F820F040F049804FF00004DC
:102420006FF00700D1E9002391F840F000F10800B7
:1024300082FA4CF2A4FA8CF283FA4CF3A2FA8CF3EF
:102440004BBBD1E9022382FA4CF200F10800A4FA56
:102450008CF283FA4CF3A2FA8CF3E3B9D1E90423AA
:1024600082FA4CF200F10800A4FA8CF283FA4CF3E1
:10247000A2FA8CF37BB9D1E9062301F1200182FA9B
:102480004CF200F10800A4FA8CF283FA4CF3A2FAA1
:102490008CF3002BC6D0002A04BF04301A4612BAAF
:1024A000B2FA82F2FDE8024500EBD2007047D1E9B2
:1024B000002304F00305C4F100004FEAC50514F041
:1024C000040F91F840F00CFA05F562EA05021CBF12
:1024D00063EA050362464FF00004A9E710B5054C16
:1024E000237833B9044B13B10448AFF300800123C0
:1024F000237010BD0000002000000000EC7500609B
:1025000008B5034B1BB103490348AFF3008008BD76
:102510000000000004000020EC75006072B61B484B
:102520001B4901600A6882F308881A4880471A49E3
:102530001A4A1B4B9B1A03DD043BC858D050FBDCE6
:102540009B1A03DD043BC858D050FBDC154B002020
:102550009A42BCBF42F8040BFAE7002103E0124B99
:102560005B58435004311148114B42189A42F6D33C
:102570001049114A00209142BCBF41F8040BFAE710
:1025800062B60E4880470E480047000008ED00E0A4
:1025900000200060D96100603476006000000020F7
:1025A00000000020000000203476006000000000E1
:1025B00010100000000000204C230020B1690060D2
:1025C0001D5C0060FFF7FEBF3248004732480047FD
:1025D00032480047324800473248004732480047F7
:1025E00032480047324800473248004732480047E7
:1025F00032480047324800473248004732480047D7
:1026000032480047324800473248004732480047C6
:1026100032480047324800473248004732480047B6
:1026200032480047324800473248004732480047A6
:102630003248004732480047324800473248004796
:102640003248004732480047324800473248004786
:102650003248004732480047324800473248004776
:102660003248004732480047324800473248004766
:102670003248004732480047324800473248004756
:102680003248004732480047324800473248004746
:1026900032480047C9250060915C0060D125006088
:1026A000D525006055340060C5250060C525006053
:1026B000C5250060C5250060C5250060C5250060F2
:1026C000C5250060C5250060C5250060C5250060E2
:1026D000C5250060C5250060C5250060C5250060D2
:1026E000C5250060C5250060C5250060D560006077
:1026F000F560006015610060356100605561006043
:102700007561006095610060B5610060C52500607D
:10271000C5250060C5250060C5250060C525006091
:10272000C5250060C5250060C5250060C525006081
:10273000C5250060C5250060C5250060C525006071
:10274000C5250060C5250060C5250060D50A0000CC
:10275000C5250060C5250060C5250060C525006051
:10276000844641EA000313F003036DD1403A41D39C
:1027700051F8043B40F8043B51F8043B40F8043B5B
:1027800051F8043B40F8043B51F8043B40F8043B4B
:1027900051F8043B40F8043B51F8043B40F8043B3B
:1027A00051F8043B40F8043B51F8043B40F8043B2B
:1027B00051F8043B40F8043B51F8043B40F8043B1B
:1027C00051F8043B40F8043B51F8043B40F8043B0B
:1027D00051F8043B40F8043B51F8043B40F8043BFB
:1027E00051F8043B40F8043B51F8043B40F8043BEB
:1027F000403ABDD2303211D351F8043B40F8043B8B
:1028000051F8043B40F8043B51F8043B40F8043BCA
:1028100051F8043B40F8043B103AEDD20C3205D39A
:1028200051F8043B40F8043B043AF9D2043208D092
:10283000D2071CBF11F8013B00F8013B01D30B8804
:1028400003806046704700BF082A13D38B078DD0E2
:1028500010F003038AD0C3F10403D21ADB071CBFB4
:1028600011F8013B00F8013B80D331F8023B20F81E
:10287000023B7BE7043AD9D3013A11F8013B00F857
:10288000013BF9D20B7803704B7843708B788370DF
:10289000604670470000000001A1D1E900017047C7
:1028A0004E9F1A00634E56298C461446194602461E
:1028B0006346044800B583B0009400F0F1F900BE0F
:1028C000FDE700BF2C6C00602DE9F04F00228FB0B7
:1028D000037800910392002B7ED00646904617465F
:1028E0001446B74D01920DE02A7C049322B1AB68E7
:1028F000012204A92846984708F1010801363378D7
:10290000002B6AD0252BEFD17378721C4FF0000991
:10291000A3F1300109290CD809EB8909164603EB0C
:10292000490912F8013FA3F13001A9F13009092941
:10293000F2D92E2B41D0642B53D0692B51D003F008
:10294000DF02462A00F04781582A00F04C81A3F1AB
:102950006201CAB2132A00F213819A48D040C0071C
:1029600040F14B81DDF800E04FF0010A954820FA74
:1029700002F2D20740F18E80702B00F093807246F5
:1029800052F8043B00920393132900F29880DFE889
:1029900011F01D0196009600960096009600960094
:1029A0009600960096009600960096007F0196008D
:1029B00096009600960096000901164612F8013F0F
:1029C000A3F130010929B6D8164612F8013FA3F148
:1029D00030010929F1D9AEE7984640460FB0BDE86D
:1029E000F08FDDF800E000225EF8041B8DF8142063
:1029F000002900F0D0800DF1150C05A8724A8A4616
:102A0000A2FB0142BAF1090F4FEAD20101EB8102A8
:102A1000AAEB420202F130020CF8012BACEB0004ED
:102A200004F1FF342746E9D803F0DF020444582AB2
:102A300040F0CF8000225EF8041BB3F1780A8DF8D5
:102A4000142018BF4FF0010A0391002900F0CF8035
:102A5000782B0DF1150C14BF4FF0410B4FF0610BAB
:102A6000ABF10A0B01F00F020909092A0BEB020472
:102A700098BF02F130040CF8014BACEB0004013CB0
:102A800027460029EED1A3F162010444CAB2132AF9
:102A90007FF66CAF4F45CDF800E03ADB002C55D106
:102AA00002362CE77446042204A903A854F8043B18
:102AB00004930094FFF754FE10230193039B00221C
:102AC0008DF81420002B74D0BAF1000F0DF115020F
:102AD00005A8DDF804E014BF4FF0410C4FF0610C85
:102AE000ACF10A0C9A46B3FBFEF30EFB13A10929C5
:102AF0000CEB010498BF01F13004D64502F8014BFC
:102B0000A2EB000404F1FF342746EBD9B945044495
:102B10001CDDBB464FF0200A2B7C0BF1010B012280
:102B200004A92846CDF810A00BB1AB689847CB4557
:102B3000F2DB08F1010309F1FF38A8EB07084F4564
:102B4000A8BF4FF000089844002CA9D02378002B90
:102B5000A6D004EB080904F1FF3A95F810C0A9EBE0
:102B60000A08012204A9284654460493BCF1000F28
:102B700001D0AB6898471AF80139002BEDD18FE7E7
:102B800004932B7C23B1AB68012204A92846984703
:102B900008F1010884E73022012405A827468DF8B2
:102BA000152041E70A22019200228DF81420002B03
:102BB0008AD13023012405A827468DF81530A5E7D2
:102BC0002800002001600800CDCCCCCC022201926C
:102BD00075E7CDF800E0A3F16201DDF800E04FF009
:102BE000010ACAB253E7DDF800E005A822E7302267
:102BF00001248DF81520274645E7632B10D1DDF819
:102C000000902B7C59F8042B049223B1AB6801226D
:102C100004A92846984708F10108CDF800903FE73D
:102C2000732BADD1009B53F804BB0093BBF1000F95
:102C30003FF436AF5846FFF7E3FB484507462CDA2A
:102C4000824620212B7C0AF1010A012204911BB14A
:102C5000AB6804A928469847D145F2D1C144A9EBF5
:102C600007099BF80030B3B1DA46CBF1010B297CA0
:102C70000122049319B1AB6804A9284698470BEBCD
:102C8000090303EB0A081AF8013F002BEFD107E70D
:102C90000822019213E7C84602E7C146E1E700BFF8
:102CA0000FB400B583B0084B04A91B7C51F8040B8A
:102CB000019133B1FFF708FE03B05DF804EB04B0F7
:102CC00070474FF0FF30F7E72800002070B504464A
:102CD000EFF3108572B68368026901339342836013
:102CE00001D9C36883601970D4E901239A4223880B
:102CF00010D0013300269BB2626923800AB12046BE
:102D0000904705B962B626B1A36913B1BDE870401A
:102D1000184770BD43B1013221698A42626001D90E
:102D2000E26862600126E7E701230026E4E700BFCE
:102D3000034630B4EFF3108472B64268018810780D
:102D400041B101321D69AA425A6001D9DA685A605C
:102D50000139198004B962B630BC704700887047E9
:102D6000013A0023C1600A4403804361026110B448
:102D70004C1EC0E901145DF8044B7047F0B50E1EFF
:102D800085B0054622DB01AC32460020124FA44636
:102D9000A7FB0213964606460130DB08BEF1090F79
:102DA00003EB8301A2EB41011A4601F13001C9B2E4
:102DB0000CF8011BECD8264401E016F8011D28464A
:102DC000FFF784FFB442F8D105B0F0BD2D21764263
:102DD000FFF77CFFD7E700BFCDCCCCCCF0B5082AFD
:102DE00085B01446064628BF082402AD019112B3EF
:102DF00000202946034604AA0230023102EB5303A5
:102E000013F80C2C02F00F02092A02F1300788BFD8
:102E100002F1370701F8027C13F80C3C9F2B4FEAB4
:102E2000131202F1300388BF02F1370301F8013CAD
:102E3000C3B29C42DFD8013C55FA84F42178304675
:102E4000FFF744FFA54204F1FF34F7D105B0F0BD10
:102E5000FDEEC07A2DE9F04117EE906A0446330486
:102E60002DED028BB0EE408A82B06ED4B2B26D46C8
:102E70004FF0000CDFF8E880AE46A8FB02131746BF
:102E800060460CF1010CDB08092F03EB8301A2EB78
:102E900041019AB201F13001C9B20EF8011BECD820
:102EA0002F1801E017F8011D2046FFF70FFFAF4272
:102EB000F8D19FED290A2E21284B204628EE008AC2
:102EC000BDEEC88A18EE102A03FB0626FFF7FEFEA9
:102ED000632E25DDB6B22F460020DFF884E0AEFB7E
:102EE0000623B44602460130DB08BCF1090F03EBB0
:102EF0008301A6EB41019EB201F13001C9B207F88E
:102F0000011BECD8AE1801E016F8011D2046FFF7B2
:102F1000DDFEB542F8D102B0BDEC028BBDE8F08118
:102F200030212046FFF7D2FE092ED3DC3021204687
:102F3000FFF7CCFE002ECDD13021204602B0BDECF3
:102F4000028BBDE8F041FFF7C1BE2D21FFF7BEFEA9
:102F5000724292B28BE700BF00007A4418FCFFFF78
:102F6000CDCCCCCC2DE9F04F0D46097885B0F1B130
:102F70002529064617464FF000081BD06C1C5C291B
:102F80003046254602D12378252B05D0FFF79EFE3B
:102F9000237863B1252B0DD014F8011B30465C2932
:102FA0002546F0D0FFF792FE2378002BF2D105B032
:102FB000BDE8F08F01ACDFF8A0926B78302B14D015
:102FC000002BF4D0633BDAB2152A16D8152B14D88F
:102FD000DFE803F0C6261515151326131330131357
:102FE000131313138A139C13134CEB7815F8028FE9
:102FF000A8F130085FFA88F8E2E72978BEE70737DA
:103000003046023527F00707B7EC020BB7EEC00BCE
:10301000FFF71EFF29780029C9D02529AED1CCE7BA
:1030200057F8041B3046FFF7A9FEA978023500299E
:10303000F3D1BCE7AB78643B142B00F2A980DFE846
:1030400013F0AD00A700A700A700A700AD00A700E0
:10305000A700A700A700A700A700A700A700A70038
:10306000A700A700E800A700A700B400B8F1040F6C
:1030700000F28280B8F1000F7ED157F8041B4FF0A8
:10308000030A01F00F02092A94BF303237328DF85B
:103090000420C1F30312092A94BF303237328DF86D
:1030A0000520C1F30322C1F30331092A94BF303252
:1030B000373209298DF8062094BF3031373101E0CD
:1030C00013F80C1C0AF1FF3A3046FFF7FFFD5FFAD8
:1030D0008AFA0AF11003BAF1FF0F6B44F0D1A97814
:1030E0000235002999D162E757F804AB9AF800102D
:1030F0000029F4D03046FFF7E9FD1AF8011F002936
:10310000F8D1A9780235002987D150E757F8043B58
:10311000A44600209BB2A9FB032A9E46024601302A
:103120004FEADA0ABEF1090F0AEB8A01A3EB41016B
:103130001FFA8AF301F13001C9B20CF8011BEAD879
:1031400004EB020A01E01AF8011D3046FFF7BEFD4C
:10315000A245F8D1A978023500297FF45EAF26E7B1
:1031600057F8041B30460235C9B2FFF7AFFD297886
:1031700000297FF452AF1AE757F8041B4246304645
:103180000235FFF72BFE297800297FF446AF0EE7C2
:10319000304657F8041BFFF7F1FDA0E7304657F81B
:1031A000041B0135FFF7EAFD99E757F8043B204679
:1031B00000210093C1F346020231023002F11003F4
:1031C0000DEB030212F8103C03F00F03092B03F17F
:1031D000300C88BF03F1370C00F802CC12F8103C19
:1031E0009F2B4FEA131202F1300388BF02F137031D
:1031F000082900F8013CDDD10DF10B0A9AF8001006
:103200003046FFF763FDA2450AF1FF3AF6D10135DA
:1032100065E7A446002057F8043BA9FB032A9E4615
:10322000024601304FEADA0ABEF1090F0AEB8A01C1
:10323000A3EB4101534601F13001C9B20CF8011B67
:10324000EBD804EB020A01E01AF8011D3046FFF743
:103250003DFDA245F8D1DAE7CDCCCCCCDAB101EB1B
:10326000020C10B40D4C11F8013BC0F3033282EA9A
:103270001312614554F8222082EA001083EA1033C9
:1032800003F00F0354F8233083EA0010EBD180B22F
:103290005DF8044B704780B2704700BF6C6C0060F3
:1032A00010B5044C237803B110BD00F033F80123AE
:1032B000237010BD2E23002000F07AB808B500F06E
:1032C00029F8002008BD00BF10B50446064804F1E7
:1032D000204104F0A1F9034620464FF480511C46DA
:1032E00002F04CFE204610BD00802A4038B504464E
:1032F0000B4672B6064804F1204104F091F90546E8
:1033000062B64FF48051204602F038FE284638BDA0
:1033100000802A40F8B5214C237803B1F8BD72B67D
:103320001F4804F071F91E4804F072F962B61D4F8F
:103330001D4E3D682B685A1C29D032681268013234
:1033400007D1002B27DB2B46184A1360012323707B
:10335000F8BD72B6124805F1204104F05DF962B67D
:103360004FF48071284602F009FE356872B60C48A9
:1033700005F1204104F050F962B64FF480712846FF
:1033800002F0FCFD3B681A68002ADDDA1D4633684E
:103390001A68002AD8DA054B1D60D7E72F230020D2
:1033A00000802A40440F0000480F00003C0000202D
:1033B0001A4A1B4B11681B68994203D0194B1B68B2
:1033C000994223D130B4184C2368002B1ADC01F544
:1033D000806CFF2301E0013B1BD35CF8042D551CDE
:1033E000F9D05D1C256001EB830103E05A1C10D06D
:1033F00051F8042DB0EB124F03F1FF33F6D190B228
:1034000030BC7047013B51F82320ECE74FF6FF70CA
:1034100070474FF6FF7030BC704700BF3C00002083
:10342000440F0000480F0000400F000010B44FF0A0
:10343000E023064C064AF0205C61002182F823005C
:10344000072299615DF8044B1A6170471FA10700BC
:1034500000ED00E000F0FABC13300123074A83407E
:10346000C2F88030BFF34F8FBFF36F8F102110442D
:10347000C2F8803180F800131360704700E100E06B
:1034800070B5414C8AB0461E05460DF1040C8E46BF
:10349000072E0FCCACE80F000FCCACE80F00236870
:1034A000CCF8003050D80AAB384A03EB850302EB66
:1034B000853C53F8243C1AB203F01F03B2F5E06FC9
:1034C0004FEA122159D2324A0A440321920099400C
:1034D00052E8003F0B4342E80034002CF8D1022DA3
:1034E00034D0EB1E052B3CD802222A490023CCF80D
:1034F0000820DCF80820B1FBFEF122F0020241F0C6
:103500007061CCF80820244ACCF80C30CCF8142098
:10351000CCF82830CCF81010CCF81830DCF8183083
:1035200043F40013CCF81830DCF81C30DCF8183009
:1035300043F44023CCF81830BFF35F8F28460AB01D
:10354000BDE87040FFF788BF0AB070BD134B08227A
:10355000C3F81C51C3F89022C3F82051C3F8942239
:10356000C2E70E4B02210822C3F8D410C3F8482248
:10357000C3F8D810C3F84C22B6E7094B4FF4A36147
:10358000084A0948FFF790F9746D00600000184080
:103590001AF00310404B4C0000001F4000801F40F9
:1035A000AC6C0060986D0060BC6C0060431E072B23
:1035B00006D8044B03EB8030836923F440238361F6
:1035C000704700BF00001840431E072B06D8044B6D
:1035D00003EB8030836943F480038361704700BF4D
:1035E00000001840431E072B06D8044B03EB803025
:1035F000836923F480038361704700BF0000184093
:10360000431E072B03D8024B03EB8030C161704788
:1036100000001840431E072B05D8044B03EB8030F5
:10362000C069C0B270470020704700BF000018405A
:10363000431E072B06D8044B03EB80304069C0F3D0
:10364000405070470020704700001840431E072B71
:1036500006D8044B03EB80304069C0F380507047BC
:103660000020704700001840431E072B06D8044B6B
:1036700003EB80308069C0F38050704700207047B2
:1036800000001840012008B500F030FE0120BDE820
:10369000084000F00BBE00BF022008B500F026FE77
:1036A0000220BDE8084000F001BE00BF2DE9F04156
:1036B0000746EFF3108572B6264C468923880133FE
:1036C0001FFA83FEB645A4F800E01FD2C2680EEBD5
:1036D0004E034FF0000802EB8303724605E01FFA29
:1036E0008CF24FF00108B24210D25968184602F12C
:1036F000010C0C330129F2D1B8F1000F00D0228067
:103700000223436005B962B6BDE8F081B645724652
:103710004FF0000C28BF3246A4F800C09AB1FB68F5
:10372000614604E0B9B24FF0010C8A420AD05E68EB
:1037300018464F1C0C33012EF4D1BCF1000FDFD022
:103740002180DDE7228015B962B62846DCE700203B
:10375000DAE700BF0810000030B4029C0025818227
:1037600002614381C46005810586C0E90055C0E956
:103770000655C0E90855C0E90A555BB1204603EB80
:103780004303012400EB8303C0E900240C300A4406
:103790009842F9D130BC704781617047C161704770
:1037A00010B50446FFF782FF78B1EFF3108272B6CE
:1037B000E36A5BB10223E362238E0133238602B9FD
:1037C00062B6236A20620068636210BDA36AC4E91E
:1037D0000A03F1E7026A0368C0E9083203B11B6813
:1037E00018467047036A13B11A6891421CD0426AA6
:1037F00010B412B11468A1421DD00469838A091B58
:10380000428991FBF3F18BB29A4218D91946C368E9
:1038100001EB410103EB81035B685DF8044B032B73
:103820008CBF18680020704743625B68032B8CBF15
:10383000186800207047C0E908231346ECE700230E
:103840005B68FFDEF8B51B4B06460F4615461C7835
:10385000A4B1194C23680133092B236027D803F145
:10386000010CD8B204EB0C1C04EB03140123CCF8BC
:103870000470E660CCF808502374F8BD01220E4CA9
:103880000E491A704FF0FF330D4A236023790D481B
:1038900023F003032371FFF7D5FF0B49A06002203B
:1038A00000F0E6FC23680133092B2360D7D9FF2001
:1038B000F8BD00BF30230020840000200400010375
:1038C0004D3B0060BC6D0060213A006070B5002285
:1038D0008AB0514B0FE0BDF8062012B23F2A12DC2D
:1038E000BDF8062012B29A5C202ABDF8062000F02E
:1038F0008880013212B2ADF80620BDF8062012B25F
:103900009A5C0A2AE7D1BDF806200024013212B2DF
:10391000ADF806201A44BDF8061002920AB29A5C6D
:103920000A2A3BD021460BE0BDF8062012B29A5C71
:103930000A2A16D0BDF8062012B29A5C0A2A2DD0A7
:10394000BDF8062012B23F2A28DCBDF8062001325D
:1039500012B2ADF80620BDF8062012B29A5C202AF9
:10396000E2D1BDF8062001340AA812B200EB8405AA
:103970009A5C0A2A49D0BDF80600BDF8062000B2BC
:103980000132195412B29818ADF80620BDF806207D
:1039900045F8200C12B29A5C0A2AD1D100231F4E9E
:1039A000ADF80630BDF8063032681BB2934226DC13
:1039B000194DBDF8063029461BB206EB0313D86833
:1039C00003F09EF878B9BDF8063002A920461BB274
:1039D00006EB03139B6933B1BDF806301BB206EB4F
:1039E00003139B699847BDF80630326801331BB258
:1039F000ADF80630BDF806301BB29342D9DD0AB0EF
:103A000070BD002112B299547DE7BDF80620002157
:103A100012B29954C2E700BF440000208400002085
:103A200038B5224B04461B79DB0713D4204D2B7885
:103A3000CBB1204A0A2820491368C85430D0082C3A
:103A40001ED07F2C1CD001333F2B136001DD0023DF
:103A50002B7038BD0146022000F0B8FB0A2C144D33
:103A600013D02B783BB9242CF3D10121114B002228
:103A700029701A6038BD0F4A0F491368CC54DEE72D
:103A8000002BE4D0013B136038BD2146022000F03A
:103A90009DFB2B78002BDCD0064B074A1B68D454C7
:103AA000FFF714FF00232B7038BD00BF84000020F7
:103AB0003123002040000020440000200FB400B556
:103AC00083B0022004AA52F8041B019200F0B6FB56
:103AD00003B05DF804EB04B0704700BF0EB4184BA0
:103AE0001A68904210B583B006DC03EB0014227C08
:103AF00012B11B799B0704D503B0BDE8104003B099
:103B0000704700F0CBF9E3680246B3B10D490220DB
:103B100000F076FB06AA05990220019200F08EFBC8
:103B20000D21022000F052FB0A21022000F04EFB82
:103B300003B0BDE8104003B07047034BE6E700BF99
:103B400084000020C06D0060AC6D006000B970475B
:103B50002DE9F0410F6882B005460E4638466849A7
:103B600002F0CEFF48BB8DF807009DF80730092B07
:103B700020D8644C644D9DF80730284604EB0313AD
:103B8000DB686BB19DF807109DF807209DF80730A2
:103B900004EB021204EB0313D2685B69FFF78EFF9C
:103BA0009DF807300133DBB28DF807309DF8073000
:103BB000092BE0D902B0BDE8F0815449384602F043
:103BC0009FFF50B35249384602F09AFF002835D182
:103BD0004C4C012D237960F34103237127DD4D49BE
:103BE000706802F08DFF10BB21688DF807009DF80A
:103BF00007308B420FDC01209DF807209DF807302D
:103C000004EB021201331074DBB28DF807309DF81B
:103C100007308B42F0DD40490AE03A4C3F49207AB8
:103C2000FFF75CFF237943F002032371C2E73C49AD
:103C3000207A02B0BDE8F041FFF750BF394938465D
:103C400002F05EFF80B9012D06DD3749706802F091
:103C500057FF034600283FD02A4B34491A79187A77
:103C600042F001021A71E4E70023264C8DF8073078
:103C7000D4F800809DF8073043450ADD2AE09DF81E
:103C800007300133DBB28DF807309DF8073043452C
:103C900020DC9DF80730384604EB0313D96802F0A6
:103CA0002FFF0028EBD1012D1EDD76681749304625
:103CB00002F026FF0546C8B11549304602F020FF44
:103CC00040B99DF807300122207A04EB031414490F
:103CD0002274AEE71649ABE70A4A16491479107AFE
:103CE00063F300041471A4E71349A1E7207A0B4998
:103CF000FFF7F4FE9DF8073004EB0314257459E731
:103D0000C86D006084000020D06D0060E86D006028
:103D1000F86D0060086E0060006E0060F06D00607D
:103D20000C6E0060146E00601C6E00602C6E0060F3
:103D3000406E0060206E0060346E006080688B68AA
:103D400098422CBF00200120704700BF0B68181A52
:103D5000B0FA80F04009704738B500F09FF804468B
:103D60000B48FFF737FD70B10346094D9A681946B5
:103D70002846A242A2EB040288BF9A60FFF732FDF8
:103D800003460028F2D1BDE8384000F0B9B800BFC2
:103D900034010020164B30B51D7883B00DB103B04F
:103DA00030BD01221A7000F063F812481423124A41
:103DB000102100901148FFF7CFFC11490F48FFF781
:103DC000EBFC10490D48FFF7E9FC0F4B0B481D6059
:103DD000FFF7E6FC04460028E1D00C4B036000F03E
:103DE0005DF80B4B65601844C4E9020303B030BDB5
:103DF00032230020A80200206801002034010020A6
:103E00003D3D00604D3D006030010020593D0060A7
:103E1000FF6780CC2DE9F04180460B480D461746E0
:103E20001E46FFF7BDFC60B1C0F80080044600F0FC
:103E300035F800233844E660C4E901501846BDE86F
:103E4000F0814FF0FF33F9E734010020054B1B7878
:103E50001BB1054A136801331360044A1368013328
:103E6000136070470A1000009C030020A00300208C
:103E700010B5074C237803B110BD06484FF0FF3151
:103E8000054A03601160FFF7D1FA0123237010BDCA
:103E9000332300209C03002098030020014B186866
:103EA000704700BF9C030020064A1368834202D378
:103EB0001368181A7047044B1B68126813440133C7
:103EC000181A70479C030020980300200A4A30B457
:103ED00011680A4D04E013685B1A98420AD300BFC8
:103EE00013689942F7D92B681468234401335B1A8D
:103EF0009842F4D230BC70479C0300209803002005
:103F0000034B00220349186808601A60704700BF1D
:103F10009C03002098030020014B1868704700BFE5
:103F2000A00300202DE9F041574D84B02B78002BE1
:103F30004AD000260196019A022A45D8534C0127FF
:103F400006E0019B01330193019B022B3CD82B78A7
:103F5000019A1341DA07F4D5019B03EB830354F86C
:103F60002300FEF7FBFE0390039B142B40F283809B
:103F700014230393039B5A1E0392002BE1D0019B51
:103F800003EB830354F82300FEF7D2FE0296019B55
:103F90008046029A03EB830304EB83039B685B88F0
:103FA0009342E7D9019B4046029A03EB830304EB5B
:103FB00083039B685B6853F822309847029B013368
:103FC0000293019B029AE5E7314D2B78002B4FD0ED
:103FD00000260196019B022B4AD82C4F0124039600
:103FE000039B032B2BD8019B039A03EB830307EB63
:103FF00083031B7B1341DB071BD5019B03EB83036F
:1040000007EB83031B6943B1019B039803EB830315
:10401000C0B207EB83031B6998470399019B04FA1D
:1040200001F103EB830307EB83031A7B22EA01020E
:104030001A73039B01330393039B032BD3D9EFF331
:10404000108272B6019B03EB830307EB83031B7B98
:1040500033B901992B7804FA01F123EA01032B709B
:1040600002B962B6019B01330193019B022BB6D9C1
:1040700004B0BDE8F081019A2B7807FA02F223EA36
:1040800002032B7076E700BF36230020440800208F
:104090003423002038B50E4D00EB8003044605EBB9
:1040A00083050AE06868FEF759FE80B16868FEF78C
:1040B0003FFE01462046FFF7A3FA2046FFF7C6FA67
:1040C0000028EFD12046BDE83840FFF77DBA38BD63
:1040D0004408002070B52C4D04462E78002E4AD09E
:1040E00001230026294A012C2B70294B16701E70C3
:1040F00021D0022C1ED1274D20464FF4E131264C11
:10410000FFF7BEF94FF4807224492846FEF728FED7
:104110004FF4807222492046FEF722FE214A0423F2
:104120001360214B5360214BC3E90A541A639E6309
:1041300083F8346070BD1E4D20464FF4E1311D4CB4
:10414000FFF79EF94FF480721B492846FEF708FEE0
:104150004FF4807219492046FEF702FE184A0423E4
:104160001360184B5360114BC3E90554DA615E626A
:1041700083F8206070BDFFF70DFE01233146124821
:104180001A46FFF747FEABE7352300203623002011
:1041900034230020F0030020280600200C05002016
:1041A00044070020AC030020C40300204408002082
:1041B000D40300200C0600200C040020440600203C
:1041C000A4030020B4030020253F0060022800D98A
:1041D000704700EB8002094B03EB820310B50446E5
:1041E0005868FEF773FD2046FFF73EFA20B92046D7
:1041F000BDE81040FFF74EBF10BD00BF44080020CF
:104200000EB410B583B004460B4B00EB800005AA3A
:1042100003EB800352F8041B58680192FEF7A2FEDC
:104220002046FFF721FA10B92046FFF733FF03B00D
:10423000BDE8104003B0704744080020022800D9B0
:10424000704710B5094B044600EB800003EB800378
:104250005868FEF787FE2046FFF706FA20B9204689
:10426000BDE81040FFF716BF10BD00BF4408002096
:10427000022813D80C4B00EB800003EB800083680E
:104280005A88188890420CD0501C10B45C68588032
:10429000002044F822105DF8044B70474FF0FF30C7
:1042A00070476FF0010070474408002038B50E4D8C
:1042B00000EB8003044605EB83050AE06868FEF71F
:1042C0004DFD60B16868FEF733FD01462046FFF7FB
:1042D00097F92046FFF7BAF90028EFD138BD2046FC
:1042E000BDE83840FFF77EB9440800202DE9F041D1
:1042F00001270F4B00EB80080E4D8740044603EB6F
:1043000088087FB20AE0D8F80060FFF783F9014619
:104310003046FEF7DBFC2B783B432B702046FFF743
:1043200087F903462046002BEDD1BDE8F08100BFA0
:10433000440800203623002008B505494368054A93
:104340000B601360026882F308889847FEE700BF9D
:104350008008002084080020014B00221A7070475A
:1043600037230020013810B507283DD8DFE800F0DA
:10437000310C0404040C041B1D4C2068FFF794FD51
:10438000B0F5967F07D810BD194C2068FFF78CFD5B
:10439000B0F57A7FF7D9174A137801331370FFF716
:1043A0007DFD206010BD124C2068FFF77DFDB0F54B
:1043B000967FE8D90F4A137801331370FFF76EFD2B
:1043C000034601202360FFF7F1F8BDE8104000F03C
:1043D000F3BB084A01200849137803441370FFF720
:1043E0000FFF0648FFF7A8FF024B01221A7010BD0D
:1043F0008808002037230020546E006000301060D1
:10440000F8B5194CFFF734FD01200026FFF762FED6
:10441000164F01F0D5FB00F07FFF01F073F820701C
:10442000FFF73CFD2278054611490120FFF7E8FE21
:1044300007E0FFF797FF00F06DFB01F097F8FFF73B
:1044400071FD20780028F4D12846FFF72DFDB0F546
:10445000FA7FF0D90120324639460644FFF7D0FEF4
:10446000FFF71CFD0546E6E7372300208C6E006051
:10447000706E006099B1FF2200EB010C30B4114660
:10448000084D094C10F8013B53406045EA5C82EA54
:104490000102E15CF6D142EA012030BC70474FF6E0
:1044A000FF707047986E0060986F006038B50B8899
:1044B000052B02D00323184638BDB0F803200C4664
:1044C00040F2CE7152BA92B2531E9BB28B42F1D8D7
:1044D00001230025B0F801102580037023880133E3
:1044E0002380530713D1C2F3C705457049BA238807
:1044F00002300131013389B22380002300F09AFC9D
:10450000034640B9228818461544258038BDD50891
:104510000135EDB2E9E7BDE8384000F0BDB900BFB4
:104520000B88052B02D003231846704710B5047979
:1045300082B0E4B9C278531EDBB2FD2B17D9A2F1C9
:10454000FF01B0F8010001238DF80540B1FA81F1B7
:1045500040BA1A4649098DF80410C11801A889B259
:1045600000F068FC034630B9184602B010BD0323C2
:10457000184602B010BD00F08FF90346F4E700BF03
:104580000B88052B18D910B5B0F803300C4690F8FD
:1045900005C05BBA9AB25B070AD1C2F3C703511ECA
:1045A000B1F5F66F01D2634509D00323184610BD5B
:1045B000D3080133DBB2F2E7032318467047B0F8A3
:1045C00001100123063049BA194489B200F032FCC7
:1045D000034610B905222280E8E7BDE8104000F04C
:1045E0005BB900BF38B50B88052B02D003231846F2
:1045F00038BDB0F803200C4640F2CE7152BA92B2E8
:10460000531E9BB28B42F1D802230025B0F8011053
:1046100025800370238801332380530712D1C2F30E
:10462000C705457049BA238802300131013389B288
:10463000238000F001FC034640B922881846154447
:10464000258038BDD5080135EDB2EAE7BDE8384030
:1046500000F022B908B50B88052B02D003231846B9
:1046600008BDB0F801100123033049BA1A461944B5
:1046700089B200F059FB03460028F0D0BDE808409D
:1046800000F00AB90B88052B10D9B0F8032052BAF4
:1046900092B2531E772B09D8530010B5DBB20C46EB
:1046A0004179994205D00323184610BD03231846CB
:1046B0007047B0F801100123063049BA194489B295
:1046C00000F032FB034610B905222280ECE7BDE87A
:1046D000104000F0E1B800BF38B50B88052B02D0C0
:1046E0000323184638BD03795A1E9DB27C2AF7D899
:1046F0000C464FEA430C03220023B0F801100230AD
:10470000238000F8022C49BA22880131013289B293
:10471000228000F801CC2288013222802A4600F053
:1047200003FB034628B92288184602EB4502228083
:1047300038BDBDE8384000F0AFB800BFF8B50B8811
:10474000092B14D9B0F80360044676BAB6B2731ECA
:104750007C2B0AD8B0F8072052BA92B2531E782B9D
:1047600003D8437AB3EB420F03D00320F8BD0020F7
:10477000F8BD0D46B0F80510B0F80170012349BA34
:104780000A30013189B200F0CFFA18B1BDE8F84023
:1047900000F082B817227FBA2880034622700137C2
:1047A0002A88A01CB9B2013277002A80324667708D
:1047B0002C8801342C8000F0B7FA0028E6D12B8831
:1047C0001F442F80F8BD00BF38B50B88052B02D0E1
:1047D0000323184638BDB0F8032052BA92B2531ED4
:1047E0007B2BF5D80C4600250423B0F8011025805A
:1047F0005500037049BA238802300131013389B270
:10480000238000F8015C23880133238000F05CFAE8
:10481000034620B9228818461544258038BDBDE8D6
:10482000384000F039B800BF1D2B70B51C461BD8AE
:10483000B1F1000C0D4D13460D4E18BF4FF0010C99
:1048400002222870CCF1000C328085F801C00CB92E
:10485000204670BD19462246A81CFDF781FF33880B
:1048600000202344338070BD042070BD8C080020DC
:104870001623002038B5064D0C46013005492A881C
:10488000FDF76EFF2B8800200133238038BD00BF69
:10489000162300208C080020072802D8024B185C41
:1048A00070470420704700BF987000608C46114626
:1048B0001A4638B50CF1FF3E9DF810305FFA8EFEB7
:1048C000BEF1F60F03D8184C84F800C010B10224D2
:1048D000204638BD154C6046154D2560154C164DCB
:1048E0002560164C164D2560164C174D2560174C4B
:1048F000174D2560174C184D2560184C184D256034
:10490000184C194D256000F097FE04460028DFD1B1
:1049100000F0D2FF28B115490122154B0C701A7016
:10492000D6E70324D4E700BF3B230020B8080020CB
:1049300085560060BC080020A5560060B008002025
:104940002D570060AC080020BD560060B408002060
:1049500045590060C008002091570060C40800203D
:1049600039580060C80800203D58006039230020F5
:104970000B10000008B5064B1B78012B01D0062058
:1049800008BD044B18680028FAD08047002008BDF5
:104990000B100000B408002010B5064C2378012B42
:1049A00001D0062010BD044B1B6898470023184611
:1049B000237010BD0B100000B808002038B5084D5A
:1049C0002C7834B9074B1B689847012320462B707D
:1049D00038BD012C0CBF00240624204638BD00BF82
:1049E0000B100000BC0800203F4B2DE9F0411C7863
:1049F00082B0002C3FD10DF1070000F071FF0128BB
:104A000003D0204602B0BDE8F0819DF80730012BAD
:104A100036D0022BF5D1354E2346DFF8F480D6F898
:104A200000C0334F9CF80010324D88F800103870E9
:104A300015F8332022B191423ED00133102BF7D12B
:104A40002D4D2B78002BDCD02C4F61F07F01012302
:104A50003B808CF800103B883268591C3980D05458
:104A6000274B1B78012B35D0264B3A8831682878A4
:104A70001B689847C5E70624204602B0BDE8F081D0
:104A80001D4D214B1D4A284618491B689847002890
:104A9000B7D11E4A2B7812789A4208D03BB1012B2D
:104AA000AFD1FFF701FA43F697239842A9D8022025
:104AB000002400F009FFA4E705EBC3030E4D604698
:104AC0000E495B6898472B783870002B99D028B92D
:104AD0000A4FC5E7022000F07DFFC5E798F80010F7
:104AE000D6F800C0B0E700BF0B100000CC080020D3
:104AF000382300204C0F00003C2300201823002006
:104B000039230020B0080020AC0800203B230020FF
:104B10003A23002010B5244C82B02378032B3ED8D2
:104B2000DFE803F024150B0200F032FEFFF75CFF14
:104B300002B0BDE8104000F04FBFFFF72DFF38B3C3
:104B40000023237002B0BDE8104000F045BF0323EE
:104B5000164A01213420FFF767FE0028F0D1022316
:104B6000237002B0BDE8104000F036BF0020104BAB
:104B7000104901221B6800900978FFF797FE002872
:104B8000D6D10123237002B0BDE8104000F024BF4D
:104B90000323237002B0BDE8104000F01DBFFFF7F3
:104BA0000DFFFFF7E7FECBE73D230020A07000607C
:104BB000CC0F00000C10000008B5FFF7FFFEFFF758
:104BC000D9FE024B00221A7008BD00BF3D23002011
:104BD000B0F5165F0BD0B0F5964F08D0B0F5614F29
:104BE00018BFB0F5164F02D0B0F5E13F01D1014B2F
:104BF00018607047CC0F0000431EF62B0AD870B522
:104C0000094D04462B78834203D0084E337813B9FC
:104C10002C7070BD7047FFF7D1FEFFF7ABFE00238D
:104C20002C703370F5E700BF0C1000003D2300200E
:104C3000014B1878704700BF0C1000000B4A138816
:104C40000F2B12D810B447F22F54A04202D9084CAF
:104C50000444A0B2074C24F8330004EBC30401332E
:104C6000616013805DF8044B704770471C2300207F
:104C7000D08AFFFFD00C002070B5114DBDF8104058
:104C8000B5F800C0BCF13F0F19D849F63F46B04215
:104C900003D946F2C0360644B0B2013C4FEA0C16C6
:104CA00000EB040E074CA05304EB0C100CF1010CAC
:104CB000C360A0F802E0A5F800C0C0E9011270BD11
:104CC0001A230020D0080020154B30B41D881DB3D6
:104CD0000023144C02E00133AB421DD034F833C042
:104CE0008C45F8D104EBC303596892B1541E051DDD
:104CF0008A1C831CA1B205EB410012F8011C02338F
:104D0000023203F8041C834212F8041C03F8031C4B
:104D1000F3D1002030BC7047012030BC704700BF89
:104D20001C230020D00C00202DE9F04F804685B0D8
:104D30001F46DFF8FC90DFF8F4A01546B9F80040F4
:104D40005CB13A4B00221888884202D85E888E42B5
:104D500007D2013210339442F5D1012005B0BDE8ED
:104D6000F08F731C8C465B1A9D423ADDC1F1010342
:104D700033449BB2EE1A1D46B3B200931301081AD6
:104D80000AEB021B0193DBF8043003EB40065FB330
:104D9000012F47D1EDB16B0008F1020406EB450588
:104DA0000397029314F8023C0CF101071FFA8CF1EF
:104DB0000234737014F8033C3370DBF8083013B11D
:104DC00030469847BC460236AE42EBD1DDE90237A9
:104DD0009844009D45B3019B53445888013081B2EB
:104DE000ACE700230093C9E7DBF80C3003B1984728
:104DF000002DEED06B1E08F10401B01C9BB201EB3C
:104E0000430108F1020310F8012C0233023003F8C9
:104E1000042C10F8042C03F8032C8B42F3D108EB7C
:104E20004508D6E7022099E7009897E7D0080020C8
:104E30001A2300200120704701207047BFF34F8FD5
:104E40000549064BCA6802F4E0621343CB60BFF326
:104E50004F8F00BFFDE700BF00ED00E00400FA0542
:104E6000024A034B12881A80704700BF0028006076
:104E7000681D0020028808B54FF6DE239A4200D054
:104E800008BDFFF7DBFF00BF0C4B0B4403F03F02F4
:104E90003F2A03D141F65832914200D87047084961
:104EA00001229B110748B1F80AC002FA03F3026815
:104EB000022043EA0C034B8110807047A8E4FFFFF7
:104EC000781D0020B81D0020064A0023012011682B
:104ED000054A10B4054C0880236053815DF8044BEB
:104EE000FFF73ABAB81D0020781D0020500D0020B1
:104EF00008B5FFF79DFE014B988008BD8C1D002072
:104F000000B583B008220C496846FDF729FC0B4B1D
:104F1000BDF80610BDF80420BDF802C0BDF80000C1
:104F2000198100215A81064AA3F80CC0D88111705A
:104F300003B05DF804FB00BF20000020A41D00208A
:104F40004123002010B50F4C82B00422002063885A
:104F50000DEB0201ADF804302388ADF80630FEF702
:104F60007DF94FF40062211DFEF778F9064B1A789F
:104F700012B1002201301A70044B00221881DA802D
:104F800002B010BD540D00203E230020781D0020EB
:104F9000B1F5EE6F23D040F27473994200D07047A0
:104FA000134B1B78002BFAD0124B082210B5B3F824
:104FB00008C082B004461048ADF806C06946B3F890
:104FC0000AC0ADF804C0B3F80CC0DB89ADF802C06C
:104FD000ADF8003001F010FD28B102B010BD044B57
:104FE00001221A7070472088FFF706FEF5E700BF20
:104FF00041230020A41D002020000020F0B53B4CE0
:1050000083B023681B88072B03D041F27B7399423E
:1050100001D003B0F0BD364DFFF794FF6A88EB88EE
:105020009A4204D0236804221A8003B0F0BDAA88F3
:105030002B899A42F6D16A894FF6FF739A4202D0C1
:1050400000236B81E5E72B4F01202B493B887E88AD
:1050500006EB03463246FFF7D3F8284B284A334481
:10506000934203D3236806221A80E9E7254E40F6CF
:10507000040239463046FDF773FB234B328801208A
:1050800071881B68214E03F58053307001EB024696
:105090009E4201D31E4B1870ADF804100821ADF8E4
:1050A000062000271B4A1C4B11801C4A19681780D8
:1050B000019A8A4216D01A600422194E0DEB0201A1
:1050C0003068FEF7CBF84FF400621649FEF7C6F8D9
:1050D000154B1A780AB101301F70144B0022306052
:1050E0001881DA80236807221A80A9E7B81D0020FA
:1050F000781D0020540D0020A47000600000F09F77
:105100000024300058150020981D00204323002063
:105110004023002020230020D00F00002223002065
:10512000500D00205C1500203F2300205C1D002056
:1051300000B9704770B50E6882B004460D4630461F
:10514000224901F0DDFC98B12149304601F0D8FC3C
:10515000002839D01F49304601F0D2FC88B11E49E1
:10516000304601F0CDFC30BB1C4B01221A7006E02A
:10517000012C0BDD1A49686801F0C2FC70B102B065
:1051800070BD184B01221A7002B070BD164B174942
:10519000187802B0BDE87040FEF7A0BC144B198827
:1051A000019100F01FFD01990246124802B0BDE8CE
:1051B0007040FEF783BC0C4B32460F49187802B0A2
:1051C000BDE87040FEF78ABCFFF738FEC070006093
:1051D000247100602C710060407100603F2300204A
:1051E000C47000603E23002042230020087100604C
:1051F00000280060CC7000605871006041F2867336
:10520000994200D070471A4B5988DA88914204D0ED
:10521000184B06221B681A8070479A881B899A428D
:10522000F6D11549154B10B5154C1A78013311F804
:10523000010B82420AD1A342F7D1FEF72FFE0D4B9C
:10524000104905221B6808601A8010BD72B60A4A10
:1052500008210A48FEF74AF862B60028EDD0282453
:105260007D20FEF733FE631E13F0FF04F8D1E4E760
:105270005C1D0020B81D0020D40F00000004106049
:1052800008041060941D002038B504460A46012029
:105290001949FEF7B5FF4BF207022388934204D069
:1052A0004BF27802934200D038BD72B6134C4FF4E3
:1052B0008051134D2046FEF707F82C6062B638B1D6
:1052C00028247D20FEF702FE631E13F0FF04F8D1B0
:1052D0000C4B00242A6801200B491C60FEF790FF4C
:1052E000FFF73AF8094A0A4801210A4B126804609C
:1052F00011805C8138BD00BF6C71006000001060DF
:10530000981D0020941D00208C710060B81D0020A5
:10531000500D0020781D002070B582B000F064FCB4
:10532000002840F09F8040F202440023564A4BF28E
:1053300096700094062455490125FFF79DFC0094C2
:105340000924534B534A4BF2B93053490526FFF712
:1053500093FC00940324514B514A4AF2AC3051491A
:10536000FFF78AFC504B002250494AF22800009473
:10537000FFF782FC08204E4B00224E4900904BF272
:10538000B030FFF779FC00234B4A4BF2B8304B4961
:105390000095FFF771FC0023494A4BF2C43049499C
:1053A0000096FFF769FC484C0023484A48494BF2F5
:1053B000CE300095FFF760FC0023464A4BF2CF3019
:1053C00045490095FFF758FC214647F23150FFF759
:1053D00035FCA11C47F23250FFF730FC211D47F28B
:1053E0003350FFF72BFC00F003FC002843D066800D
:1053F00000F0E8FB8388A380FDF74EFA374BC3E942
:105400000001FDF74DFF0120FDF756FFC0B2FFF789
:10541000F3FB0620FDF750FF04460720FDF74CFF85
:1054200044EA00402E4CFFF7D3FB224A00232D49CB
:1054300002F10E002360012408602B482B49D4811F
:1054400003700B70FDF73AFF38B128247D20FEF77A
:105450003DFD631E13F0FF04F8D1254B00221A60B6
:1054600002B070BD234B244A19882448FEF7EAF99C
:10547000234B187057E700F0B9FB10B1022363808B
:10548000B6E76580B4E700BF894E0060540D002088
:10549000454F0060FD4F0060781D0020014F006007
:1054A000914F0060A41D0020F14E00608C1D002073
:1054B000614E0060681D0020895200601E2300209C
:1054C000FD5100605C1D00209C1D0020754E006099
:1054D00024230020C94E0060262300202000002045
:1054E000500D0020B81D0020432300204023002041
:1054F000941D00200028006031510060AC710060F4
:1055000042230020154B70B5D3F8F85F032D1CD053
:105510000326134C042D0BD01249134B1A78013378
:1055200011F801CB624503D1A342F7D1012070BD30
:105530000120FEF7CBFC013EECD1084B0A20C3F85A
:10554000F86FFEF7C3FC304670BD04220120C3F89B
:10555000F82FFEF7BBFCFFF771FC00BF00F0002046
:1055600008041060D40F00000004106070B5284DCE
:105570002B7853B9274B186800B970BDFEF794FC1F
:10558000B0F5FA7FF9D9FFF759FC234B234A198864
:105590005C8804EB01441178A9B10023137072B642
:1055A0004FF480512046FDF78FFE1D4B1C6062B604
:1055B0000028DFD028247D20FEF788FC631E13F02E
:1055C000FF04F8D1D6E7174E3288120272B60433C0
:1055D000A0184FF480711A44FDF788FE62B638B106
:1055E00028247D20FEF772FC631E13F0FF04F8D11F
:1055F00033880D4A013312889BB29A423380B9D85E
:105600000A4B002103221B6829701A80B2E700BFF1
:1056100043230020941D0020581500204023002023
:10562000981D00202223002020230020B81D0020E8
:10563000032000F049B900BF10B5144600F062F92C
:10564000204600F00DFA0C4A204613680A33136016
:1056500000F006FA0948B0FBF4F080B200F07AF9E5
:1056600003460748012B0CBF0024032400F0F2F985
:1056700000F05EF9204610BD9C03002060AE0A00D9
:105680003156006008B500F03DF9044B00221A7055
:1056900000F084F9BDE8084000F04AB94423002036
:1056A00000F08CBA08B500F02DF900F087FA00F090
:1056B00087F9BDE8084000F03BB900BF2DE9F04193
:1056C000DFF8648082B00C460646154600F01AF9F1
:1056D000B8F80010FF2918D8032907D80520019031
:1056E00000F026F9019802B0BDE8F0810A4F384673
:1056F000FEF7C0FE0028F1D1B8F80020D31E17F83D
:10570000012B32702B802760E9E7044BA321044A68
:105710000448FDF7C9F800BFBC1D0020B47100604B
:1057200094720060D871006028230020F8B50D46FF
:10573000154C1646074600F0E5F828460123134DA0
:10574000238000F8017D238816FA83F39BB223801F
:10575000218889B2FEF78EFE2288C6B2C0F30723E5
:1057600092B22846511C89B22180AE54228892B24E
:10577000511C89B22180AB54218889B200F0B8F95C
:1057800000F0D6F80020F8BD2C230020BC1D00201E
:10579000224B30B51B7883B0002B39D1204C214BE4
:1057A00020882188204D13FA80F089B2C1F58071DC
:1057B00000F0C4F92B78032B04D8DFE803F00215BE
:1057C0000602B0B9002003B030BD23889BB2FF2B86
:1057D00014D80028F6D0019000F0E0F82388019852
:1057E00010FA83F080B200E058B92080002003B0A6
:1057F00030BD00F0D3F8002003B030BD03232B7080
:10580000E0E780B2208000F0C9F802232B70D9E7CE
:10581000064BEB21064A0748FDF746F845230020D2
:105820002A230020BC1D002044230020E8710060D2
:1058300080720060D87100600020704738B5184C45
:105840002378022B14D0D8B203280AD0B8B1237819
:1058500003F0FF0533B12378022B02D02378032B0A
:1058600016D1002500F0ACF801232846237038BD7E
:105870000C4B00250C4A012019881D80118000F076
:1058800023F8054600F09CF801232846237038BD14
:10589000064B4FF4A371064A0648FDF705F800BF12
:1058A000442300202A2300202823002004720060C3
:1058B00068720060D8710060024B002201201A70EB
:1058C000704700BF47230020024603490120034BD5
:1058D00008701A70704700BF47230020462300203D
:1058E000064A13783BB106494FF0000C01230978B2
:1058F00082F800C001701846704700BF472300209F
:1059000046230020084A0123D268C2F302229340B2
:105910000F2BD4BF10235B0083F31188034A136855
:1059200001331360704700BF00ED00E0BC1E002093
:10593000034A1368013B13600BB983F31188704766
:10594000BC1E002008B5FFF7ABFEBDE8084000F024
:105950001BB800BF084B00220849A3FB000301202D
:1059600010B41B09064C0A6022600344054A5DF826
:10597000044B1360704700BFCDCCCCCCC41E0020BC
:10598000C01E0020DC0F000000230249024A0B6009
:1059900013607047C01E0020C41E002010B5FEF723
:1059A000BBFA044B044A01241B68044918440C60E8
:1059B000106010BDDC0F0000C01E0020C41E0020BF
:1059C00000230249024A0B6013607047C01E00208A
:1059D000C41E0020FEF77ABA10B5094C236803B93B
:1059E00010BDFEF799FA074B1A689042F8D90022C9
:1059F0000549226009681A60BDE81040084700BFE9
:105A0000C41E0020C01E0020C8080020104AB2F8A2
:105A100002144B1C50549BB2B3F5806F06D2B2F8FF
:105A20000014A2F802348B420BD070470021B2F868
:105A30000034A2F80214002BF7D10123A2F800349D
:105A4000704701339BB2B3F5806FF7D10023F5E7C0
:105A5000D01E0020014B1860704700BFCC1E0020F4
:105A6000F8B51C4C02201C4D2378286033B1012B63
:105A700001D0002323704FF0FF30F8BD174A0527EF
:105A80000826C2F80034164A1360164B164AC2F8AC
:105A9000E070C2F85462596841F400715960C2F86C
:105AA000D870C2F84C625A6842F080025A604FF4D3
:105AB0000072C3F884208022C3F88820FEF70AFB16
:105AC0000A492878FEF7D4FB01234FF0FF302370FA
:105AD000F8BD00BF48230020C81E0020D01E0020B3
:105AE000CC1E002000801B4000801F400D5A00602B
:105AF00070B580220D460D4B04460D490120C3F8B8
:105B000084202A46FEF77CFB55B12544094E013C12
:105B1000013D14F8011F3078FEF758FBAC42F8D174
:105B2000054B1B689847002070BD00BF00801B40DC
:105B3000A4720060C81E0020CC1E002030B51E4C90
:105B4000B4F802C4B4F80024944533D0034628D9ED
:105B5000ACEB020E1FFA8EF0814201D288B249B33B
:105B600000F1FF3E591E002513FA8EFE0FE0B3F53B
:105B7000806FA25C34BFA4F80034A4F8005401F88C
:105B8000012F71450CD0B4F802C4B4F80024531CA2
:105B900094459BB2EBD1002201F8012F7145F2D15F
:105BA00030BD0CF5806EAEEB020E1FFA8EF00028B1
:105BB000D2D130BD002030BDD01E00200020704763
:105BC000002070470548064A8388026023F47F63FB
:105BD00023F00F0343F0790383807047D422002021
:105BE00079900D000020704700207047002070471A
:105BF00000207047084A4FF400431360BFF35F8FE3
:105C000013681B04FCD44BF2CF7140F24173516016
:105C100011680B431360704700001F4000B583B04C
:105C2000052400F04BF8174B17490822C3F8D04061
:105C30000020C3F844224B6843F020034B608DF8EA
:105C400003009DF80330032B17D8104A202401903D
:105C5000019B934205D8019B01330193019B934221
:105C6000F9D9C1F88C409DF803300133DBB28DF8CF
:105C700003309DF80330032BE9D9FFF7BBFFFEF794
:105C8000BFFBFEE700801F4000801B407FF0FA0250
:105C900004207146084202D0EFF3098001E0EFF3DF
:105CA000088081690A884BF6AB639A4200D0FEE710
:105CB0000231816120210160704700BF30B50022B0
:105CC00085B0994B00925969984C8D030DD5BFF35F
:105CD0004F8FBFF36F8F596921F400315961C3F8B9
:105CE0005022BFF34F8FBFF36F8F8F494B69D8039B
:105CF00037D50023C1F88430BFF34F8F4B6923F4AD
:105D000080334B61BFF34F8F02A803AA01ABC1F8E8
:105D10007002C1F87022C1F87032BFF34F8FBFF329
:105D20006F8FD1F8803043F6E07EC3F34E3CC3F36F
:105D3000C90501934FEA4C1C0CEA0E002B4640EAC1
:105D40008372013BC1F874225A1CF8D1ACF1200CCB
:105D50001CF1200FF0D1CDE90233BFF34F8FBFF319
:105D60006F8FBFF35F8F704B5A6A22F480325A6292
:105D7000D3F8942022F00102C3F89420BFF34F8F90
:105D8000BFF36F8F10206A496A4AC3F89C006A48C3
:105D9000C3F8A0006948C3F89C006948C3F8A01084
:105DA000C3F89C000130C3F8A0101421C3F89C0074
:105DB0006448C3F8A000C3F89C1015216248C3F8DA
:105DC000A000C3F89C106149C3F8A0206048C3F844
:105DD0009C10C3F8A0200232C3F89C005D49C3F8B0
:105DE000A0201032C3F89C10C3F8A020009B24FA16
:105DF00003F3012B07D9009B01330093009B24FA86
:105E000003F3012BF7D8009BFBB1534BB3FBF4F228
:105E100004FB1232002A40F08180009901228A405E
:105E2000A2426FD1009A042A72D923F01F033E497F
:105E30004A4A43F01903C1F89C30009B013B5B00C8
:105E400003F03E031A43C1F8A0203749444A454BAA
:105E5000C1F89C20C1F8A030BFF35F8F0523C1F8C3
:105E600094304B6A43F480334B62BFF34F8FBFF3E0
:105E70006F8F4B6913F4803326D1C1F88430BFF3A0
:105E80004F8FD1F8804043F6E07EC4F34E3CC4F31C
:105E9000C9044FEA4C1C0CEA0E00234640EA837208
:105EA000013BC1F860225A1CF8D1ACF1200C1CF166
:105EB000200FF0D1BFF34F8F4B6943F480334B6118
:105EC000BFF34F8FBFF36F8F174A536913F400333B
:105ED00011D1BFF34F8FBFF36F8FC2F85032BFF3B2
:105EE0004F8FBFF36F8F536943F400335361BFF398
:105EF0004F8FBFF36F8F00F059FD05B0BDE8304004
:105F000000F002BD184B7621184A1948FCF7CCFC6A
:105F1000184B7721154A1648FCF7C6FC164B75211D
:105F2000124A1348FCF7C0FC00ED00E0000000003E
:105F3000390010031F0003033F0000101100008010
:105F4000120000602D0003063B0010031600002025
:105F50001700202018000080000020200100080306
:105F60001A0000402B001003DC7200600073006018
:105F7000D0720060F8720060B8720060002910DD15
:105F800000F01F020A44BFF34F8F06490244C1F8D4
:105F90005C022030131A002BF9DCBFF34F8FBFF3E4
:105FA0006F8F704700ED00E008B5B0B90E4A4FF0B2
:105FB0008043C2F85831D2F87032D903FBD54FF480
:105FC00080330949C2F85431D1F850311B04FBD554
:105FD0004FF48033C1F8583108BD044BBF21044A47
:105FE0000448FCF761FC00BF00800D40FC730060BA
:105FF000187400600C740060044B102210B9C3F8D0
:1060000074227047C3F87822704700BF00800D40AB
:10601000034AD2F8703243F00103C2F8703270477D
:1060200000800D40024B4FF480521A67704700BF4A
:1060300000800D4010B4184C0379D4F8E0209B0385
:10604000C17822F4E0329BB201F0030113430278DD
:1060500043F48033C4F8E0300AB141F4005183784E
:106060000BB141F4001143780BB141F480010A4AAD
:106070000A4BD2F8E00003400B43C2F8E030D2F8FC
:10608000E030002BFBDAD2F8E0305DF8044B23F46B
:106090008033C2F8E030704700800D40FCEFFFFF16
:1060A00010B4C0000A4CBF2301F03F01D4F8002116
:1060B0008340814022EA0302802303FA00F0114367
:1060C0001043C4F80001C4F800115DF8044B704798
:1060D00000800D40044A0548516808B5044B1B6810
:1060E0009847BFF34F8F08BDEC22002000401840B6
:1060F00010230020044A0548916808B5044B1B682A
:106100009847BFF34F8F08BDEC2200200080184055
:1061100010230020044A0548D16808B5044B1B68C9
:106120009847BFF34F8F08BDEC22002000C01840F5
:1061300010230020044A0548116908B5044B1B6868
:106140009847BFF34F8F08BDEC2200200000194094
:1061500010230020044A0548516908B5044B1B6808
:106160009847BFF34F8F08BDEC2200200040194034
:1061700010230020044A0548916908B5044B1B68A8
:106180009847BFF34F8F08BDEC22002000801940D4
:1061900010230020044A0548D16908B5044B1B6848
:1061A0009847BFF34F8F08BDEC22002000C0194074
:1061B00010230020044A0548116A08B5044B1B68E7
:1061C0009847BFF34F8F08BDEC22002000001A4013
:1061D00010230020704700BF10B51D4C4FF0E02287
:1061E0001C48D4F888301C4943F47003C4F8883044
:1061F000038923F001031B041B0C03810B8923F08B
:1062000001031B041B0C0B811369D90703D5136908
:1062100023F0010313610E4B5A69920315D45A6996
:1062200012F4003211D1BFF34F8FBFF36F8FC3F859
:106230005022BFF34F8FBFF36F8F5A6942F4003281
:106240005A61BFF34F8FBFF36F8FFFF7C3FF10BDCE
:1062500000ED00E000800B4000000D40C14B4FF40A
:106260000040C14AC14910B510600020D3F8C022D7
:10627000BF4C42F48032C3F8C022D3F8C02222F4CB
:106280000032C3F8C0220C60FFF78EFEFFF7C0FE9D
:106290000120FFF7B1FEB74B1A6822F0FF0242F06F
:1062A0007F021A609A6922F4405242F480529A6145
:1062B0005A6942F000725A619A6C9206FCD4AE4A56
:1062C000D36823F01F0343F01203D3601368002B3D
:1062D000FCDAA84A536923F4E0535361936C9C079A
:1062E000FCD4A44A02F16C0353E8003F23F440338A
:1062F00002F16C0040E800310029F3D19D4A02F11F
:106300006C0353E8003F23F4407302F16C0040E853
:1063100000310029F3D1974A02F1700353E8003F9E
:1063200023F4400302F1700040E800310029F3D16A
:10633000904A02F1700353E8003F23F0407302F1EA
:10634000700040E800310029F3D15369894943F4D2
:1063500040735361136923F0070313618B6CD803F7
:10636000FCD44B69834A23F060534B6102F16C0308
:1063700053E8003F43F4401302F16C0040E8003161
:106380000029F3D17B4A02F16C0353E8003F43F448
:10639000400302F16C0040E800310029F3D1754A56
:1063A00002F1680353E8003F43F0407302F16800D4
:1063B00040E800310029F3D16E4A02F1680353E846
:1063C000003F43F0406302F1680040E800310029DB
:1063D000F3D1684A02F16C0353E8003F23F44053C1
:1063E00002F16C0040E800310029F3D1D369614922
:1063F00023F03F0343F00103D36101F1800353E82D
:10640000003F23F00C0301F1800040E80032002A35
:10641000F3D14B6A574A23F4605343F480534B62E1
:10642000CB6923F48033CB6102F1800353E8003F52
:1064300023F0300302F1800040E800310029F3D15D
:10644000536A4C4923F4E02343F400335362D36985
:1064500023F40033D36101F16C0353E8003F23F0D0
:10646000030301F16C0040E80032002AF3D1414AF5
:1064700002F16C0353E8003F23F00C0302F16C00BF
:1064800040E800310029F3D13A4A02F16C0353E8A5
:10649000003F23F0300302F16C0040E80031002996
:1064A000F3D1344A02F16C0353E8003F23F0C003F8
:1064B00002F16C0040E800310029F3D193692D49C5
:1064C00023F0E05343F080539361936923F030034A
:1064D00043F02003936101F1680353E8003F23F484
:1064E000400301F1680040E80032002AF3D14B6A12
:1064F000204A43F0C0634B628B6923F440438B61B5
:1065000002F17C0353E8003F23F4402302F17C00B6
:1065100040E800310029F3D1936A164923F4E0736F
:1065200043F0C0039362936A23F03F0343F00103F7
:106530009362D36923F44063D36101F17C0353E890
:10654000003F23F4401301F17C0040E80032002AB0
:10655000F3D1CB6A074A23F4E07343F0C003CB6264
:106560000CE000BF00800D40DC220020E022002073
:1065700000366E0100C00F4000000840CB6A23F0D7
:106580003F0343F00103CB62CB6923F44053CB615B
:1065900002F17C0353E8003F23F4400302F17C0046
:1065A00040E800310029F3D1936AC14923F0E07338
:1065B00043F440039362936A23F47C1343F48033DF
:1065C0009362D36923F44043D36101F1700353E82C
:1065D000003F23F0C00301F1700040E80032002AC0
:1065E000F3D1B34A02F1700353E8003F23F4407340
:1065F00002F1700040E800310029F3D1AC4A02F109
:10660000700353E8003F23F4406302F1700040E858
:1066100000310029F3D1936BA54923F0FC739363F8
:10662000936B23F48023936301F1680353E8003FE5
:1066300023F4404301F1680040E80032002AF3D11E
:106640009B4A02F1680353E8003F23F4402302F120
:10665000680040E800310029F3D1954A02F168034F
:1066600053E8003F23F4403302F1680040E8003172
:106670000029F3D18E4A02F1680353E8003F23F466
:10668000401302F1680040E800310029F3D1136A99
:10669000874923F0FC0343F004031362136A23F4D5
:1066A000407343F40073136201F17C0353E8003F2D
:1066B00043F0407301F17C0040E80032002AF3D13E
:1066C0007B4A02F1680353E8003F23F0405302F194
:1066D000680040E800310029F3D1754A02F16803EF
:1066E00053E8003F23F4405302F1680040E80031D2
:1066F0000029F3D16E4A02F16C0353E8003F23F006
:10670000407302F16C0040E800310029F3D1684A7F
:1067100002F1740353E8003F23F00C0302F174000C
:1067200040E800310029F3D1614A02F1740353E8D3
:10673000003F23F0C00302F1740040E8003100295B
:10674000F3D15B4A02F17C0353E8003F23F040633E
:1067500002F17C0040E800310029F3D1544901F1F5
:10676000800353E8003F23F4404301F1800040E8F8
:106770000032002AF3D14B6A4D4A23F03F034B62AB
:106780004B6A23F040034B6202F17C0353E8003F65
:1067900023F4404302F17C0040E800310029F3D1AA
:1067A000136B434C23F0606343F000731363136B6C
:1067B00043F0E0731363136B43F44013136304F16A
:1067C0007C0353E8003F23F00C0304F17C0141E813
:1067D0000032002AF3D1A36A23F4606343F4007308
:1067E000A362A36A43F06063A362236A43F4C01305
:1067F0002362E36823F00103E360FFF713FC2D4BF2
:106800004FF480322C485A67D3F8702122F40042AA
:10681000C3F87021D3F8702122F40002C3F870216C
:106820001A6F42F400521A67FFF704FCA269204B6A
:1068300042F44022A261626922F0007262619A6CA5
:106840009206FCD499691D4A21F440511C4C1D4804
:106850009961D96921F04001D961196E21F0700167
:106860001966196E21F00F0141F001011966196EC8
:1068700021F460011966196E21F4F81141F44031D8
:106880001966196E21F480711966196E21F0800164
:106890001966196E21F08071196653680A4923F050
:1068A00007035360536823F0380353600EE000BFC2
:1068B00000C00F4000800D40DC74006000C00A4042
:1068C000FFFF00FB001000000065CD1D536823F0A2
:1068D000C0035360536823F440735360536823F438
:1068E0004063536093681C409460536823F4003302
:1068F0005360536923F080535361536923F000536D
:106900005361016010BD00BFFFF7A8BC254930B43A
:1069100001F1780353E8003F43F00C0301F17800E4
:1069200040E80032002AF3D11F4B02240525112034
:1069300041F2F101C3F8D050C3F8D440C3F8D840B5
:1069400047F2A004C3F8444241F2B004C3F84842FD
:10695000C3F84C42C3F86C01C3F87001C3F8742348
:10696000C3F87401C3F87823C3F87801C3F8682327
:10697000C3F87C01C3F87023C3F88001C3F86C230B
:10698000C3F88401C3F8E012C3F8E412C3F8E812B4
:10699000C3F8EC12C3F8F012C3F8F412C3F8F812FB
:1069A00030BC704700C00F4000801F40FFF7AEBFF3
:1069B00070B50D4E0D4D761BB61006D0002455F85F
:1069C000043B01349847A642F9D1094E094D761B84
:1069D00000F00CFEB61006D0002455F8043B01343C
:1069E0009847A642F9D170BD2876006028760060ED
:1069F0003076006028760060032A70B515D940EA29
:106A0000010C1CF0030F04460B4621D11946204609
:106A10000E680568B54204F1040403F1040317D1BC
:106A2000043A032A20461946F0D8541EA2B100F1B8
:106A3000FF3C013901E0C3180CD01CF801EF11F83C
:106A4000012F9645A4EB0C03F5D0AEEB020070BD10
:106A5000541EECE7184670BD104670BD830730B574
:106A600048D0541E002A3FD0CAB2034601E0013C80
:106A70003AD303F8012B9D07F9D1032C2DD9CDB2C0
:106A800045EA05250F2C45EA054536D9A4F1100243
:106A900022F00F0C03F1200EE6444FEA121C03F122
:106AA000100242E9045542E9025510327245F8D10C
:106AB0000CF1010214F00C0F03EB021204F00F0CA6
:106AC00013D0ACF1040323F003030433134442F85E
:106AD000045B9342FBD10CF003042CB1CAB21C44FA
:106AE00003F8012B9C42FBD130BD64461346002CB9
:106AF000F4D1F9E703461446BFE71A46A446E0E797
:106B000010B5114C86461EF801CB14F80C3003F07A
:106B10000303012B11F8013B624608BF0CF1200270
:106B200014F803C00CF0030CBCF1010F184604D09C
:106B3000D21A06D1002BE6D110BD2033D01AE2D0F4
:106B400010BD104610BD00BFE9740060024B13B1C8
:106B5000024800F005B87047000000006D6B00604F
:106B6000002301461A46184600F01AB838B5084BFB
:106B7000084D5B1B9C1007D0043B1D44013C55F89D
:106B800004399847002CF9D1BDE8384000F034BDF5
:106B90003476006030760060704700BF704700BFF9
:106BA0002DE9F047DFF880A00646DAF800009846A5
:106BB0000F469146FFF7F0FF1A4B1B68D3F8484188
:106BC00024B365681F2D26DC5EB96B1C0235DAF82C
:106BD0000000636044F82570FFF7E0FF0020BDE887
:106BE000F08704EB85010123C1F88890D4F888214F
:106BF000AB401A43022EC4F88821C1F80881E4D1C1
:106C0000D4F88C211343C4F88C31DEE703F5A67465
:106C1000C3F84841D5E7DAF80000FFF7BFFF4FF0AF
:106C2000FF30DCE7E474006004100000415353457A
:106C30005254204552524F52202220257320223A8E
:106C40002066696C652022257322204C696E6520C0
:106C5000222564222066756E6374696F6E206E61F2
:106C60006D652022257322200A000000000000002C
:106C7000211000004220000063300000844000002A
:106C8000A5500000C6600000E77000000881000009
:106C9000299100004AA100006BB100008CC10000E6
:106CA000ADD10000CEE10000EFF10000696E646537
:106CB00078203C3D2036554C000000002F686F6D59
:106CC000652F61736D69722F4465736B746F702FDC
:106CD00044726F70626F782F4D43552F6E78702F0E
:106CE0005254313032312F70726F6A656374732F72
:106CF000616C656E636F6E2D73797374656D732F40
:106D0000656D6265646465642D736F667477617226
:106D1000652F6578616D706C65732F4D494D5852C4
:106D200054317878782F4D494D58525431303231A2
:106D30002F6D63757870726573736F2F727334384B
:106D4000352D6669726D776172652D757067726138
:106D500064652F626F6F746C6F616465722F64720B
:106D600069766572732F66736C5F636C6F636B2EED
:106D70006800000000000000180500001C00000072
:106D80000C000000180100000203000006030000D0
:106D90001A0500000E060000434C4F434B5F436F43
:106DA0006E74726F6C47617465000000756E696E79
:106DB000697469616C697A65640000005359530015
:106DC000256C5F25733A20006C6973740000000025
:106DD00025643A2025730976657273696F6E3A20CF
:106DE000253038780D0A00006D75746500000000CC
:106DF0006D75746564000000756E6D7574650000D6
:106E0000756E6D7574656420616C6C00756E6D7562
:106E1000746564006563686F000000006F6666005B
:106E20006563686F206F6666000000006563686FC9
:106E3000206F6E00746F2066657720617267730043
:106E4000636D64206E6F7420737570706F727465FB
:106E5000640000006A756D70696E6720746F204D64
:106E600061696E204170702E2E2E0D0A0000000008
:106E7000626F6F746C6F61646572207265616479B2
:106E80002025642E2E2E0A0D00000000434E543A99
:106E90002025640A0D00000000C1814001C080412E
:106EA00001C0804100C1814001C0804100C18140DA
:106EB00000C1814001C0804101C0804100C18140CA
:106EC00000C1814001C0804100C1814001C08041BA
:106ED00001C0804100C1814001C0804100C18140AA
:106EE00000C1814001C0804100C1814001C080419A
:106EF00001C0804100C1814000C1814001C080418A
:106F000001C0804100C1814001C0804100C1814079
:106F100000C1814001C0804101C0804100C1814069
:106F200000C1814001C0804100C1814001C0804159
:106F300001C0804100C1814000C1814001C0804149
:106F400001C0804100C1814001C0804100C1814039
:106F500000C1814001C0804100C1814001C0804129
:106F600001C0804100C1814001C0804100C1814019
:106F700000C1814001C0804101C0804100C1814009
:106F800000C1814001C0804100C1814001C08041F9
:106F900001C0804100C1814000C0C101C30302C2E1
:106FA000C60607C705C5C404CC0C0DCD0FCFCE0E49
:106FB0000ACACB0BC90908C8D81819D91BDBDA1AB9
:106FC0001EDEDF1FDD1D1CDC14D4D515D71716D629
:106FD000D21213D311D1D010F03031F133F3F23299
:106FE00036F6F737F53534F43CFCFD3DFF3F3EFE09
:106FF000FA3A3BFB39F9F83828E8E929EB2B2AEA79
:10700000EE2E2FEF2DEDEC2CE42425E527E7E626E8
:1070100022E2E323E12120E0A06061A163A3A26258
:1070200066A6A767A56564A46CACAD6DAF6F6EAEC8
:10703000AA6A6BAB69A9A86878B8B979BB7B7ABA38
:10704000BE7E7FBF7DBDBC7CB47475B577B7B676A8
:1070500072B2B373B17170B0509091519353529218
:1070600096565797559594549C5C5D9D5F9F9E5E88
:107070005A9A9B5B99595898884849894B8B8A4AF8
:107080004E8E8F4F8D4D4C8C448485458747468668
:1070900082424383418180400002040404040406C8
:1070A00001000000777269746520626C6F636B2069
:1070B000617420414444523A2025640A0D000000C6
:1070C0006765740076657273696F6E007B226D6F01
:1070D0006465223A22626F6F746C6F61646572221C
:1070E0002C2022626F6F746C6F61646572223A2289
:1070F0002578222C202268617264776172655F694D
:1071000064223A25647D0A00546F6F2066657720FB
:10711000617267756D656E747320666F7220676546
:10712000740000007265736574000000636F727212
:107130007570745F626C6F636B5F637263000000F5
:10714000636F72727570745F6669726D7761726574
:107150005F63726300000000556E6B6E6F776E2088
:10716000636F6D6D616E64202573000053746172EE
:10717000744669726D776172655570646174653AC1
:1071800020414444523A2025640D0A006C61737416
:107190005F65726173655F616464726573733A20E1
:1071A000414444523A2025640D0A000044434443BC
:1071B0000000000072785F6D73675F6C656E6774C6
:1071C00068203C204D425F5345525F5044555F5309
:1071D000495A455F4D415800444344435F6D6272D4
:1071E00074752E630000000065536E6453746174FF
:1071F00065203D3D2053544154455F54585F4944F8
:107200004C450000282065526376537461746520F4
:107210003D3D2053544154455F52585F494E4954B7
:107220002029207C7C202820655263765374617469
:1072300065203D3D2053544154455F52585F5243B1
:10724000562029207C7C2028206552637653746167
:107250007465203D3D2053544154455F52585F456D
:1072600052524F5220290000784D425254555469D1
:107270006D6572543335457870697265640000003D
:10728000784D425254555265636569766546534D53
:1072900000000000654D42525455526563656976A1
:1072A0006500000052533438352054782073697AD1
:1072B000653A2025640D0A0021286E6F6E436163D4
:1072C0006865537461727420252073697A6529009A
:1072D00073797374656D636C6B2E630073697A6583
:1072E000203D3D202875696E7433325F7429283142
:1072F000203C3C206929000069203E3D20350000EB
:10730000696E697453595354454D0000EB04180AD3
:10731000063204260000000000000000810404245E
:107320000000000000000000000000000604000053
:10733000000000000000000000000000D704180852
:1073400000000000000000000000000032041808E7
:10735000042200000000000000000000C70400003C
:1073600000000000000000000000000002041808F7
:1073700004200000000000000000000003041808C2
:107380000424000000000000000000009F0404240A
:1073900000000000000000000000000001040420C4
:1073A00000000000000000000000000035040000A4
:1073B000000000000000000000000000F5060000D2
:1073C000000000000000000000000000050404248C
:1073D0000000000000000000000000000B0418087E
:1073E000083004240000000000000000000000003D
:1073F0000000000000000000000000002162797021
:107400006173735874616C4F7363000066736C5FD3
:10741000636C6F636B2E6300434C4F434B5F496E4D
:10742000697445787465726E616C436C6B00000022
:1074300073726320213D204E554C4C0066736C5F87
:10744000666C65787370692E63000000696E7374F2
:10745000616E6365203C2041525241595F53495A45
:107460004528735F666C65787370694261736573F4
:107470002900000066616C7365000000696E646538
:1074800078203C2036345500464C45585350495FCF
:107490005570646174654C5554000000464C455865
:1074A0005350495F4D656D7365740000464C4558F7
:1074B0005350495F436865636B416E64436C65611B
:1074C000724572726F720000464C45585350495FC6
:1074D000476574496E7374616E6365000001000155
:1074E00000000000180B0000002020202020202099
:1074F0002020282828282820202020202020202064
:107500002020202020202020208810101010101073
:1075100010101010101010101004040404040404BF
:107520000404041010101010101041414141414159
:10753000010101010101010101010101010101013B
:10754000010101011010101010104242424242424B
:10755000020202020202020202020202020202020B
:1075600002020202101010102000000000000000B3
:10757000000000000000000000000000000000000B
:1075800000000000000000000000000000000000FB
:1075900000000000000000000000000000000000EB
:1075A00000000000000000000000000000000000DB
:1075B00000000000000000000000000000000000CB
:1075C00000000000000000000000000000000000BB
:1075D00000000000000000000000000000000000AB
:1075E000000000000000000000000000F8B500BF2F
:1075F000F8BC08BC9E467047F8B500BFF8BC08BC94
:107600009E467047000000005FF800F0FD02000099
:107610005FF800F0590100005FF800F0E50100009C
:087620005FF800F069020000B0
:087628004D6B006001250060BC
:04763000DD240060F5
:107634002B494B6930B5DC0385B039D50023C1F83B
:107644008430BFF34F8F4B6923F480334B61BFF316
:107654004F8F02AC03AA01ABC1F87042C1F870228B
:10766400C1F87032BFF34F8FBFF36F8FD1F8803002
:1076740043F6E074C3F34E3EC3F3C90501934FEAE6
:107684004E1E0EEA040C2B464CEA8372013BC1F8F1
:1076940074225A1CF8D1AEF1200E1EF1200FF0D145
:1076A400CDE90233BFF34F8FBFF36F8F0123037014
:1076B4000B4B5A69920310D5BFF34F8FBFF36F8FF3
:1076C4005A69002122F400325A61C3F85012BFF300
:1076D4004F8FBFF36F8F0123437005B030BD00BFE0
:1076E40000ED00E010B582B0ADF804009DF8043060
:1076F4005BB32448436913F4803326D1C0F8843043
:10770400BFF34F8FD0F8803043F6E074C3F34E3CA0
:10771400C3F3C90E4FEA4C1C0CEA0401734641EA58
:107724008372013BC0F860225A1CF8D1ACF1200CE2
:107734001CF1200FF0D1BFF34F8F436943F4803322
:107744004361BFF34F8FBFF36F8F9DF80530B3B123
:107754000C4A536913F4003311D1BFF34F8FBFF3B5
:107764006F8FC2F85032BFF34F8FBFF36F8F5369DF
:1077740043F400335361BFF34F8FBFF36F8F02B0F5
:1077840010BD00BF00ED00E070B58CB0402305468D
:1077940001A80293FFF74CFF00224FF0817308A960
:1077A4002846CDE9082300F031FC044610B12046F8
:1077B4000CB070BD154A02AB012604A9CDE9040240
:1077C4002846CDE9063600F021FC04460028EED117
:1077D4000F4B0890099303AB0B960A9302E0039BAB
:1077E400DA0706D508A9284600F010FC044600284C
:1077F400F5D02B6843F001032B602B68DB07FCD426
:107804000198FFF76FFF20460CB070BD000309011B
:1078140000020C0170B58AB005460E466846FFF7B3
:1078240007FF4FF0817302A92846CDE9026300F0F7
:10783400EDFB044610B120460AB070BD144B02A9FA
:107844002846CDE9026300F0E1FB04460028F2D1AA
:10785400104901AA0123CDE90601CDE9082302E07C
:10786400019BDA0706D506A9284600F0CFFB04469B
:107874000028F5D02B6843F001032B602B68DB074D
:10788400FCD40098FFF72EFF20460AB070BD00BF5D
:107894000000030100020C012DE9F0418AB0054605
