:0200000460108A
:080000000000000000000000F8
:10100000464346420004015600000000010303006D
:1010100000000000000000000000000000000000D0
:1010200000000000000000000000000000000000C0
:1010300000000000000000000000000000000000B0
:101040001000000001040700000000000000000084
:101050000000800000000000000000000000000010
:101060000000000000000000000000000000000080
:101070000000000000000000000000000000000070
:10108000EB04180A063204260000000000000000ED
:10109000050404240000000000000000000000001F
:1010A0000000000000000000000000000000000040
:1010B0000604000000000000000000000000000026
:1010C0000000000000000000000000000000000020
:1010D00020041808000000000000000000000000CC
:1010E0000000000000000000000000000000000000
:1010F00000000000000000000000000000000000F0
:10110000D8041808000000000000000000000000E3
:101110000204180804200000000000000000000085
:1011200000000000000000000000000000000000BF
:10113000600400000000000000000000000000004B
:10114000000000000000000000000000000000009F
:10115000000000000000000000000000000000008F
:10116000000000000000000000000000000000007F
:10117000000000000000000000000000000000006F
:10118000000000000000000000000000000000005F
:10119000000000000000000000000000000000004F
:1011A000000000000000000000000000000000003F
:1011B000000000000000000000000000000000002F
:1011C000000100000010000001000000000000000D
:1011D000000001000000000000000000000000000E
:1011E00000000000000000000000000000000000FF
:1011F00000000000000000000000000000000000EF
:10200000D1002041003010600000000000000000FE
:102010002020106000201060000000000000000080
:10202000000000600000800000000000FFFFFFFFD4
:103000000000012029451060D5451060495B106023
:10301000D1451060D1451060D1451060000000001E
:10302000000000000000000000000000DD4510600E
:10303000D145106000000000E14510607D52106035
:10304000E9451060ED451060F1451060F5451060F0
:10305000F9451060FD45106001461060054610609E
:10306000094610600D46106011461060154610604C
:10307000194610601D4610602146106025461060FC
:1030800029461060D1451060D1451060D1451060CF
:10309000915410603146106035461060394610601A
:1030A0003D4610604146106045461060494610603C
:1030B0004D461060514610605546106059461060EC
:1030C0005D4610606146106065461060694610609C
:1030D0006D46106071461060D1451060D14510609A
:1030E000D1451060D1451060D1451060D1451060C8
:1030F000D1451060D1451060D1451060D1451060B8
:10310000D1451060D1451060D1451060D1451060A7
:10311000D1451060D1451060D1451060D145106097
:1031200075461060794610607D46106081461060DB
:1031300085461060D1451060D1451060D1451060C2
:10314000D1451060D1451060D1451060D145106067
:10315000D1451060D1451060D1451060D145106057
:10316000D1451060D1451060D1451060D145106047
:10317000D1451060D1451060D1451060D145106037
:10318000D1451060D1451060D1451060D145106027
:10319000D1451060D1451060D1451060D145106017
:1031A000D1451060D145106089461060D14510604E
:1031B000D1451060D1451060D1451060D1451060F7
:1031C000D1451060D1451060D1451060D1451060E7
:1031D000D1451060D1451060D1451060D1451060D7
:1031E000D1451060D1451060D1451060D1451060C7
:1031F0008D461060D1451060914610609546106074
:10320000D1451060D1451060994610609D46106010
:10321000D1451060D1451060D1451060D145106096
:10322000D1451060D1451060D1451060D145106086
:10323000D1451060D1451060D1451060D145106076
:10324000D1451060D1451060D1451060D145106066
:10325000D1451060D1451060D1451060D145106056
:10326000D1451060D1451060D1451060D145106046
:10327000D1451060D1451060D1451060D145106036
:10328000D1451060D1451060D1451060D145106026
:10329000D1451060D1451060D1451060D145106016
:1032A000D1451060D1451060D1451060D145106006
:1032B000D1451060D1451060D1451060D1451060F6
:1032C000D1451060D1451060D1451060D1451060E6
:1032D000D1451060D1451060D1451060D1451060D6
:1032E000D1451060D1451060D1451060D1451060C6
:1032F000D1451060D1451060D1451060D1451060B6
:10330000D1451060D1451060D1451060D1451060A5
:10331000D1451060D1451060D1451060D145106095
:10332000D1451060D1451060D1451060D145106085
:10333000D1451060D1451060D1451060D145106075
:10334000D1451060D1451060D1451060D145106065
:10335000D1451060D1451060D1451060D145106055
:10336000D1451060D1451060D1451060D145106045
:10337000D1451060D1451060D1451060D145106035
:10338000D1451060D1451060D1451060D145106025
:10339000D1451060D1451060D1451060D145106015
:1033A000D1451060D1451060D1451060D145106005
:1033B000D1451060D1451060D1451060D1451060F5
:1033C000D1451060D1451060D1451060D1451060E5
:1033D000D1451060D1451060D1451060D1451060D5
:1033E000D1451060D1451060D1451060D1451060C5
:1033F000D1451060D1451060D1451060FFFFFFFF3F
:1044000090F800F06DE9024520F007016FF0000C14
:1044100010F0070491F820F040F049804FF00004BC
:104420006FF00700D1E9002391F840F000F1080097
:1044300082FA4CF2A4FA8CF283FA4CF3A2FA8CF3CF
:104440004BBBD1E9022382FA4CF200F10800A4FA36
:104450008CF283FA4CF3A2FA8CF3E3B9D1E904238A
:1044600082FA4CF200F10800A4FA8CF283FA4CF3C1
:10447000A2FA8CF37BB9D1E9062301F1200182FA7B
:104480004CF200F10800A4FA8CF283FA4CF3A2FA81
:104490008CF3002BC6D0002A04BF04301A4612BA8F
:1044A000B2FA82F2FDE8024500EBD2007047D1E992
:1044B000002304F00305C4F100004FEAC50514F021
:1044C000040F91F840F00CFA05F562EA05021CBFF2
:1044D00063EA050362464FF00004A9E710B5054CF6
:1044E000237833B9044B13B10448AFF300800123A0
:1044F000237010BD00000020000000007C5F1060F1
:1045000008B5034B1BB103490348AFF3008008BD56
:1045100000000000040000207C5F1060000000002C
:1045200050040000A05F106072B61B481B49016078
:104530000A6882F308881A4880471A491A4A1B4BAE
:104540009B1A03DD043BC858D050FBDC9B1A03DDEB
:10455000043BC858D050FBDC154B00209A42BCBF2E
:1045600042F8040BFAE7002103E0124B5B5843507A
:1045700004311148114B42189A42F6D31049114A9E
:1045800000209142BCBF41F8040BFAE762B60E4826
:1045900080470E480047000008ED00E00030106042
:1045A000795C1060A05F1060000000200000002017
:1045B00000000020A05F1060000000005004000018
:1045C0000000002070040020FD5C1060F55A1060AF
:1045D000FFF7FEBF324800473248004732480047E5
:1045E00032480047324800473248004732480047C7
:1045F00032480047324800473248004732480047B7
:1046000032480047324800473248004732480047A6
:104610003248004732480047324800473248004796
:104620003248004732480047324800473248004786
:104630003248004732480047324800473248004776
:104640003248004732480047324800473248004766
:104650003248004732480047324800473248004756
:104660003248004732480047324800473248004746
:104670003248004732480047324800473248004736
:104680003248004732480047324800473248004726
:104690003248004732480047324800473248004716
:1046A000D5451060495B1060DD451060E145106044
:1046B0007D521060D1451060D1451060D145106029
:1046C000D1451060D1451060D1451060D1451060D2
:1046D000D1451060D1451060D1451060D1451060C2
:1046E000D1451060D1451060D1451060D1451060B2
:1046F000D1451060D1451060755B1060955B10600E
:10470000B55B1060D55B1060F55B1060155C1060E8
:10471000355C1060555C1060D1451060D14510606B
:10472000D1451060D1451060D1451060D145106071
:10473000D1451060D1451060D1451060D145106061
:10474000D1451060D1451060D1451060D145106051
:10475000D1451060D145106001000000D1451060C6
:10476000D1451060D1451060D1451060844641EAC2
:10477000000313F003036DD1403A41D351F8043BD9
:1047800040F8043B51F8043B40F8043B51F8043B2B
:1047900040F8043B51F8043B40F8043B51F8043B1B
:1047A00040F8043B51F8043B40F8043B51F8043B0B
:1047B00040F8043B51F8043B40F8043B51F8043BFB
:1047C00040F8043B51F8043B40F8043B51F8043BEB
:1047D00040F8043B51F8043B40F8043B51F8043BDB
:1047E00040F8043B51F8043B40F8043B51F8043BCB
:1047F00040F8043B51F8043B40F8043B403ABDD23A
:10480000303211D351F8043B40F8043B51F8043BDB
:1048100040F8043B51F8043B40F8043B51F8043B9A
:1048200040F8043B103AEDD20C3205D351F8043B6A
:1048300040F8043B043AF9D2043208D0D2071CBF36
:1048400011F8013B00F8013B01D30B88038060465F
:10485000704700BF082A13D38B078DD010F00303D5
:104860008AD0C3F10403D21ADB071CBF11F8013B45
:1048700000F8013B80D331F8023B20F8023B7BE794
:10488000043AD9D3013A11F8013B00F8013BF9D2BF
:104890000B7803704B7843708B7883706046704759
:1048A0008C461446194602466346044800B583B058
:1048B000009400F0F1F900BEFDE700BF245E106037
:1048C0002DE9F04F00228FB0037800910392002B66
:1048D0007ED00646904617461446B74D01920DE02D
:1048E0002A7C049322B1AB68012204A92846984788
:1048F00008F1010801363378002B6AD0252BEFD15F
:104900007378721C4FF00009A3F1300109290CD80B
:1049100009EB8909164603EB490912F8013FA3F197
:104920003001A9F130090929F2D92E2B41D0642B8D
:1049300053D0692B51D003F0DF02462A00F04781A3
:10494000582A00F04C81A3F16201CAB2132A00F286
:1049500013819A48D040C00740F14B81DDF800E058
:104960004FF0010A954820FA02F2D20740F18E80FA
:10497000702B00F09380724652F8043B0092039330
:10498000132900F29880DFE811F01D0196009600CF
:104990009600960096009600960096009600960067
:1049A000960096007F01960096009600960096006D
:1049B0000901164612F8013FA3F130010929B6D8C2
:1049C000164612F8013FA3F130010929F1D9AEE7EB
:1049D000984640460FB0BDE8F08FDDF800E00022B9
:1049E0005EF8041B8DF81420002900F0D0800DF132
:1049F000150C05A8724A8A46A2FB0142BAF1090FBA
:104A00004FEAD20101EB8102AAEB420202F130022D
:104A10000CF8012BACEB000404F1FF342746E9D875
:104A200003F0DF020444582A40F0CF8000225EF8F1
:104A3000041BB3F1780A8DF8142018BF4FF0010A57
:104A40000391002900F0CF80782B0DF1150C14BFD5
:104A50004FF0410B4FF0610BABF10A0B01F00F026D
:104A60000909092A0BEB020498BF02F130040CF883
:104A7000014BACEB0004013C27460029EED1A3F129
:104A800062010444CAB2132A7FF66CAF4F45CDF8D9
:104A900000E03ADB002C55D102362CE774460422A4
:104AA00004A903A854F8043B04930094FFF75EFEA6
:104AB00010230193039B00228DF81420002B74D047
:104AC000BAF1000F0DF1150205A8DDF804E014BFDE
:104AD0004FF0410C4FF0610CACF10A0C9A46B3FB5D
:104AE000FEF30EFB13A109290CEB010498BF01F1A1
:104AF0003004D64502F8014BA2EB000404F1FF3468
:104B00002746EBD9B94504441CDDBB464FF0200ACB
:104B10002B7C0BF1010B012204A92846CDF810A033
:104B20000BB1AB689847CB45F2DB08F1010309F103
:104B3000FF38A8EB07084F45A8BF4FF0000898447E
:104B4000002CA9D02378002BA6D004EB080904F18F
:104B5000FF3A95F810C0A9EB0A08012204A92846DB
:104B600054460493BCF1000F01D0AB6898471AF883
:104B70000139002BEDD18FE704932B7C23B1AB6877
:104B8000012204A92846984708F1010884E7302249
:104B9000012405A827468DF8152041E70A22019235
:104BA00000228DF81420002B8AD13023012405A87F
:104BB00027468DF81530A5E71C000020016008008D
:104BC000CDCCCCCC0222019275E7CDF800E0A3F168
:104BD0006201DDF800E04FF0010ACAB253E7DDF8E8
:104BE00000E005A822E7302201248DF81520274691
:104BF00045E7632B10D1DDF800902B7C59F8042B8E
:104C0000049223B1AB68012204A92846984708F111
:104C10000108CDF800903FE7732BADD1009B53F80E
:104C200004BB0093BBF1000F3FF436AF5846FFF7CB
:104C3000E7FB484507462CDA824620212B7C0AF107
:104C4000010A012204911BB1AB6804A928469847C8
:104C5000D145F2D1C144A9EB07099BF80030B3B1AB
:104C6000DA46CBF1010B297C0122049319B1AB6820
:104C700004A9284698470BEB090303EB0A081AF826
:104C8000013F002BEFD107E70822019213E7C84646
:104C900002E7C146E1E700BF0FB400B583B0084B9F
:104CA00004A91B7C51F8040B019133B1FFF708FEF6
:104CB00003B05DF804EB04B070474FF0FF30F7E746
:104CC0001C00002070B50446EFF3108572B68368AF
:104CD000026901339342836001D9C368836019700C
:104CE000D4E901239A42238810D0013300269BB2D5
:104CF000626923800AB12046904705B962B626B1A1
:104D0000A36913B1BDE87040184770BD43B10132CB
:104D100021698A42626001D9E26862600126E7E7A0
:104D200001230026E4E700BF034630B4EFF310840C
:104D300072B642680188107841B101321D69AA42F9
:104D40005A6001D9DA685A600139198004B962B62B
:104D500030BC704700887047013A0023C1600A44A4
:104D600003804361026110B44C1EC0E901145DF878
:104D7000044B7047F0B50E1E85B0054622DB01AC32
:104D800032460020124FA446A7FB02139646064661
:104D90000130DB08BEF1090F03EB8301A2EB4101F7
:104DA0001A4601F13001C9B20CF8011BECD82644B7
:104DB00001E016F8011D2846FFF784FFB442F8D140
:104DC00005B0F0BD2D217642FFF77CFFD7E700BF8D
:104DD000CDCCCCCCF0B5082A85B01446064628BF09
:104DE000082402AD019112B300202946034604AA0B
:104DF0000230023102EB530313F80C2C02F00F02C5
:104E0000092A02F1300788BF02F1370701F8027C56
:104E100013F80C3C9F2B4FEA131202F1300388BFAA
:104E200002F1370301F8013CC3B29C42DFD8013CD8
:104E300055FA84F421783046FFF744FFA54204F187
:104E4000FF34F7D105B0F0BDFDEEC07A2DE9F04199
:104E500017EE906A044633042DED028BB0EE408AC3
:104E600082B06ED4B2B26D464FF0000CDFF8E8802D
:104E7000AE46A8FB0213174660460CF1010CDB0896
:104E8000092F03EB8301A2EB41019AB201F130013A
:104E9000C9B20EF8011BECD82F1801E017F8011D5C
:104EA0002046FFF70FFFAF42F8D19FED290A2E21D0
:104EB000284B204628EE008ABDEEC88A18EE102A3C
:104EC00003FB0626FFF7FEFE632E25DDB6B22F4656
:104ED0000020DFF884E0AEFB0623B4460246013032
:104EE000DB08BCF1090F03EB8301A6EB41019EB285
:104EF00001F13001C9B207F8011BECD8AE1801E08E
:104F000016F8011D2046FFF7DDFEB542F8D102B0CC
:104F1000BDEC028BBDE8F08130212046FFF7D2FEC8
:104F2000092ED3DC30212046FFF7CCFE002ECDD158
:104F30003021204602B0BDEC028BBDE8F041FFF706
:104F4000C1BE2D21FFF7BEFE724292B28BE700BFB9
:104F500000007A4418FCFFFFCDCCCCCC2DE9F04FFB
:104F60000D46097885B0F1B12529064617464FF060
:104F700000081BD06C1C5C293046254602D12378E2
:104F8000252B05D0FFF79EFE237863B1252B0DD08E
:104F900014F8011B30465C292546F0D0FFF792FE3D
:104FA0002378002BF2D105B0BDE8F08F01ACDFF81B
:104FB000A0926B78302B14D0002BF4D0633BDAB284
:104FC000152A16D8152B14D8DFE803F0C6261515B8
:104FD0001513261313301313131313138A139C136F
:104FE000134CEB7815F8028FA8F130085FFA88F8B7
:104FF000E2E72978BEE707373046023527F0070792
:10500000B7EC020BB7EEC00BFFF71EFF29780029A3
:10501000C9D02529AED1CCE757F8041B3046FFF79D
:10502000A9FEA97802350029F3D1BCE7AB78643B2F
:10503000142B00F2A980DFE813F0AD00A700A70051
:10504000A700A700AD00A700A700A700A700A70022
:10505000A700A700A700A700A700A700E800A700D7
:10506000A700B400B8F1040F00F28280B8F1000F7D
:105070007ED157F8041B4FF0030A01F00F02092AF2
:1050800094BF303237328DF80420C1F30312092A5D
:1050900094BF303237328DF80520C1F30322C1F3BB
:1050A0000331092A94BF3032373209298DF806209E
:1050B00094BF3031373101E013F80C1C0AF1FF3A8C
:1050C0003046FFF7FFFD5FFA8AFA0AF11003BAF1E2
:1050D000FF0F6B44F0D1A9780235002999D162E71E
:1050E00057F804AB9AF800100029F4D03046FFF7C7
:1050F000E9FD1AF8011F0029F8D1A9780235002925
:1051000087D150E757F8043BA44600209BB2A9FB87
:10511000032A9E46024601304FEADA0ABEF1090F21
:105120000AEB8A01A3EB41011FFA8AF301F1300176
:10513000C9B20CF8011BEAD804EB020A01E01AF824
:10514000011D3046FFF7BEFDA245F8D1A978023512
:1051500000297FF45EAF26E757F8041B304602357E
:10516000C9B2FFF7AFFD297800297FF452AF1AE7E3
:1051700057F8041B424630460235FFF72BFE2978CC
:1051800000297FF446AF0EE7304657F8041BFFF7BF
:10519000F1FDA0E7304657F8041B0135FFF7EAFDA3
:1051A00099E757F8043B204600210093C1F34602DB
:1051B0000231023002F110030DEB030212F8103C31
:1051C00003F00F03092B03F1300C88BF03F1370CF8
:1051D00000F802CC12F8103C9F2B4FEA131202F198
:1051E000300388BF02F13703082900F8013CDDD104
:1051F0000DF10B0A9AF800103046FFF763FDA24547
:105200000AF1FF3AF6D1013565E7A446002057F8C8
:10521000043BA9FB032A9E46024601304FEADA0A04
:10522000BEF1090F0AEB8A01A3EB4101534601F1DC
:105230003001C9B20CF8011BEBD804EB020A01E003
:105240001AF8011D3046FFF73DFDA245F8D1DAE717
:10525000CDCCCCCC10B44FF0E023064C064AF02065
:105260005C61002182F82300072299615DF8044BFC
:105270001A6170471FA1070000ED00E000F066BA58
:1052800013300123074A8340C2F88030BFF34F8FA9
:10529000BFF36F8F10211044C2F8803180F80013E3
:1052A0001360704700E100E070B5414C8AB0461EC3
:1052B00005460DF1040C8E46072E0FCCACE80F000E
:1052C0000FCCACE80F002368CCF8003050D80AAB04
:1052D000384A03EB850302EB853C53F8243C1AB2B1
:1052E00003F01F03B2F5E06F4FEA122159D2324AA0
:1052F0000A4403219200994052E8003F0B4342E8E0
:105300000034002CF8D1022D34D0EB1E052B3CD8F4
:1053100002222A490023CCF80820DCF80820B1FB3F
:10532000FEF122F0020241F07061CCF80820244A1C
:10533000CCF80C30CCF81420CCF82830CCF8101075
:10534000CCF81830DCF8183043F40013CCF81830DF
:10535000DCF81C30DCF8183043F44023CCF818306B
:10536000BFF35F8F28460AB0BDE87040FFF788BFE3
:105370000AB070BD134B0822C3F81C51C3F8902229
:10538000C3F82051C3F89422C2E70E4B0221082231
:10539000C3F8D410C3F84822C3F8D810C3F84C227D
:1053A000B6E7094B4FF4A361084A0948FFF778FABA
:1053B000185F1060000018401AF00310404B4C00BA
:1053C00000001F4000801F40645E10603C5F106062
:1053D000745E1060431E072B06D8044B03EB80302D
:1053E000836943F480038361704700BF0000184065
:1053F000431E072B06D8044B03EB8030836923F44C
:1054000080038361704700BF00001840431E072BD4
:1054100003D8024B03EB8030C16170470000184095
:10542000431E072B05D8044B03EB8030C069C0B284
:1054300070470020704700BF00001840431E072B34
:1054400006D8044B03EB80304069C0F340507047EE
:105450000020704700001840431E072B06D8044B5D
:1054600003EB80304069C0F38050704700207047E4
:1054700000001840431E072B06D8044B03EB803076
:105480008069C0F3805070470020704700001840CA
:10549000012008B500F008FB0120BDE8084000F03D
:1054A000E3BA00BF2DE9F0410746EFF3108572B66D
:1054B000264C4689238801331FFA83FEB645A4F89B
:1054C00000E01FD2C2680EEB4E034FF0000802EB63
:1054D0008303724605E01FFA8CF24FF00108B242D6
:1054E00010D25968184602F1010C0C330129F2D18F
:1054F000B8F1000F00D022800223436005B962B6E4
:10550000BDE8F081B64572464FF0000C28BF324628
:10551000A4F800C09AB1FB68614604E0B9B24FF04C
:10552000010C8A420AD05E6818464F1C0C33012ECB
:10553000F4D1BCF1000FDFD02180DDE7228015B966
:1055400062B62846DCE70020DAE700BF4C04000022
:1055500030B4029C0025818202614381C4600581D0
:105560000586C0E90055C0E90655C0E90855C0E9FF
:105570000A555BB1204603EB4303012400EB830390
:10558000C0E900240C300A449842F9D130BC70477D
:1055900081617047C161704710B50446FFF782FF13
:1055A00078B1EFF3108272B6E36A5BB10223E36273
:1055B000238E0133238602B962B6236A2062006813
:1055C000636210BDA36AC4E90A03F1E7026A0368D3
:1055D000C0E9083203B11B6818467047036A13B16B
:1055E0001A6891421CD0426A10B412B11468A142E8
:1055F0001DD00469838A091B428991FBF3F18BB2A8
:105600009A4218D91946C36801EB410103EB8103A3
:105610005B685DF8044B032B8CBF18680020704753
:1056200043625B68032B8CBF186800207047C0E999
:1056300008231346ECE700235B68FFDE80688B6875
:1056400098422CBF00200120704700BF0B68181A39
:10565000B0FA80F04009704738B500F095F804467C
:105660000B48FFF7B3FF70B10346094D9A6819461E
:105670002846A242A2EB040288BF9A60FFF7AEFF61
:1056800003460028F2D1BDE8384000F09DB800BFC5
:1056900034000020164B30B51D7883B00DB103B037
:1056A00030BD01221A7000F059F812481423124A32
:1056B000102100901148FFF74BFF11490F48FFF7E9
:1056C00067FF10490D48FFF765FF0F4B0B481D6042
:1056D000FFF762FF04460028E1D00C4B036000F0A6
:1056E00053F80B4B65601844C4E9020303B030BDA6
:1056F00069040020A8010020680000203400002078
:105700003D5610604D561060300000205956106014
:10571000FF6780CC2DE9F04180460B480D461746C7
:105720001E46FFF739FF60B1C0F80080044600F064
:105730002BF800233844E660C4E901501846BDE860
:10574000F0814FF0FF33F9E734000020024A13687C
:1057500001331360704700BF9C02002010B5074C56
:10576000237803B110BD06484FF0FF31054A0360AE
:105770001160FFF76FFD0123237010BD6A04002044
:105780009C02002098020020014B1868704700BF5F
:105790009C0200200A4A30B411680A4D04E01368E4
:1057A0005B1A98420AD300BF13689942F7D92B6855
:1057B0001468234401335B1A9842F4D230BC70471A
:1057C0009C02002098020020034B00220349186825
:1057D00008601A60704700BF9C02002098020020F9
:1057E0002DE9F041574D84B02B78002B4AD000268C
:1057F0000196019A012A45D8534C012706E0019BE6
:1058000001330193019B012B3CD82B78019A134162
:10581000DA07F4D5019B03EB830354F82300FFF769
:1058200099FA0390039B142B40F283801423039373
:10583000039B5A1E0392002BE1D0019B03EB8303D1
:1058400054F82300FFF770FA0296019B8046029AF3
:1058500003EB830304EB83039B685B889342E7D9E4
:10586000019B4046029A03EB830304EB83039B688E
:105870005B6853F822309847029B01330293019BE7
:10588000029AE5E7314D2B78002B4FD00026019688
:10589000019B012B4AD82C4F01240396039B032B19
:1058A0002BD8019B039A03EB830307EB83031B7B3A
:1058B0001341DB071BD5019B03EB830307EB83033A
:1058C0001B6943B1019B039803EB8303C0B207EB51
:1058D00083031B6998470399019B04FA01F103EBC9
:1058E000830307EB83031A7B22EA01021A73039BEB
:1058F00001330393039B032BD3D9EFF3108272B6CA
:10590000019B03EB830307EB83031B7B33B90199F3
:105910002B7804FA01F123EA01032B7002B962B675
:10592000019B01330193019B012BB6D904B0BDE863
:10593000F081019A2B7807FA02F223EA02032B7016
:1059400076E700BF6D040020100400206B040020E7
:1059500038B50E4D00EB8003044605EB83050AE0E5
:105960006868FFF7F7F980B16868FFF7DDF901466D
:105970002046FFF74BFD2046FFF76EFD0028EFD1D4
:105980002046BDE83840FFF725BD38BD1004002093
:1059900070B51B4E0446357845B301230025194ADE
:1059A000012C3370184B15701D7000D070BD174E50
:1059B00020464FF4E131164CFFF776FC20221549C2
:1059C0003046FFF7C9F94FF4807213492046FFF7BC
:1059D000C3F9124A04231360114B5360114BC3E9FE
:1059E0000564DA615D6283F8205070BDFFF752FEF6
:1059F000012329460C481A46FFF78CFECDE700BF6D
:105A00006C0400206D0400206B040020B80200200C
:105A1000F4020020D402002010030020A002002085
:105A2000A802002010040020E15710600EB410B549
:105A300083B004460B4B00EB800005AA03EB800308
:105A400052F8041B58680192FFF788FA2046FFF7C6
:105A500011FD10B92046FFF77BFF03B0BDE81040F1
:105A600003B070471004002038B50E4D00EB8003E2
:105A7000044605EB83050AE06868FFF76BF960B13F
:105A80006868FFF751F901462046FFF7BFFC204642
:105A9000FFF7E2FC0028EFD138BD2046BDE83840D2
:105AA000FFF7A6BC100400202DE9F04101270F4BA1
:105AB00000EB80080E4D8740044603EB88087FB258
:105AC0000AE0D8F80060FFF7ABFC01463046FFF76C
:105AD000F9F82B783B432B702046FFF7AFFC0346C9
:105AE0002046002BEDD1BDE8F08100BF100400205E
:105AF0006D04002070B582B00F4EFFF72FFE01201D
:105B0000FFF746FF0D4901200024FFF78FFF0C4BE4
:105B10000C4D1B78DBB28DF8073001202246314650
:105B20000444FFF783FF20234FF4FA70C5F88C304C
:105B3000FFF730FEF1E700BF6C5F1060505F106050
:105B40000000106000801B4004207146084202D013
:105B5000EFF3098001E0EFF3088081690A884BF6D2
:105B6000AB639A4200D0FEE70231816120210160DF
:105B7000704700BF044A0548516808B5044B1B68CC
:105B80009847BFF34F8F08BD4004002000401840E5
:105B900064040020044A0548916808B5044B1B685A
:105BA0009847BFF34F8F08BD400400200080184085
:105BB00064040020044A0548D16808B5044B1B68FA
:105BC0009847BFF34F8F08BD4004002000C0184025
:105BD00064040020044A0548116908B5044B1B6899
:105BE0009847BFF34F8F08BD4004002000001940C4
:105BF00064040020044A0548516908B5044B1B6839
:105C00009847BFF34F8F08BD400400200040194063
:105C100064040020044A0548916908B5044B1B68D8
:105C20009847BFF34F8F08BD400400200080194003
:105C300064040020044A0548D16908B5044B1B6878
:105C40009847BFF34F8F08BD4004002000C01940A3
:105C500064040020044A0548116A08B5044B1B6817
:105C60009847BFF34F8F08BD4004002000001A4042
:105C700064040020704700BF10B51D4C4FF0E022B7
:105C80001C48D4F888301C4943F47003C4F88830A9
:105C9000038923F001031B041B0C03810B8923F0F0
:105CA00001031B041B0C0B811369D90703D513696E
:105CB00023F0010313610E4B5A69920315D45A69FC
:105CC00012F4003211D1BFF34F8FBFF36F8FC3F8BF
:105CD0005022BFF34F8FBFF36F8F5A6942F40032E7
:105CE0005A61BFF34F8FBFF36F8FFFF7C3FF10BD34
:105CF00000ED00E000800B4000000D4070B50D4E3F
:105D00000D4D761BB61006D0002455F8043B013427
:105D10009847A642F9D1094E094D761B00F02EF99D
:105D2000B61006D0002455F8043B01349847A6422B
:105D3000F9D170BD945F1060945F10609C5F10603B
:105D4000945F1060024B13B1024800F005B8704731
:105D500000000000655D1060002301461A461846E9
:105D600000F01AB838B5084B084D5B1B9C1007D0E3
:105D7000043B1D44013C55F804399847002CF9D1E7
:105D8000BDE8384000F000B9A05F10609C5F106073
:105D9000704700BF704700BF2DE9F047DFF880A0D3
:105DA0000646DAF8000098460F469146FFF7F0FFE6
:105DB0001A4B1B68D3F8484124B365681F2D26DCB5
:105DC0005EB96B1C0235DAF80000636044F8257098
:105DD000FFF7E0FF0020BDE8F08704EB8501012319
:105DE000C1F88890D4F88821AB401A43022EC4F839
:105DF0008821C1F80881E4D1D4F88C211343C4F878
:105E00008C31DEE703F5A674C3F84841D5E7DAF82C
:105E10000000FFF7BFFF4FF0FF30DCE7785F106056
:105E200048040000415353455254204552524F52AA
:105E3000202220257320223A2066696C65202225C5
:105E40007322204C696E6520222564222066756EBF
:105E50006374696F6E206E616D6520222573222048
:105E60000A000000696E646578203C3D2036554C80
:105E7000000000002F686F6D652F61736D69722FD0
:105E80004465736B746F702F44726F70626F782FFC
:105E90004D43552F6E78702F5254313032312F7060
:105EA000726F6A656374732F616C656E636F6E2DBC
:105EB00073797374656D732F656D62656464656471
:105EC0002D736F6674776172652F6578616D706C84
:105ED00065732F4D494D585254317878782F4D497C
:105EE0004D585254313032312F6D63757870726570
:105EF00073736F2F656570726F6D2D6E766D2D7477
:105F00006573742F647269766572732F66736C5F44
:105F1000636C6F636B2E68000000000018050000C2
:105F20001C0000000C00000018010000020300002B
:105F3000060300001A0500000E060000434C4F4304
:105F40004B5F436F6E74726F6C4761746500000045
:105F50000D0A4D61696E20417070204D494D5852B7
:105F60005431303231200D0A0000000055415254A6
:105F7000313A2025640D0A0020000000F8B500BF6A
:105F8000F8BC08BC9E467047F8B500BFF8BC08BC1A
:045F90009E46704772
:085F9400455D1060014510603D
:045F9C00DD44106070
:105FA000044A0548116808B5044B1B689847BFF3BD
:105FB0004F8F08BD3804002000802A403C04002098
:105FC000000000000C03000074030000DC0300006C
:105FD00000000000000000000000000000000000C1
:105FE00000000000000000000000000000000000B1
:105FF00000000000000000000000000000000000A1
:106000000000000000000000000000000000000090
:106010000000000000000000000000000000000080
:106020000000000000000000000000000000000070
:106030000000000000000000000000000000000060
:106040000000000000000000000000000000000050
:106050000000000000000000000000000000000040
:10606000000000000000000001000000000000002F
:106070000E33CDAB34126DE6ECDE05000B000000F4
:106080000000000000000000000000000000000010
:106090000000000000000000000000000000000000
:1060A00000000000000000000000000000000000F0
:1060B00000000000000000000000000000000000E0
:1063E0000000000000000000680400200100000020
:040000056010452919
:00000001FF
