:0200000460108A
:10000000464346420004015600000000010303007D
:1000100000000000000000000000000000000000E0
:1000200000000000000000000000000000000000D0
:1000300000000000000000000000000000000000C0
:100040001000000001040700000000000000000094
:100050000000800000000000000000000000000020
:100060000000000000000000000000000000000090
:100070000000000000000000000000000000000080
:10008000EB04180A063204260000000000000000FD
:10009000050404240000000000000000000000002F
:1000A0000000000000000000000000000000000050
:1000B0000604000000000000000000000000000036
:1000C0000000000000000000000000000000000030
:1000D00020041808000000000000000000000000DC
:1000E0000000000000000000000000000000000010
:1000F0000000000000000000000000000000000000
:10010000D8041808000000000000000000000000F3
:100110000204180804200000000000000000000095
:1001200000000000000000000000000000000000CF
:10013000600400000000000000000000000000005B
:1001400000000000000000000000000000000000AF
:10015000000000000000000000000000000000009F
:10016000000000000000000000000000000000008F
:10017000000000000000000000000000000000007F
:10018000000000000000000000000000000000006F
:10019000000000000000000000000000000000005F
:1001A000000000000000000000000000000000004F
:1001B000000000000000000000000000000000003F
:1001C000000100000010000001000000000000001D
:1001D000000001000000000000000000000000001E
:1001E000000000000000000000000000000000000F
:1001F00000000000000000000000000000000000FF
:10100000D10020410020106000000000301010606E
:1010100020101060001010600000000000000000B0
:10102000000000600000800000000000FFFFFFFFE4
:10103000D203E041CC035C04400FC068FFFFFFFF18
:10104000400FC06CFFFFFFFF400FC070FFFFFFFFAE
:10105000400FC074FFFFFFFF400FC078FFFFFFFF8E
:10106000400FC07CFFFFFFFF400FC080FFFFFFFF6E
:10107000400D803000002001400D81001018101B31
:10108000400FC014000A8340401F8014000000007D
:10109000401F801800000000401F801C000000005E
:1010A000401F802000000000401F8024000000003E
:1010B000401F802800000000401F802C000000001E
:1010C000401F803000000000401F803400000000FE
:1010D000401F803800000000401F803C00000000DE
:1010E000401F804000000000401F804400000000BE
:1010F000401F804800000000401F804C000000009E
:10110000401F805000000000401F8054000000007D
:10111000401F805800000000401F805C000000005D
:10112000401F806000000000401F8064000000003D
:10113000401F806800000000401F806C000000001D
:10114000401F807000000000401F807400000000FD
:10115000401F807800000000401F807C00000000DD
:10116000401F808000000000401F808400000010AD
:10117000401F808800000000401F808C000000009D
:10118000401F809000000000401F8094000000007D
:10119000401F809800000000401F809C000000005D
:1011A000401F80A000000000401F80A4000000003D
:1011B000401F80A800000000401F80AC000000001D
:1011C000401F80B000000000401F8188000000E147
:1011D000401F818C000000E1401F8190000000E171
:1011E000401F8194000000E1401F8198000000E151
:1011F000401F819C000000E1401F81A0000000E131
:10120000401F81A4000000E1401F81A8000000E110
:10121000401F81AC000000E1401F81B0000000E1F0
:10122000401F81B4000000E1401F81B8000000E1D0
:10123000401F81BC000000E1401F81C0000000E1B0
:10124000401F81C4000000E1401F81C8000000E190
:10125000401F81CC000000E1401F81D0000000E170
:10126000401F81D4000000E1401F81D8000000E150
:10127000401F81DC000000E1401F81E0000000E130
:10128000401F81E4000000E1401F81E8000000E110
:10129000401F81EC000000E1401F81F0000000E1F0
:1012A000401F81F4000000E1401F81F8000000E1D0
:1012B000401F81FC000000E1401F8200000000E1AF
:1012C000401F8204000000E1401F8208000000E18E
:1012D000401F820C000000E1401F8210000000E16E
:1012E000401F8214000000E1401F8218000000E14E
:1012F000401F821C000000E1401F8220000000E12E
:10130000401F8224000000E1402F00001000000474
:10131000402F000800000081402F000C00000081D9
:10132000402F00108000001B402F00148200001B83
:10133000402F00188400001B402F00040000798813
:10134000402F004000000F07402F00440065292275
:10135000402F004800010920402F004C50210A086E
:10136000402F008000000021402F008400888888E2
:10137000402F009400000002402F00980000000061
:10138000402F009080000000402F009CA55A000FC5
:10139000CF000C1C402F003C00000001CC001404C6
:1013A000402F009080000000402F009CA55A000CA8
:1013B000CF000C1C402F003C00000001CC001404A6
:1013C000402F009080000000402F009CA55A000C88
:1013D000CF000C1C402F003C00000001CC001C047E
:1013E000402F00A000000030402F0090800000003F
:1013F000402F009CA55A000ACF000C1C402F003C37
:1014000000000001CC000C04402F004C50210A09C0
:10200000000001204D241060A9301060B93010602C
:10201000E9311060F93110600932106000000000F1
:10202000000000000000000000000000012510601A
:10203000F52410600000000005251060AD4110601F
:102040000D251060112510601525106019251060F0
:102050001D251060212510602525106029251060A0
:102060002D25106031251060352510603925106050
:102070003D25106041251060452510604925106000
:102080004D251060F5241060F5241060F5241060D3
:102090005125106055421060592510605D25106073
:1020A0006125106065251060692510606D25106040
:1020B0007125106075251060792510607D251060F0
:1020C0008125106085251060892510608D251060A0
:1020D0009125106095251060F5241060F52410609E
:1020E000F5241060F5241060F5241060F5241060CC
:1020F000F5241060F5241060F5241060F5241060BC
:10210000F5241060F5241060F5241060F5241060AB
:10211000F5241060F5241060F5241060F52410609B
:10212000992510609D251060A1251060A5251060DF
:10213000A9251060F5241060F5241060F5241060C6
:10214000F5241060F5241060F5241060F52410606B
:10215000F5241060F5241060F5241060F52410605B
:10216000F5241060F5241060F5241060F52410604B
:10217000F5241060F5241060F5241060F52410603B
:10218000F5241060F5241060F5241060F52410602B
:10219000F5241060F5241060F5241060F52410601B
:1021A000F5241060F5241060AD251060F524106052
:1021B000F5241060F5241060F5241060F5241060FB
:1021C000F5241060F5241060F5241060F5241060EB
:1021D000F5241060F5241060F5241060F5241060DB
:1021E000F5241060F5241060F5241060F5241060CB
:1021F000B1251060F5241060B5251060B925106078
:10220000F5241060F5241060BD251060C125106014
:10221000F5241060F5241060F5241060F52410609A
:10222000F5241060F5241060F5241060F52410608A
:10223000F5241060F5241060F5241060F52410607A
:10224000F5241060F5241060F5241060F52410606A
:10225000F5241060F5241060F5241060F52410605A
:10226000F5241060F5241060F5241060F52410604A
:10227000F5241060F5241060F5241060F52410603A
:10228000F5241060F5241060F5241060F52410602A
:10229000F5241060F5241060F5241060F52410601A
:1022A000F5241060F5241060F5241060F52410600A
:1022B000F5241060F5241060F5241060F5241060FA
:1022C000F5241060F5241060F5241060F5241060EA
:1022D000F5241060F5241060F5241060F5241060DA
:1022E000F5241060F5241060F5241060F5241060CA
:1022F000F5241060F5241060F5241060F5241060BA
:10230000F5241060F5241060F5241060F5241060A9
:10231000F5241060F5241060F5241060F524106099
:10232000F5241060F5241060F5241060F524106089
:10233000F5241060F5241060F5241060F524106079
:10234000F5241060F5241060F5241060F524106069
:10235000F5241060F5241060F5241060F524106059
:10236000F5241060F5241060F5241060F524106049
:10237000F5241060F5241060F5241060F524106039
:10238000F5241060F5241060F5241060F524106029
:10239000F5241060F5241060F5241060F524106019
:1023A000F5241060F5241060F5241060F524106009
:1023B000F5241060F5241060F5241060F5241060F9
:1023C000F5241060F5241060F5241060F5241060E9
:1023D000F5241060F5241060F5241060F5241060D9
:1023E000F5241060F5241060F5241060F5241060C9
:1023F000F5241060F5241060F5241060FFFFFFFF46
:1024000010B5054C237833B9044B13B10448AFF32E
:1024100000800123237010BD000000200000000098
:10242000445A106008B5034B1BB103490348AFF38E
:10243000008008BD0000000004000020445A106025
:10244000000000003C1300008C5A106072B61B485C
:102450001B4901600A6882F308881A4880471A49B4
:102460001A4A1B4B9B1A03DD043BC858D050FBDCB7
:102470009B1A03DD043BC858D050FBDC154B0020F1
:102480009A42BCBF42F8040BFAE7002103E0124B6A
:102490005B58435004311148114B42189A42F6D30D
:1024A0001049114A00209142BCBF41F8040BFAE7E1
:1024B00062B60E4880470E480047000008ED00E075
:1024C00000201060E14010608C5A10600000002075
:1024D00000000020000000208C5A10600000000066
:1024E0003C13000000000020FC000020C9491060DF
:1024F000C5271060FFF7FEBF32480047324800474B
:1025000032480047324800473248004732480047C7
:1025100032480047324800473248004732480047B7
:1025200032480047324800473248004732480047A7
:102530003248004732480047324800473248004797
:102540003248004732480047324800473248004787
:102550003248004732480047324800473248004777
:102560003248004732480047324800473248004767
:102570003248004732480047324800473248004757
:102580003248004732480047324800473248004747
:102590003248004732480047324800473248004737
:1025A0003248004732480047324800473248004727
:1025B0003248004732480047324800473248004717
:1025C00032480047A9301060B93010600125106012
:1025D00005251060AD411060F5241060F5241060F1
:1025E000F5241060F5241060F5241060F5241060C7
:1025F000F5241060F5241060F5241060F5241060B7
:10260000F5241060F5241060F5241060F5241060A6
:10261000F5241060F5241060F5241060F524106096
:10262000F5241060F5241060F5241060F524106086
:10263000F5241060F5241060F5241060F524106076
:10264000F5241060F5241060F5241060F524106066
:10265000F5241060F5241060F5241060F524106056
:10266000F5241060F5241060F5241060F524106046
:10267000F5241060F5241060F5241060890A00002C
:10268000F5241060F5241060F5241060F524106026
:10269000844641EA000313F003036DD1403A41D36D
:1026A00051F8043B40F8043B51F8043B40F8043B2C
:1026B00051F8043B40F8043B51F8043B40F8043B1C
:1026C00051F8043B40F8043B51F8043B40F8043B0C
:1026D00051F8043B40F8043B51F8043B40F8043BFC
:1026E00051F8043B40F8043B51F8043B40F8043BEC
:1026F00051F8043B40F8043B51F8043B40F8043BDC
:1027000051F8043B40F8043B51F8043B40F8043BCB
:1027100051F8043B40F8043B51F8043B40F8043BBB
:10272000403ABDD2303211D351F8043B40F8043B5B
:1027300051F8043B40F8043B51F8043B40F8043B9B
:1027400051F8043B40F8043B103AEDD20C3205D36B
:1027500051F8043B40F8043B043AF9D2043208D063
:10276000D2071CBF11F8013B00F8013B01D30B88D5
:1027700003806046704700BF082A13D38B078DD0B3
:1027800010F003038AD0C3F10403D21ADB071CBF85
:1027900011F8013B00F8013B80D331F8023B20F8EF
:1027A000023B7BE7043AD9D3013A11F8013B00F828
:1027B000013BF9D20B7803704B7843708B788370B0
:1027C000604670472DE9F0438BB06F4D00F0FAF88A
:1027D000002400F053FA6D4A34216D4800F068FA85
:1027E0006C4B052108226C4F2046C3F8D010C3F86B
:1027F00044226B68694A43F020036749DFF8C081CF
:102800006B6000F0B3FA4FF48040654A394600F03F
:10281000ADFA01F0FDFEA5B2284601F005FF4FF626
:10282000FF710646284601F001FF284601F0FCFE34
:1028300081467100284689B201F0F8FE284601F071
:10284000F3FE23460134424600963946CDE9019015
:10285000002000F08BFA102CDDD1524A4FF40050CA
:102860004D49002400F082FA4FF47A7000F0E8F944
:102870004D4A49494FF48040CDE90644CDE908442A
:1028800000F074FA0DF11601012001F037FFBDF8D8
:1028900016100123054600912046444A3E4900F0A7
:1028A00065FABDF816308BB1AE1EDFF808813A4FDD
:1028B00036F8020F2346424639460090002000F0C9
:1028C00055FA0134BDF81630A342F1D82B880133F4
:1028D000ADF818306B880133ADF81A3001F0D6FE30
:1028E0000DF11601012001F009FFBDF816100123BA
:1028F0000546009100202E4A274900F037FABDF81E
:1029000016308BB1023D00242A4F234E35F8020FBA
:1029100023463A4631460090002000F027FA013461
:10292000BDF81630A342F1D806AA0221012001F019
:102930001FFF0DF11601012001F0E0FEBDF8161099
:1029400001230546009100201B4A134900F00EFAAE
:10295000BDF816308BB1023D0024164F0E4E35F8EF
:10296000020F23463A4631460090002000F0FEF95F
:102970000134BDF81630A342F1D8104A4FF400508C
:10298000054900F0F3F9FEE700801B404054106059
:102990006054106000801F407C54106068541060C8
:1029A00080541060AC541060C4541060D85410604F
:1029B00010551060FC541060345510605455106070
:1029C00090541060F0B5002283B0864B0192596993
:1029D000854E89030DD5BFF34F8FBFF36F8F5969B4
:1029E00021F400315961C3F85022BFF34F8FBFF378
:1029F0006F8F7C484369DA032AD50023C0F88430FE
:102A0000BFF34F8F436923F480334361BFF34F8F8C
:102A1000D0F8805043F6E07EC5F3C907C5F34E35C4
:102A20004FEA877C6D0105EA0E0461463A4644EAA6
:102A30000103013A01F14041C0F87432531CF6D150
:102A4000203D15F1200FEED1BFF34F8FBFF36F8FF5
:102A5000BFF35F8F63491027644B14244A6A152023
:102A6000634D22F480324A625A68624922F00102C0
:102A70005A60DF60604A1D61604DD9601A6160492B
:102A8000DD601A615F4AD9601A6102F17D425E49D8
:102A90000E3A5E4DDC6019615D4CD8605D491A618B
:102AA0005D48DD601A611232DC601861D9601A611C
:102AB000019B26FA03F3012B07D9019B01330193F4
:102AC000019B26FA03F3012BF7D8019BE3B1534B8B
:102AD000B3FBF6F206FB1232002A70D101990122F3
:102AE0008A40B24277D1019A042A6ED923F01F039B
:102AF0003E494B4A43F01903CB60019B013B5B000D
:102B000003F03E031A430A61384B05223548454C11
:102B10004549DC6019615A60436A43F4803343627B
:102B2000BFF34F8FBFF36F8F436913F4803328D106
:102B3000C0F88430BFF34F8FD0F8805043F6E07C6C
:102B4000C5F3C906C5F34E35B707954005EA0C0431
:102B50003946324644EA0103013A01F14041C0F8E6
:102B60006032531CF6D1203D15F1200FEED1BFF39A
:102B70004F8F436943F480334361BFF34F8FBFF3FB
:102B80006F8F184A536913F4003311D1BFF34F8F7D
:102B9000BFF36F8FC2F85032BFF34F8FBFF36F8F09
:102BA000536943F400335361BFF34F8FBFF36F8F0B
:102BB00000F074FF03B0BDE8F04001F08DBA1B4B8C
:102BC00075211B4A1B4801F0CFFA1B4B7721184A8D
:102BD000184801F0C9FA194B7621154A154801F039
:102BE000C3FA00BF00ED00E00000000090ED00E03F
:102BF0003F00001011000080390010031200006037
:102C0000130000602D0003063B0010031600002097
:102C1000170020201800008021000303000020205E
:102C2000010008031A0000402B0010037C551060BF
:102C30007055106094551060BC551060A055106020
:102C40000D4B4FF4004210B41A60BFF35F8F1A6847
:102C50001204FCD44BF2CF7440F24171064A5C601E
:102C60001C6821431960536A8342FCD94FF4004326
:102C70005DF8044B1360704700C01E40084B4FF4D2
:102C800000421A60BFF35F8F1A681204FCD44BF243
:102C9000CF7140F24172596019680A431A60704757
:102CA00000001F40014B586A704700BF00001F40E2
:102CB000F8B5224C1746013800232646217001E062
:102CC000102B39D010F8015F1946013304F8015F69
:102CD0000578002DF4D1314400234FF4E1304B70DE
:102CE00000F092FC164800F0EDFC164800F0EAFCFB
:102CF000154800F0E7FC3946144800F0E3FC144B9B
:102D000014481C68C4F30362210F00F0DBFCC4F319
:102D10000722E3B2C4F307410F4800F0D3FC0F4B86
:102D20000F48196800F0CEFC0E4800F0CBFC0E48AE
:102D3000BDE8F84000F0C6BC0F21CCE71C00002025
:102D4000F45610603C57106070571060B457106014
:102D5000C8551060BC571060CC571060C455106047
:102D6000E057106004561060F05710600CB410F477
:102D700080532DE9F0478CB007460E46149D00F0B5
:102D8000BC8015AB2878019330B32E460023DFF8C2
:102D900014835C1C252805EB040913D12A5DDAB1E4
:102DA000623A162A00F29580DFE802F07A736193A6
:102DB0003F93939393939393939393939336939394
:102DC0009393230000F04AFC33780A2B0CD04E4634
:102DD000307823460028DCD117F4404F7CD10CB06A
:102DE000BDE8F04702B070470D204E4600F036FCBB
:102DF000EEE7EA1801999278081D0968622A0190A5
:102E000000F00681682A00F03581772A00F03F81C2
:102E10004FF40060009154E0019B1A1D1868019264
:102E200000F02AFC01342E19D2E7019B0020073361
:102E300023F00703D3E9009A083308EACA02B9F17C
:102E4000000F01930AF0804142EA59727AF10003BF
:102E5000B8BF42F0004250EA0103009200F0BD808A
:102E6000009B4FF4807043F08043009329E0EA1800
:102E700001999278081D0968622A019000F0C480C7
:102E8000682A00F0FC80772A00F00681202000915B
:102E900017E0019B1A1D1878019200F0DFFBC1E7D3
:102EA000EA1801999278081D0968622A019000F0D9
:102EB000A780682A00F0DA80772A00F0E4800420F6
:102EC000009102AA694600F0DFF902A800F0D4FBE5
:102ED000A8E700230093A5E71B2000F0BFFB5B20C1
:102EE00000F0BCFB302000F0B9FB6D2000F0B6FB19
:102EF0000CB0BDE8F04702B070478DF80830FFF71E
:102F0000D1FE01A902AA0190202000F0BDF91B20EA
:102F100000F0A4FB5B2000F0A1FB332000F09EFB3F
:102F2000322000F09BFB6D2000F098FB5B2000F04E
:102F300095FB9DF8080030B102AC00F08FFB14F84F
:102F4000010F0028F9D1564C5D2000F087FB637813
:102F5000002B62D11B2000F081FB5B2000F07EFB88
:102F6000332000F07BFB352000F078FB6D2000F073
:102F700075FB7E2000F072FB307828B100F06EFB0C
:102F800016F8010F0028F9D13A2000F067FB202045
:102F900000F064FB1B2000F061FB5B2000F05EFB97
:102FA000302000F05BFB6D2000F058FB39044DD45D
:102FB000BA0415D47B047FF5E4AE1B2000F04EFB71
:102FC0005B2000F04BFB332000F048FB332000F087
:102FD00045FB6D2000F042FBD3E64FF4807070E7B4
:102FE0001B2000F03BFB5B2000F038FB332000F09F
:102FF00035FB362000F032FB6D2000F02FFBC0E6E1
:103000009C1C009101205CE79C1C0091082058E763
:103010009C1C00914FF4007053E71B2004F1110831
:1030200000F01CFB5B2000F019FB332000F016FBC6
:1030300014F8010B00F012FB6D2000F00FFB14F8E8
:10304000010B00F00BFBA045F9D183E71B2000F03A
:1030500005FB5B2000F002FB332000F0FFFA31207B
:1030600000F0FCFA6D2000F0F9FA8AE69C1C009151
:10307000022026E79C1C00914FF4806021E79C1CF5
:10308000009110201DE79C1C0091042019E79C1C56
:1030900000914FF4006014E79C1C0091202010E781
:1030A0001C000020F8FFFF3F08B5024800F00AFBB3
:1030B000FEE700BFC05610601EF0040F0CBFEFF318
:1030C0000880EFF309808169004A1047D53010600D
:1030D000704700BF03462F4830B51A6889B0596859
:1030E00000929A6801910292D9681A6903912A4C58
:1030F0000492596904F11005D3E90623059106925B
:10310000079300F0DFFA03E000F0A8FAAC4204D025
:1031100014F8013F1846002BF6D1204800F0D2FAEF
:1031200000991F4800F0CEFA01991E4800F0CAFA33
:1031300002991D4800F0C6FA03991C4800F0C2FA33
:1031400004991B4800F0BEFA05991A4800F0BAFA33
:103150000699194800F0B6FA0799184800F0B2FA33
:10316000174B1848196800F0ADFA174B1748196843
:1031700000F0A8FA164B1748196800F0A3FA164B8E
:103180001648196800F09EFA154B1648196800F0A9
:1031900099FAFEE7E85510601C000020F055106019
:1031A0000856106014561060205610602C5610609F
:1031B0003856106044561060505610605C561060CF
:1031C00038ED00E06856106028ED00E0745610609D
:1031D0002CED00E08056106030ED00E08C56106061
:1031E0003CED00E09856106008B5024800F06AFA1D
:1031F000FEE700BFA456106008B5024800F062FA6E
:10320000FEE700BFCC55106008B5024800F05AFA3E
:10321000FEE700BFD856106070B4002400F10A0623
:1032200016F8013DE5B2302B21D00E886C1C935569
:10323000E4B20B880A2C03F101039BB20B8012D07D
:10324000C5F10805061BC4F10904EDB20444751B61
:10325000083514F80109D054A5420B8803F1010385
:103260009BB20B80F5D1002170BCD1547047092C62
:1032700004F10104D4D1088813540B8801339BB2A4
:103280000B80F0E7000000002DE9F04F002387B02D
:10329000102817461370ADF80A3000F0628126D965
:1032A000B0F5007F59D040F28D80B0F5806F6FD0BF
:1032B000B0F5006F18D1104602F108040B681B0F1F
:1032C0000130DAB2092B02F1300302F1370294BF68
:1032D00000F8013C00F8012C84420B684FEA03130C
:1032E0000B60ECD100233B7207B0BDE8F08F0228E1
:1032F00000F01C811BD9042840F0308102F120002D
:103300000B6830243125002B02F10102B4BF02F812
:10331000015C02F8014C90420B684FEA43030B60DA
:10332000F1D1002387F8203007B0BDE8F08F0128E5
:10333000DAD102F108000B68302531241E0602F1B3
:1033400001024CBF02F8014C02F8015C90420B688C
:103350004FEA43030B60F1D1C4E70B68C3F30313D7
:10336000092B8CBF3733303313700B681A0103F00D
:103370000F03092B0A604FF0000294BF303337333C
:103380007B700B681B010B60BA7007B0BDE8F08F53
:10339000141D0B68C3F303330132092B03F1300012
:1033A00003F1370394BF02F8010C02F8013CA2427A
:1033B0000B684FEA03130B60ECD100233B7107B09D
:1033C000BDE8F08F202800F0CC80B0F5807F8BD155
:1033D000D1ED006AF5EEC06AF1EE10FA06D5F1EE15
:1033E000666A2D2201233A70ADF80A30F7EE007AB2
:1033F000F4EEE76AF1EE10FA00F1DB8040F3F380BF
:103400000024B2EE046A00E01C4667EE867A631C74
:103410009BB2F4EEE76AF1EE10FAF5DC87EE867AFD
:103420004FF0200B0DF116080DF10C0972484FF00A
:10343000300C4346714EC6EE877A9FED717AFCEEF2
:10344000E76A16EE901AF8EE666A77EEE67A67EEAD
:10345000877AFCEEE77A17EE905A884203F801CD9E
:1034600006D83022091A01328142D2B2FAD21A7039
:10347000A6FB002099454FEAD000EED10DF10A0AD3
:103480003A464846019351464646FFF7C5FE5A491B
:103490004FF0300EDFF864C1019BA94206F801ED40
:1034A00008D8312000E010466D1A421C8D42D2B27D
:1034B000F9D23070ACFB01219E424FEAD101ECD130
:1034C0002E233A46514648468DF80F30FFF7A4FEAA
:1034D000BDF80A206521BBF12D0F02F10103B9549B
:1034E0009BB2ADF80A3004D1023207F803B0ADF850
:1034F0000A20414A30204149A24208F8010D07D86C
:103500003023A41A01339442DBB2FAD288F8003097
:10351000A1FB023246454FEAD202EDD13A4651466E
:103520004846FFF779FE07B0BDE8F08F02F11000C2
:103530000B68302531241B0402F101024CBF02F854
:10354000014C02F8015C90420B684FEA43030B60A8
:10355000F1D100233B7407B0BDE8F08F08287FF459
:10356000C3AE0A68002A07DA2D2201233A700A68DE
:10357000ADF80A3052420A600DF10C090DF1160443
:103580001D4930261D4D914204F8016D08D83120A7
:1035900000E01846521A431C8A42DBB2F9D220706E
:1035A000A5FB0131A1454FEAD101ECD10DF10A0A89
:1035B000B4E79FED147A0124F4EEC76AF1EE10FA35
:1035C0000ED59FED0B5BB7EEC77A0134A4B227EEA0
:1035D000057BB7EEC77BF4EEC76AF1EE10FAF2D4C2
:1035E0004FF02D0B1EE74FF6FF749FED067A17E79D
:1035F0009A9999999999B93F00CA9A3BCDCCCCCC6C
:1036000000007A44CDCCCC3D104A114B114930B466
:10361000B2FBF0F00224082540F070600E4AC1F8B9
:10362000D440C1F84852C1F8D840C1F84C520025E6
:103630009C604FF44024996821F002019960DD609C
:103640009D6218615A619C6130BC7047404B4C00D0
:103650000040184000801F4000001F4049F64043D2
:10366000044901E0013B04D04A691202FAD5C8615D
:10367000704770470040184070B411490D26441E31
:1036800000F2FF3514F8010F68B149F6404301E03C
:10369000013B04D04A691202FAD5C86120780A2891
:1036A00003D0AC42EED170BC704749F6404301E014
:1036B000013BF6D04A691202FAD5CE61F1E700BFAC
:1036C000004018400FB42DE9F0498DB014AB53F809
:1036D000046B3178019361B300243046744D4FF090
:1036E0000D082346734F252928D133445A78CAB18F
:1036F000623A162A00F29C80DFE802F08C7D689A1C
:10370000479A9A9A9A9A9A9A9A9A9A9A9A0C9A9AFA
:103710009A9A3700019B1A1D18680192FFF7ACFFB7
:103720000134A4B20134A4B2315D2346301900291A
:10373000D9D10DB0BDE8F04904B0704749F6404317
:1037400001E0013B03D06A691202FAD5E96103780E
:103750000A2BE7D149F6404301E0013BE2D06A6918
:103760001202FAD5C5F81C80DCE79A78019B622A20
:1037700053F8041B68D0682A73D0772A00F0908031
:1037800001934FF4006000912DE0019B002007336E
:1037900023F00703D3E900BC083307EACC02BBF1EE
:1037A000000F01930CF0804142EA5B727CF1000350
:1037B000B8BF42F0004250EA010300923BD0009BA8
:1037C0004FF4807043F0804300930CE09A78019BA3
:1037D000622A53F8041B31D0682A4FD0772A53D07D
:1037E000202001930091694602AAFFF74DFD02A82F
:1037F000FFF742FF94E7019A49F64043101D116814
:10380000019001E0013B8BD06A691002FAD5C9B280
:10381000E96185E79A78019B622A53F8041B1AD064
:10382000682A25D0772A35D0019304200091DAE761
:103830000023009374E74FF48070D4E7013408202C
:10384000CDE90013A4B2CEE701344FF40070CDE906
:103850000013A4B2C7E701340120CDE90013A4B2DC
:10386000C1E701344FF48060CDE90013A4B2BAE798
:1038700001340220CDE90013A4B2B4E701341020D2
:10388000CDE90013A4B2AEE701342020CDE9001346
:10389000A4B2A8E701340420CDE90013A4B2A2E742
:1038A00001344FF40060CDE90013A4B29BE700BFE0
:1038B00000401840F8FFFF3F08B5B8B90E4B4FF075
:1038C00080421946C3F85821D1F87032DA03FBD58B
:1038D0004FF48033084AC1F85431D2F850311B04F8
:1038E000FBD54FF48033C2F8583108BD034BBF21DC
:1038F000034A044800F038FC00800D403458106042
:103900005C58106044581060044B102210B1C3F88A
:1039100078227047C3F87422704700BF00800D40C2
:10392000034AD2F8703243F00103C2F87032704794
:1039300000800D40024B4FF480521A67704700BF61
:1039400000800D4030B4184C0379D4F8E0209B037C
:10395000C17822F4E03205789BB201F0030142F411
:1039600080321343C4F8E0300DB141F40051837844
:103970000BB141F4001143780BB141F480010A48C6
:103980000A4BD0F8E040024623401943C0F8E0104B
:10399000D2F8E030002BFBDAD2F8E03023F48033A9
:1039A00030BCC2F8E030704700800D40FCEFFFFFF4
:1039B00030B40B4AC500BF2301F03F01802003FA59
:1039C00005F4D2F80031A940A84023EA04031943C2
:1039D000184330BCC2F80001C2F80011704700BFA4
:1039E00000800D40244970B451E8003F43F00C03BF
:1039F00041E80032002AF7D120480525204C022357
:103A0000056047F2A0061F4D41F2B0001E49A434E4
:103A1000C83D0B60112144F8A43C41F2F103C4F805
:103A2000C860C5F8C800C4F8D000184845F8141C90
:103A3000A0F5FE7044F80C1CC0F8FC2145F80C1CE5
:103A4000C4F8FC210160C5F8E8212160C0F8F82124
:103A50000C3029600E4EC4F8F02101600D4A0E4969
:103A600033601360C5F86831C4F87031C0F86C3148
:103A70000B60536170BC704778C00F40D0801F400E
:103A8000D8801F4048821F40D4801F4074831F404D
:103A9000E0821F40E4821F40F4821F40FFF7A2BF74
:103AA000B44B4FF40041B44A002070B51160D3F814
:103AB000C022B24942F48032B14CC3F8C022D3F8DC
:103AC000C02222F40032C3F8C0220C60FFF7F4FEDB
:103AD000FFF726FF0120FFF717FFAA49AA4C0B6842
:103AE0000A46AA4823F0FF0343F07F030B602368D4
:103AF00023F4405343F480532360036843F000737E
:103B00000360936C9C06FCD4A149CB680A4623F061
:103B10001F0343F01203CB601368002BFCDA9B49B0
:103B2000984A0B6823F4E0530B60936C9807FCD41D
:103B3000984A52E8003F23F4403342E8003100291C
:103B4000F7D1944A52E8003F23F4407342E8003131
:103B50000029F7D1904A52E8003F23F4400342E89D
:103B600000310029F7D18C4A52E8003F23F040731E
:103B700042E800310029F7D1844888490368814A26
:103B800043F4407303600B6823F007030B60936CEE
:103B9000D903FCD47D497F4A0B6823F060530B6046
:103BA00052E8003F43F4401342E800310029F7D1C6
:103BB000784A52E8003F43F4400342E800310029CC
:103BC000F7D1774A52E8003F43F0407342E80031B2
:103BD0000029F7D1724A52E8003F43F0406342E8BF
:103BE00000310029F7D16B4A52E8003F23F44053DB
:103BF00042E800310029F7D16A496B4A0B6823F08B
:103C00003F0343F001030B6052E8003F23F00C0335
:103C100042E800310029F7D1644862490368624AEA
:103C200023F4605343F4805303600B6823F4803320
:103C30000B6052E8003F23F0300342E800310029D6
:103C4000F7D15A4857490368524A23F4E02343F412
:103C5000003303600B6823F400330B6052E8003F2D
:103C600023F0030342E800310029F7D1494A52E822
:103C7000003F23F00C0342E800310029F7D1454A08
:103C800052E8003F23F0300342E800310029F7D129
:103C9000404A52E8003F23F0C00342E800310029C7
:103CA000F7D139493E4A0B6823F0E05343F0805383
:103CB0000B600B6823F0300343F020030B6052E8E5
:103CC000003F23F4400342E800310029F7D1374890
:103CD0002D490368364A43F0C06303600B6823F440
:103CE00040430B6052E8003F23F4402342E8003198
:103CF0000029F7D12F492B480B682D4A23F4E07394
:103D000043F0C0030B600B6823F03F0343F0010353
:103D10000B60036823F44063036052E8003F23F420
:103D2000401342E800310029F7D123491D480B68B0
:103D30001F4A23F4E07343F0C0030B600B6823F0C9
:103D40003F0343F001030B60036823F44053036017
:103D500052E8003F23F4400342E800310029F7D144
:103D6000144910480B680C4A23F0E07343F44003F5
:103D70000B6023E000800D40300000203400002064
:103D800000366E0100C00F4018C00F4014C00F4035
:103D9000000008406CC00F4070C00F4010C00F40C2
:103DA00068C00F401CC00F4080C00F4024C00F40AF
:103DB0007CC00F4028C00F402CC00F400B6823F47C
:103DC0007C1343F480330B60036823F440430360A7
:103DD00052E8003F23F0C00342E800310029F7D148
:103DE000A64A52E8003F23F4407342E8003100291C
:103DF000F7D1A24A52E8003F23F4406342E8003181
:103E00000029F7D19E4B9F4A196821F0FC71196077
:103E1000196821F48021196052E8003F23F44043DF
:103E200042E800310029F7D1964A52E8003F23F4D6
:103E3000402342E800310029F7D1924A52E8003F7E
:103E400023F4403342E800310029F7D18D4A52E88B
:103E5000003F23F4401342E800310029F7D18A499A
:103E60008A4A0B6823F0FC0343F004030B600B68E1
:103E700023F4407343F400730B6052E8003F43F0B7
:103E8000407342E800310029F7D17E4A52E8003FF2
:103E900023F0405342E800310029F7D1794A52E833
:103EA000003F23F4405342E800310029F7D1784A1B
:103EB00052E8003F23F0407342E800310029F7D177
:103EC000744A52E8003F23F00C0342E80031002915
:103ED000F7D1704A52E8003F23F0C00342E80031B6
:103EE0000029F7D1694A52E8003F23F0406342E8D5
:103EF00000310029F7D1684A52E8003F23F44043DB
:103F000042E800310029F7D1644B604A196821F07A
:103F10003F011960196821F04001196052E8003F23
:103F200023F4404342E800310029F7D15C4B574A63
:103F3000196821F0606141F000711960196841F061
:103F4000E0711960196841F44011196052E8003FAE
:103F500023F00C0342E800310029F7D1514A4A48C6
:103F60001368514923F4606343F4007313601368CA
:103F700043F060631360036843F4C01303600B688D
:103F800023F001030B60FFF7D5FC484B4FF4803161
:103F9000474A48481160D3F8702122F40042C3F820
:103FA0007021D3F8702122F40002C3F870211A6F37
:103FB00042F400521A67FFF7C5FC3F483F490268C8
:103FC0003F4B42F4402202600A6822F000720A600D
:103FD0009A6C9206FCD438483A4E01683A4A21F469
:103FE00040513A4D3A4C016031683A4821F0400165
:103FF0003160196E21F070011966196E21F00F0100
:1040000041F001011966196E21F460011966196EFB
:1040100021F4F81141F440311966196E21F48071D0
:104020001966196E21F080011966196E21F08071F0
:104030001966536823F007035360536823F038036D
:104040005360536823F0C0035360536823F44073F4
:104050005360536823F44063536093681D40956038
:10406000536823F400335360536923F08053536142
:10407000536923F000535361046070BD70C00F405A
:1040800038C00F4068C00F4020C00F407CC00F40B8
:104090006CC00F4074C00F4080C00F4024C00F4060
:1040A00030C00F4028C00F400CC00F4000800D40B2
:1040B00074800D407458106018C00F4014C00F4039
:1040C00000C00F401CC00F4000C00A40FFFF00FBB3
:1040D0000065CD1DC80A0000FFF7E2BC704700BFB5
:1040E00010B51D4C1D48D4F888301D4943F47003A9
:1040F0001C4AC4F88830038923F001031B041B0CFD
:1041000003810B8923F001031B041B0C0B81136833
:10411000D90703D5136823F0010313600E4B5A69C6
:10412000920315D45A6912F4003211D1BFF34F8FA4
:10413000BFF36F8FC3F85022BFF34F8FBFF36F8F62
:104140005A6942F400325A61BFF34F8FBFF36F8F49
:10415000FFF7C4FF10BD00BF00ED00E000800B4082
:1041600000000D4010E000E000BEFDE70C4A08B57D
:10417000136833B118440B49884209D810601846B7
:1041800008BD09490B461160064918448842F5D913
:1041900000F014FC0C224FF0FF330260184608BDFB
:1041A000380000200005002000010020024A1368AA
:1041B00001331360704700BF3C0000200138C0B2DB
:1041C000072807D8044B53F820301BB19A6922F412
:1041D00080029A61704700BF7C5810600138C0B2FD
:1041E000072804D8024B53F8203003B1D961704737
:1041F0007C5810600138C0B2072806D8044B53F829
:10420000200018B1C069C0B270470020704700BFDD
:104210007C5810600138C0B2072807D8044B53F807
:10422000200020B14069C0F3405070470020704723
:104230007C5810600138C0B2072807D8044B53F8E7
:10424000200020B14069C0F38050704700207047C3
:104250007C58106008B5022000F026F80220BDE866
:10426000084000F001B800BF38B50E4D00EB8003E8
:10427000044605EB83050AE0686800F081F860B148
:10428000686800F067F801462046FFF7A7FF204660
:10429000FFF7D0FF0028EFD138BD2046BDE83840F9
:1042A000FFF78CBF440000202DE9F04101270E4BA1
:1042B00000EB8008044687400C4D03EB88087FB272
:1042C0000BE0D8F800602046FFF794FF0146304627
:1042D00000F00EF82B783B432B702046FFF79AFF37
:1042E0000028EED1BDE8F08144000020400000200D
:1042F00070B50446EFF3108672B683680269013325
:104300009342836001D9C36883601970D4E90123A3
:104310009A4223880FD000250133626923800AB1B5
:104320002046904706B962B625B1A36913B1BDE82E
:104330007040184770BD53B1013221698A426260F2
:1043400001D9E2686260013B01259BB2E4E71D46AA
:10435000E2E700BF30B40346EFF3108472B6426860
:104360000188107841B101321D69AA425A6001D911
:10437000DA685A600139198004B962B630BC7047F6
:104380000088704700290FDD00F01F031944BFF3B8
:104390004F8F064B2039C3F85C0220300029F9DC2E
:1043A000BFF34F8FBFF36F8F704700BF00ED00E08A
:1043B000094BFF201B6803F5806302E010F1FF301A
:1043C00007D353F8042D0132F8D00130034B1860A5
:1043D00070470020704700BF88000020EC0A0000F2
:1043E000124B10B50446186800281BDD431E14D478
:1043F0000F4A116851F82320B4EB124F10D06FF020
:104400004042024401EB820104E051F8042DB4EB78
:10441000124F05D013F1FF33F7D24FF6FF7010BDE6
:1044200090B210BDFFF7C4FFE0E700BFEC0A000048
:1044300088000020074B084A1B681268934206D088
:10444000064A1268934202D04FF6FF707047FFF79A
:10445000C7BF00BF88000020F00A0000F40A000077
:1044600038B50446064804F1204101F005FB054635
:104470004FF480712046FFF785FF284638BD00BF06
:1044800000802A4070B5164C237803B170BD1548E2
:10449000154E01F0EDFA134801F0E6FA3068134DBD
:1044A00003685A1C15D02A681268013207D1002B04
:1044B00013DB03460E4A13600123237070BDFFF720
:1044C000CFFF2868FFF7CCFF33681A68002AF1DABB
:1044D00018462B681A68002AECDA054B1860EBE7DF
:1044E0008C00002000802A40F00A0000F40A00003E
:1044F0008800002038B50446134607480A4604F1F0
:10450000204101F0ADFA05464FF480712046FFF7D7
:1045100039FF284638BD00BF00802A402DE9F04F02
:10452000374F83B0374E83463D68884633689D4297
:104530005ED0354B1B689D425AD04FF6FF708045C8
:104540003DD0DFF8C8A0DAF80040002C54DDFF2C85
:1045500038DDD6F80090A94502D12B4BD3F8009056
:1045600048464E4600244FF6FF75FFF779FF5C453D
:1045700038D0396801F5806303E09942ADF8045002
:1045800010D053F8042DB4EB124F0192F5D1BDF8C1
:104590000430AB4206D00422304604360DEB020153
:1045A000FFF7A8FF0134B4F5807FE0D13868FFF74A
:1045B00057FF4FF0FF33C7F80090CAF8003003B040
:1045C000BDE8F08F02A905EB84000422043421F831
:1045D000048DADF806B0FFF78DFFCAF8004003B0B8
:1045E000BDE8F08FADF804804346ADF80640D0E753
:1045F0005846FFF7F5FEA2E7FFF7DAFE0446A6E706
:1046000088000020F00A0000F40A0000EC0A000014
:1046100010B5044C237803B110BDFFF733FF01231D
:10462000237010BD8D000020FFF704BFFFF776BF99
:1046300000B583B0FFF726FF0F4B104A196853608F
:1046400019B10F48016831B950600E4B01221A6050
:1046500003B05DF804FB0C490968013102A908BFE9
:1046600018464FF0000318BF5060042241F8043D83
:10467000FFF740FFE9E700BF000002609400002060
:10468000000302609000002004030260134B1B68CB
:1046900030B583B0F3B1124C00252046FFF7E0FEA1
:1046A0001048FFF7DDFE1048FFF7DAFE0F48FFF76E
:1046B000D7FE0F48FFF7D4FE0E48FFF7D1FE02A940
:1046C0000D4B0422204641F8045D5C60FFF712FFA9
:1046D00003B030BDFFF7ACFFDDE700BF9000002066
:1046E000000002600001026000020260000302603C
:1046F0000004026000050260940000201A4B1B6851
:104700002DE9F041064688465BB3184B002140F284
:10471000F9755B6803F50177A3F1FC0C7C883A46D8
:10472000631E9BB2AB4210D80020B2F800E0E31D3C
:10473000B64523F0030301D12146101D1A445488C5
:10474000631E9BB2AB42F0D920B9A7F58077BC4578
:10475000E4D10020B8F1000F01D0A8F80010BDE8A6
:10476000F081FFF765FFD0E7900000209400002063
:10477000894B2DE9F04F1B6889B0002405460E4691
:1047800001920594002B62D004A92846FFF7B6FFDA
:10479000BDF81030B3425DD0804B4FF6FF714FF63D
:1047A00003094FF6FA785F6807F1040C07F5417AC0
:1047B000BCF80230ACF1040E0CF1FC006446ADF81C
:1047C0001030F8221AE084422FD8A3F2FB7B1FFAA4
:1047D0008BFBCB4598BFADF81450B4F800B0ABF1EB
:1047E000040B1FFA8BFBC34502F1040BA34498BFD3
:1047F000ADF81450834518BFADF81450B4F800B0AC
:104800008B4515D08B4218D0B24216DD0733C3F367
:104810008F03C3F30D0BA2EB830204EB8B0412B2E4
:1048200063887445ADF81030CDD2ADF81450CCE7A4
:104830008B4202D1B24200F39D800CF5807CE245B0
:10484000B6D1574C23787BB109B0BDE8F08FFFF7A4
:10485000EFFE99E701463246019800F085FB0028FB
:104860009AD109B0BDE8F08FDFF844C14FF0010ADA
:10487000DFF840E167454B484B49D04614BF6246DC
:1048800072460CF5A06C14BF83468B460293A1F5CB
:104890007F710693454B1046DFF81C9108BFE14637
:1048A000039284F800A014BF8A469A46FFF7D8FD09
:1048B0005846FFF7D5FD48464FF0F809FFF7D0FD01
:1048C0000DF112014046FFF719FFBDF81230834683
:1048D0004B4524D9029A012A47DD4FF00003ADF879
:1048E0001230B8F1020F4FF00208E9D13846002724
:1048F000FFF7B6FD08A9DDF80C80042241F8047D1D
:104900004046FFF7F7FD254B019A31462846C3F88C
:104910000480FFF72DFF277009B0BDE8F08F002B52
:10492000DFD0042206A95046ADF81A30ADF8188041
:10493000FFF7E0FDBDF812204FF6FC7C0AF1040001
:104940005946D31C03EA0C0C6246ADF812C0FFF7BF
:10495000D1FDBDF8123004339BB2A9EB03099A4490
:10496000ADF812301FFA89F9BBE701324FF0F809B0
:104970000292D6E705A904222046ADF81660ADF8EC
:1049800014500336FFF7B6FD4FF6FC720199201D57
:104990003240FFF7AFFD57E7900000209400002061
:1049A0009C00002000010260000402600403026019
:1049B000000002600003026000020260014B186800
:1049C000704700BFF80A000070B50D4E0D4D761B04
:1049D000B61006D00024013455F8043B9847A6428F
:1049E000F9D1094E094D761B01F02CF8B61006D00E
:1049F0000024013455F8043B9847A642F9D170BD14
:104A0000805A1060805A1060885A1060805A106076
:104A1000024B0146186800F003B800BFF80A000016
:104A20002DE9F04F01F10B05162D83B0064623D872
:104A3000102900F2B98000F013FB10251823022082
:104A4000C54F3B44A3F108025C68944200F06681C4
:104A5000636823F003032344D4E902515A68E960F0
:104A600042F001028D6030465A6000F0FFFA0834CF
:104A7000204603B0BDE8F08F35F0070500F19480C3
:104A8000A94200F2918000F0EBFAB5F5FC7FC0F08E
:104A900083816B0A00F08F80042B00F24681AB0902
:104AA00003F1390003F1380CC300AB4F3B44A3F1D1
:104AB00008015C68A14206D10CE0002A80F21D8149
:104AC000E468A14206D0636823F003035A1B0F2A4F
:104AD000F3DD60463C69DFF894C2644571D06368D9
:104AE00023F003035A1B0F2A00F34481002AC7E96D
:104AF00004CC80F22681B3F5007F80F06981DB0869
:104B0000591C7A6857F83180C4F808804FF0010EBC
:104B10009B100EFA03F307EBC10E1343AEF108022C
:104B2000E2607B6047F83140C8F80C4082100124F5
:104B300094409C424BD81C4206D120F003006400F4
:104B40001C4200F10400FAD007EBC009CE468046B3
:104B5000DEF80C309E4507D122E1002A80F229813F
:104B6000DB689E4500F01C81596821F003014A1B57
:104B70000F2AF2DDD3E9028E5C1945F001055D6074
:104B800042F00105C8F80CE03046CEF80880C7E9CD
:104B90000444C4E902CC65605A50019300F066FAFF
:104BA000019B03F1080463E700240C2320463360D3
:104BB00003B0BDE8F08F4FF4007340204FF03F0C7E
:104BC00073E77B688210012494409C42B3D9BC688F
:104BD000636823F00309A94503D3A9EB05030F2B51
:104BE0007BDC5E4BDFF888A11A68DAF8003001330D
:104BF00005EB020800F0488108F5805808F10F081D
:104C000028F47F6828F00F084146304600F034FA57
:104C1000B0F1FF3F834600F0048104EB09005845E2
:104C200000F2FD804E4A13684344136000F04D814A
:104C3000DAF8001001311BBFABEB00001B18CAF8FB
:104C400000B013601BF0070300F03481C3F10801CA
:104C5000C3F580538B440833D844C8F30B08A3EB47
:104C6000080841463046019200F006FA431C019ABA
:104C700000F04681A0EB0B01414441F001011368B3
:104C8000C7F808B04344BC42CBF80410136015D0F9
:104C9000B9F10F0F40F230816068A9F10C0121F0E9
:104CA000070100F0010004EB010C08434FF0050E72
:104CB0000F296060CCE901EE00F23A81294A2A48C6
:104CC0001168BC688B42016888BF136062688B42C0
:104CD00022F0030288BF0360A7E0621943F00103DA
:104CE00045F0010565603046BA60536000F0BEF9DA
:104CF0000834204603B0BDE8F08F2344E1685A68C9
:104D0000A56842F00102E96030468D605A6000F00B
:104D1000ADF90834204603B0BDE8F08FDC68A3424B
:104D200008BF02303FF4D6AE92E6142B71D9542B53
:104D300000F2AD802B0B03F16F0003F16E0CC3008A
:104D4000B3E6234430465A6842F001025A60083400
:104D500000F08CF98CE600BF280F0000D000002086
:104D6000A0000020C8000020CC000020300F000070
:104D700030130000611945F0010E42F00105C4F83E
:104D800004E03046C7E90411C1E902CC4D60E250AD
:104D900000F06CF908346BE6E80805F108034FE60B
:104DA00008F1010818F0030F0EF1080E7FF4D0AEE1
:104DB00052E019441C464A68DB6854F8085F42F028
:104DC00001024A603046EB609D6000F04FF94FE60B
:104DD0005A0A042A35D9142A6FD802F15C01C90095
:104DE0005B3207EB010E7958AEF1080E8E4558D0B4
:104DF0004A6822F003029A4202D989688E45F7D1A7
:104E0000D1F80CE07B68C4E9021ECEF80840CC6003
:104E10008CE603F15C0003F15B0CC30045E6BC4289
:104E200072D0BC68626822F003029542A2EB0503CF
:104E300002D80F2B3FF751AF304600F017F900248E
:104E400016E69A0902F13901C9003832C9E7D9F8E2
:104E50000090994540F0838010F0030FA9F10803FA
:104E600000F1FF30F3D17B6823EA04037B60640028
:104E70009C423FF6ACAE1CB9A9E6640008F10408F8
:104E80001C42FAD040465FE608F11008BCE6B3F5D4
:104E9000AA7F26D8EB0B03F1780003F1770CC3004F
:104EA00003E67B6892104FF0010808FA02F2134300
:104EB0007B60A8E74FF48053CEE6542A29D81A0B1A
:104EC00002F16F01C9006E328BE7C0F30B010029BC
:104ED0007FF4AEAE09EB0802B96842F001024A6005
:104EE000ECE640F2545293421CD8AB0C03F17D0027
:104EF00003F17C0CC300D8E50123CBF804309BE719
:104F000001214FF00008BAE6164A136843441360C3
:104F10008EE6B2F5AA7F14D8DA0B02F17801C90047
:104F200077325EE74FF47E737F204FF07E0CBCE556
:104F300004F108013046019200F02AF9019A136841
:104F4000BCE640F254518A4205D89A0C02F17D0128
:104F5000C9007C3245E74FF47E717E2241E77B68D1
:104F600085E700BFA0000020032A70B414D940EAEE
:104F70000105AD0704460B4622D11D682668AE42E6
:104F80001946204603F1040304F1040418D1043A3D
:104F9000032A20461946F0D8541E72B102780B78C5
:104FA0009A4208BF641806D00CE010F8012F11F8DF
:104FB000013F9A4206D1A142F7D1002070BC704750
:104FC000541EEBE7D01A70BC704700BFF0B48607E0
:104FD00043D0541E002A3ED0CAB2034602E014F168
:104FE000FF3438D303F8012B9D07F8D1032C2BD9BC
:104FF000CDB245EA05250F2C45EA054516D9A4F1A1
:1050000010073F0903F1200606EB071603F1100213
:1050100042E9045542E902551032B242F8D104F097
:105020000F040137032C03EB07130DD91E4622464C
:10503000043A032A46F8045BFAD8221F22F003023E
:105040000432134404F003042CB1C9B21C4403F825
:10505000011B9C42FBD1F0BC704714460346C5E7D8
:10506000014800F089B900BFE4000020014800F0C9
:1050700085B900BFE400002038B5074C0023054681
:1050800008462360FFF772F8431C00D038BD236840
:10509000002BFBD02B6038BDF8000020024B13B171
:1050A000024800F005B8704700000000BD501060D5
:1050B000002301461A46184600F062B938B50A4C7A
:1050C0000A4D641BA4100AD004F18043013B05EB98
:1050D0008305013C55F804399847002CF9D1BDE807
:1050E000384000F0B5BC00BF8C5A1060885A106080
:1050F000F8B5244F0C460646FFF7B2FFBB685D6863
:10510000C4F57E610F3125F00305294421F47F6148
:1051100021F00F01A1F58054B4F5805F07DB002179
:105120003046FFF7A9FFBB682B44984204D03046B5
:10513000FFF79CFF0020F8BD61423046FFF79CFF5F
:1051400001300DD0104BBA6819682D1B45F00105D0
:105150003046091B55601960FFF788FF0120F8BD34
:1051600000213046FFF788FFBA68831A0F2BDEDD77
:10517000064C0549246843F00103001B5360086096
:10518000D5E700BF280F0000A0000020301300006A
:10519000002953D0F8B50C460646FFF761FF54F8D6
:1051A00004CC714F2CF00101A4F108056B18B8680C
:1051B0005A68984222F0030253D01CF0010F5A6043
:1051C00003EB02003BD154F808CC4068A5EB0C057A
:1051D00007F1080EAC687445614400F0010075D019
:1051E000D5F80CC0C4F80CC0CCF8084060B341F04E
:1051F00001036B606950B1F5007F50D34B0A042B5B
:1052000070D88B0903F13904E40003F1380238192E
:105210003B590838984278D05A6822F003028A42F3
:1052200071D99B689842F7D1C368C5E902039D60B4
:10523000C5603046BDE8F840FFF718BF70474068CA
:1052400000F001000028D2D19868484C1144A042D7
:1052500041F0010262D0DB68C36098606A60695007
:10526000C9E71CF0010F0A4407D154F8083CED1AB5
:105270001A44D5E90213CB6099603D4B1B6842F09C
:10528000010193426960BD6004D83A4B3046196809
:10529000FFF72EFF3046BDE8F840FFF7E7BEC9082C
:1052A00078684A1C012389108B40034307EBC20135
:1052B00057F832007B600839C5E9020147F83250DF
:1052C000C5603046BDE8F840FFF7D0BE002845D1A4
:1052D0000A44D3E9021342F00100CB609960686090
:1052E000AA50D7E7142B08D9542B1ED80B0B03F167
:1052F0006F04E40003F16E0289E703F15C04E4004B
:1053000003F15B0283E718468EE793107968012268
:1053100002FA03F30B437B60034686E7C7E90455B3
:10532000C5E902006A606950B4E7B3F5AA7F06D800
:10533000CB0B03F17804E40003F1770267E740F256
:105340005452934206D88B0C03F17D04E40003F120
:105350007C025CE74FF47E747E2258E741F0010244
:105360006A60196096E700BF280F0000300F000048
:1053700034130000D0000020704700BF704700BF0A
:105380002DE9F8432B4D0646286898460F4691466E
:10539000FFF7F2FF284B1C68D4F84831002B3DD0B2
:1053A0005A681F2A0DDC02F1010C16BB0232C3F849
:1053B00004C0286843F82270FFF7E0FF0020BDE832
:1053C000F8831E4B7BB34FF4C870FFF721FB0346F5
:1053D00048B3D4F848210021C0E900214FF0010C66
:1053E000C4F848010A46C0F88811C0F88C11002E94
:1053F000DCD003EB82010124C1F88890D3F8880146
:1054000094402043022EC3F88801C1F80881CDD111
:10541000D3F88C110C43C3F88C41C7E704F5A6738D
:10542000C4F84831BCE72868FFF7A8FF4FF0FF3009
:10543000C5E700BF38130000405A1060114A1060E1
:105440004D61696E20617070204D494D5852543144
:105450003032312048616C205465737400000000C4
:10546000415050310000000073797374656D2072F3
:10547000656164792E2E2E0A0000000053595300F6
:10548000454550524F4D20746573740A000000006A
:10549000414444523A20257868202D2D20257868F3
:1054A00020257868202578680A000000454550527C
:1054B0004F4D207465737420636F6D706C657465F7
:1054C000640A00004E564D204F424A454354732013
:1054D000746573740A0000004E564D206265666F55
:1054E0007265206572617365204F424A3A202564D7
:1054F0002073697A653A2025640A000041444452C9
:105500003A20257868202D2D202578680A00000093
:105510004E564D2061667465722065726173652018
:105520004F424A3A2025642073697A653A202564FF
:105530000A0000004E564D20616674657220736546
:1055400074204F424A3A2025642073697A653A20D4
:1055500025640A004E564D204F424A45435473205D
:105560007465737420636F6D706C657465640A0094
:10557000696E697453595354454D000021286E6F6C
:105580006E4361636865537461727420252073698A
:105590007A65290073797374656D632E630000006A
:1055A00073697A65203D3D202875696E7433325FDA
:1055B00074292831203C3C206929000069203E3DA7
:1055C0002035000007339B63500500102D3E20530B
:1055D00059533A204275734661756C745F48616E29
:1055E000646C65720A0000000A0A2D3E200000006B
:1055F0003A20486172644661756C745F48616E64FC
:105600006C6572200A0000007230095B25785D0A23
:10561000000000007231095B25785D0A000000007F
:105620007232095B25785D0A000000007233095B65
:1056300025785D0A00000000723132095B25785D33
:105640000A0000006C72095B25785D0A000000000A
:105650007063095B25785D0A0000000070737209B1
:105660005B25785D0A0A000062666172095B257835
:105670005D0A000063667372095B25785D0A0000AD
:1056800068667372095B25785D0A00006466737250
:10569000095B25785D0A000061667372095B2578F5
:1056A0005D0A00002D3E205359533A204D656D4D43
:1056B000616E6167655F48616E646C65720A0000C7
:1056C0002D3E205359533A204E4D495F48616E6438
:1056D0006C65720A000000002D3E205359533A2099
:1056E00055736167654661756C745F48616E646C83
:1056F00065720A000A0A777777777777777777770F
:105700007777777777777777777777777777777729
:105710007777777777777777777777777777777719
:105720007777777777777777777777777777777709
:10573000777777777777770A0000000077204952EC
:105740005144455349474E20642E6F2E6F2E2054EE
:10575000757A6C6120426F736E696120616E64209E
:105760004865727A65676F76696E610A00000000AD
:10577000772D2D2D2D2D2D2D2D2D2D2D2D2D2D2D0F
:105780002D2D2D2D2D2D2D2D2D2D2D2D2D2D2D2D49
:105790002D2D2D2D2D2D2D2D2D2D2D2D2D2D2D2D39
:1057A0002D2D2D2D2D2D2D2D2D2D2D2D2D2D2D2D29
:1057B0002D0A0000772025730A770A007720687782
:1057C0007665723A2025642E25640A007720667774
:1057D0007665723A2025642E25642E25642E0A00F3
:1057E000772074696D653A202025780A0000000052
:1057F0007777777777777777777777777777777739
:105800007777777777777777777777777777777728
:105810007777777777777777777777777777777718
:105820007777777777777777777777777777777708
:10583000770A0000216279706173735874616C4F4C
:10584000736300002E2F647269766572732F66731E
:105850006C5F636C6F636B2E63000000434C4F43BF
:105860004B5F496E697445787465726E616C436C08
:105870006B00000000010001000000000040184023
:105880000080184000C01840000019400040194036
:105890000080194000C0194000001A4066616C7316
:1058A0006500000073726320213D204E554C4C0072
:1058B000696E7374616E6365203C20415252415998
:1058C0005F53495A4528735F666C65787370694207
:1058D00061736573290000002E2F6472697665720A
:1058E000732F66736C5F666C65787370692E6300E6
:1058F000696E646578203C2036345500464C455826
:105900005350495F4D656D7365740000464C4558B2
:105910005350495F476574496E7374616E636500E7
:10592000464C45585350495F436865636B416E640C
:10593000436C6561724572726F720000464C455847
:105940005350495F5570646174654C5554000000B4
:10595000EB04180A063204260000000000000000D4
:10596000810404240000000000000000000000008A
:10597000060400000000000000000000000000001D
:10598000D70418080000000000000000000000001C
:10599000320418080422000000000000000000008B
:1059A000C70400000000000000000000000000002C
:1059B000020418080420000000000000000000009D
:1059C0000304180804240000000000000000000088
:1059D0009F040424000000000000000000000000FC
:1059E000010404200000000000000000000000008E
:1059F000350400000000000000000000000000006E
:105A0000F50600000000000000000000000000009B
:105A10000504042400000000000000000000000055
:105A20000B041808083004240000000000000000E7
:105A30000000000000000000000000000000000066
:105A4000000B0000F8B500BFF8BC08BC9E467047CC
:105A5000F8B500BFF8BC08BC9E46704700000000C7
:105A60005FF800F0750200005FF800F079010000B7
:105A70005FF800F0FD0200005FF800F0FD0100009B
:085A80009D5010602524106008
:045A88000124106085
:105A8C00F0B5234C6369DA032CD50023C4F88430B9
:105A9C00BFF34F8F636923F480336361BFF34F8F80
:105AAC00D4F8806043F6E07EC6F3C907C6F34E36E1
:105ABC004FEA877C760106EA0E0561463A4645EACE
:105ACC000103013A01F14041C4F87432531CF6D180
:105ADC00203E16F1200FEED1BFF34F8FBFF36F8F27
:105AEC00012303700A4B5A69920310D5BFF34F8FF1
:105AFC00BFF36F8F5A69002122F400325A61C3F848
:105B0C005012BFF34F8FBFF36F8F01234370F0BD63
:105B1C0000ED00E0F0B482B0ADF804009DF8043064
:105B2C006BB32548436913F4803328D1C0F8843013
:105B3C00BFF34F8FD0F8805043F6E07CC5F3C90615
:105B4C00C5F34E35B7076D0105EA0C0439463246EC
:105B5C0044EA0103013A01F14041C0F86032531CA0
:105B6C00F6D1203D15F1200FEED1BFF34F8F4369D5
:105B7C0043F480334361BFF34F8FBFF36F8F9DF8B6
:105B8C000530B3B10C4A536913F4003311D1BFF390
:105B9C004F8FBFF36F8FC2F85032BFF34F8FBFF3ED
:105BAC006F8F536943F400335361BFF34F8FBFF3CF
:105BBC006F8F02B0F0BC704700ED00E030B587B0DD
:105BCC000023044602254FF4867001A9012202939A
:105BDC008DF80C308DF80D50ADF80E00CDE9041297
:105BEC0002E0019BDB0705D502A9204600F020FC52
:105BFC000028F6D007B030BDF0B587B0402305467D
:105C0C0068460193FFF73CFF00234FF4817228464E
:105C1C0002A902938DF80C308DF80D30ADF80E20E2
:105C2C0000F006FC044610B1204607B0F0BD01AAF6
:105C3C000123032740F20916029002A98DF80C00EB
:105C4C0028468DF80D70ADF80E60CDE9042300F0F8
:105C5C00EFFB04460028E7D12846FFF7AFFF2B687F
:105C6C00044643F001032B602B68DB07FCD400983F
:105C7C00FFF750FF204607B0F0BD00BF70B586B0EF
:105C8C0005460E4601A8FFF7FBFE00234FF4817278
:105C9C00284602A902968DF80C308DF80D30ADF81F
:105CAC000E2000F0C5FB044610B1204606B070BDB6
:105CBC0040F2031302A928468DF80C408DF80D40D4
:105CCC000296ADF80E3000F0B3FB04460028ECD180
:105CDC002846FFF773FF2B68044643F001032B6043
:105CEC002B68DB07FCD40198FFF714FF204606B0A5
:105CFC0070BD00BF2DE9F04186B005460E469046BA
:105D0C0001A81F46FFF7BCFE00234FF48172284602
:105D1C0002A902968DF80C308DF80D30ADF80E20DE
:105D2C0000F086FB044618B1204606B0BDE8F081B1
:105D3C0003224FF482738DF80C0002A928460296B8
:105D4C008DF80D20ADF80E30CDE9048700F070FB16
:105D5C0004460028E8D12846FFF730FF2B6804469C
:105D6C0043F001032B602B68DB07FCD40198FFF791
:105D7C00D1FE204606B0BDE8F08100BF10B5CAB018
:105D8C000446F02200210EA800F0D6FB6846FFF76F
:105D9C0077FEF0221E490EA800F0D2FB182102203B
:105DAC0000F0C2FB1B4A01A8136823F0C04343F068
:105DBC0080431360136823F0607343F080731360A7
:105DCC0000F02CF9012301A920468DF834308DF810
:105DDC0035308DF833308DF836308DF8043000F0D6
:105DEC005DF8204600220C4900F0D0F93C230EAAA5
:105DFC002046002100F064FA236843F0010323607D
:105E0C002368DB07FCD40098FFF784FE4AB010BD72
:105E1C00505910601CC00F40CC0A000008B59021EE
:105E2C00024B034A034800F083FB00BFB0581060DC
:105E3C000C591060D858106008B540F60A03024699
:105E4C000B401AD0080511D541F6593051690B4356
:105E5C005361D2F8BC3043F00103C2F8BC30D2F825
:105E6C00B83043F00103C2F8B83008BD080706D4B7
:105E7C00890707D541F65B30E8E7184608BD41F6BF
:105E8C005A30E3E7024BEA21024A034800F050FB88
:105E9C009C58106020591060D85810605B4B984289
:105EAC002DE9F04101D0FFF7B9FF594A52E8003F04
:105EBC0043F4406342E800300028F7D1534B1A6892
:105ECC001C4622F002021A601A6842F001021A60A3
:105EDC00236813F00103FBD18D7A1A46CF7808465C
:105EEC002B040E7C0D7943EA07334F7843F0020301
:105EFC0043EA06638E7843EA87338F7B43EAC523F4
:105F0C000D7843EA4633CE7B2D0143EAC7130F8944
:105F1C0005F0300543EA86134E8A2B4346EA0746C2
:105F2C004D792360ED0466603A4BA7680E7D3B40CB
:105F3C008F7945EA066591F82E601D4391F8303053
:105F4C0045EAC73591F831705B0145EAC62591F8F1
:105F5C002F60A56043EA8613E56891F8326025F05E
:105F6C0078052B43294D43EA07132B4F43EAC6030D
:105F7C00E36005EB820690F816E090F81A80013287
:105F8C00336A4FEA0E6E90F817C0042A03EA07032F
:105F9C000EF0407E4FEA0C4C048B43EAC87300F1C0
:105FAC0006000CF4702CC4F3C70443EA0E0343EA56
:105FBC000C0343EA04033362DBD1D5F8B83000227A
:105FCC0023F03C03C5F8B8300B7BD5F8B800DB08E0
:105FDC00013B9B0003F03C030343C5F8B830D5F8F4
:105FEC00BC3023F03C03C5F8BC30CB7AD5F8BC10E0
:105FFC00DB08013B9B0003F03C030B43C5F8BC30B2
:10600C002A666A66AA66EA66BDE8F08100802A40C4
:10601C0080C00F40FF77F70000FFF07CF8B5002838
:10602C0044D000F134010346002203F8012B8B42CB
:10603C00FBD14FF6FF744FF0010C40F6FF0708261A
:10604C0002702025427000F11603827000F12E01BF
:10605C000271427182718273C273002280F803C094
:10606C0004810474448247810673057503F8012B7F
:10607C008B42FBD101230F244FF480710283C28326
:10608C0080F82E2080F82F2080F8302080F83120E6
:10609C0080F83220837680F8203080F8263080F823
:1060AC002C30C475447781844185F8BD024B79212D
:1060BC00024A034800F03CFAA4581060FC581060E7
:1060CC00D8581060520810B4D0F8E0309C07FBD5BB
:1060DC00D0F8E030DB07F7D50368C3F30113032BCB
:1060EC001BD10B792BBB274B0C689C422DD8897C80
:1060FC004FF47A74244B04FB01F4A3FB0413DB0868
:10610C0003EB8301C1EB01118C4288BF01335B02AD
:10611C0003F4FC4343F4807301E04FF4807330329A
:10612C005DF8044B40F82230036823F0020303604F
:10613C0070474FF4807330325DF8044B40F82230D6
:10614C00036823F002030360704702F130037921E6
:10615C00002A40F82310036814BF4FF44032032286
:10616C0023F002030360D0F8E83032EA0303FAD1DB
:10617C00642300BF013B13F0FF03FAD15DF8044B1D
:10618C00704700BFFFE0F505B5814E1BF8B504461E
:10619C000D465608D4F8E0309807FBD5D4F8E0301B
:1061AC00D907F7D5AB6804EB8201EF890B666B7CE2
:1061BC0095F80CE003F01F03287D95F810C04FEA0A
:1061CC00CE3E43EA0743EF7C1FFA8EFE43EA802360
:1061DC00687E4FEA4C1C43EA0E03FF020CF4787CF9
:1061EC00B5F81AE007F4F047000743EA0C03DFF8B0
:1061FC00CCC000F0E0403B430CEA0E4C2E4F0B673A
:10620C0040EA0C03D1F880E0A87D0EEA07073B4377
:10621C0040B101386F7D40033F0280B207F47067D4
:10622C0038430343287E38B10138EF7D400107F035
:10623C000F07C0B238430343C1F8803020462946CB
:10624C00FFF740FF23682A7F43F002032360D4F852
:10625C009430EAB123F00103C4F89430D4F89430AC
:10626C00F6B923F00403C4F89430D4F8943043EA1C
:10627C008202C4F89420236823F002032360D4F82C
:10628C00E0309A07FBD5D4F8E030DB07F7D5F8BD42
:10629C0043F00103C4F89430D4F89430002EE0D0CD
:1062AC0023F00803C4F89430D4F8943043EAC202C3
:1062BC00C4F89420DFE700BF101000800000FF0F2F
:1062CC003F2938B51DD8D0F8E040A507FBD5D0F84C
:1062DC00E040E407F7D580310D4D0224856100EBD9
:1062EC008101C46143B10024013452F8045B0431D0
:1062FC00A34241F8045CF7D1054A01238261C361D2
:10630C0038BD044B4FF41071034A044800F010F9E7
:10631C00F05AF05AF05810603C591060D858106080
:10632C00F8B5D0F8BC6005460C461746C6F3830694
:10633C000136CAB1F60069694B06FCD52846FFF751
:10634C007BFD90B9BE4211D8A11954F8042B00F171
:10635C00600301308C4245F82320F6D16B69BF1BDA
:10636C0043F040036B61E6D10020F8BDFA1C0146F6
:10637C0022F00302224454F8046B01F16003013152
:10638C00A24245F82360F6D16B6943F040036B6180
:10639C00F8BD00BFF8B5D0F8B87004460D461646E7
:1063AC00C7F383070137F2B1FF00B74203D921E0ED
:1063BC00FFF742FDC0B9616920468B06F8D56169CB
:1063CC00FFF73AFD80B9EA1900F14003013054F8A7
:1063DC00233045F8043B9542F6D16369F61B43F034
:1063EC0020036361E1D10020F8BD6169FFF724FD52
:1063FC000028F9D1D4F8F0302046DBB2B6EBC30F4D
:10640C00F3D86169FFF718FD0028EDD10336034678
:10641C00B60803F14002013354F82220B34245F888
:10642C00042BF6D1636943F020036361F8BD00BF10
:10643C000B7900EB8303D3F8802070B542F0004257
:10644C0004460E680D46497982B0C3F88020636912
:10645C00481E43F01E03022801F0FD006361C4F8DE
:10646C00A06088BF0026D4F8BC3098BFAE89012844
:10647C0043F00103C4F8BC30D4F8B83043F0010346
:10648C00C4F8B830EB79AA7903F1FF334FEA024232
:10649C004FEA036302F4702203F0E06343EA020361
:1064AC0043EA0603C4F8A430D4F8B03043F0010337
:1064BC00C4F8B0301AD002291FD000200023019359
:1064CC00D4F8E0309A0706D5D4F8E030DB0702D5D3
:1064DC0029B102B070BD019B01330193F0E76169F2
:1064EC00204602B0BDE87040FFF7A6BCA968204664
:1064FC00EA68FFF715FF6979E0E7A9682046EA68C2
:10650C00FFF748FF6979D9E708B5044A044B1168CD
:10651C001B6804489847BFF34F8F08BD80000020CC
:10652C008400002000802A405FF800F0B139106030
:10653C005FF800F0694110605FF800F0CD4F10601B
:10654C005FF800F09126106040DCB311406BED0752
:10655C000000000000200000000002000303000007
:10656C00000000000100000000000000FFFFFFFF22
:10657C000000016000100160000B00000000000032
:10658C0000000000EC0D0000540E0000BC0E0000DA
:10659C0000000000000000000000000000000000EF
:1065AC0000000000000000000000000000000000DF
:1065BC0000000000000000000000000000000000CF
:1065CC0000000000000000000000000000000000BF
:1065DC0000000000000000000000000000000000AF
:1065EC00000000000000000000000000000000009F
:1065FC00000000000000000000000000000000008F
:10660C00000000000000000000000000000000007E
:10661C00000000000000000000000000000000006E
:10662C00000000000000000001000000000000005D
:10663C000E33CDAB34126DE6ECDE05000B00000022
:10664C00000000000000000000000000000000003E
:10665C00000000000000000000000000000000002E
:10666C00000000000000000000000000000000001E
:10667C00000000000000000000000000000000000E
:1069BC00280F0000280F0000300F0000300F0000DF
:1069CC00380F0000380F0000400F0000400F00008F
:1069DC00480F0000480F0000500F0000500F00003F
:1069EC00580F0000580F0000600F0000600F0000EF
:1069FC00680F0000680F0000700F0000700F00009F
:106A0C00780F0000780F0000800F0000800F00004E
:106A1C00880F0000880F0000900F0000900F0000FE
:106A2C00980F0000980F0000A00F0000A00F0000AE
:106A3C00A80F0000A80F0000B00F0000B00F00005E
:106A4C00B80F0000B80F0000C00F0000C00F00000E
:106A5C00C80F0000C80F0000D00F0000D00F0000BE
:106A6C00D80F0000D80F0000E00F0000E00F00006E
:106A7C00E80F0000E80F0000F00F0000F00F00001E
:106A8C00F80F0000F80F00000010000000100000CC
:106A9C00081000000810000010100000101000007A
:106AAC00181000001810000020100000201000002A
:106ABC0028100000281000003010000030100000DA
:106ACC00381000003810000040100000401000008A
:106ADC00481000004810000050100000501000003A
:106AEC0058100000581000006010000060100000EA
:106AFC00681000006810000070100000701000009A
:106B0C007810000078100000801000008010000049
:106B1C0088100000881000009010000090100000F9
:106B2C009810000098100000A0100000A0100000A9
:106B3C00A8100000A8100000B0100000B010000059
:106B4C00B8100000B8100000C0100000C010000009
:106B5C00C8100000C8100000D0100000D0100000B9
:106B6C00D8100000D8100000E0100000E010000069
:106B7C00E8100000E8100000F0100000F010000019
:106B8C00F8100000F81000000011000000110000C7
:106B9C000811000008110000101100001011000075
:106BAC001811000018110000201100002011000025
:106BBC0028110000281100003011000030110000D5
:106BCC003811000038110000401100004011000085
:106BDC004811000048110000501100005011000035
:106BEC0058110000581100006011000060110000E5
:106BFC006811000068110000701100007011000095
:106C0C007811000078110000801100008011000044
:106C1C0088110000881100009011000090110000F4
:106C2C009811000098110000A0110000A0110000A4
:106C3C00A8110000A8110000B0110000B011000054
:106C4C00B8110000B8110000C0110000C011000004
:106C5C00C8110000C8110000D0110000D0110000B4
:106C6C00D8110000D8110000E0110000E011000064
:106C7C00E8110000E8110000F0110000F011000014
:106C8C00F8110000F81100000012000000120000C2
:106C9C000812000008120000101200001012000070
:106CAC001812000018120000201200002012000020
:106CBC0028120000281200003012000030120000D0
:106CCC003812000038120000401200004012000080
:106CDC004812000048120000501200005012000030
:106CEC0058120000581200006012000060120000E0
:106CFC006812000068120000701200007012000090
:106D0C00781200007812000080120000801200003F
:106D1C0088120000881200009012000090120000EF
:106D2C009812000098120000A0120000A01200009F
:106D3C00A8120000A8120000B0120000B01200004F
:106D4C00B8120000B8120000C0120000C0120000FF
:106D5C00C8120000C8120000D0120000D0120000AF
:106D6C00D8120000D8120000E0120000E01200005F
:106D7C00E8120000E8120000F0120000F01200000F
:106D8C00F8120000F81200000013000000130000BD
:106D9C00081300000813000010130000101300006B
:106DAC00181300001813000020130000201300001B
:0C6DBC00FFFFFFFF00000200D4000020D9
:040000056010244D16
:00000001FF
