:0200000460009A
:10000000464346420004015600000000010303007D
:1000100000000000000000000000000000000000E0
:1000200000000000000000000000000000000000D0
:1000300000000000000000000000000000000000C0
:100040001000000001040700000000000000000094
:100050000000800000000000000000000000000020
:100060000000000000000000000000000000000090
:100070000000000000000000000000000000000080
:10008000EB04180A063204260000000000000000FD
:10009000050404240000000000000000000000002F
:1000A0000000000000000000000000000000000050
:1000B0000604000000000000000000000000000036
:1000C0000000000000000000000000000000000030
:1000D00020041808000000000000000000000000DC
:1000E0000000000000000000000000000000000010
:1000F0000000000000000000000000000000000000
:10010000D8041808000000000000000000000000F3
:100110000204180804200000000000000000000095
:1001200000000000000000000000000000000000CF
:10013000600400000000000000000000000000005B
:1001400000000000000000000000000000000000AF
:10015000000000000000000000000000000000009F
:10016000000000000000000000000000000000008F
:10017000000000000000000000000000000000007F
:10018000000000000000000000000000000000006F
:10019000000000000000000000000000000000005F
:1001A000000000000000000000000000000000004F
:1001B000000000000000000000000000000000003F
:1001C000000100000010000001000000000000001D
:1001D000000001000000000000000000000000001E
:1001E000000000000000000000000000000000000F
:1001F00000000000000000000000000000000000FF
:10020000FFFFFFFFFFFFFFFFFFFFFFFFFFFFFFFFFE
:10021000FFFFFFFFFFFFFFFFFFFFFFFFFFFFFFFFEE
:10100000D10020410020006000000000000000002E
:1010100020100060001000600000000000000000D0
:10102000000000600000800000000000FFFFFFFFE4
:10103000FFFFFFFFFFFFFFFFFFFFFFFFFFFFFFFFC0
:10104000FFFFFFFFFFFFFFFFFFFFFFFFFFFFFFFFB0
:10105000FFFFFFFFFFFFFFFFFFFFFFFFFFFFFFFFA0
:10106000FFFFFFFFFFFFFFFFFFFFFFFFFFFFFFFF90
:1020000000000120DD22006061230060875900602C
:102010006523006067230060692300600000000002
:102020000000000000000000000000006B230060C2
:102030006D230060000000006F2300600354006007
:10204000B74C0060BF4C0060C74C0060CF4C0060D4
:10205000D74C0060DF4C0060E74C0060EF4C006044
:10206000F74C0060FF4C0060074D00600F4D0060B2
:10207000174D00601F4D0060274D00602F4D006020
:10208000374D00603F4D0060474D00604F4D006090
:10209000574D0060455600605F4D0060674D006021
:1020A0006F4D0060774D00607F4D0060874D006090
:1020B0008F4D0060974D00609F4D0060A74D006000
:1020C000AF4D0060B74D0060BF4D0060C74D006070
:1020D000CF4D0060D74D0060DF4D0060E74D0060E0
:1020E000EF4D0060F74D0060FF4D0060074E00604F
:1020F0000F4E0060174E00601F4E0060274E0060BC
:102100002F4E0060374E00603F4E0060474E00602B
:102110004F4E0060574E00605F4E0060674E00609B
:102120006F4E0060774E00607F4E0060874E00600B
:102130008F4E0060974E00609F4E0060A74E00607B
:10214000AF4E0060B74E0060BF4E0060C74E0060EB
:10215000CF4E0060D74E0060DF4E0060E74E00605B
:10216000EF4E0060F74E0060FF4E0060074F0060CA
:102170000F4F0060174F00601F4F0060274F006037
:102180002F4F0060374F00603F4F0060474F0060A7
:102190004F4F0060574F00605F4F0060674F006017
:1021A0006F4F0060774F00607F4F0060874F006087
:1021B0008F4F0060974F00609F4F0060A74F0060F7
:1021C000AF4F0060B74F0060BF4F0060C74F006067
:1021D000CF4F0060D74F0060DF4F0060E74F0060D7
:1021E000EF4F0060F74F0060FF4F00600750006046
:1021F0000F500060175000601F50006027500060B3
:102200002F500060375000603F5000604750006022
:102210004F500060575000605F5000606750006092
:102220006F500060775000607F5000608750006002
:102230008F500060975000609F500060A750006072
:10224000AF500060B7500060BF500060C7500060E2
:10225000CF500060D7500060DF500060E750006052
:10226000EF500060F7500060FF50006007510060C1
:102270000F510060175100605061006000000020A5
:102280000800000050610060000000000000000035
:1022900050610060000020200000000050610060DC
:1022A0000000008000000000506100600000E0813C
:1022B00000000000080000202005000000000000D1
:1022C000000000000000202000000000000000804E
:1022D000000000000000E0810000000072B6104B1A
:1022E00083F3088801F0A0FC0E4B07E003F10C0417
:1022F0009A685968186800F01BF823460A4A934206
:10230000F4D306E01C46596854F8080B00F01FF897
:102310002346064A9342F5D362B603F058FCFEE723
:102320000000012078220060B4220060DC220060FE
:10233000002393420AD210B450F8044B41F8044BE6
:1023400004339342F8D35DF8044B70477047002381
:1023500003E0002240F8042B04338B42F9D370478A
:10236000FEE7FEE7FEE7FEE7FEE7FEE7FEE7FEE745
:10237000FEE7FEE780B582B000AF7860796802487A
:1023800002F002FC00BEFDE7D05E006080B584B0C4
:1023900000AF786039600023FB60094B1B7C002B89
:1023A00002D14FF0FF3306E03A687968054800F043
:1023B00023F8F860FB6818461037BD4680BD00BFA3
:1023C00008000020C923006080B582B000AF7860AB
:1023D000084B1B7C002B02D14FF0FF3306E0054B6E
:1023E0009B68391D01220348984701231846083786
:1023F000BD4680BD0800002080B59CB002AFF860EB
:10240000B9607A6000233B660023FB650023FB6113
:10241000002387F84A3000237B61BB687B667B6EB4
:102420001B78002B00F0D2817B6E1B7887F8493037
:1024300097F84930252B0BD097F84920FB681046B8
:102440009847FB690133FB617B6E01337B66BCE11E
:10245000012387F84B3000237B65002387F85B302E
:1024600020E07B6E01337B667B6E1B7887F84930FA
:1024700097F849302F2B0FD997F84930392B0BD8C3
:102480007A6D13469B0013445B001A4697F8493057
:102490001344303B7B6505E07B6E013B7B6601238B
:1024A00087F85B3097F85B3083F00103DBB2002BD9
:1024B000D7D17B6E01337B667B6E1B782E2B2ED1A2
:1024C00000233B65002387F85B3020E07B6E0133FF
:1024D0007B667B6E1B7887F8493097F849302F2B45
:1024E0000FD997F84930392B0BD83A6D13469B001A
:1024F00013445B001A4697F849301344303B3B6560
:1025000005E07B6E013B7B66012387F85B3097F823
:102510005B3083F00103DBB2002BD7D102E07B6E8E
:10252000013B7B667B6E01337B667B6E1B7887F895
:10253000493097F84930642B24D097F84930692BFB
:1025400020D097F84930662B1CD097F84930462B9D
:1025500018D097F84930782B14D097F84930582B79
:1025600010D097F849306F2B0CD097F84930622B78
:1025700008D097F84930702B04D097F84930752B64
:1025800040F0DC8097F84930642B03D097F849304D
:10259000692B15D17B681A1D7A601B68BB6107F136
:1025A000180107F1200097F84B3000930A2301220D
:1025B00002F020FBF86507F12002FB6D13443B6637
:1025C00097F84930582B03D097F84930782B1CD115
:1025D00097F84930782B02D1002387F84B307B687D
:1025E0001A1D7A601B687B6107F1140107F1200056
:1025F00097F84B3000931023002202F0FBFAF865A5
:1026000007F12002FB6D13443B6697F849306F2BAE
:102610000BD097F84930622B07D097F84930702BD0
:1026200003D097F84930752B6AD197F84930702B51
:102630000DD17B681A1D7A601B683B6107F11001A0
:1026400007F114030422184603F0C8FA04E07B687B
:102650001A1D7A601B687B6197F84930623B132B27
:102660003AD801A252F823F0C1260060D9260060B2
:10267000D9260060D9260060D9260060D9260060DE
:10268000D9260060D9260060D9260060D9260060CE
:10269000D9260060D9260060D9260060B9260060DE
:1026A000C9260060D9260060D9260060D9260060BE
:1026B000D9260060D1260060082387F84A300CE054
:1026C000022387F84A3008E0102387F84A3004E0F4
:1026D0000A2387F84A3000E000BF97F84A2007F144
:1026E000140107F1200097F84B30009313460022A5
:1026F00002F080FAF86507F12002FB6D13443B6697
:102700007A6D07F11C01FB6800930B46F96D2020E0
:1027100002F050FA3B6E002B54D00AE03B6E5A1E7A
:102720003A661B781A46FB6810469847FB690133E6
:10273000FB613B6E1B78002BF0D143E097F84930EA
:10274000632B0BD17B681A1D7A601B687B64FB6866
:10275000786C9847FB690133FB6133E097F84930A7
:10276000732B27D17B681A1D7A601B68FB64FB6C96
:10277000002B27D0F86C03F06CFA0346FB657A6DEA
:1027800007F11C01FB6800930B46F96D202002F055
:1027900011FA0AE0FB6C5A1CFA641B781A46FB68B3
:1027A00010469847FB690133FB61FB6C1B78002BDB
:1027B000F0D107E097F84920FB6810469847FB697D
:1027C0000133FB617B6E01337B6628E600BFFB694A
:1027D00018466837BD4680BD80B586B000AFF8604A
:1027E000B9607A600023FB750023BB754AE1BB68C2
:1027F0001B78252B40F02A81FB7D002B40F02681A1
:10280000BB6801331B78302B07D1BB6802331B78C0
:10281000303BBB75BB680233BB60BB6801331B78C0
:10282000002B3BD0002BC0F21381782B00F31081DA
:10283000632BC0F20D81633B152B00F2098101A2CD
:1028400052F823F0A5280060BF280060D728006058
:10285000D7280060D7280060512A0060BF28006098
:10286000512A0060512A0060FF280060512A006050
:10287000512A0060512A0060512A0060512A0060EC
:10288000512A0060C9290060512A0060E1290060D6
:10289000512A0060512A0060FB290060BB680133A7
:1028A000BB60EFE07B681A1D7A601B68DBB21946DB
:1028B000F86802F034FCBB680233BB60E2E07B687E
:1028C0001A1D7A601B681946F86802F00AFDBB6899
:1028D0000233BB60D6E07B68073323F0070303F1C4
:1028E00008027A6093ED007BF7EEC77BB0EE670AD3
:1028F000F86800F04BF9BB680233BB60C2E0BB680C
:1029000002331B78643B142B51D801A252F823F0F8
:1029100065290060AF290060AF290060AF29006021
:10292000AF29006065290060AF290060AF29006011
:10293000AF290060AF290060AF290060AF290060B7
:10294000AF290060AF290060AF290060AF290060A7
:10295000AF2900607D290060AF290060AF290060C9
:10296000952900607B681A1D7A601B681946F86813
:1029700002F0B7FCBB680133BB6021E07B681A1D25
:102980007A601B681946F86800F0C4F8BB68013328
:10299000BB6015E07B681A1D7A601B680822194627
:1029A000F86802F0CDFCBB680133BB6008E07B68CF
:1029B0001A1D7A601B681946F86802F092FC00BF85
:1029C000BB680233BB605DE07B681A1D7A601B68E0
:1029D0001946F86802F09DFCBB680233BB6051E009
:1029E0007B681A1D7A601B689BB21946F86800F074
:1029F00053F8BB680233BB6044E0BB7D042B0AD9AB
:102A00007B681A1D7A601B681946BB7D1A46F868F8
:102A100002F096FC16E0BB7D002B0AD07B681A1DE5
:102A20007A601B681946BB7D1A46F86802F088FC7C
:102A300008E07B681A1D7A601B6804221946F86852
:102A400002F07EFCBB680233BB601BE000BF00E00D
:102A500000BFBB681B785C2B0AD1BB6801331B78B5
:102A6000252B05D1BB680133BB600123FB7509E051
:102A7000BB685A1CBA601B781946F86802F04FFB15
:102A80000023FB75BB681B78002B7FF4B0AE00BF42
:102A900000BF1837BD4680BD80B586B000AF7860F6
:102AA0000B467B8000237B617A88194BA3FB0213C2
:102AB000D9080B469B000B445B00D31A9BB2DBB2D8
:102AC0003033D9B207F10C027B6913440A461A70FD
:102AD0007B880F4AA2FB0323DB087B807B690133E1
:102AE0007B617B88002BDFD17B69013B7B6107F138
:102AF0000C027B6913441B781946786802F00FFBBF
:102B00007B69002BF0D100BF00BF1837BD4680BDE8
:102B1000CDCCCCCC80B586B000AF786039600023D6
:102B20007B613968184BA3FB0123DA0813469B002D
:102B300013445B00CA1AD3B23033D9B207F108028A
:102B40007B6913440A461A703B680F4AA2FB0323B1
:102B5000DB083B607B6901337B613B68002BE0D184
:102B60007B69013B7B6107F108027B6913441B7899
:102B70001946786802F0D3FA7B69002BF0D100BFC8
:102B800000BF1837BD4680BDCDCCCCCC80B584B05D
:102B900000AF786087ED000AD7ED007AFDEEE77AA6
:102BA00017EE903AFB60FB681BB21946786802F09A
:102BB0007DFBD7ED007A9FED1A7A67EE877AFDEEFE
:102BC000E77A17EE903ABB60FB68164A02FB03F304
:102BD000BA681344BB602E21786802F0A0FABB6883
:102BE000632B03DC3021786802F099FABB68092B6B
:102BF00003DC3021786802F092FABB68002B04D124
:102C00003021786802F08BFA05E0BB689BB2194668
:102C10007868FFF741FF00BF1037BD4680BD00BF99
:102C200000007A4418FCFFFF80B483B000AF034675
:102C30003960FB80B7F90630002B0ADB3B68DAB25B
:102C40000C49B7F906301201D2B20B4483F80023C5
:102C50000AE03B68DAB20849FB8803F00F03043B43
:102C60001201D2B20B441A7600BF0C37BD465DF894
:102C7000047B704700E100E000ED00E080B582B029
:102C800000AF78607B68013BB3F1807F01D3012303
:102C90000FE00A4A7B68013B53600F214FF0FF3081
:102CA000FFF7C2FF054B00229A60044B07221A600F
:102CB000002318460837BD4680BD00BF10E000E085
:102CC00080B500AF0248FFF7D9FF00BF80BD00BF4D
:102CD00020A1070080B483B000AF0346FB80B7F9A2
:102CE0000630002B0BDBFB8803F01F020749B7F906
:102CF00006305B09012000FA02F241F8232000BFF0
:102D00000C37BD465DF8047B704700BF00E100E072
:102D100080B483B000AF0346FB80B7F90630002BC8
:102D200012DBFB8803F01F020A49B7F906305B0982
:102D3000012000FA02F2203341F82320BFF34F8F25
:102D400000BFBFF36F8F00BF00BF0C37BD465DF8FB
:102D5000047B704700E100E080B483B000AF03461D
:102D6000FB80B7F90630002B0CDBFB8803F01F0259
:102D70000749B7F906305B09012000FA02F2603317
:102D800041F8232000BF0C37BD465DF8047B704737
:102D900000E100E080B483B000AF03463960FB80FF
:102DA000B7F90630002B0ADB3B68DAB20C49B7F9F9
:102DB00006301201D2B20B4483F800230AE03B68CC
:102DC000DAB20849FB8803F00F03043B1201D2B2C8
:102DD0000B441A7600BF0C37BD465DF8047B704784
:102DE00000E100E000ED00E080B586B000AF0346F2
:102DF0000A46FB8013467B71B7F906301B0A7B61DC
:102E0000FB8803F01F033B617B69062B02D90C484A
:102E1000FFF7B0FA7A690B4B13449B00FB60032267
:102E20003B6902FA03F17A793B6902FA03F31A4625
:102E3000F86802F0ECFA00BF1837BD4680BD00BF4D
:102E4000E45E00601AF00310B0B58CB000AF03462A
:102E50003960FB71464B07F108041D460FCD0FC4C6
:102E60000FCD0FC42B682360FB79184600F0D8F80B
:102E7000F862FB6A002B74D0FB799B0030333B4433
:102E800053F8283C1BB2184602F0E9FAFB79013BE3
:102E9000072B68D801A252F823F000BFBD2E0060B6
:102EA000DF2E0060012F0060012F0060012F006005
:102EB000012F0060012F0060012F00602D4B0222C6
:102EC000C3F8D4202B4B0822C3F84822294B0222F6
:102ED000C3F8D820274B0822C3F84C2211E0254B19
:102EE0000222C3F81C21234B0822C3F89022214B55
:102EF0000222C3F820211F4B0822C3F8942200E0CD
:102F000000BFFB6A02229A60FB6A9B6823F0020200
:102F1000FB6A9A60FB6A0022DA60FB6A164A5A6111
:102F2000FB6A00229A62154A3B68B2FBF3F33B60EE
:102F30003B6843F07062FB6A1A61FB6A00229A6187
:102F4000FB79184602F0B4FAFB79184602F010FB40
:102F5000FB79184602F092FAFB79184600F010F857
:102F600002E000BF00E000BF3037BD46B0BD00BF8B
:102F7000545F006000801F4000001F40404B4C0029
:102F800080B584B000AF0346FB710023FB60FB7982
:102F9000013B072B40D801A252F823F0BD2F00605F
:102FA000C32F0060C92F0060CF2F0060D52F0060B5
:102FB000DB2F0060E12F0060E72F00601423FB602F
:102FC00014E01523FB6011E01623FB600EE01723CD
:102FD000FB600BE01823FB6008E01923FB6005E0B1
:102FE0001A23FB6002E01B23FB6000BFFB681BB2DF
:102FF0001846FFF78DFEFB681BB21846FFF7ACFEC4
:10300000FB681BB201211846FFF7C4FEFB681BB228
:103010001846FFF75FFE00E000BF1037BD4680BDD9
:1030200080B485B000AF0346FB710023FB60FB79E1
:10303000013B072B2AD801A252F823F05D30006033
:1030400063300060693000606F3000607530006090
:103050007B30006081300060873000600F4BFB6088
:1030600015E00F4BFB6012E00E4BFB600FE00E4BC8
:10307000FB600CE00D4BFB6009E00D4BFB6006E0D4
:103080000C4BFB6003E00C4BFB6000E000BFFB68F7
:1030900018461437BD465DF8047B70470040184061
:1030A0000080184000C0184000001940004019403E
:1030B0000080194000C0194000001A4080B485B05B
:1030C00000AF7860314B1B8801339AB22F4B1A80C6
:1030D0002E4B1B88FB811DE07B68DA682B4B1B881D
:1030E00019460B465B000B449B0013445B68012BA5
:1030F0000AD17B68DA68254B1B8819460B465B00B2
:103100000B449B0013443BE0204B1B8801339AB2D5
:103110001E4B1A807B685A891C4B1B889A42DBD84D
:103120007B685B89FA899A4202D97B685B89FB815B
:10313000164B00221A801DE07B68DA68134B1B884F
:1031400019460B465B000B449B0013445B68012B44
:103150000AD17B68DA680D4B1B8819460B465B0069
:103160000B449B0013440BE0084B1B8801339AB2BD
:10317000064B1A80054B1B88FA899A42DCD800233B
:1031800018461437BD465DF8047B704704000020E4
:1031900080B582B002AF134B1B78002B1ED1114BB0
:1031A00001221A7000F08CF80F4B009314230F4A81
:1031B00010210F4802F050FA0E490D4802F0ABFA08
:1031C0000D490B4802F0B5FA0C4B00221A600C4B6B
:1031D0000B4A00210B4800F017F800E000BFBD4685
:1031E00080BD00BF200500205C0100201C000020E5
:1031F0004C0200200F590060375900608002002007
:10320000FF6780CC5932006080B586B000AFF860AF
:10321000B9607A603B600F4802F099FA78617B6987
:10322000002B02D14FF0FF3310E07B69FA681A607F
:1032300000F062F802467B681A447B699A607B69F9
:103240003A68DA607B69BA685A6000231846183712
:10325000BD4680BD4C02002080B582B000AF00F0BA
:103260004BF838600E4802F0AFFA78600FE07B68E8
:103270009B683A689A4205D27B689A683B68D21A82
:103280007B689A607968064802F0B9FA78607B68D2
:10329000002BECD100F05CF800BF0837BD4680BDC4
:1032A0004C02002080B400AF044B1B680133034A7A
:1032B000136000BFBD465DF8047B704784020020A8
:1032C00080B500AF094B1B78002B0CD1084B0022B6
:1032D0001A60084B4FF0FF321A60FFF7F1FC034B06
:1032E00001221A7000E000BF80BD00BF2105002050
:1032F000840200208802002080B400AF034B1B68CA
:103300001846BD465DF8047B704700BF840200206C
:1033100080B483B000AF78600B4B1B687A689A4228
:1033200004D8094B1A687B68D31A07E0074B1A6860
:103330007B68D21A044B1B681344013318460C37C0
:10334000BD465DF8047B704784020020880200209F
:1033500080B400AF054B1B68054A1360034B002285
:103360001A6000BFBD465DF8047B704784020020F0
:103370008802002080B582B000AF0346FB71234B6A
:103380001B78002B07D1FFF703FF01230122002147
:103390001F48FFF739FF1D4B01221A701D4B0022F9
:1033A0001A701D4B00221A70FB79022B2AD1FB796F
:1033B0004FF4E1311846FFF747FD2022174918481E
:1033C00001F051FF4FF480721649174801F04BFF8E
:1033D000164B04221A80154B00225A80134B144AB4
:1033E0005A60144B0E4A9A62124B0F4ADA62114B22
:1033F0000E4A1A630F4B00229A630E4B002283F889
:10340000342000BF00BF0837BD4680BD2405002022
:10341000393400602205002023050020C403002069
:103420008C020020C4020020A8020020E403002037
:10343000EC030020FC03002080B586B000AF7A4B7F
:103440001B78002B6BD00023BB6065E0764B1B78AC
:103450001A46BB6842FA03F303F00103002B58D06D
:10346000BA68724913469B0013449B000B441B68C7
:10347000184601F0ECFE03463B603B68142B02D972
:1034800014233B6040E0BB68012202FA03F3DB43F4
:103490005AB2654B1B785BB213405BB2DAB2624B37
:1034A0001A7031E0BA68614913469B0013449B00CF
:1034B0000B441B68184601F096FE0346FB7500237B
:1034C0007B6013E0BA68594913469B0013449B0084
:1034D0000B4408331B685A687B689B0013441B68C5
:1034E000FA7D104698477B6801337B60BA684F4984
:1034F00013469B0013449B000B4408331B685B88F6
:103500001A467B689A42DDD83B685A1E3A60002B07
:10351000C8D1BB680133BB60BB68022B96D9444B52
:103520001B78002B7BD00023BB6075E000233B6041
:1035300047E0BA683D4913469B0013449B000B4487
:103540000C331B781A463B6842FA03F303F001037D
:10355000002B33D0BA68354913469B0013449B00B7
:103560000B4410331B68002B0CD0BA682F4913464C
:103570009B0013449B000B4410331B683A68D2B283
:10358000104698473B68012202FA03F3D843BA6811
:10359000264913469B0013449B000B440C331B78B5
:1035A00059B243B20B405BB2D8B2204913469B00DC
:1035B00013449B000B440C3302461A703B680133E2
:1035C0003B603B68032BB4D9EFF31083FB60FB68CF
:1035D0003B6172B600BFBA68144913469B0013449E
:1035E0009B000B440C331B78002B0DD1BB680122D0
:1035F00002FA03F3DB435AB20D4B1B785BB2134064
:103600005BB2DAB20A4B1A703B69002B01D162B689
:1036100000BFBB680133BB60BB68022B86D900BF0B
:103620001837BD4680BD00BF22050020FC030020E6
:10363000230500200EB480B585B000AF0346FB71B2
:1036400007F12003FB60FA790B4913469B001344F2
:103650009B000B4404331B68FA68F9691846FFF7AE
:10366000BBF8FB79184600F045F800BF1437BD469B
:10367000BDE8804003B07047FC03002080B582B0F5
:1036800000AF0346FB7127E0FA79194913469B0006
:1036900013449B000B4404331B68184601F0D7FD0C
:1036A0000346002B13D0FA79114913469B001344AB
:1036B0009B000B4404331B68184601F094FD03463D
:1036C0001A46FB791146184601F03AFF04E0FB79EF
:1036D000184601F01DFF07E0FB79184601F07AFF5C
:1036E0000346002BD0D100BF00BF0837BD4680BDC8
:1036F000FC03002080B582B000AF0346FB71FB796C
:10370000184601F083FF0346002B2FD121E0FA7900
:10371000184913469B0013449B000B4404331B6859
:10372000184601F094FD0346002B1ED0FA7911498A
:1037300013469B0013449B000B4404331B6818463C
:1037400001F051FD03461A46FB791146184601F077
:10375000F7FEFB79184601F03DFF0346002BD6D15A
:10376000FB79184601F0BCFE00E000BF0837BD46FB
:1037700080BD00BFFC03002090B583B000AF0346BE
:10378000FB711DE0FA79144913469B0013449B001A
:103790000B441C68FB79184601F0EAFE0346194603
:1037A000204601F0BCFCFB79012202FA03F35AB275
:1037B0000A4B1B785BB213435BB2DAB2074B1A7049
:1037C000FB79184601F0EAFE0346002BDAD100BF70
:1037D00000BF0C37BD4690BDFC0300202205002031
:1037E00080B584B000AF00F003FB02F0EAF902F00C
:1037F0007BF9214B0522C3F8D0201F4B0822C3F8C8
:1038000044221E4B5B681D4A43F020035360002393
:10381000FB7212E000237B6002E07B6801337B6077
:103820007B68174A9342F8D9144B2022C3F88C20A6
:10383000FB7ADBB20133DBB2FB72FB7ADBB2032B28
:10384000E8D9FFF73DFD0220FFF794FD0D49022066
:10385000FFF7F0FE0023FB60FB685A1CFA601A4673
:1038600009490220FFF7E6FE044B2022C3F88C2012
:10387000642002F073F8EFE700801F4000801B40D7
:103880007FF0FA02785F0060905F006080B582B0E0
:1038900000AF0346FB71FB7983F00103DBB2002B21
:1038A00002D11348FEF766FD124B4FF08042C3F879
:1038B000582100BF0F4BD3F8703203F48033002B34
:1038C000F8D00C4B4FF48032C3F8542100BF094BA1
:1038D000D3F8503103F40043002BF8D0054B4FF4DC
:1038E0008032C3F8582100BF0837BD4680BD00BFF5
:1038F0009C5F006000800D4080B483B000AF034641
:10390000FB71FB79002B04D1074B1022C3F8742202
:1039100003E0054B1022C3F8782200BF0C37BD46E8
:103920005DF8047B704700BF00800D4080B400AF9D
:10393000064BD3F87032054A43F00103C2F87032E7
:1039400000BFBD465DF8047B704700BF00800D409E
:1039500080B483B000AF7860224B1B6B23F4E0325D
:103960007B681B7B9B039BB213431E4A43F480334B
:1039700013631C4B1A6B1C4B13407A68127802F0CD
:1039800001021343174A43F4005313637B685B68D7
:10399000144A23F0404313657B689B68114A23F067
:1039A000404313667B685B8AC3F30E027B681B7C13
:1039B000DB039BB21A437B68DB891B040949134371
:1039C0000B6400BF074B1B6B002BFBDA054B1B6B1B
:1039D000044A23F48033136300BF0C37BD465DF8FF
:1039E000047B704700800D40FECFFFFF80B400AF26
:1039F000044B4FF480521A6700BFBD465DF8047B4C
:103A0000704700BF00800D4080B485B000AF786083
:103A10007B68DB7803F00303FB60224BD3F8E030D4
:103A200023F4E0327B681B799B039BB213431D4A4E
:103A300043F48033C2F8E0307B681B78002B03D05E
:103A4000FB6843F40053FB607B689B78002B03D03A
:103A5000FB6843F40013FB607B685B78002B03D0AA
:103A6000FB6843F48003FB600E4BD3F8E0200E4B61
:103A700013400C49FA681343C1F8E03000BF094B0A
:103A8000D3F8E030002BFADA064BD3F8E030054AE1
:103A900023F48033C2F8E03000BF1437BD465DF830
:103AA000047B704700800D40FCEFFFFF80B485B0C1
:103AB00000AF03460A46FB711346BB71FB79FB60FE
:103AC000124BD3F80021FB68DB00BF2101FA03F39E
:103AD000DB431340BB60FB68DB0080229A400B494C
:103AE000BB681343C1F80031BB7903F03F02FB68A8
:103AF000DB009A400549BB681343C1F8003100BFA1
:103B00001437BD465DF8047B704700BF00800D4050
:103B100080B500AF054B1B68054A52681146054841
:103B20009847BFF34F8F00BF00BF80BD64040020E3
:103B3000400400200040184080B500AF054B1B68D2
:103B4000054AD268114605489847BFF34F8F00BF1A
:103B500000BF80BD640400204004002000C0184065
:103B600080B500AF054B1B68054A12691146054830
:103B70009847BFF34F8F00BF00BF80BD6404002093
:103B8000400400200000194080B500AF054B1B68C1
:103B9000054A5269114605489847BFF34F8F00BF49
:103BA00000BF80BD64040020400400200040194094
:103BB00080B500AF054B1B68054A92691146054860
:103BC0009847BFF34F8F00BF00BF80BD6404002043
:103BD000400400200080194080B500AF054B1B68F1
:103BE000054AD269114605489847BFF34F8F00BF79
:103BF00000BF80BD640400204004002000C01940C4
:103C000080B500AF054B1B68054A126A114605488E
:103C10009847BFF34F8F00BF00BF80BD64040020F2
:103C20004004002000001A4080B500AF484BD3F894
:103C30008830474A43F47003C2F88830444B454A01
:103C40009A60454B1B899BB2434A23F001039BB208
:103C50001381424B1B899BB2404A23F001039BB264
:103C600013813D4B1B889BB203F00403002B07D04C
:103C7000394B1B889BB2384A23F004039BB2138054
:103C8000364B1B889BB203F00403002B07D0334B49
:103C90001B889BB2314A23F004039BB21380304B44
:103CA0001B6803F40053002B03D02D4B2D4A5A60A0
:103CB00007E02B4B4CF220525A60294B4DF628124C
:103CC0005A60274B4FF6FF729A60254B1B6823F012
:103CD000A003234A43F020031360234B1B6803F027
:103CE0000103002B05D0204B1B681F4A23F0010362
:103CF0001360174B5B6903F40033B3F5003F22D028
:103D0000134B5B6903F40033002B1BD1BFF34F8FC0
:103D100000BFBFF36F8F00BF0D4B0022C3F85022CE
:103D2000BFF34F8F00BFBFF36F8F00BF084B5B69BE
:103D3000074A43F400335361BFF34F8F00BFBFF313
:103D40006F8F00E000BF01F034FE00BF80BD00BFF8
:103D500000ED00E00020006000800B4000000D40FE
:103D600000C00B4020C528D910E000E080B483B02B
:103D700000AF7860BFF35F8F00BF0B4A7B6843F0F2
:103D800001035360094B5B6A084A43F48033536272
:103D9000BFF34F8F00BFBFF36F8F00BF00BF0C3763
:103DA000BD465DF8047B704790ED00E000ED00E05B
:103DB00080B400AFBFF35F8F00BF0B4B5B6A0A4A52
:103DC00023F480335362094B5B68084A23F00103F4
:103DD0005360BFF34F8F00BFBFF36F8F00BF00BFB3
:103DE000BD465DF8047B704700ED00E090ED00E01B
:103DF00080B58AB000AF9B4B7B629B4A7B6AD31A2B
:103E00003B6200233B61994B5B6903F40033B3F5DC
:103E1000003F16D1BFF34F8F00BFBFF36F8F00BFBE
:103E2000924B5B69914A23F4003353618F4B00221C
:103E3000C3F85022BFF34F8F00BFBFF36F8F00BF97
:103E400000BF8A4B5B6903F48033B3F5803F4DD1EB
:103E5000864B0022C3F88420BFF34F8F00BF834BF3
:103E60005B69824A23F480335361BFF34F8F00BFF5
:103E70007E4A07F10803C2F870327C4A3B1DC2F843
:103E800070327A4A07F10C03C2F87032BFF34F8FD9
:103E900000BFBFF36F8F00BF744BD3F88030FB605F
:103EA000FB685B0BC3F30E03BB60FB68DB08C3F36B
:103EB00009037B60BB685A0143F6E07313407A68DC
:103EC00092076A491343C1F874327B685A1E7A60BC
:103ED000002BEFD1BB685A1EBA60002BE5D1BFF3AF
:103EE0004F8F00BFBFF36F8F00BF00BFFFF760FFB2
:103EF0005F4B1022DA605E4B5E4A1A615C4B5E4A91
:103F0000DA605B4B5D4A1A61594B5D4ADA60584B87
:103F10005A4A1A61564B5B4ADA60554B5A4A1A6143
:103F2000534B1422DA60524B584A1A61504B1522F7
:103F3000DA604F4B564A1A614D4B564ADA604C4B89
:103F4000534A1A614A4B544ADA60494B534A1A6140
:103F5000474B534ADA60464B524A1A6102E03B69CA
:103F600001333B613B693A6A22FA03F3012BF6D82D
:103F70003B69002B2DD07B6A3A6AB3FBF2F2396AB7
:103F800001FB02F29B1A002B02D04748FEF7F2F920
:103F90003B69012202FA03F31A463B6A934202D0BC
:103FA0004248FEF7E7F93B69042B02D84048FEF788
:103FB000E1F97B6A23F01F032D4A43F01903D36014
:103FC0003B69013B5B0003F03E022949394B134337
:103FD0000B61274B384ADA60254B384A1A610420B6
:103FE000FFF7C4FE214B5B6903F48033002B67D1DC
:103FF0001E4B0022C3F88420BFF34F8F00BF1B4B22
:10400000D3F88030FB61FB695B0BC3F30E03BB612C
:10401000FB69DB08C3F309037B61BB695A0143F603
:10402000E07313407A69920710491343C1F8603274
:104030007B695A1E7A61002BEFD1BB695A1EBA61A7
:10404000002BE5D1BFF34F8F00BF084B5B69074AD8
:1040500043F480335361BFF34F8F00BFBFF36F8FC3
:104060002FE000BF0000E0810000008200ED00E0D2
:1040700090ED00E03F0000101100008039001003B7
:1040800012000060130000602D0003063B001003C7
:104090001F00030316000020170020202100030347
:1040A0001800008031000303C05F0060E85F00601B
:1040B00014600060010008031A0000402B00100388
:1040C00000BF134B5B6903F40033002B1BD1BFF31C
:1040D0004F8F00BFBFF36F8F00BF0D4B0022C3F89F
:1040E0005022BFF34F8F00BFBFF36F8F00BF084B4D
:1040F0005B69074A43F400335361BFF34F8F00BF3E
:10410000BFF36F8F00E000BF00BF2837BD4680BD02
:1041100000ED00E080B584B000AF786039607B6866
:104120009B0EFB607B68DAB21F4B13441A687B68F6
:104130005B0BC3F30C017B681B0A03F01F0301FA3E
:1041400003F3DB4302EA03017B681B0A03F01F034E
:104150003A689A407B685B0BC3F30C007B681B0AD0
:1041600003F01F0300FA03F31A407B68D8B20E4B2A
:104170000344184641EA02030360FB68202B02D97E
:104180000A48FEF7F7F8FB68202B09D000BF064B62
:104190009A6CFB6822FA03F303F00103002BF6D1BB
:1041A00000BF1037BD4680BD00C00F402C600060CE
:1041B00080B584B000AF786039607B689B0EFB608F
:1041C0007B68DAB21F4B13441A687B685B0BC3F33E
:1041D0000C017B681B0A03F01F0301FA03F3DB43A6
:1041E00002EA03017B681B0A03F01F033A689A4046
:1041F0007B685B0BC3F30C007B681B0A03F01F0397
:1042000000FA03F31A407B68D8B20E4B03441846F9
:1042100041EA02030360FB68202B02D90A48FEF73B
:10422000A9F8FB68202B09D000BF064B9A6CFB68ED
:1042300022FA03F303F00103002BF6D100BF10377D
:10424000BD4680BD00C00F40AC60006080B586B048
:1042500000AF03460A46FB8013467B71B7F9063070
:104260001B0A7B61FB8803F01F033B617B69062B04
:1042700002D90C48FEF77EF87A690B4B13449B0079
:10428000FB6003223B6902FA03F17A793B6902FA87
:1042900003F31A46F86801F093FB00BF1837BD46D8
:1042A00080BD00BFE45E00601AF0031080B483B0EC
:1042B00000AF7860044A7B68136000BF0C37BD46CE
:1042C0005DF8047B704700BF3804002080B483B0E1
:1042D00000AF7860044A7B68136000BF0C37BD46AE
:1042E0005DF8047B704700BF3C04002080B485B0BB
:1042F00000AF78600B46FB701346BB707B689A6812
:104300000A4B1340FB60FB789B0603F08062FB685E
:104310001A43BB781B0403F47F031A437B689A603B
:1043200000BF1437BD465DF8047B7047FFFF00FBFC
:1043300080B500AF4FF40040FFF7C8FFD64BD3F86D
:10434000C032D54A43F48033C2F8C032D24BD3F8DE
:10435000C032D14A23F40033C2F8C032CF48FFF74D
:10436000A5FF0020FFF792FAFFF7E0FA0120FFF720
:10437000C3FACB4B1B6823F0FF03C94A43F07F030A
:1043800013600121C748FFF7C5FE0121C648FFF7AA
:10439000C1FEC64BDB6823F01F03C44A43F012037F
:1043A000D36000BFC14B1B6803F00043B3F1004F63
:1043B000F8D10021BE48FFF7FBFE4FF4887001F0F2
:1043C00027FB4FF4847001F023FB40F2162001F02C
:1043D0001FFB4FF4067001F01BFB0321B548FFF7EC
:1043E000E7FE0021B448FFF7E3FE0021B348FFF7E2
:1043F000DFFE4FF48A7001F00BFB4FF48B7001F07D
:1044000007FB182001F004FB1A2001F001FB4FF418
:10441000867001F0FDFA0121A948FFF7C9FE40F2BC
:10442000026001F0F5FA0221A648FFF7C1FE002163
:10443000A548FFF76FFE40F2046001F0E9FA02219F
:10444000A248FFF7B5FE0021A148FFF763FE4FF435
:10445000417001F0DDFA07214FF21400FFF7A8FECA
:1044600000219C48FFF756FE00219B48FFF752FEB3
:104470004FF4807001F0CCFA4FF4817001F0C8FA6B
:104480004FF4827001F0C4FA4FF4837001F0C0FA67
:1044900004219248FFF78CFE02219148FFF73AFE73
:1044A000162001F0B5FA03218E48FFF781FE0021A6
:1044B0008D48FFF72FFE40F2125001F0A9FA0321B8
:1044C0008A48FFF775FE01218948FFF771FE002138
:1044D0008848FFF71FFE40F2145001F099FA0321BB
:1044E0008548FFF765FE01218448FFF761FE002142
:1044F0008348FFF70FFE40F2165001F089FA0321BE
:104500008048FFF755FE01217F48FFF751FE00214B
:104510007E48FFF7FFFD40F2062001F079FA4FF4E4
:10452000027001F075FA40F20A2001F071FA0021E0
:104530007748FFF73DFE00217648FFF7EBFD0E20A0
:1045400001F066FA122001F063FA102001F060FA1F
:10455000142001F05DFA01216F48FFF729FE0221C6
:104560006E48FFF7D7FD4FF4A36001F051FA1C200D
:1045700001F04EFA0C2001F04BFA4FF48C7001F070
:1045800047FA40F2023001F043FA40F2063001F0FF
:104590003FFA40F21A5001F03BFA40F20E6001F08F
:1045A00037FA00215E48FFF703FE00215D48FFF760
:1045B000B1FD40F20E5001F02BFA01215A48FFF7ED
:1045C000F7FD07215948FFF7F3FD03215848FFF78E
:1045D000A1FD40F2025001F01BFA01215548FFF7FE
:1045E000E7FD07215448FFF7E3FD03215348FFF798
:1045F00091FD00215248FFF78DFD5248FFF7A8F9C1
:104600001B210020FFF752FA10210120FFF74EFA7C
:1046100012210220FFF74AFA12210320FFF746FA7F
:10462000FFF7E4F9012248491B4801F000FA1A4B50
:10463000D3F87031184A23F40043C2F87031164B96
:10464000D3F87031144A23F40003C2F87031124BCE
:104650001B6F114A43F4005313673C48FFF7D4F92A
:1046600003213B48FFF756FD00210F48FFF752FD9D
:1046700000210C48FFF74EFD00213648FFF74AFDA8
:10468000074B1B6E064A23F070031366044B1B6E28
:1046900023F00F0360E000BF00800D4000366E0184
:1046A00000C00F40186C008014390014000008404E
:1046B00014EA00041468008010E0004014FB00803D
:1046C0001CE0078024EB00801C30008024F0008078
:1046D0001C310080142700801426008018FA008006
:1046E0001864008024790080186E008028E600801D
:1046F00028E007801C6A00802CE600802CE0078000
:104700001C6C008028F6008028F007801C6E00805A
:1047100038F307803832008020E20780206800806C
:1047200024E007802426008030F9008030F60080E5
:104730003074008028E9008028F900802073008010
:104740000C2000802C6100600D0070004061006052
:10475000187200801C2600802C4A43F00103136667
:104760002A4B1B6E294A23F460031366274B1B6EEA
:1047700023F4F813254A43F440331366234B1B6E8E
:10478000224A23F480731366204B1B6E1F4A23F0CA
:10479000800313661D4B1B6E1C4A23F08073136647
:1047A000002200211A4801F069F90022032118486B
:1047B00001F064F900220621154801F05FF900229A
:1047C0000821134801F05AF900220A21104801F08B
:1047D00055F9002200210E48FFF788FD0C4B5B685D
:1047E0000B4A23F400335360094B5B69084A23F0FA
:1047F00080535361064B5B69054A23F000535361B4
:10480000044B054A1A6000BF80BD00BF00C00F40C6
:1048100000C00A40000000200065CD1D80B586B0B4
:1048200000AF03460A46FB8013467B71B7F906309A
:104830001B0A7B61FB8803F01F033B617B69062B2E
:1048400002D90C48FDF796FD7A690B4B13449B0087
:10485000FB6003223B6902FA03F17A793B6902FAB1
:1048600003F31A46F86801F045F900BF1837BD4652
:1048700080BD00BFE45E00601AF0031080B582B016
:1048800002AF40F2024001F05DF900230193204B9A
:1048900000930023002205211E4801F062F9002345
:1048A00001931D4B00930023002202211B4801F0BD
:1048B00058F9002301931A4B009300230022022190
:1048C000184801F04EF947F2A0030193104B0093F2
:1048D0000023002205210F4801F060F941F2B003E6
:1048E00001930D4B00930023002202210B4801F09D
:1048F00055F941F2B0030193094B009300230022C4
:104900000221084801F04AF900BFBD4680BD00BF42
:1049100044821F40D0801F4048821F40D4801F40E7
:104920004C821F40D8801F4010B5174A00201749FD
:1049300001F0B3F94FF480734FF480620021124804
:1049400001F068F9124A1349012001F0A6F94FF469
:1049500080734FF4806200210D4801F05BF90E4B2B
:104960001B68022B0EDD0D4A02200A4901F095F961
:104970004FF480734FF4806200210848BDE8104076
:1049800001F048B910BD00BF6C0400204C6100600C
:10499000A80400204E61006048610060E40400202B
:1049A000F8B5044638B90B4B05460B4E1F68A742B5
:1049B00005DC2846F8BDBDE8F84001F0D8B930461E
:1049C000013401F0D4F9002806F13C0618BF4FF07D
:1049D000FF35ECE7486100606C0400202DE9F843E6
:1049E000C66804463B4B0D46904633401BB9022730
:1049F0003846BDE8F883D0F81490484601F059FADB
:104A000007460028F3D1B8F1010F2CD0B8F1020FFE
:104A10002ED0B8F1000FEAD1002DE8DBB00404D5A8
:104A20002368E26A9A4238BFE362A169A9420EDCB8
:104A30002368E26A934238BF134622695818801AE5
:104A4000A84204DB206B01EB000CAC4531DC0023F9
:104A500046F02006A562C4E9013326F4032626F0B9
:104A60004006E660C4E7204600F036F80544D3E788
:104A7000484601F01BFAB0F1000CE26804DA42F09B
:104A800080020127E260B3E72168A369E06A8142FE
:104A90002CBF5B181B1821699206A3EB010303D5F9
:104AA000A26A9342B8BF13466345ACBFED18654494
:104AB000B2E76D1AB10744BF281AA060F10726F0CB
:104AC000200644BF9B1AEB1A154448BF636025605B
:104AD000C3E700BF03001000C3689A0705D10E4B5F
:104AE00021224FF0FF301A60704703F020021B03B1
:104AF00009D512B1806A013870470368826900697C
:104B00001344181AF7E70AB1806A7047036882698C
:104B100000691344181A7047680400202DE9F04119
:104B2000D56880460E461446EB02576905D545F018
:104B30001005384601F0BAF9A061124B2B408BB139
:104B4000A169384601F0BBF9002806DAE3684FF0A6
:104B5000FF3043F08003E36011E025F4003525F0D9
:104B60001005E56032464146384601F0AEF920F0C6
:104B70000041761AA1690E44A6610028E6D1BDE87D
:104B8000F08100BF100002000FB480B582B000AF0A
:104B900000237B6007F114033B6039683869FDF737
:104BA000F5FB78607B6818460837BD46BDE8804055
:104BB00004B0704780B586B000AFB9607A603B60E2
:104BC0000346FB73BB687B610BE0FA7B3B6A1046D4
:104BD00098473B681B685A1C3B681A607B69013325
:104BE0007B617A697B689A42EFDB00BF00BF1837B0
:104BF000BD4680BD80B48FB000AFF860B9607A6008
:104C00003B600023FB62FB68BB62BB6A5A1CBA6252
:104C100000221A7000237B6000237B6200233B622A
:104C20000023FB6100237B630023BB6100233B6304
:104C300000237B61BB681B687B637B6B002B30D1DF
:104C4000BB6A30221A70FB6A0133FB62FB6A2CE0FC
:104C50003B687A6BB2FBF3F3BB613B68BA6902FB5A
:104C600003F37A6BD31A3B633B6B092B03D83B6B83
:104C700030333B630AE097F84030002B01D04122EB
:104C800000E061223B6B13440A3B3B63BB697B63DF
:104C9000BB6A5A1CBA623A6BD2B21A70FB6A013311
:104CA000FB627B6B002BD3D1FB6A18463C37BD46B9
:104CB0005DF8047B704708B5FDF75BFB08BD08B5E0
:104CC000FDF757FB08BD08B5FDF753FB08BD08B558
:104CD000FDF74FFB08BD08B5FDF74BFB08BD08B558
:104CE000FDF747FB08BD08B5FDF743FB08BD08B558
:104CF000FDF73FFB08BD08B5FDF73BFB08BD08B558
:104D0000FDF737FB08BD08B5FDF733FB08BD08B557
:104D1000FDF72FFB08BD08B5FDF72BFB08BD08B557
:104D2000FDF727FB08BD08B5FDF723FB08BD08B557
:104D3000FDF71FFB08BD08B5FDF71BFB08BD08B557
:104D4000FDF717FB08BD08B5FDF713FB08BD08B557
:104D5000FDF70FFB08BD08B5FEF7DAFE08BD08B584
:104D6000FEF7EAFE08BD08B5FEF7FAFE08BD08B575
:104D7000FEF70AFF08BD08B5FEF71AFF08BD08B523
:104D8000FEF72AFF08BD08B5FEF73AFF08BD08B5D3
:104D9000FDF7EFFA08BD08B5FDF7EBFA08BD08B559
:104DA000FDF7E7FA08BD08B5FDF7E3FA08BD08B559
:104DB000FDF7DFFA08BD08B5FDF7DBFA08BD08B559
:104DC000FDF7D7FA08BD08B5FDF7D3FA08BD08B559
:104DD000FDF7CFFA08BD08B5FDF7CBFA08BD08B559
:104DE000FDF7C7FA08BD08B5FDF7C3FA08BD08B559
:104DF000FDF7BFFA08BD08B5FDF7BBFA08BD08B559
:104E0000FDF7B7FA08BD08B5FDF7B3FA08BD08B558
:104E1000FDF7AFFA08BD08B5FDF7ABFA08BD08B558
:104E2000FDF7A7FA08BD08B5FDF7A3FA08BD08B558
:104E3000FDF79FFA08BD08B5FDF79BFA08BD08B558
:104E4000FDF797FA08BD08B5FDF793FA08BD08B558
:104E5000FDF78FFA08BD08B5FDF78BFA08BD08B558
:104E6000FDF787FA08BD08B5FDF783FA08BD08B558
:104E7000FDF77FFA08BD08B5FDF77BFA08BD08B558
:104E8000FDF777FA08BD08B5FDF773FA08BD08B558
:104E9000FDF76FFA08BD08B5FDF76BFA08BD08B558
:104EA000FDF767FA08BD08B5FDF763FA08BD08B558
:104EB000FDF75FFA08BD08B5FDF75BFA08BD08B558
:104EC000FDF757FA08BD08B5FDF753FA08BD08B558
:104ED000FDF74FFA08BD08B5FDF74BFA08BD08B558
:104EE000FDF747FA08BD08B5FDF743FA08BD08B558
:104EF000FDF73FFA08BD08B5FDF73BFA08BD08B558
:104F0000FDF737FA08BD08B5FDF733FA08BD08B557
:104F1000FDF72FFA08BD08B5FDF72BFA08BD08B557
:104F2000FDF727FA08BD08B5FDF723FA08BD08B557
:104F3000FDF71FFA08BD08B5FDF71BFA08BD08B557
:104F4000FDF717FA08BD08B5FDF713FA08BD08B557
:104F5000FDF70FFA08BD08B5FDF70BFA08BD08B557
:104F6000FDF707FA08BD08B5FDF703FA08BD08B557
:104F7000FDF7FFF908BD08B5FDF7FBF908BD08B559
:104F8000FDF7F7F908BD08B5FDF7F3F908BD08B559
:104F9000FDF7EFF908BD08B5FDF7EBF908BD08B559
:104FA000FDF7E7F908BD08B5FDF7E3F908BD08B559
:104FB000FDF7DFF908BD08B5FDF7DBF908BD08B559
:104FC000FDF7D7F908BD08B5FDF7D3F908BD08B559
:104FD000FDF7CFF908BD08B5FDF7CBF908BD08B559
:104FE000FDF7C7F908BD08B5FDF7C3F908BD08B559
:104FF000FDF7BFF908BD08B5FDF7BBF908BD08B559
:10500000FDF7B7F908BD08B5FDF7B3F908BD08B558
:10501000FDF7AFF908BD08B5FDF7ABF908BD08B558
:10502000FDF7A7F908BD08B5FDF7A3F908BD08B558
:10503000FDF79FF908BD08B5FDF79BF908BD08B558
:10504000FDF797F908BD08B5FDF793F908BD08B558
:10505000FDF78FF908BD08B5FDF78BF908BD08B558
:10506000FDF787F908BD08B5FDF783F908BD08B558
:10507000FDF77FF908BD08B5FDF77BF908BD08B558
:10508000FDF777F908BD08B5FDF773F908BD08B558
:10509000FDF76FF908BD08B5FDF76BF908BD08B558
:1050A000FDF767F908BD08B5FDF763F908BD08B558
:1050B000FDF75FF908BD08B5FDF75BF908BD08B558
:1050C000FDF757F908BD08B5FDF753F908BD08B558
:1050D000FDF74FF908BD08B5FDF74BF908BD08B558
:1050E000FDF747F908BD08B5FDF743F908BD08B558
:1050F000FDF73FF908BD08B5FDF73BF908BD08B558
:10510000FDF737F908BD08B5FDF733F908BD08B557
:10511000FDF72FF908BD08B5FDF72BF908BD80B5DF
:1051200086B000AF78600B46FB700023FB75EFF391
:105130001083FB60FB683B6172B600BF7B689B68B5
:105140005A1C7B689A607B689A687B681B699A42E4
:1051500003D97B68DA687B689A607B689B68FA7819
:105160001A707B685A687B689B689A421AD17B6880
:105170001B88002B16D00123FB757B685B685A1CCB
:105180007B685A607B685A687B681B699A4203D9BE
:105190007B68DA687B685A607B681B88013B9AB23F
:1051A0007B681A807B681B8801339AB27B681A80FF
:1051B0007B685B69002B03D07B685B6978689847E4
:1051C0003B69002B01D162B600BFFB7D002B06D0EE
:1051D0007B689B69002B02D07B689B69984700BF66
:1051E0001837BD4680BD80B487B000AF7860EFF35C
:1051F0001083FB60FB687B6172B600BF7B685B68F5
:105200001B78FB747B681B88002B14D07B685B6861
:105210005A1C7B685A607B685A687B681B699A4293
:1052200003D97B68DA687B685A607B681B88013B1E
:105230009AB27B681A807B69002B01D162B600BFED
:10524000FB7C18461C37BD465DF8047B704780B474
:1052500083B000AF78607B681B8818460C37BD466A
:105260005DF8047B704780B485B000AFF860B9602A
:105270001346FB80FB68BA68DA60FB68BA685A605C
:10528000BB685A1EFB689A60FB88013BBA681A44E7
:10529000FB681A61FB6800221A80FB6800225A61D1
:1052A00000BF1437BD465DF8047B704780B582B0FF
:1052B00000AF78600B467B80B7F90230002B07DA2D
:1052C0002D217868FFF72BFF7B885B429BB27B80A8
:1052D0007B8819467868FDF7DFFB00BF0837BD46BD
:1052E00080BD80B582B000AF786039603B68002B2C
:1052F00006DA2D217868FFF712FF3B685B423B60BE
:105300003B6819467868FDF705FC00BF0837BD46C5
:1053100080BD80B582B000AF7860396007E03B683F
:105320005A1C3A601B7819467868FFF7F8FE3B680C
:105330001B78002BF3D100BF00BF0837BD4680BDEE
:1053400080B588B000AFF860B9601346FB71FB7997
:10535000082B01D90823FB71BB683B610023FB7755
:1053600037E0FB7F5B08DBB220333B4413F8103C93
:10537000C3F30303DBB2BB77BB7F092B03D9BB7F2E
:105380003733DBB202E0BB7F3033DBB2FA7F20324F
:105390003A4402F80C3CFB7F5B08DBB220333B4411
:1053A00013F8103CC3F30313DBB2BB77BB7F092BAD
:1053B00003D9BB7F3733DBB202E0BB7F3033DBB2D4
:1053C000FA7F013220323A4402F80C3CFB7F023370
:1053D000FB77FA7FFB799A42C3D3FB79013BFB71E0
:1053E000FB7920333B4413F80C3C1946F868FFF76F
:1053F00096FEFB79002BF0D100BF00BF2037BD46E1
:1054000080BD80B500AFFDF74DFF00BF80BD80B40B
:105410008BB000AFF860B9607A60FB687B617B6934
:1054200053E8003F3B613B697B62BB68DA437B6AC0
:1054300013407A6813437B627B6A3B62FB68FB61C3
:10544000F9693A6A41E80023BB61BB69002BE4D1EA
:1054500000BF00BF2C37BD465DF8047B704780B5A8
:1054600082B000AF0346FB80B7F90630032118462F
:10547000FDF7BAFC00BF0837BD4680BD80B584B0DB
:1054800000AF0346FB71FB791846FDF7C9FDF860D4
:10549000FB68002B08D0FB689B6943F44022FB6843
:1054A0009A61BFF35F8F00E000BF1037BD4680BD3B
:1054B00080B584B000AF0346FB71FB791846FDF759
:1054C000AFFDF860FB68002B06D0FB689B6943F4D6
:1054D0000012FB689A6100E000BF1037BD4680BD36
:1054E00080B584B000AF0346FB71FB791846FDF729
:1054F00097FDF860FB68002B06D0FB689B6943F4BE
:105500008002FB689A6100E000BF1037BD4680BD95
:1055100080B584B000AF0346FB71FB791846FDF7F8
:105520007FFDF860FB68002B06D0FB689B6923F4C5
:105530008002FB689A6100E000BF1037BD4680BD65
:1055400080B584B000AF03460A46FB711346BB71B9
:10555000FB791846FDF764FDF860FB68002B03D06B
:10556000BA79FB68DA6100E000BF1037BD4680BD44
:1055700080B584B000AF0346FB71FB791846FDF798
:105580004FFDF860FB68002B01D1002302E0FB68AF
:10559000DB69DBB218461037BD4680BD80B584B0EC
:1055A00000AF0346FB71FB791846FDF739FDF86043
:1055B000FB68002B01D1002308E0FB685B6903F462
:1055C0000013002B01D0012300E000231846103700
:1055D000BD4680BD80B584B000AF0346FB71FB794A
:1055E0001846FDF71DFDF860FB68002B01D1002374
:1055F00008E0FB685B6903F48003002B01D0012302
:1056000000E0002318461037BD4680BD80B584B049
:1056100000AF0346FB71FB791846FDF701FDF8600A
:10562000FB68002B01D1002308E0FB689B6903F4B1
:105630008003002B01D0012300E00023184610371F
:10564000BD4680BD80B500AF0220FEF795F8022070
:10565000FEF714F800BF80BD80B487B000AFF860DB
:105660007A601A460B467B8113463B81FB683A6A97
:10567000DA60FB687A681A61FB687A899A82FB684B
:105680003A895A81FB6800221A81FB6800221A605D
:10569000FB6800225A60FB6800229A61FB680022C6
:1056A000DA61FB6800221A62FB6800225A62FB681A
:1056B00000229A62FB680022DA62FB6800221A86E6
:1056C0007B683B610023FB821AE0FA8A13465B0089
:1056D00013449B001A463B6A13443A691A60FA8ADB
:1056E00013465B0013449B001A463B6A1344012295
:1056F0005A607B893A6913443B61FB8A0133FB8220
:10570000FA8A3B899A42E0D300BF00BF1C37BD46EE
:105710005DF8047B704780B483B000AF7860396077
:105720007B683A689A6100BF0C37BD465DF8047B20
:10573000704780B483B000AF786039607B683A68A6
:10574000DA6100BF0C37BD465DF8047B704780B559
:1057500086B000AF786000237B61786800F0B1F814
:1057600078617B69002B01D1002329E0EFF31083DE
:10577000FB60FB683B6172B600BF7B68DB6A002B95
:1057800007D17B689A6A7B68DA627B687A699A6279
:1057900002E07B680222DA627B681B8E01339AB2D8
:1057A0007B681A863B69002B01D162B600BF7B681B
:1057B0001A6A7B685A627B687A691A627B691B681D
:1057C00018461837BD4680BD80B483B000AF7860FE
:1057D0007B681A6A7B685A627B681A687B681A62FF
:1057E0007B681B68002B03D07B681B681B6800E08C
:1057F000002318460C37BD465DF8047B704780B522
:1058000084B000AF786039603968786800F00EF8CD
:10581000F860FB685B68032B03D9FB685B681B6857
:1058200000E0002318461037BD4680BD80B485B027
:1058300000AF786039607B681B6AFB60FB68002BF7
:105840000DD0FB681B683A689A4208D17B681A6AD7
:105850007B685A627B68FA681A62FB682BE07B6897
:105860005B6AFB60FB68002B0DD0FB681B683A6825
:105870009A4208D17B681A6A7B685A627B68FA6828
:105880001A62FB6817E07B681B693A68D31A7A686A
:10589000928A93FBF2F37B817B685B897A899A42D7
:1058A00001D3002307E07B68D9687A8913465B003F
:1058B00013449B000B4418461437BD465DF8047B27
:1058C000704780B586B000AF7860EFF31083FB605F
:1058D000FB687B6172B600BF7868FDF7EFFB38614B
:1058E0003B69002B06D17B69002B01D162B600BF5A
:1058F000002308E03B6902225A607B69002B01D13A
:1059000062B600BF3B6918461837BD4680BD80B4FB
:1059100083B000AF786039607B689A683B689B68A9
:105920009A4201D2012300E0002318460C37BD46FD
:105930005DF8047B704780B483B000AF7860396055
:105940003B681B687A689A4201D1012300E000237A
:1059500018460C37BD465DF8047B704780B584B0AF
:1059600000AF7860FDF7C8FCF86000E000BFF868A1
:10597000FDF7CEFC02467B689342F7D200BF00BF22
:105980001037BD4680BD04207146084202D0EFF3B7
:10599000098001E0EFF3088081690A884BF6AB6368
:1059A0009A4200D0FEE702318161202101607047F8
:1059B00000BF80B400AF00BFBD465DF8047B7047F8
:1059C00080B48BB000AFF860B9607A60FB687B612F
:1059D0007B6953E8003F3B613B697B62BB68DA430C
:1059E0007B6A13407A6813437B627B6A3B62FB6885
:1059F000FB61F9693A6A41E80023BB61BB69002B8E
:105A0000E4D100BF00BF2C37BD465DF8047B704772
:105A100080B582B000AF0346FB80B7F906300021A5
:105A20001846FEF713FC00BF0837BD4680BD80B4A2
:105A300085B000AFF860B9601346FB71FB79002BAD
:105A40000BD0BB681B0CC3F30B02FB68134404337D
:105A50001A464FF4803313600AE0BB681B0CC3F393
:105A60000B02FB68134408331A464FF4803313606B
:105A700000BF1437BD465DF8047B704780B485B025
:105A800000AF78600B46FB701346BB70FB78032BAE
:105A900012D97B685A68FB78032101FA03F3DB43D0
:105AA0001340FB60BB7803F00302FB789A40FB686D
:105AB0001A437B685A6011E07B685A68FB780721BB
:105AC00001FA03F3DB431340FB60BB7803F00702EA
:105AD000FB789A40FB681A437B685A6000BF143712
:105AE000BD465DF8047B704780B500AFFEF720FC33
:105AF00000BF80BD80B48BB000AFF860B9607A6041
:105B0000FB687B617B6953E8003F3B613B697B62DB
:105B1000BB68DA437B6A13407A6813437B627B6A13
:105B20003B62FB68FB61F9693A6A41E80023BB61AB
:105B3000BB69002BE4D100BF00BF2C37BD465DF828
:105B4000047B704780B582B000AF0346FB80B7F995
:105B5000063003211846FEF761FE00BF0837BD4638
:105B600080BD80B485B000AFF860B9607A603B60FA
:105B7000BB6803F00701FB691B0103F01002FB681F
:105B80000A431A607B68002B02D07B683A681A606F
:105B900000BF1437BD465DF8047B704780B485B004
:105BA00000AFF860B9607A603B60BB69002B02D03F
:105BB000BB69FA691A6000BF1437BD465DF8047B03
:105BC000704780B500AFFEF759FE00BF80BD08B535
:105BD000FEF7AAFEBDE80840FDF702BE00F030B9AE
:105BE00000F048B9A8B14FF0805340F80C3C50F891
:105BF000042C72B11368B3F1805F0AD150F8083CED
:105C0000516803330B4440F8083C936840F8043C67
:105C1000EDE7704770B5C468A50708D0B2F5007FFE
:105C200011D0B2F5806F04D0B2F5807F0BD0012087
:105C300008E000F124010123224301610160C361F6
:105C4000C260002070BD5E1E6FF07F45AE42F3D390
:105C5000EDE7431C10B58207044614D1204654F8E2
:105C6000042BA2F1013121EA020111F0803FF5D0AD
:105C7000D1B281B112F47F4F0BD012F47F0F14BF59
:105C80002046033003E010F8012B002AE3D1C01AAC
:105C900010BD0230FBE70130F9E770B50D4606464E
:105CA0001046144600F02DF82B78722B17D0772B66
:105CB00018D0612B23D1082348F2020215F8011FE6
:105CC0002B2912D0622915D01B07E260666104D52A
:105CD000022200212046FEF781FE204670BD0023EF
:105CE0000122EBE704230222E8E742F0030243F03B
:105CF0000203E3E742F0040243F00103DEE700247D
:105D0000EBE7F0B5C46889B00546A10722D02207A9
:105D100018D4D0E90467FEF743FE384600F0C3F814
:105D2000230502D53046FFF75DFFA40DA40514F14D
:105D3000A54F07D12022296A684600F0C3F86846BB
:105D400000F00BF83C2200212846FFF749FF002015
:105D500009B0F0BD4FF0FF30FAE710B50446FFF789
:105D600078FF01462046BDE8104000F0A5B8C368A2
:105D700070B513F00306044611D09B0611D5856A51
:105D800000F03EF8E368204623F44053E36000F05F
:105D90000EF80022064629462046FEF71FFE304632
:105DA00070BD816905680D4401696D1AEAE738B56F
:105DB000016804460569C36AC06820F40022E260F5
:105DC00000F08202022A02D04FF0FF3038BD10F4FA
:105DD0008030FBD0994238BF19468D4208D1E36824
:105DE0000020E56223F480332560A060E360EDE7E6
:105DF0002246491B2846FEF791FE0028EFD0E3E734
:105E0000C368826923F0200310B5C3600446836A27
:105E10009A420ED0FFF7CBFFE36823F4405323F000
:105E2000100343F01003E360A36AA3612369E362F4
:105E30002360E36823F4804323F04003E36010BD54
:105E400040EA0103DB0703460CD40346043A22BFB1
:105E500051F804CB43F804CBB2F10402F7D2043278
:105E600008BF7047013A24BF11F801CB03F801CBFA
:105E7000F8D87047034613F0030F0ED101F0FF016D
:105E800041EA012141EA0141043A24BF43F8041BDD
:105E9000B2F10402F9D202F10402013A24BF03F87C
:105EA000011BFAE770474FF0FF3070474FF0FF30AB
:105EB00070474FF0FF3070474FF0FF3070474FF0A2
:105EC000FF3070474FF0FF30704710467047FFFFBC
:105ED000415353455254204552524F5220222025BF
:105EE00073200A002F686F6D652F61736D69722FC3
:105EF000446F63756D656E74732F4D4355587072A2
:105F00006573736F5F31312E362E315F3832353520
:105F10002F776F726B73706163652F656570726F39
:105F20006D2D6E766D2D746573742F647269766550
:105F300072732F66736C5F636C6F636B2E683A319C
:105F4000333034203A20696E646578203C3D203639
:105F5000554C00FF00000000180500001C00000068
:105F60000C000000180100000203000006030000FE
:105F70001A0500000E06000053797374656D204900
:105F80006E697469616C697A65640D0A00000000CD
:105F900055415254323A2025640D0A0066736C5FF5
:105FA000636C6F636B2E633A313931203A20216282
:105FB00079706173735874616C4F736300FFFFFFF6
:105FC000626F6172642E633A313739203A2021289A
:105FD0006E6F6E436163686553746172742025202F
:105FE00073697A6529000000626F6172642E633AFA
:105FF000313830203A2073697A65203D3D2028757C
:10600000696E7433325F74292831203C3C20692941
:1060100000000000626F6172642E633A31383120F3
:106020003A2069203E3D203500FFFFFF2F686F6D4D
:10603000652F61736D69722F446F63756D656E7442
:10604000732F4D43555870726573736F5F31312EE6
:10605000362E315F383235352F776F726B73706142
:1060600063652F656570726F6D2D6E766D2D74652D
:1060700073742F647269766572732F66736C5F63D5
:106080006C6F636B2E683A31323138203A2062757A
:1060900073795368696674203C3D2043434D5F4EDD
:1060A0004F5F425553595F57414954002F686F6DF8
:1060B000652F61736D69722F446F63756D656E74C2
:1060C000732F4D43555870726573736F5F31312E66
:1060D000362E315F383235352F776F726B737061C2
:1060E00063652F656570726F6D2D6E766D2D7465AD
:1060F00073742F647269766572732F66736C5F6355
:106100006C6F636B2E683A31323730203A206275FB
:1061100073795368696674203C3D2043434D5F4E5C
:106120004F5F425553595F574149540001000000E9
:10613000000000000100000000000000000000005E
:106140000001000100FFFFFF030000007200770064
:0861500040DCB3110100FFFF68
:04000005600022DD98
:00000001FF
