:0200000460009A
:10000000464346420004015600000000010303007D
:1000100000000000000000000000000000000000E0
:1000200000000000000000000000000000000000D0
:1000300000000000000000000000000000000000C0
:100040001000000001040700000000000000000094
:100050000000800000000000000000000000000020
:100060000000000000000000000000000000000090
:100070000000000000000000000000000000000080
:10008000EB04180A063204260000000000000000FD
:10009000050404240000000000000000000000002F
:1000A0000000000000000000000000000000000050
:1000B0000604000000000000000000000000000036
:1000C0000000000000000000000000000000000030
:1000D00020041808000000000000000000000000DC
:1000E0000000000000000000000000000000000010
:1000F0000000000000000000000000000000000000
:10010000D8041808000000000000000000000000F3
:100110000204180804200000000000000000000095
:1001200000000000000000000000000000000000CF
:10013000600400000000000000000000000000005B
:1001400000000000000000000000000000000000AF
:10015000000000000000000000000000000000009F
:10016000000000000000000000000000000000008F
:10017000000000000000000000000000000000007F
:10018000000000000000000000000000000000006F
:10019000000000000000000000000000000000005F
:1001A000000000000000000000000000000000004F
:1001B000000000000000000000000000000000003F
:1001C000000100000010000001000000000000001D
:1001D000000001000000000000000000000000001E
:1001E000000000000000000000000000000000000F
:1001F00000000000000000000000000000000000FF
:10020000FFFFFFFFFFFFFFFFFFFFFFFFFFFFFFFFFE
:10021000FFFFFFFFFFFFFFFFFFFFFFFFFFFFFFFFEE
:10100000D10020410020006000000000000000002E
:1010100020100060001000600000000000000000D0
:10102000000000600000800000000000FFFFFFFFE4
:10103000FFFFFFFFFFFFFFFFFFFFFFFFFFFFFFFFC0
:10104000FFFFFFFFFFFFFFFFFFFFFFFFFFFFFFFFB0
:10105000FFFFFFFFFFFFFFFFFFFFFFFFFFFFFFFFA0
:10106000FFFFFFFFFFFFFFFFFFFFFFFFFFFFFFFF90
:1020000000000120DD220060612300602D5100608E
:102010006523006067230060692300600000000002
:102020000000000000000000000000006B230060C2
:102030006D230060000000006F23006071230060CA
:102040009F4C0060A74C0060AF4C0060B74C006034
:10205000BF4C0060C74C0060CF4C0060D74C0060A4
:10206000DF4C0060E74C0060EF4C0060F74C006014
:10207000FF4C0060074D00600F4D0060174D006081
:102080001F4D0060274D00602F4D0060374D0060F0
:102090003F4D0060474D00604F4D0060574D006060
:1020A0005F4D0060674D00606F4D0060774D0060D0
:1020B0007F4D0060874D00608F4D0060974D006040
:1020C0009F4D0060A74D0060AF4D0060B74D0060B0
:1020D000BF4D0060C74D0060CF4D0060D74D006020
:1020E000DF4D0060E74D0060EF4D0060F74D006090
:1020F000FF4D0060074E00600F4E0060174E0060FD
:102100001F4E0060274E00602F4E0060374E00606B
:102110003F4E0060474E00604F4E0060574E0060DB
:102120005F4E0060674E00606F4E0060774E00604B
:102130007F4E0060874E00608F4E0060974E0060BB
:102140009F4E0060A74E0060AF4E0060B74E00602B
:10215000BF4E0060C74E0060CF4E0060D74E00609B
:10216000DF4E0060E74E0060EF4E0060F74E00600B
:10217000FF4E0060074F00600F4F0060174F006078
:102180001F4F0060274F00602F4F0060374F0060E7
:102190003F4F0060474F00604F4F0060574F006057
:1021A0005F4F0060674F00606F4F0060774F0060C7
:1021B0007F4F0060874F00608F4F0060974F006037
:1021C0009F4F0060A74F0060AF4F0060B74F0060A7
:1021D000BF4F0060C74F0060CF4F0060D74F006017
:1021E000DF4F0060E74F0060EF4F0060F74F006087
:1021F000FF4F0060075000600F50006017500060F4
:102200001F500060275000602F5000603750006062
:102210003F500060475000604F50006057500060D2
:102220005F500060675000606F5000607750006042
:102230007F500060875000608F50006097500060B2
:102240009F500060A7500060AF500060B750006022
:10225000BF500060C7500060CF500060D750006092
:10226000DF500060E7500060EF500060F750006002
:10227000FF50006007510060C46100600000002052
:1022800004000000C46100600000000000000000C5
:10229000C46100600000202000000000C4610060F4
:1022A0000000008000000000C46100600000E081C8
:1022B0000000000004000020FC00000000000000FE
:1022C000000000000000202000000000000000804E
:1022D000000000000000E0810000000072B6104B1A
:1022E00083F3088801F006FB0E4B07E003F10C04B2
:1022F0009A685968186800F01BF823460A4A934206
:10230000F4D306E01C46596854F8080B00F01FF897
:102310002346064A9342F5D362B603F046F9FEE738
:102320000000012078220060B4220060DC220060FE
:10233000002393420AD210B450F8044B41F8044BE6
:1023400004339342F8D35DF8044B70477047002381
:1023500003E0002240F8042B04338B42F9D370478A
:10236000FEE7FEE7FEE7FEE7FEE7FEE7FEE7FEE745
:10237000FEE7FEE780B582B000AF7860796802487A
:1023800002F0F6FB00BEFDE7205A006080B588B081
:1023900000AFB9607B600346FB731346BB73BB7B26
:1023A000012B01D0012321E0124ABB7B13747B680F
:1023B0003B61BB687B6100233B7600237B76012376
:1023C000BB760123FB7600233B7700237B77FB7BE7
:1023D000BB7707F110031946064801F083FB054B54
:1023E000054A9A60034B054ADA60002318462037F5
:1023F000BD4680BD04000020D53B0060693B006005
:1024000080B584B000AF786039600023FB60094B71
:102410001B7C002B02D14FF0FF3306E03A6879684D
:10242000054800F023F8F860FB6818461037BD46F1
:1024300080BD00BF040000203D24006080B582B054
:1024400000AF7860084B1B7C002B02D14FF0FF33AC
:1024500006E0054B9B68391D01220348984701237C
:1024600018460837BD4680BD0400002080B59CB0EA
:1024700002AFF860B9607A6000233B660023FB6519
:102480000023FB61002387F84A3000237B61BB688F
:102490007B667B6E1B78002B00F0D2817B6E1B78F5
:1024A00087F8493097F84930252B0BD097F8492009
:1024B000FB6810469847FB690133FB617B6E013373
:1024C0007B66BCE1012387F84B3000237B6500234A
:1024D00087F85B3020E07B6E01337B667B6E1B7878
:1024E00087F8493097F849302F2B0FD997F84930A2
:1024F000392B0BD87A6D13469B0013445B001A46A8
:1025000097F849301344303B7B6505E07B6E013B17
:102510007B66012387F85B3097F85B3083F001031B
:10252000DBB2002BD7D17B6E01337B667B6E1B78D1
:102530002E2B2ED100233B65002387F85B3020E053
:102540007B6E01337B667B6E1B7887F8493097F88A
:1025500049302F2B0FD997F84930392B0BD83A6DCA
:1025600013469B0013445B001A4697F84930134406
:10257000303B3B6505E07B6E013B7B66012387F8C2
:102580005B3097F85B3083F00103DBB2002BD7D1CF
:1025900002E07B6E013B7B667B6E01337B667B6E6C
:1025A0001B7887F8493097F84930642B24D097F886
:1025B0004930692B20D097F84930662B1CD097F80A
:1025C0004930462B18D097F84930782B14D097F81B
:1025D0004930582B10D097F849306F2B0CD097F812
:1025E0004930622B08D097F84930702B04D097F807
:1025F0004930752B40F0DC8097F84930642B03D0CC
:1026000097F84930692B15D17B681A1D7A601B68D1
:10261000BB6107F1180107F1200097F84B300093D8
:102620000A23012202F0DAFAF86507F12002FB6DB5
:1026300013443B6697F84930582B03D097F849303C
:10264000782B1CD197F84930782B02D1002387F8DA
:102650004B307B681A1D7A601B687B6107F114019F
:1026600007F1200097F84B3000931023002202F06E
:10267000B5FAF86507F12002FB6D13443B6697F845
:1026800049306F2B0BD097F84930622B07D097F861
:102690004930702B03D097F84930752B6AD197F8E1
:1026A0004930702B0DD17B681A1D7A601B683B6125
:1026B00007F1100107F114030422184602F07CFF11
:1026C00004E07B681A1D7A601B687B6197F84930CB
:1026D000623B132B3AD801A252F823F03527006051
:1026E0004D2700604D2700604D2700604D2700609A
:1026F0004D2700604D2700604D2700604D2700608A
:102700004D2700604D2700604D2700604D27006079
:102710002D2700603D2700604D2700604D27006099
:102720004D2700604D27006045270060082387F88B
:102730004A300CE0022387F84A3008E0102387F87B
:102740004A3004E00A2387F84A3000E000BF97F8D7
:102750004A2007F1140107F1200097F84B3000934D
:102760001346002202F03AFAF86507F12002FB6DE9
:1027700013443B667A6D07F11C01FB6800930B461E
:10278000F96D202002F00AFA3B6E002B54D00AE0CB
:102790003B6E5A1E3A661B781A46FB6810469847ED
:1027A000FB690133FB613B6E1B78002BF0D143E0EA
:1027B00097F84930632B0BD17B681A1D7A601B6830
:1027C0007B64FB68786C9847FB690133FB6133E0FD
:1027D00097F84930732B27D17B681A1D7A601B68E4
:1027E000FB64FB6C002B27D0F86C02F020FF034643
:1027F000FB657A6D07F11C01FB6800930B46F96DD0
:10280000202002F0CBF90AE0FB6C5A1CFA641B781A
:102810001A46FB6810469847FB690133FB61FB6C65
:102820001B78002BF0D107E097F84920FB68104691
:102830009847FB690133FB617B6E01337B6628E6B9
:1028400000BFFB6918466837BD4680BD80B582B0C1
:1028500000AF01233B7100237B710023BB7101F0AA
:10286000BBFA02F09CFE02F02DFE02F086FD0A4843
:1028700002F07EF9094802F07BF93B1D1A4605215A
:10288000074800F043FB0749074800F09FFA202162
:10289000034802F03CFCF6E7345A0060505A0060EE
:1028A00000801B400065CD1DA086010080B400AFF4
:1028B000074BD3F8703203F01003002B02D1054B05
:1028C0001B6800E0044B1846BD465DF8047B70476A
:1028D00000800D401800002000366E0180B582B0E7
:1028E00000AF0346FB71FB7983F00103DBB2002BE1
:1028F00002D11348FFF73EFD124B4FF08042C3F860
:10290000582100BF0F4BD3F8703203F48033002BF3
:10291000F8D00C4B4FF48032C3F8542100BF094B60
:10292000D3F8503103F40043002BF8D0054B4FF49B
:102930008032C3F8582100BF0837BD4680BD00BFB4
:102940006C5A006000800D4080B483B000AF034635
:10295000FB71FB79002B04D1074B1022C3F87422C2
:1029600003E0054B1022C3F8782200BF0C37BD46A8
:102970005DF8047B704700BF00800D4080B400AF5D
:10298000064BD3F87032054A43F00103C2F87032A7
:1029900000BFBD465DF8047B704700BF00800D405E
:1029A00080B483B000AF7860224B1B6B23F4E0321D
:1029B0007B681B7B9B039BB213431E4A43F480330B
:1029C00013631C4B1A6B1C4B13407A68127802F08D
:1029D00001021343174A43F4005313637B685B6897
:1029E000144A23F0404313657B689B68114A23F027
:1029F000404313667B685B8AC3F30E027B681B7CD3
:102A0000DB039BB21A437B68DB891B040949134330
:102A10000B6400BF074B1B6B002BFBDA054B1B6BDA
:102A2000044A23F48033136300BF0C37BD465DF8BE
:102A3000047B704700800D40FECFFFFF80B400AFE5
:102A4000044B4FF480521A6700BFBD465DF8047B0B
:102A5000704700BF00800D4080B485B000AF786043
:102A60007B68DB7803F00303FB60224BD3F8E03094
:102A700023F4E0327B681B799B039BB213431D4A0E
:102A800043F48033C2F8E0307B681B78002B03D01E
:102A9000FB6843F40053FB607B689B78002B03D0FA
:102AA000FB6843F40013FB607B685B78002B03D06A
:102AB000FB6843F48003FB600E4BD3F8E0200E4B21
:102AC00013400C49FA681343C1F8E03000BF094BCA
:102AD000D3F8E030002BFADA064BD3F8E030054AA1
:102AE00023F48033C2F8E03000BF1437BD465DF8F0
:102AF000047B704700800D40FCEFFFFF80B586B07F
:102B000000AF786079688B4802F03FFB034683F0A2
:102B10000103DBB2002B01D0002306E17968854870
:102B200002F051FB78617968824802F015FB034698
:102B3000002B01D07B69F8E07B687F4A934200F06C
:102B4000ED807B687C4A934200F2EB807B687B4A95
:102B5000934200F0E0807B68784A934200F2E18083
:102B60007B68774A934200F0CA807B68744A93423C
:102B700000F2D7807B68734A934252D07B68714AD7
:102B8000934200F2CE807B686F4A93423BD07B68D1
:102B90006E4A934240F0C5807B6907EE903AB8EEEA
:102BA000676B644B1B6D07EE903AB8EE677B26EEC1
:102BB000077B87ED027B5F4B1B6E07EE903AB8EE0A
:102BC000676B97ED025B85EE067B87ED027B594BC9
:102BD0001B6B03F00103002B05D07B69162202FB5F
:102BE00003F37B6105E07A6913469B0013449B0065
:102BF0007B6197ED027BFCEEC77B17EE902A7B6929
:102C000013447B6190E04B4B1B6903F00203002BE4
:102C100001D0162200E014227B6902FB03F37B61E2
:102C200082E0444B1B6F03F07F033B617B6907EE3F
:102C3000903AB8EE676B3F4BD3F8803007EE903A8E
:102C4000B8EE677B26EE077B87ED027B394BD3F826
:102C5000903007EE903AB8EE676B97ED025B85EE29
:102C6000067B87ED027B7B693A6902FB03F397EDF4
:102C7000027BFCEEC77B17EE902A13447B612D4B41
:102C80001B6F03F4C013B3F5801F13D0B3F5801F7F
:102C90000DD8002B03D0B3F5002F04D007E07B69DB
:102CA0009B087B6107E07B695B087B6103E0284848
:102CB000FFF760FB00BF1F4BD3F87021254B13407B
:102CC000244A93420ED0234A934213D8B3F5000FFF
:102CD00013D0B3F5000F0DD8002B0ED0B3F5004F75
:102CE00004D007E07B699B087B6107E07B695B0898
:102CF0007B6103E01848FFF73DFB00BF14E00D4B7C
:102D0000D3F8E03003F003033B61144A3B6952F807
:102D100023307B6108E0124B7B6105E0114B7B6146
:102D200002E000237B6100BF7B6918461837BD466F
:102D300080BD00BF00800D401600E0001500E000DF
:102D40000D00E0000D0070000D0010000D003000BF
:102D5000905A006000808000A85A0060C05A00604D
:102D600040787D010065CD1D80B485B000AF03467D
:102D70000A46FB711346BB71FB79FB60124BD3F81B
:102D80000021FB68DB00BF2101FA03F3DB431340A2
:102D9000BB60FB68DB0080229A400B49BB68134391
:102DA000C1F80031BB7903F03F02FB68DB009A40B9
:102DB0000549BB681343C1F8003100BF1437BD4655
:102DC0005DF8047B704700BF00800D402DE9B04FD7
:102DD00084B000AF786039607968002936D07968AE
:102DE000002088468146396800200A46034602FBD7
:102DF00009F008FB03F10144A8FB02454B191D46ED
:102E0000154A4FF000032046294602F007FD02460E
:102E10000B46C7E90223D7E90223012B02D30F484F
:102E2000FFF7A8FAD7E902014FF003024FF00003C1
:102E300002F0F4FC02460B4612EB020A43EB030BD2
:102E4000C7E902ABBB68184602F0D7F900BF1037DC
:102E5000BD46BDE8B08F00BF40420F00D05A0060B1
:102E600080B586B000AF03460A46FB8013467B71EF
:102E7000B7F906301B0A7B61FB8803F01F033B6137
:102E80007B69062B02D90C48FFF774FA7A690B4B61
:102E900013449B00FB6003223B6902FA03F17A7939
:102EA0003B6902FA03F31A46F86802F0B6F900BF6C
:102EB0001837BD4680BD00BFFC5A00601AF00310F1
:102EC00080B584B000AF78600023FB6009E00D4A54
:102ED000FB6852F823307A689A4206D0FB680133C7
:102EE000FB60FB68052BF2D900E000BFFB68052BF7
:102EF00002D90548FFF73EFAFB6818461037BD4671
:102F000080BD00BF1C5B0060405B006080B586B088
:102F100000AFF860B9607A60F868FFF7D1FF7861B8
:102F20007B69052B0DD8214A7B6932F91330B3F147
:102F3000FF3F06D01D4A7B6932F91330184602F074
:102F400094F9FB685A690121BB6801FA03F3DB437A
:102F50001A40FB685A617B681B78002B0AD1FB681A
:102F60005A680121BB6801FA03F3DB431A40FB688E
:102F70005A600FE07B685B781A46B968F86800F021
:102F800017F8FB685A680121BB6801FA03F31A437A
:102F9000FB685A607B689B781A46B968F86802F04B
:102FA00073F900BF1837BD4680BD00BF345B0060B9
:102FB00080B584B000AFF860B9601346FB71BB68A0
:102FC0001F2B02D90B48FFF7D5F9FB79002B06D14F
:102FD0000122BB689A40FB68C3F8882005E0012203
:102FE000BB689A40FB68C3F8842000BF1037BD4619
:102FF00080BD00BF745B006080B487B000AFF86034
:10300000B9601346FB71BB683B61FB68DA6901215B
:10301000BB6801FA03F3DB431A40FB68DA61BB6863
:103020000F2B03D8FB680C337B6105E0FB68103382
:103030007B613B69103B3B61FB79013B042B52D820
:1030400001A252F823F000BF5D30006075300060CF
:1030500099300060BD300060D33000607B691A6831
:103060003B695B00032101FA03F3DB431A407B69F0
:103070001A6039E07B691A683B695B00032101FA39
:1030800003F3DB431A403B695B00012101FA03F3C0
:103090001A437B691A6027E07B691A683B695B0009
:1030A000032101FA03F3DB431A403B695B00022171
:1030B00001FA03F31A437B691A6015E07B691A6809
:1030C0003B695B00032101FA03F31A437B691A6031
:1030D0000AE0FB68DA690121BB6801FA03F31A43CD
:1030E000FB68DA6100E000BF00BF1C37BD465DF839
:1030F000047B704780B586B000AF03460A46FB806C
:1031000013467B71B7F906301B0A7B61FB8803F01D
:103110001F033B617B69062B02D90C48FFF72AF994
:103120007A690B4B13449B00FB6003223B6902FA54
:1031300003F17A793B6902FA03F31A46F86802F060
:10314000B4F800BF1837BD4680BD00BFFC5A006010
:103150001AF0031080B584B000AF78600023FB60E4
:1031600009E00D4AFB6852F823307A689A4206D08B
:10317000FB680133FB60FB68082BF2D900E000BF5D
:10318000FB68082B02D90548FFF7F4F8FB681846DE
:103190001037BD4680BD00BF905B0060C85B00601B
:1031A00080B58CB000AFF860B9607A60BB68002B66
:1031B00002D17048FFF7DEF8BB681B68002B02D114
:1031C0006D48FFF7D7F8BB681B7A032B02D96B4811
:1031D000FFF7D0F8BB685B7A032B02D96848FFF78A
:1031E000C9F80023FB62BB681B68FB61002387F8FA
:1031F00023300023FB84042387F8223041E07A68DF
:1032000013469B0013445B001946BB681B6897F884
:10321000222002FB03F3B1FBF3F30533594AA2FB6F
:103220000323DB08BB84BB8C002B01D10123BB84AF
:1032300097F82230BA8C02FB03F37A68B2FBF3F3FF
:103240007B61BB681B687A699A4204D9BB681B68BA
:103250007A69D31A03E0BB681A687B69D31A3B61A9
:103260003A69FB699A4207D83B69FB6197F82230BB
:1032700087F82330BB8CFB8497F82230013387F822
:10328000223097F82230202BB9D9BB681B683E4A00
:10329000A2FB03235A0913465B001344FA699A42BE
:1032A00003D940F22153FB62FAE0F868FFF752FFBE
:1032B000B861364ABB6932F91330184602F01DF87E
:1032C000F86802F029F8FB681B69BB6297F82330A5
:1032D000032B07D997F82330072B03D8BB6A43F495
:1032E0000033BB62BB6A23F0F853BB6297F823300C
:1032F000013B1B0603F0F853BA6A1343BB62BA6A78
:10330000234B1340BB62FB8CC3F30C02BB6A1A4312
:10331000FB681A61FB681B6923F00052FB681A61A5
:10332000FB689A691B4B1340BB62BB681B791A464A
:10333000BB68DB7B1B0203F4E0631A43BB689B7B27
:103340009B0003F004031343BA6A1343BB62BB68D8
:103350005B79012B20D1BB681B79002B04D0BB6AA1
:1033600023F40063BB621FE0BB6A43F40063BB62EB
:103370001AE000BF005C0060245C0060545C0060E8
:10338000B05C0060CDCCCCCC1F85EB51B45B006051
:1033900000E0FFFFE8F8FFFFBB681B79002B03D0BC
:1033A000BB6A43F01003BB62FB68BA6A9A61FB68B0
:1033B0001B6923F40053BB62BB68DB795B0303F436
:1033C0000052BB6A1A43FB681A61BB685B7A1B0434
:1033D000BA68127A1A43FB68DA62FB689B6A43F0A8
:1033E0008802FB689A62FB689B6A43F44042FB6870
:1033F0009A622E4BBB62BB6A43F00043BB62BB6A5E
:1034000043F44043BB62FB685A6ABB685B7B1B01A9
:1034100003F01001BB681B7B5B0103F020030B432F
:103420001A43FB685A62BB689B7A002B05D0FB6885
:103430005B6A43F00802FB685A62BB68DB7A002BC8
:1034400005D0FB685B6A43F00102FB685A62BB6807
:103450009B79002B04D0BB6A43F00053BB6203E0AE
:10346000BB6A23F00053BB62FB685A69BB6A1A430C
:10347000FB685A61FB689B69BB62BB681B7C002BC5
:1034800003D0BB6A43F40023BB62BB685B7C002BA8
:1034900003D0BB6A43F48023BB62FB68BA6A9A61BB
:1034A000FB6A18463037BD4680BD00BF00001F4094
:1034B00080B582B000AF78607B68002B02D11D48D8
:1034C000FEF758FF14220021786802F077F87B6835
:1034D0004FF4E1321A607B6800221A717B68002287
:1034E0005A717B6800229A717B680022DA717B68CE
:1034F00000221A727B6800225A727B6800229A723C
:103500007B680022DA727B6800225A737B68002293
:103510001A737B6800229A737B680022DA737B68D7
:1035200000221A747B6800225A7400BF0837BD4617
:1035300080BD00BF0C5D006080B485B000AF7860D6
:103540007B685B69FB607B689B6A1B0C03F0C303B1
:10355000FA681343FB60FA68044B1340FB60FB6896
:1035600018461437BD465DF8047B7047C3C0FFC1E1
:1035700080B584B000AF786039603A681A4B134068
:103580003B603B6803F00303002B10D07B689B6A11
:10359000BB60BB6823F47033BB603B681B0403F45F
:1035A0004033BA681343BB607B68BA689A627B6831
:1035B0005B6903F078533A681343BB607B68BA6871
:1035C0005A617868FFF7B8FF02463B681340002B4A
:1035D00003D040F21A53FB6001E00023FB60FB685C
:1035E00018461037BD4680BD03C01FC080B586B0E9
:1035F00000AFF860B9607A60BB68002B02D1144854
:10360000FEF7B8FEBB687B617B683B6111E000BFE1
:10361000FB685B6903F40003002BF9D07B691B781E
:103620001A46FB68DA617B6901337B613B69013BC8
:103630003B613B69002BEAD100BFFB685B6903F487
:103640008003002BF9D0002318461837BD4680BDF3
:10365000305D006080B58AB000AFF860B9607A6014
:10366000BB68002B02D15248FEF784FE00237B6228
:10367000BB683B62FB689B69FB61FB6903F4006309
:10368000002B09D1FB6903F01003002B06D1FB6965
:1036900003F00203002B01D0012300E00023FB769E
:1036A000FB7E03F00103FB7676E0F868FFF744FF4A
:1036B00078617B6903F40023002B0ED04FF40021C6
:1036C000F868FFF755FF0346002B02D140F21D5367
:1036D00001E040F21A537B6244E07B6903F48033DB
:1036E000002B0DD04FF48031F868FFF741FF0346FF
:1036F000002B02D14FF4A46301E040F21A537B6225
:103700007B6903F40033002B0DD04FF40031F868CF
:10371000FFF72EFF0346002B02D140F21F5301E0BA
:1037200040F21A537B627B6903F48023002B0DD097
:103730004FF48021F868FFF71BFF0346002B02D1EE
:1037400040F21E5301E040F21A537B627B6A002B69
:1037500007D1FB68DB6A1B0E03F00703002BA4D024
:1037600000E000BF7B6A002B1CD1FB7E002B0BD03E
:10377000FB68DB69DBB203F07F03DAB23B6A1A70E5
:103780003B6A01333B6207E0FB68DB69DAB23B6A04
:103790001A703B6A01333B627B685A1E7A60002BC9
:1037A000D7D100E000BF7B6A18462837BD4680BDF0
:1037B000505D006080B500AF054B1B68054A52683C
:1037C000114605489847BFF34F8F00BF00BF80BD2B
:1037D00044000020200000200040184080B500AFC9
:1037E000054B1B68054A9268114605489847BFF388
:1037F0004F8F00BF00BF80BD44000020200000208C
:103800000080184080B500AF054B1B68054AD268A0
:10381000114605489847BFF34F8F00BF00BF80BDDA
:10382000440000202000002000C0184080B500AFF8
:10383000054B1B68054A1269114605489847BFF3B6
:103840004F8F00BF00BF80BD44000020200000203B
:103850000000194080B500AF054B1B68054A52694E
:10386000114605489847BFF34F8F00BF00BF80BD8A
:1038700044000020200000200040194080B500AF27
:10388000054B1B68054A9269114605489847BFF3E6
:103890004F8F00BF00BF80BD4400002020000020EB
:1038A0000080194080B500AF054B1B68054AD269FE
:1038B000114605489847BFF34F8F00BF00BF80BD3A
:1038C000440000202000002000C0194080B500AF57
:1038D000054B1B68054A126A114605489847BFF315
:1038E0004F8F00BF00BF80BD44000020200000209B
:1038F00000001A4080B500AF484BD3F88830474AE3
:1039000043F47003C2F88830444B454A9A60454BF3
:103910001B899BB2434A23F001039BB21381424BA4
:103920001B899BB2404A23F001039BB213813D4B9C
:103930001B889BB203F00403002B07D0394B1B8874
:103940009BB2384A23F004039BB21380364B1B888A
:103950009BB203F00403002B07D0334B1B889BB2B0
:10396000314A23F004039BB21380304B1B6803F4ED
:103970000053002B03D02D4B2D4A5A6007E02B4BF0
:103980004CF220525A60294B4DF628125A60274BB0
:103990004FF6FF729A60254B1B6823F0A003234A61
:1039A00043F020031360234B1B6803F00103002B3B
:1039B00005D0204B1B681F4A23F001031360174BEF
:1039C0005B6903F40033B3F5003F22D0134B5B690E
:1039D00003F40033002B1BD1BFF34F8F00BFBFF3A5
:1039E0006F8F00BF0D4B0022C3F85022BFF34F8FE3
:1039F00000BFBFF36F8F00BF084B5B69074A43F4FA
:103A000000335361BFF34F8F00BFBFF36F8F00E0F0
:103A100000BF01F097FC00BF80BD00BF00ED00E0DB
:103A20000020006000800B4000000D4000C00B40F3
:103A300020C528D910E000E080B58AB000AF7860DA
:103A400039600023FB8407F10C031846FFF730FDB3
:103A50003B685B68FB603B681B7A3B743B685B7A46
:103A6000FB743B689B7A002B14BF01230023DBB25D
:103A70007B773B68DB7A002B14BF01230023DBB28A
:103A80003B773B681B7B002B14BF01230023DBB279
:103A9000BB753B685B7B002B14BF01230023DBB2AB
:103AA000FB750123BB760123FB763B689B7B1A46A3
:103AB0000B4B53F822003B681A6807F10C031946B8
:103AC000FFF76EFB38623B6A002B04D0386A01F0C6
:103AD00040FC0346FB84FB8C18462837BD4680BD5E
:103AE000705D006080B584B000AF786039607B683D
:103AF000002B02D11748FEF73DFC3B68002B02D19A
:103B00001548FEF737FC3B689B7B082B02D913480E
:103B1000FEF730FC3B689B7B1A46114B53F8223072
:103B2000002B02D10F48FEF725FC39687868FFF7B3
:103B300083FF0346FB81FB89002B05D17B68BB60BB
:103B40003B689A7BBB681A70FB8918461037BD46E4
:103B500080BD00BF945D0060C05D0060EC5D0060F2
:103B6000705D0060505E006080B586B000AFF860A8
:103B7000B9607A60FB68002B02D11248FEF7FAFBAD
:103B8000BB68002B02D11048FEF7F4FB7B68002BCA
:103B900002D10E48FEF7EEFBFB687B617B691B7868
:103BA0001A460B4B53F822307A68B9681846FFF76B
:103BB00051FD3861386901F0CCFB034618461837CF
:103BC000BD4680BD9C5E0060C85E0060F05E006027
:103BD000705D006080B586B000AFF860B9607A6053
:103BE000FB68002B02D11048FEF7C4FBBB68002B1A
:103BF00002D10E48FEF7BEFB7B68002B02D10C48B9
:103C0000FEF7B8FBFB687B617B691B781A46094BA2
:103C100053F822307A68B9681846FFF7E7FC0023AA
:103C200018461837BD4680BD185F0060445F0060CD
:103C30006C5F0060705D006080B483B000AF78603E
:103C4000BFF35F8F00BF0B4A7B6843F001035360F3
:103C5000094B5B6A084A43F480335362BFF34F8FCA
:103C600000BFBFF36F8F00BF00BF0C37BD465DF8CC
:103C7000047B704790ED00E000ED00E080B400AF01
:103C8000BFF35F8F00BF0B4B5B6A0A4A23F480339C
:103C90005362094B5B68084A23F001035360BFF38A
:103CA0004F8F00BFBFF36F8F00BF00BFBD465DF8F1
:103CB000047B704700ED00E090ED00E080B483B03D
:103CC00000AF78607B68DAB20C4B13441A687B68EB
:103CD0005B0BC3F30C017B681B0A03F01F0301FAA3
:103CE00003F31A407B681B0A03F01F0322FA03F355
:103CF00018460C37BD465DF8047B704700C00F4086
:103D000080B483B000AF78607B68DAB20C4B1344A8
:103D10001A687B685B0BC3F30C017B681B0A03F01A
:103D20001F0301FA03F31A407B681B0A03F01F0309
:103D300022FA03F318460C37BD465DF8047B704742
:103D400000C00F4080B400AF074BD3F8703203F0CF
:103D50001003002B02D1054B1B6800E0044B1846F2
:103D6000BD465DF8047B704700800D4018000020C0
:103D700000366E0190B583B000AF1348FFF79EFF89
:103D80000346002B10D11148FEF7B8FE0346104A37
:103D9000A2FB03239C080F48FFF7B2FF0346013341
:103DA000B4FBF3F37B600AE0FFF7CCFF044609485D
:103DB000FFF7A6FF03460133B4FBF3F37B607B6898
:103DC00018460C37BD4690BD242600800D0010001B
:103DD000ABAAAAAA24E0078080B58AB000AF9B4BAB
:103DE0007B629B4A7B6AD31A3B6200233B61994BFF
:103DF0005B6903F40033B3F5003F16D1BFF34F8F77
:103E000000BFBFF36F8F00BF924B5B69914A23F4F1
:103E1000003353618F4B0022C3F85022BFF34F8F02
:103E200000BFBFF36F8F00BF00BF8A4B5B6903F415
:103E30008033B3F5803F4DD1864B0022C3F88420F8
:103E4000BFF34F8F00BF834B5B69824A23F48033FB
:103E50005361BFF34F8F00BF7E4A07F10803C2F8DA
:103E600070327C4A3B1DC2F870327A4A07F10C036B
:103E7000C2F87032BFF34F8F00BFBFF36F8F00BF28
:103E8000744BD3F88030FB60FB685B0BC3F30E030D
:103E9000BB60FB68DB08C3F309037B60BB685A01A6
:103EA00043F6E07313407A6892076A491343C1F8F6
:103EB00074327B685A1E7A60002BEFD1BB685A1EA1
:103EC000BA60002BE5D1BFF34F8F00BFBFF36F8FF8
:103ED00000BF00BFFFF7D2FE5F4B1022DA605E4BDF
:103EE0005E4A1A615C4B5E4ADA605B4B5D4A1A615E
:103EF000594B5D4ADA60584B5A4A1A61564B5B4A35
:103F0000DA60554B5A4A1A61534B1422DA60524B0D
:103F1000584A1A61504B1522DA604F4B564A1A61C3
:103F20004D4B564ADA604C4B534A1A614A4B544A3D
:103F3000DA60494B534A1A61474B534ADA60464BA1
:103F4000524A1A6102E03B6901333B613B693A6ABC
:103F500022FA03F3012BF6D83B69002B2DD07B6AA4
:103F60003A6AB3FBF2F2396A01FB02F29B1A002BA8
:103F700002D04748FEF7FEF93B69012202FA03F33B
:103F80001A463B6A934202D04248FEF7F3F93B6976
:103F9000042B02D84048FEF7EDF97B6A23F01F039B
:103FA0002D4A43F01903D3603B69013B5B0003F0EA
:103FB0003E022949394B13430B61274B384ADA60DB
:103FC000254B384A1A610420FFF736FE214B5B6906
:103FD00003F48033002B67D11E4B0022C3F88420EA
:103FE000BFF34F8F00BF1B4BD3F88030FB61FB69E1
:103FF0005B0BC3F30E03BB61FB69DB08C3F309036F
:104000007B61BB695A0143F6E07313407A699207FA
:1040100010491343C1F860327B695A1E7A61002B44
:10402000EFD1BB695A1EBA61002BE5D1BFF34F8FA8
:1040300000BF084B5B69074A43F480335361BFF309
:104040004F8F00BFBFF36F8F2FE000BF0000E081F4
:104050000000008200ED00E090ED00E03F00001065
:10406000110000803900100312000060130000608E
:104070002D0003063B0010031F0003031600002061
:1040800017002020210003031800008031000303E3
:10409000945F0060BC5F0060E85F0060010008039F
:1040A0001A0000402B00100300BF134B5B6903F4A0
:1040B0000033002B1BD1BFF34F8F00BFBFF36F8FB7
:1040C00000BF0D4B0022C3F85022BFF34F8F00BF3B
:1040D000BFF36F8F00BF084B5B69074A43F400339F
:1040E0005361BFF34F8F00BFBFF36F8F00E000BF7E
:1040F00000BF2837BD4680BD00ED00E080B584B02C
:1041000000AF786039607B689B0EFB607B68DAB239
:104110001F4B13441A687B685B0BC3F30C017B686D
:104120001B0A03F01F0301FA03F3DB4302EA030156
:104130007B681B0A03F01F033A689A407B685B0B9D
:10414000C3F30C007B681B0A03F01F0300FA03F3A0
:104150001A407B68D8B20E4B0344184641EA02036A
:104160000360FB68202B02D90A48FEF703F9FB68BD
:10417000202B09D000BF064B9A6CFB6822FA03F390
:1041800003F00103002BF6D100BF1037BD4680BD00
:1041900000C00F400060006080B584B000AF786060
:1041A00039607B689B0EFB607B68DAB21F4B13445F
:1041B0001A687B685B0BC3F30C017B681B0A03F076
:1041C0001F0301FA03F3DB4302EA03017B681B0AC6
:1041D00003F01F033A689A407B685B0BC3F30C0043
:1041E0007B681B0A03F01F0300FA03F31A407B6885
:1041F000D8B20E4B0344184641EA02030360FB6841
:10420000202B02D90A48FEF7B5F8FB68202B09D00D
:1042100000BF064B9A6CFB6822FA03F303F001031C
:10422000002BF6D100BF1037BD4680BD00C00F4047
:104230009060006080B586B000AF03460A46FB8000
:1042400013467B71B7F906301B0A7B61FB8803F0CC
:104250001F033B617B69062B02D90C48FEF78AF8E5
:104260007A690B4B13449B00FB6003223B6902FA03
:1042700003F17A793B6902FA03F31A46F86801F010
:104280008DF800BF1837BD4680BD00BF20610060BB
:104290001AF0031080B483B000AF7860044A7B68E2
:1042A000136000BF0C37BD465DF8047B704700BF4C
:1042B0001800002080B483B000AF7860044A7B68A7
:1042C000136000BF0C37BD465DF8047B704700BF2C
:1042D0001C00002080B485B000AF78600B46FB70F6
:1042E0001346BB707B689A680A4B1340FB60FB78EF
:1042F0009B0603F08062FB681A43BB781B0403F43F
:104300007F031A437B689A6000BF1437BD465DF88F
:10431000047B7047FFFF00FB80B500AF4FF4004007
:10432000FFF7C8FFD64BD3F8C032D54A43F48033E9
:10433000C2F8C032D24BD3F8C032D14A23F4003392
:10434000C2F8C032CF48FFF7A5FF0020FEF7C6FA3B
:10435000FEF714FB0120FEF7F7FACB4B1B6823F0A6
:10436000FF03C94A43F07F0313600121C748FFF7E9
:10437000C5FE0121C648FFF7C1FEC64BDB6823F02E
:104380001F03C44A43F01203D36000BFC14B1B6834
:1043900003F00043B3F1004FF8D10021BE48FFF70E
:1043A000FBFE4FF4887001F021F84FF4847001F0A7
:1043B0001DF840F2162001F019F84FF4067001F0D4
:1043C00015F80321B548FFF7E7FE0021B448FFF7D1
:1043D000E3FE0021B348FFF7DFFE4FF48A7001F0DF
:1043E00005F84FF48B7001F001F8182000F0FEFF83
:1043F0001A2000F0FBFF4FF4867000F0F7FF012158
:10440000A948FFF7C9FE40F2026000F0EFFF022169
:10441000A648FFF7C1FE0021A548FFF76FFE40F256
:10442000046000F0E3FF0221A248FFF7B5FE00217F
:10443000A148FFF763FE4FF4417000F0D7FF07215A
:104440004FF21400FFF7A8FE00219C48FFF756FE2C
:1044500000219B48FFF752FE4FF4807000F0C6FF2A
:104460004FF4817000F0C2FF4FF4827000F0BEFF85
:104470004FF4837000F0BAFF04219248FFF78CFEDE
:1044800002219148FFF73AFE162000F0AFFF03210A
:104490008E48FFF781FE00218D48FFF72FFE40F286
:1044A000125000F0A3FF03218A48FFF775FE012197
:1044B0008948FFF771FE00218848FFF71FFE40F290
:1044C000145000F093FF03218548FFF765FE01219A
:1044D0008448FFF761FE00218348FFF70FFE40F29A
:1044E000165000F083FF03218048FFF755FE01219D
:1044F0007F48FFF751FE00217E48FFF7FFFD40F2A5
:10450000062000F073FF4FF4027000F06FFF40F2DE
:104510000A2000F06BFF00217748FFF73DFE0021E5
:104520007648FFF7EBFD0E2000F060FF122000F050
:104530005DFF102000F05AFF142000F057FF01210A
:104540006F48FFF729FE02216E48FFF7D7FD4FF4B1
:10455000A36000F04BFF1C2000F048FF0C2000F08F
:1045600045FF4FF48C7000F041FF40F2023000F044
:104570003DFF40F2063000F039FF40F21A5000F0E3
:1045800035FF40F20E6000F031FF00215E48FFF77A
:1045900003FE00215D48FFF7B1FD40F20E5000F030
:1045A00025FF01215A48FFF7F7FD07215948FFF77A
:1045B000F3FD03215848FFF7A1FD40F2025000F03F
:1045C00015FF01215548FFF7E7FD07215448FFF784
:1045D000E3FD03215348FFF791FD00215248FFF707
:1045E0008DFD5248FEF7DCF91B210020FEF7BCFBD5
:1045F00010210120FEF7B8FB12210220FEF7B4FBC8
:1046000012210320FEF7B0FBFEF718FA01224849F9
:104610001B4800F0FAFE1A4BD3F87031184A23F405
:104620000043C2F87031164BD3F87031144A23F4AA
:104630000003C2F87031124B1B6F114A43F4005350
:1046400013673C48FEF708FA03213B48FFF756FD85
:1046500000210F48FFF752FD00210C48FFF74EFDE7
:1046600000213648FFF74AFD074B1B6E064A23F030
:1046700070031366044B1B6E23F00F0360E000BF52
:1046800000800D4000366E0100C00F40186C0080A5
:10469000143900140000084014EA00041468008073
:1046A00010E0004014FB00801CE0078024EB008039
:1046B0001C30008024F000801C3100801427008012
:1046C0001426008018FA0080186400802479008085
:1046D000186E008028E6008028E007801C6A0080B1
:1046E0002CE600802CE007801C6C008028F60080FF
:1046F00028F007801C6E008038F307803832008075
:1047000020E207802068008024E0078024260080C3
:1047100030F9008030F600803074008028E9008095
:1047200028F90080207300800C200080A0610060C8
:104730000D007000B4610060187200801C260080BB
:104740002C4A43F0010313662A4B1B6E294A23F4BB
:1047500060031366274B1B6E23F4F813254A43F4BA
:1047600040331366234B1B6E224A23F48073136677
:10477000204B1B6E1F4A23F0800313661D4B1B6EDC
:104780001C4A23F080731366002200211A4800F0AF
:1047900063FE00220321184800F05EFE002206217D
:1047A000154800F059FE00220821134800F054FE7D
:1047B00000220A21104800F04FFE002200210E487E
:1047C000FFF788FD0C4B5B680B4A23F40033536002
:1047D000094B5B69084A23F080535361064B5B69C0
:1047E000054A23F000535361044B054A1A6000BF89
:1047F00080BD00BF00C00F4000C00A400000002084
:104800000065CD1D80B586B000AF03460A46FB802B
:1048100013467B71B7F906301B0A7B61FB8803F0F6
:104820001F033B617B69062B02D90C48FDF7A2FDF3
:104830007A690B4B13449B00FB6003223B6902FA2D
:1048400003F17A793B6902FA03F31A46F86800F03B
:104850003FFE00BF1837BD4680BD00BF206100602D
:104860001AF0031080B582B002AF40F2024000F0AF
:1048700057FE00230193204B0093002300220521C3
:104880001E4800F05CFE002301931D4B00930023A3
:10489000002202211B4800F052FE002301931A4B14
:1048A0000093002300220221184800F048FE47F23E
:1048B000A0030193104B00930023002205210F4811
:1048C00000F05AFE41F2B00301930D4B0093002318
:1048D000002202210B4800F04FFE41F2B003019389
:1048E000094B0093002300220221084800F044FEF7
:1048F00000BFBD4680BD00BF44821F40D0801F4026
:1049000048821F40D4801F404C821F40D8801F40E7
:1049100010B5174A0020174900F0ADFE4FF4807320
:104920004FF480620021124800F062FE124A1349DF
:10493000012000F0A0FE4FF480734FF4806200214C
:104940000D4800F055FE0E4B1B68022B0EDD0D4A84
:1049500002200A4900F08FFE4FF480734FF480620A
:1049600000210848BDE8104000F042BE10BD00BF65
:104970004C000020C061006088000020C26100601F
:10498000BC610060C4000020F8B5044638B90B4B88
:1049900005460B4E1F68A74205DC2846F8BDBDE85A
:1049A000F84000F0D2BE3046013400F0CEFE0028C0
:1049B00006F13C0618BF4FF0FF35ECE7BC61006024
:1049C0004C0000202DE9F843C66804463B4B0D46D9
:1049D000904633401BB902273846BDE8F883D0F82B
:1049E0001490484601F00EF807460028F3D1B8F1BC
:1049F000010F2CD0B8F1020F2ED0B8F1000FEAD180
:104A0000002DE8DBB00404D52368E26A9A4238BF7F
:104A1000E362A169A9420EDC2368E26A934238BFCF
:104A2000134622695818801AA84204DB206B01EB58
:104A3000000CAC4531DC002346F02006A562C4E939
:104A4000013326F4032626F04006E660C4E720463C
:104A500000F036F80544D3E7484600F0D0FFB0F147
:104A6000000CE26804DA42F080020127E260B3E75A
:104A70002168A369E06A81422CBF5B181B18216979
:104A80009206A3EB010303D5A26A9342B8BF134673
:104A90006345ACBFED186544B2E76D1AB10744BF7A
:104AA000281AA060F10726F0200644BF9B1AEB1AD3
:104AB000154448BF63602560C3E700BF03001000D2
:104AC000C3689A0705D10E4B21224FF0FF301A60C0
:104AD000704703F020021B0309D512B1806A013828
:104AE00070470368826900691344181AF7E70AB12E
:104AF000806A70470368826900691344181A704716
:104B0000480000202DE9F041D56880460E46144645
:104B1000EB02576905D545F01005384600F06FFFE8
:104B2000A061124B2B408BB1A169384600F070FF99
:104B3000002806DAE3684FF0FF3043F08003E360BB
:104B400011E025F4003525F01005E56032464146B8
:104B5000384600F063FF20F00041761AA1690E4448
:104B6000A6610028E6D1BDE8F08100BF1000020078
:104B70000FB480B582B000AF00237B6007F114034F
:104B80003B6039683869FDF73BFC78607B68184604
:104B90000837BD46BDE8804004B0704780B586B098
:104BA00000AFB9607A603B600346FB73BB687B6112
:104BB0000BE0FA7B3B6A104698473B681B685A1C1F
:104BC0003B681A607B6901337B617A697B689A4232
:104BD000EFDB00BF00BF1837BD4680BD80B48FB08B
:104BE00000AFF860B9607A603B600023FB62FB684D
:104BF000BB62BB6A5A1CBA6200221A7000237B6037
:104C000000237B6200233B620023FB6100237B6364
:104C10000023BB6100233B6300237B61BB681B68EF
:104C20007B637B6B002B30D1BB6A30221A70FB6A2E
:104C30000133FB62FB6A2CE03B687A6BB2FBF3F357
:104C4000BB613B68BA6902FB03F37A6BD31A3B631F
:104C50003B6B092B03D83B6B30333B630AE097F87F
:104C60004030002B01D0412200E061223B6B134415
:104C70000A3B3B63BB697B63BB6A5A1CBA623A6BF3
:104C8000D2B21A70FB6A0133FB627B6B002BD3D16B
:104C9000FB6A18463C37BD465DF8047B704708B593
:104CA000FDF767FB08BD08B5FDF763FB08BD08B558
:104CB000FDF75FFB08BD08B5FDF75BFB08BD08B558
:104CC000FDF757FB08BD08B5FDF753FB08BD08B558
:104CD000FDF74FFB08BD08B5FDF74BFB08BD08B558
:104CE000FDF747FB08BD08B5FDF743FB08BD08B558
:104CF000FDF73FFB08BD08B5FDF73BFB08BD08B558
:104D0000FDF737FB08BD08B5FDF733FB08BD08B557
:104D1000FDF72FFB08BD08B5FDF72BFB08BD08B557
:104D2000FDF727FB08BD08B5FDF723FB08BD08B557
:104D3000FDF71FFB08BD08B5FDF71BFB08BD08B557
:104D4000FEF738FD08BD08B5FEF748FD08BD08B5FB
:104D5000FEF758FD08BD08B5FEF768FD08BD08B5AB
:104D6000FEF778FD08BD08B5FEF788FD08BD08B55B
:104D7000FEF798FD08BD08B5FEF7A8FD08BD08B50B
:104D8000FDF7F7FA08BD08B5FDF7F3FA08BD08B559
:104D9000FDF7EFFA08BD08B5FDF7EBFA08BD08B559
:104DA000FDF7E7FA08BD08B5FDF7E3FA08BD08B559
:104DB000FDF7DFFA08BD08B5FDF7DBFA08BD08B559
:104DC000FDF7D7FA08BD08B5FDF7D3FA08BD08B559
:104DD000FDF7CFFA08BD08B5FDF7CBFA08BD08B559
:104DE000FDF7C7FA08BD08B5FDF7C3FA08BD08B559
:104DF000FDF7BFFA08BD08B5FDF7BBFA08BD08B559
:104E0000FDF7B7FA08BD08B5FDF7B3FA08BD08B558
:104E1000FDF7AFFA08BD08B5FDF7ABFA08BD08B558
:104E2000FDF7A7FA08BD08B5FDF7A3FA08BD08B558
:104E3000FDF79FFA08BD08B5FDF79BFA08BD08B558
:104E4000FDF797FA08BD08B5FDF793FA08BD08B558
:104E5000FDF78FFA08BD08B5FDF78BFA08BD08B558
:104E6000FDF787FA08BD08B5FDF783FA08BD08B558
:104E7000FDF77FFA08BD08B5FDF77BFA08BD08B558
:104E8000FDF777FA08BD08B5FDF773FA08BD08B558
:104E9000FDF76FFA08BD08B5FDF76BFA08BD08B558
:104EA000FDF767FA08BD08B5FDF763FA08BD08B558
:104EB000FDF75FFA08BD08B5FDF75BFA08BD08B558
:104EC000FDF757FA08BD08B5FDF753FA08BD08B558
:104ED000FDF74FFA08BD08B5FDF74BFA08BD08B558
:104EE000FDF747FA08BD08B5FDF743FA08BD08B558
:104EF000FDF73FFA08BD08B5FDF73BFA08BD08B558
:104F0000FDF737FA08BD08B5FDF733FA08BD08B557
:104F1000FDF72FFA08BD08B5FDF72BFA08BD08B557
:104F2000FDF727FA08BD08B5FDF723FA08BD08B557
:104F3000FDF71FFA08BD08B5FDF71BFA08BD08B557
:104F4000FDF717FA08BD08B5FDF713FA08BD08B557
:104F5000FDF70FFA08BD08B5FDF70BFA08BD08B557
:104F6000FDF707FA08BD08B5FDF703FA08BD08B557
:104F7000FDF7FFF908BD08B5FDF7FBF908BD08B559
:104F8000FDF7F7F908BD08B5FDF7F3F908BD08B559
:104F9000FDF7EFF908BD08B5FDF7EBF908BD08B559
:104FA000FDF7E7F908BD08B5FDF7E3F908BD08B559
:104FB000FDF7DFF908BD08B5FDF7DBF908BD08B559
:104FC000FDF7D7F908BD08B5FDF7D3F908BD08B559
:104FD000FDF7CFF908BD08B5FDF7CBF908BD08B559
:104FE000FDF7C7F908BD08B5FDF7C3F908BD08B559
:104FF000FDF7BFF908BD08B5FDF7BBF908BD08B559
:10500000FDF7B7F908BD08B5FDF7B3F908BD08B558
:10501000FDF7AFF908BD08B5FDF7ABF908BD08B558
:10502000FDF7A7F908BD08B5FDF7A3F908BD08B558
:10503000FDF79FF908BD08B5FDF79BF908BD08B558
:10504000FDF797F908BD08B5FDF793F908BD08B558
:10505000FDF78FF908BD08B5FDF78BF908BD08B558
:10506000FDF787F908BD08B5FDF783F908BD08B558
:10507000FDF77FF908BD08B5FDF77BF908BD08B558
:10508000FDF777F908BD08B5FDF773F908BD08B558
:10509000FDF76FF908BD08B5FDF76BF908BD08B558
:1050A000FDF767F908BD08B5FDF763F908BD08B558
:1050B000FDF75FF908BD08B5FDF75BF908BD08B558
:1050C000FDF757F908BD08B5FDF753F908BD08B558
:1050D000FDF74FF908BD08B5FDF74BF908BD08B558
:1050E000FDF747F908BD08B5FDF743F908BD08B558
:1050F000FDF73FF908BD08B5FDF73BF908BD08B558
:10510000FDF737F908BD08B5FDF733F908BD80B4E0
:1051100083B000AF786039607B683A68C3F88C2050
:1051200000BF0C37BD465DF8047B70470420714614
:10513000084202D0EFF3098001E0EFF308808169B3
:105140000A884BF6AB639A4200D0FEE702318161D8
:1051500020210160704700BF80B483B000AF786049
:1051600039603B681B0CC3F30B027B6813441B685C
:1051700003F48033002B14BF01230023DBB2184655
:105180000C37BD465DF8047B704780B483B000AF38
:10519000786039603B681B0CC3F30B027B681344D7
:1051A0001A683B6803F01F0322FA03F303F00103BC
:1051B000002B14BF01230023DBB218460C37BD4679
:1051C0005DF8047B704780B582B000AF78603960CD
:1051D0003B681B0CC3F30B027B6813441B689B0BDF
:1051E00003F00303002B03D1FDF760FB034600E04F
:1051F000002318460837BD4680BD80B483B000AF99
:1052000078607B681846A0F101000028FBD100BF40
:105210000C37BD465DF8047B704780B48BB000AF9F
:10522000F860B9607A60FB687B617B6953E8003F96
:105230003B613B697B62BB68DA437B6A13407A68F7
:1052400013437B627B6A3B62FB68FB61F9693A6AE4
:1052500041E80023BB61BB69002BE4D100BF00BF64
:105260002C37BD465DF8047B704780B582B000AF37
:105270000346FB80B7F9063003211846FDF7F0FD21
:1052800000BF0837BD4680BD80B584B000AFF86070
:10529000B9601346FB71FB791A46B968F868FDF7E7
:1052A000ABFE00BF1037BD4680BD80B48BB000AFF1
:1052B000F860B9607A60FB687B617B6953E8003F06
:1052C0003B613B697B62BB68DA437B6A13407A6867
:1052D00013437B627B6A3B62FB68FB61F9693A6A54
:1052E00041E80023BB61BB69002BE4D100BF00BFD4
:1052F0002C37BD465DF8047B704780B582B000AFA7
:105300000346FB80B7F9063003211846FDF7F2FE8D
:1053100000BF0837BD4680BD80B483B000AF786061
:105320007B689B6843F002027B689A607B689B689D
:1053300023F002027B689A6000BF0C37BD465DF81F
:10534000047B704780B400AF00BFBD465DF8047BAE
:10535000704780B485B000AF78607B68002B02D1C5
:105360000023FB8102E042F6AF73FB81FB89184604
:105370001437BD465DF8047B704780B582B000AF3E
:10538000FEF7F8FC78607B6801224FF4E1310120E0
:10539000FCF7FCFF00BF0837BD4680BD80B48BB072
:1053A00000AFF860B9607A60FB687B617B6953E8A5
:1053B000003F3B613B697B62BB68DA437B6A134019
:1053C0007A6813437B627B6A3B62FB68FB61F96925
:1053D0003A6A41E80023BB61BB69002BE4D100BFFE
:1053E00000BF2C37BD465DF8047B704780B582B0A6
:1053F00000AF0346FB80B7F9063000211846FEF7E0
:1054000019FF00BF0837BD4680BD80B485B000AF2E
:10541000F860B9601346FB71FB79002B0BD0BB68B9
:105420001B0CC3F30B02FB68134404331A464FF4FE
:10543000803313600AE0BB681B0CC3F30B02FB68EC
:10544000134408331A464FF48033136000BF1437F7
:10545000BD465DF8047B704780B485B000AF7860CE
:105460000B46FB701346BB70FB78032B12D97B688D
:105470005A68FB78032101FA03F3DB431340FB6016
:10548000BB7803F00302FB789A40FB681A437B6801
:105490005A6011E07B685A68FB78072101FA03F330
:1054A000DB431340FB60BB7803F00702FB789A40B4
:1054B000FB681A437B685A6000BF1437BD465DF82D
:1054C000047B704780B500AFFEF726FF00BF80BDAC
:1054D00080B48BB000AFF860B9607A60FB687B6124
:1054E0007B6953E8003F3B613B697B62BB68DA4301
:1054F0007B6A13407A6813437B627B6A3B62FB687A
:10550000FB61F9693A6A41E80023BB61BB69002B82
:10551000E4D100BF00BF2C37BD465DF8047B704767
:1055200080B582B000AF0346FB80B7F90630032197
:105530001846FFF767F900BF0837BD4680BD80B445
:1055400085B000AFF860B9607A603B60BB6803F07B
:105550000701FB691B0103F01002FB680A431A6094
:105560007B68002B02D07B683A681A6000BF143752
:10557000BD465DF8047B704780B485B000AFF8602D
:10558000B9607A603B60BB69002B02D0BB69FA69E5
:105590001A6000BF1437BD465DF8047B704780B5C4
:1055A00000AFFFF75FF900BF80BD08B5FFF7B0F9A6
:1055B000BDE80840FDF74AB900F0EBB900F003BAC6
:1055C000A8B14FF0805340F80C3C50F8042C72B155
:1055D0001368B3F1805F0AD150F8083C5168033377
:1055E0000B4440F8083C936840F8043CEDE77047F2
:1055F00070B5C468A50708D0B2F5007F11D0B2F528
:10560000806F04D0B2F5807F0BD0012008E000F15C
:1056100024010123224301610160C361C2600020B3
:1056200070BD5E1E6FF07F45AE42F3D3EDE7431CC5
:1056300010B58207044614D1204654F8042BA2F179
:10564000013121EA020111F0803FF5D0D1B281B1E0
:1056500012F47F4F0BD012F47F0F14BF204603309B
:1056600003E010F8012B002AE3D1C01A10BD02306C
:10567000FBE70130F9E770B50D46064610461446C3
:1056800000F02DF82B78722B17D0772B18D0612BC8
:1056900023D1082348F2020215F8011F2B2912D04A
:1056A000622915D01B07E260666104D50222002141
:1056B0002046FFF787F9204670BD00230122EBE763
:1056C00004230222E8E742F0030243F00203E3E787
:1056D00042F0040243F00103DEE70024EBE7F0B5FB
:1056E000C46889B00546A10722D0220718D4D0E9A2
:1056F0000467FFF749F9384600F07EF9230502D523
:105700003046FFF75DFFA40DA40514F1A54F07D1A6
:105710002022296A684600F07EF9684600F00BF8FE
:105720003C2200212846FFF749FF002009B0F0BDC8
:105730004FF0FF30FAE710B50446FFF778FF014657
:105740002046BDE8104000F060B9C36870B513F0A2
:105750000306044611D09B0611D5856A00F03EF879
:10576000E368204623F44053E36000F00EF8002283
:10577000064629462046FFF725F9304670BD816967
:1057800005680D4401696D1AEAE738B501680446F9
:105790000569C36AC06820F40022E26000F082025A
:1057A000022A02D04FF0FF3038BD10F48030FBD019
:1057B000994238BF19468D4208D1E3680020E5625E
:1057C00023F480332560A060E360EDE72246491BA7
:1057D0002846FFF797F90028EFD0E3E7C36882690E
:1057E00023F0200310B5C3600446836A9A420ED0AA
:1057F000FFF7CBFFE36823F4405323F0100343F09B
:105800001003E360A36AA3612369E3622360E36892
:1058100023F4804323F04003E36010BD5FF0000CED
:1058200030B51C0022D112006FD0914206D305463C
:105830000846002100F06FF80446284600F06BF897
:105840000A462146BDE830401CF0404F08BF704773
:1058500003D54942404261F100015FEA8C0C38BF38
:1058600070475B42524263F10003704742D41C0C04
:1058700004BF1B040CF1100C13F07F4F04BF1B027C
:105880000CF1080C13F0704F04BF1B010CF1040C59
:1058900013F0404F04BF0CF1020C5FEA83035CBFBE
:1058A0000CF1010C5B00CCF1200E22FA0EF4234324
:1058B00002FA0CF200FA0CF520FA0EF001FA0CF4E0
:1058C000204321FA0EF114461A4600F024F8A4FBF6
:1058D0000023AA1A71EB03033CBF1B190138CCF15A
:1058E000200E22FA0CF203FA0EF4224323FA0CF3F0
:1058F0000021A7E7821A71EB03033CBF02460B4667
:105900004FF0000141F100009CE700200021BDE8BC
:10591000304000F03DB80423B1EB122F09D2090248
:1059200041EA10610002013B08BF7047B1EB122F42
:10593000F5D30018494134BF9142891A4041494189
:1059400034BF9142891A4041494134BF9142891A7A
:105950004041494134BF9142891A4041494134BFD5
:105960009142891A4041494134BF9142891A4041CC
:10597000494134BF9142891A4041494134BF914263
:10598000891A4041A3F1010313F00F0FD2D17047E0
:10599000704740EA0103DB0703460CD40346043A90
:1059A00022BF51F804CB43F804CBB2F10402F7D282
:1059B000043208BF7047013A24BF11F801CB03F845
:1059C00001CBF8D87047034613F0030F0ED101F056
:1059D000FF0141EA012141EA0141043A24BF43F8B1
:1059E000041BB2F10402F9D202F10402013A24BF0D
:1059F00003F8011BFAE770474FF0FF3070474FF094
:105A0000FF3070474FF0FF3070474FF0FF30704766
:105A10004FF0FF3070474FF0FF307047104670472F
:105A2000415353455254204552524F522022202573
:105A300073200A000D0A204750494F2044726976AE
:105A40006572206578616D706C650D0A000000005C
:105A50000D0A20546865204C454420697320626C0F
:105A6000696E6B696E672E0D0A00FFFF66736C5FCF
:105A7000636C6F636B2E633A313931203A202162B7
:105A800079706173735874616C4F736300FFFFFF2B
:105A900066736C5F636C6F636B2E633A38343820C7
:105AA0003A2066616C73650066736C5F636C6F634C
:105AB0006B2E633A383638203A2066616C73650085
:105AC00040787D0180F0FA0200E1F5054059730746
:105AD00066736C5F636F6D6D6F6E5F61726D2E6369
:105AE0003A313937203A20636F756E74203C3D207F
:105AF00055494E5433325F4D415800FF66736C5F19
:105B0000636C6F636B2E683A31333034203A20690E
:105B10006E646578203C3D2036554C000000000046
:105B200000801B4000C01B4000001C400000000023
:105B300000000C40FFFF1A011E001A02FFFF1E01A9
:105B400066736C5F6770696F2E633A3630203A2057
:105B5000696E7374616E6365203C204152524159F5
:105B60005F53495A4528735F6770696F4261736577
:105B7000732900FF66736C5F6770696F2E633A313B
:105B80003137203A2070696E203C2033325500FFB7
:105B900000000000004018400080184000C018407D
:105BA00000001940004019400080194000C0194011
:105BB00000001A40FFFF18051C000C00180102032A
:105BC00006031A050E06FFFF66736C5F6C70756145
:105BD00072742E633A313233203A20696E737461E5
:105BE0006E6365203C2041525241595F53495A45EA
:105BF00028735F6C707561727442617365732900FC
:105C000066736C5F6C70756172742E633A323432F5
:105C1000203A204E554C4C20213D20636F6E666922
:105C20006700000066736C5F6C70756172742E6340
:105C30003A323433203A203055203C20636F6E6670
:105C400069672D3E62617564526174655F4270736D
:105C50000000000066736C5F6C70756172742E6377
:105C60003A323435203A202875696E74385F7429C9
:105C700046534C5F464541545552455F4C50554143
:105C800052545F4649464F5F53495A456E286261F8
:105C9000736529203E20636F6E6669672D3E7478B8
:105CA0004669666F57617465726D61726B000000C2
:105CB00066736C5F6C70756172742E633A32343641
:105CC000203A202875696E74385F742946534C5FFA
:105CD000464541545552455F4C50554152545F46DC
:105CE00049464F5F53495A456E28626173652920C2
:105CF0003E20636F6E6669672D3E72784669666FF7
:105D000057617465726D61726B00FFFF66736C5F43
:105D10006C70756172742E633A353138203A204EBA
:105D2000554C4C20213D20636F6E66696700FFFF74
:105D300066736C5F6C70756172742E633A393138BA
:105D4000203A204E554C4C20213D20646174610066
:105D500066736C5F6C70756172742E633A39383398
:105D6000203A204E554C4C20213D20646174610046
:105D700000000000004018400080184000C018409B
:105D800000001940004019400080194000C019402F
:105D900000001A4066736C5F616461707465725FC5
:105DA0006C70756172742E633A363038203A204E2A
:105DB000554C4C20213D2068616E646C65000000EC
:105DC00066736C5F616461707465725F6C7075613D
:105DD00072742E633A363039203A204E554C4C209E
:105DE000213D20636F6E66696700000066736C5F1B
:105DF000616461707465725F6C70756172742E633A
:105E00003A363130203A20636F6E6669672D3E69FD
:105E10006E7374616E6365203C202873697A656FC8
:105E20006628735F4C70756172744164617074654B
:105E3000724261736529202F2073697A656F662825
:105E40004C50554152545F54797065202A292900DD
:105E500066736C5F616461707465725F6C707561AC
:105E600072742E633A363131203A204E554C4C2014
:105E7000213D20735F4C7075617274416461707470
:105E80006572426173655B636F6E6669672D3E691B
:105E90006E7374616E63655D00FFFFFF66736C5F18
:105EA000616461707465725F6C70756172742E6389
:105EB0003A363833203A204E554C4C20213D20684C
:105EC000616E646C6500000066736C5F6164617094
:105ED0007465725F6C70756172742E633A36383413
:105EE000203A204E554C4C20213D206461746100C5
:105EF00066736C5F616461707465725F6C7075610C
:105F000072742E633A363835203A206C656E6774A9
:105F100068203E20305500FF66736C5F61646170DD
:105F20007465725F6C70756172742E633A363938BD
:105F3000203A204E554C4C20213D2068616E646C07
:105F40006500000066736C5F616461707465725F08
:105F50006C70756172742E633A363939203A204E6E
:105F6000554C4C20213D20646174610066736C5F68
:105F7000616461707465725F6C70756172742E63B8
:105F80003A373030203A206C656E677468203E20C6
:105F9000305500FF626F6172642E633A31373920E9
:105FA0003A2021286E6F6E43616368655374617295
:105FB0007420252073697A6529000000626F617280
:105FC000642E633A313830203A2073697A65203D77
:105FD0003D202875696E7433325F74292831203C66
:105FE0003C20692900000000626F6172642E633AF0
:105FF000313831203A2069203E3D203500FFFFFF37
:106000002F686F6D652F61736D69722F446F6375B3
:106010006D656E74732F4D43555870726573736F51
:106020005F31312E362E315F383235352F776F7232
:106030006B73706163652F65766B6D696D787274D3
:10604000313032305F696770696F5F6C65645F6FB4
:1060500075747075742F647269766572732F6673C8
:106060006C5F636C6F636B2E683A31323138203A63
:1060700020627573795368696674203C3D20434300
:106080004D5F4E4F5F425553595F5741495400FF92
:106090002F686F6D652F61736D69722F446F637523
:1060A0006D656E74732F4D43555870726573736FC1
:1060B0005F31312E362E315F383235352F776F72A2
:1060C0006B73706163652F65766B6D696D78727443
:1060D000313032305F696770696F5F6C65645F6F24
:1060E00075747075742F647269766572732F667338
:1060F0006C5F636C6F636B2E683A31323730203AD5
:1061000020627573795368696674203C3D2043436F
:106110004D5F4E4F5F425553595F5741495400FF01
:106120002F686F6D652F61736D69722F446F637592
:106130006D656E74732F4D43555870726573736F30
:106140005F31312E362E315F383235352F776F7211
:106150006B73706163652F65766B6D696D787274B2
:10616000313032305F696770696F5F6C65645F6F93
:1061700075747075742F647269766572732F6673A7
:106180006C5F636C6F636B2E683A31333034203A46
:1061900020696E646578203C3D2036554C00FFFF39
:1061A00001000000000000000100000000000000ED
:1061B000000000000001000100FFFFFF03000000DD
:0461C00072007700F2
:0461C40040DCB311F7
:04000005600022DD98
:00000001FF
