:0200000460009A
:10000000464346420004015600000000010303007D
:1000100000000000000000000000000000000000E0
:1000200000000000000000000000000000000000D0
:1000300000000000000000000000000000000000C0
:100040001000000001040700000000000000000094
:100050000000800000000000000000000000000020
:100060000000000000000000000000000000000090
:100070000000000000000000000000000000000080
:10008000EB04180A063204260000000000000000FD
:10009000050404240000000000000000000000002F
:1000A0000000000000000000000000000000000050
:1000B0000604000000000000000000000000000036
:1000C0000000000000000000000000000000000030
:1000D00020041808000000000000000000000000DC
:1000E0000000000000000000000000000000000010
:1000F0000000000000000000000000000000000000
:10010000D8041808000000000000000000000000F3
:100110000204180804200000000000000000000095
:1001200000000000000000000000000000000000CF
:10013000600400000000000000000000000000005B
:1001400000000000000000000000000000000000AF
:10015000000000000000000000000000000000009F
:10016000000000000000000000000000000000008F
:10017000000000000000000000000000000000007F
:10018000000000000000000000000000000000006F
:10019000000000000000000000000000000000005F
:1001A000000000000000000000000000000000004F
:1001B000000000000000000000000000000000003F
:1001C000000100000010000001000000000000001D
:1001D000000001000000000000000000000000001E
:1001E000000000000000000000000000000000000F
:1001F00000000000000000000000000000000000FF
:10100000D10020410020006000000000301000608E
:1010100020100060001000600000000000000000D0
:10102000000000600000800000000000FFFFFFFFE4
:10103000D203E041CC035C04400FC068FFFFFFFF18
:10104000400FC06CFFFFFFFF400FC070FFFFFFFFAE
:10105000400FC074FFFFFFFF400FC078FFFFFFFF8E
:10106000400FC07CFFFFFFFF400FC080FFFFFFFF6E
:10107000400D803000002001400D81001018101B31
:10108000400FC014000A8340401F8014000000007D
:10109000401F801800000000401F801C000000005E
:1010A000401F802000000000401F8024000000003E
:1010B000401F802800000000401F802C000000001E
:1010C000401F803000000000401F803400000000FE
:1010D000401F803800000000401F803C00000000DE
:1010E000401F804000000000401F804400000000BE
:1010F000401F804800000000401F804C000000009E
:10110000401F805000000000401F8054000000007D
:10111000401F805800000000401F805C000000005D
:10112000401F806000000000401F8064000000003D
:10113000401F806800000000401F806C000000001D
:10114000401F807000000000401F807400000000FD
:10115000401F807800000000401F807C00000000DD
:10116000401F808000000000401F808400000010AD
:10117000401F808800000000401F808C000000009D
:10118000401F809000000000401F8094000000007D
:10119000401F809800000000401F809C000000005D
:1011A000401F80A000000000401F80A4000000003D
:1011B000401F80A800000000401F80AC000000001D
:1011C000401F80B000000000401F8188000000E147
:1011D000401F818C000000E1401F8190000000E171
:1011E000401F8194000000E1401F8198000000E151
:1011F000401F819C000000E1401F81A0000000E131
:10120000401F81A4000000E1401F81A8000000E110
:10121000401F81AC000000E1401F81B0000000E1F0
:10122000401F81B4000000E1401F81B8000000E1D0
:10123000401F81BC000000E1401F81C0000000E1B0
:10124000401F81C4000000E1401F81C8000000E190
:10125000401F81CC000000E1401F81D0000000E170
:10126000401F81D4000000E1401F81D8000000E150
:10127000401F81DC000000E1401F81E0000000E130
:10128000401F81E4000000E1401F81E8000000E110
:10129000401F81EC000000E1401F81F0000000E1F0
:1012A000401F81F4000000E1401F81F8000000E1D0
:1012B000401F81FC000000E1401F8200000000E1AF
:1012C000401F8204000000E1401F8208000000E18E
:1012D000401F820C000000E1401F8210000000E16E
:1012E000401F8214000000E1401F8218000000E14E
:1012F000401F821C000000E1401F8220000000E12E
:10130000401F8224000000E1402F00001000000474
:10131000402F000800000081402F000C00000081D9
:10132000402F00108000001B402F00148200001B83
:10133000402F00188400001B402F00040000798813
:10134000402F004000000F07402F00440065292275
:10135000402F004800010920402F004C50210A086E
:10136000402F008000000021402F008400888888E2
:10137000402F009400000002402F00980000000061
:10138000402F009080000000402F009CA55A000FC5
:10139000CF000C1C402F003C00000001CC001404C6
:1013A000402F009080000000402F009CA55A000CA8
:1013B000CF000C1C402F003C00000001CC001404A6
:1013C000402F009080000000402F009CA55A000C88
:1013D000CF000C1C402F003C00000001CC001C047E
:1013E000402F00A000000030402F0090800000003F
:1013F000402F009CA55A000ACF000C1C402F003C37
:1014000000000001CC000C04402F004C50210A09C0
:1020000000000120412400603D2F00604D2F006042
:102010007D3000608D3000609D3000600000000069
:10202000000000000000000000000000F524006037
:10203000E924006000000000F924006031400060E5
:102040000125006005250060092500600D25006060
:102050001125006015250060192500601D25006010
:102060002125006025250060292500602D250060C0
:102070003125006035250060392500603D25006070
:1020800041250060E9240060E9240060E924006043
:1020900031450060454500604D25006051250060D8
:1020A00055250060592500605D25006061250060B0
:1020B00065250060692500606D2500607125006060
:1020C00075250060792500607D2500608125006010
:1020D0008525006089250060E9240060E92400600E
:1020E000E9240060E9240060E9240060E92400603C
:1020F000E9240060E9240060E9240060E92400602C
:10210000E9240060E9240060E9240060E92400601B
:10211000E9240060E9240060E9240060E92400600B
:102120008D2500609125006095250060992500604F
:102130009D250060E9240060E9240060E924006036
:10214000E9240060E9240060E9240060E9240060DB
:10215000E9240060E9240060E9240060E9240060CB
:10216000E9240060E9240060E9240060E9240060BB
:10217000E9240060E9240060E9240060E9240060AB
:10218000E9240060E9240060E9240060E92400609B
:10219000E9240060E9240060E9240060E92400608B
:1021A000E9240060E9240060A1250060E9240060C2
:1021B000E9240060E9240060E9240060E92400606B
:1021C000E9240060E9240060E9240060E92400605B
:1021D000E9240060E9240060E9240060E92400604B
:1021E000E9240060E9240060E9240060E92400603B
:1021F000A5250060E9240060A9250060AD250060E8
:10220000E9240060E9240060B1250060B525006084
:10221000E9240060E9240060E9240060E92400600A
:10222000E9240060E9240060E9240060E9240060FA
:10223000E9240060E9240060E9240060E9240060EA
:10224000E9240060E9240060E9240060E9240060DA
:10225000E9240060E9240060E9240060E9240060CA
:10226000E9240060E9240060E9240060E9240060BA
:10227000E9240060E9240060E9240060E9240060AA
:10228000E9240060E9240060E9240060E92400609A
:10229000E9240060E9240060E9240060E92400608A
:1022A000E9240060E9240060E9240060E92400607A
:1022B000E9240060E9240060E9240060E92400606A
:1022C000E9240060E9240060E9240060E92400605A
:1022D000E9240060E9240060E9240060E92400604A
:1022E000E9240060E9240060E9240060E92400603A
:1022F000E9240060E9240060E9240060E92400602A
:10230000E9240060E9240060E9240060E924006019
:10231000E9240060E9240060E9240060E924006009
:10232000E9240060E9240060E9240060E9240060F9
:10233000E9240060E9240060E9240060E9240060E9
:10234000E9240060E9240060E9240060E9240060D9
:10235000E9240060E9240060E9240060E9240060C9
:10236000E9240060E9240060E9240060E9240060B9
:10237000E9240060E9240060E9240060E9240060A9
:10238000E9240060E9240060E9240060E924006099
:10239000E9240060E9240060E9240060E924006089
:1023A000E9240060E9240060E9240060E924006079
:1023B000E9240060E9240060E9240060E924006069
:1023C000E9240060E9240060E9240060E924006059
:1023D000E9240060E9240060E9240060E924006049
:1023E000E9240060E9240060E9240060E924006039
:1023F000E9240060E9240060E9240060FFFFFFFF9A
:1024000010B5054C237833B9044B13B10448AFF32E
:1024100000800123237010BD000000200000000098
:10242000E085006008B5034B1BB103490348AFF3D7
:10243000008008BD0000000004000020E08500606E
:1024400072B61B481B4901600A6882F308881A4863
:1024500080471A491A4A1B4B9B1A03DD043BC85894
:10246000D050FBDC9B1A03DD043BC858D050FBDC8A
:10247000154B00209A42BCBF42F8040BFAE700213A
:1024800003E0124B5B58435004311148114B421882
:102490009A42F6D31049114A00209142BCBF41F83C
:1024A000040BFAE762B60E4880470E48004700006A
:1024B00008ED00E0002000600D3F00602486006011
:1024C00000000020000000200000002024860060A2
:1024D000000000004815000000000020A02300209C
:1024E000956E0060B9270060FFF7FEBF32480047D5
:1024F00032480047324800473248004732480047D8
:1025000032480047324800473248004732480047C7
:1025100032480047324800473248004732480047B7
:1025200032480047324800473248004732480047A7
:102530003248004732480047324800473248004797
:102540003248004732480047324800473248004787
:102550003248004732480047324800473248004777
:102560003248004732480047324800473248004767
:102570003248004732480047324800473248004757
:102580003248004732480047324800473248004747
:102590003248004732480047324800473248004737
:1025A0003248004732480047324800473248004727
:1025B00032480047324800473D2F00604D2F0060F1
:1025C000F5240060F924006031400060E9240060D7
:1025D000E9240060E9240060E9240060E924006047
:1025E000E9240060E9240060E9240060E924006037
:1025F000E9240060E9240060E9240060E924006027
:10260000E9240060E9240060E9240060E924006016
:10261000E9240060E9240060E9240060E924006006
:10262000E9240060E9240060E9240060E9240060F6
:10263000E9240060E9240060E9240060E9240060E6
:10264000E9240060E9240060E9240060E9240060D6
:10265000E9240060E9240060E9240060E9240060C6
:10266000E9240060E9240060E9240060E9240060B6
:10267000890A0000E9240060E9240060E924006080
:10268000E9240060844641EA000313F003036DD19E
:10269000403A41D351F8043B40F8043B51F8043B25
:1026A00040F8043B51F8043B40F8043B51F8043B2C
:1026B00040F8043B51F8043B40F8043B51F8043B1C
:1026C00040F8043B51F8043B40F8043B51F8043B0C
:1026D00040F8043B51F8043B40F8043B51F8043BFC
:1026E00040F8043B51F8043B40F8043B51F8043BEC
:1026F00040F8043B51F8043B40F8043B51F8043BDC
:1027000040F8043B51F8043B40F8043B51F8043BCB
:1027100040F8043B403ABDD2303211D351F8043B6B
:1027200040F8043B51F8043B40F8043B51F8043BAB
:1027300040F8043B51F8043B40F8043B103AEDD21A
:102740000C3205D351F8043B40F8043B043AF9D26B
:10275000043208D0D2071CBF11F8013B00F8013B3E
:1027600001D30B8803806046704700BF082A13D34B
:102770008B078DD010F003038AD0C3F10403D21A63
:10278000DB071CBF11F8013B00F8013B80D331F897
:10279000023B20F8023B7BE7043AD9D3013A11F817
:1027A000013B00F8013BF9D20B7803704B78437082
:1027B0008B7883706046704700B583B0052400F0C5
:1027C00049F81D491D4B0820C1F8D0400022C1F82E
:1027D0004402596841F0200159608DF803209DF8AA
:1027E0000310032919D8104615491A4620240190D0
:1027F000019B8B4205D8019B01330193019B8B42C6
:10280000F9D9C2F88C409DF803300133DBB28DF862
:1028100003309DF80330032BE9D900F059F9094A38
:102820003421094800F06EF902F00CFF074A08490C
:10283000002000F0E5F9FEE700801F4000801B400B
:102840007FF0FA02B4790060D0790060D879006036
:10285000EC790060F0B5002283B0864B0192596993
:10286000854E89030DD5BFF34F8FBFF36F8F596925
:1028700021F400315961C3F85022BFF34F8FBFF3E9
:102880006F8F7C484369DA032AD50023C0F884306F
:10289000BFF34F8F436923F480334361BFF34F8FFE
:1028A000D0F8805043F6E07EC5F3C907C5F34E3536
:1028B0004FEA877C6D0105EA0E0461463A4644EA18
:1028C0000103013A01F14041C0F87432531CF6D1C2
:1028D000203D15F1200FEED1BFF34F8FBFF36F8F67
:1028E000BFF35F8F63491027644B14244A6A152095
:1028F000634D22F480324A625A68624922F0010232
:102900005A60DF60604A1D61604DD9601A6160499C
:10291000DD601A615F4AD9601A6102F17D425E4949
:102920000E3A5E4DDC6019615D4CD8605D491A61FC
:102930005D48DD601A611232DC601861D9601A618D
:10294000019B26FA03F3012B07D9019B0133019365
:10295000019B26FA03F3012BF7D8019BE3B1534BFC
:10296000B3FBF6F206FB1232002A70D10199012264
:102970008A40B24277D1019A042A6ED923F01F030C
:102980003E494B4A43F01903CB60019B013B5B007E
:1029900003F03E031A430A61384B05223548454C83
:1029A0004549DC6019615A60436A43F480334362ED
:1029B000BFF34F8FBFF36F8F436913F4803328D178
:1029C000C0F88430BFF34F8FD0F8805043F6E07CDE
:1029D000C5F3C906C5F34E35B707954005EA0C04A3
:1029E0003946324644EA0103013A01F14041C0F858
:1029F0006032531CF6D1203D15F1200FEED1BFF30C
:102A00004F8F436943F480334361BFF34F8FBFF36C
:102A10006F8F184A536913F4003311D1BFF34F8FEE
:102A2000BFF36F8FC2F85032BFF34F8FBFF36F8F7A
:102A3000536943F400335361BFF34F8FBFF36F8F7C
:102A400000F042FF03B0BDE8F04001F05BBA1B4B61
:102A500075211B4A1B4801F09DFA1B4B7721184A30
:102A6000184801F097FA194B7621154A154801F0DC
:102A700091FA00BF00ED00E00000000090ED00E0E2
:102A80003F000010110000803900100312000060A8
:102A9000130000602D0003063B0010031600002009
:102AA00017002020180000802100030300002020D0
:102AB000010008031A0000402B001003FC7900609D
:102AC000F0790060147A00603C7A0060207A00603F
:102AD000084B4FF400421A60BFF35F8F1A6812046C
:102AE000FCD44BF2CF7140F24172596019680A432D
:102AF0001A60704700001F40014B586A704700BFC2
:102B000000001F40F0B52E4C83B01746013800235B
:102B10002646217001E0102B4FD010F8015F1946B6
:102B2000013304F8015F0578002DF4D1314400230E
:102B30004FF4E1300DF1FF344B7000F0ADFC214853
:102B40000DF1070600F006FD1F4800F003FD1F48C9
:102B500000F000FD39461E4800F0FCFC1D4B1E48ED
:102B60001D68C5F30362290F00F0F4FCC5F30722CA
:102B7000EBB2C5F30741194800F0ECFC184B1948BB
:102B8000196800F0E7FC184A184B126818480092C0
:102B90001B68184D019300F0DDFC14F8011F284656
:102BA00000F0D8FCA642F8D1134800F0D3FC13483B
:102BB00003B0BDE8F04000F0CDBC0F21B6E700BF88
:102BC0001C000020747B0060BC7B0060F07B006018
:102BD000347C0060487A00603C7C00604C7C006083
:102BE000447A0060607C006010441F4020441F4015
:102BF000707C00607C7C0060C07A0060807C00603B
:102C00000CB410F480532DE9F0478CB007460E4603
:102C1000149D00F0BC8015AB2878019330B32E468C
:102C20000023DFF814835C1C252805EB040913D16D
:102C30002A5DDAB1623A162A00F29580DFE802F0E6
:102C40007A7361933F939393939393939393939313
:102C5000933693939393230000F048FC33780A2B28
:102C60000CD04E46307823460028DCD117F4404F74
:102C70007CD10CB0BDE8F04702B070470D204E4645
:102C800000F034FCEEE7EA1801999278081D096813
:102C9000622A019000F00681682A00F03581772AC7
:102CA00000F03F814FF40060009154E0019B1A1D39
:102CB0001868019200F028FC01342E19D2E7019B1C
:102CC0000020073323F00703D3E9009A083308EA0A
:102CD000CA02B9F1000F01930AF0804142EA597229
:102CE0007AF10003B8BF42F0004250EA01030092BB
:102CF00000F0BD80009B4FF4807043F08043009350
:102D000029E0EA1801999278081D0968622A019061
:102D100000F0C480682A00F0FC80772A00F0068169
:102D20002020009117E0019B1A1D1878019200F0F5
:102D3000DDFBC1E7EA1801999278081D0968622A4B
:102D4000019000F0A780682A00F0DA80772A00F06E
:102D5000E4800420009102AA694600F0DDF902A88F
:102D600000F0D2FBA8E700230093A5E71B2000F0AA
:102D7000BDFB5B2000F0BAFB302000F0B7FB6D20FC
:102D800000F0B4FB0CB0BDE8F04702B070478DF81E
:102D90000830FFF7B1FE01A902AA0190202000F03F
:102DA000BBF91B2000F0A2FB5B2000F09FFB33204F
:102DB00000F09CFB322000F099FB6D2000F096FBA8
:102DC0005B2000F093FB9DF8080030B102AC00F0EE
:102DD0008DFB14F8010F0028F9D1564C5D2000F04E
:102DE00085FB6378002B62D11B2000F07FFB5B200A
:102DF00000F07CFB332000F079FB352000F076FBFF
:102E00006D2000F073FB7E2000F070FB307828B15D
:102E100000F06CFB16F8010F0028F9D13A2000F001
:102E200065FB202000F062FB1B2000F05FFB5B20B5
:102E300000F05CFB302000F059FB6D2000F056FBE9
:102E400039044DD4BA0415D47B047FF5E4AE1B20BD
:102E500000F04CFB5B2000F049FB332000F046FB08
:102E6000332000F043FB6D2000F040FBD3E64FF42D
:102E7000807070E71B2000F039FB5B2000F036FB10
:102E8000332000F033FB362000F030FB6D2000F0E3
:102E90002DFBC0E69C1C009101205CE79C1C00916E
:102EA000082058E79C1C00914FF4007053E71B204A
:102EB00004F1110800F01AFB5B2000F017FB33202F
:102EC00000F014FB14F8010B00F010FB6D2000F073
:102ED0000DFB14F8010B00F009FBA045F9D183E7C5
:102EE0001B2000F003FB5B2000F000FB332000F010
:102EF000FDFA312000F0FAFA6D2000F0F7FA8AE6C8
:102F00009C1C0091022026E79C1C00914FF48060DD
:102F100021E79C1C009110201DE79C1C00910420BF
:102F200019E79C1C00914FF4006014E79C1C009171
:102F3000202010E71C000020F8FFFF3F08B50248E2
:102F400000F008FBFEE700BF407B00601EF0040FAE
:102F50000CBFEFF30880EFF309808169004A104746
:102F6000692F0060704700BF03462F4830B51A68CC
:102F700089B0596800929A6801910292D9681A69D9
:102F800003912A4C0492596904F11005D3E90623F0
:102F900005910692079300F0DDFA03E000F0A6FA2F
:102FA000AC4204D014F8013F1846002BF6D120485B
:102FB00000F0D0FA00991F4800F0CCFA01991E48A1
:102FC00000F0C8FA02991D4800F0C4FA03991C48A1
:102FD00000F0C0FA04991B4800F0BCFA05991A48A1
:102FE00000F0B8FA0699194800F0B4FA07991848A1
:102FF00000F0B0FA174B1848196800F0ABFA174BFD
:103000001748196800F0A6FA164B1748196800F01F
:10301000A1FA164B1648196800F09CFA154B164891
:10302000196800F097FAFEE7687A00601C0000203B
:10303000707A0060887A0060947A0060A07A0060FC
:10304000AC7A0060B87A0060C47A0060D07A006020
:10305000DC7A006038ED00E0E87A006028ED00E0FE
:10306000F47A00602CED00E0007B006030ED00E0C1
:103070000C7B00603CED00E0187B006008B5024866
:1030800000F068FAFEE700BF247B006008B5024844
:1030900000F060FAFEE700BF4C7A006008B5024815
:1030A00000F058FAFEE700BF587B006070B40024BF
:1030B00000F10A0616F8013DE5B2302B21D00E884A
:1030C0006C1C9355E4B20B880A2C03F101039BB2EC
:1030D0000B8012D0C5F10805061BC4F10904EDB23E
:1030E0000444751B083514F80109D054A5420B8817
:1030F00003F101039BB20B80F5D1002170BCD154C8
:103100007047092C04F10104D4D1088813540B88AA
:1031100001339BB20B80F0E72DE9F04F002387B01D
:10312000102817461370ADF80A3000F0628126D9D6
:10313000B0F5007F59D040F28D80B0F5806F6FD030
:10314000B0F5006F18D1104602F108040B681B0F90
:103150000130DAB2092B02F1300302F1370294BFD9
:1031600000F8013C00F8012C84420B684FEA03137D
:103170000B60ECD100233B7207B0BDE8F08F022852
:1031800000F01C811BD9042840F0308102F120009E
:103190000B6830243125002B02F10102B4BF02F884
:1031A000015C02F8014C90420B684FEA43030B604C
:1031B000F1D1002387F8203007B0BDE8F08F012857
:1031C000DAD102F108000B68302531241E0602F125
:1031D00001024CBF02F8014C02F8015C90420B68FE
:1031E0004FEA43030B60F1D1C4E70B68C3F3031349
:1031F000092B8CBF3733303313700B681A0103F07F
:103200000F03092B0A604FF0000294BF30333733AD
:103210007B700B681B010B60BA7007B0BDE8F08FC4
:10322000141D0B68C3F303330132092B03F1300083
:1032300003F1370394BF02F8010C02F8013CA242EB
:103240000B684FEA03130B60ECD100233B7107B00E
:10325000BDE8F08F202800F0CC80B0F5807F8BD1C6
:10326000D1ED006AF5EEC06AF1EE10FA06D5F1EE86
:10327000666A2D2201233A70ADF80A30F7EE007A23
:10328000F4EEE76AF1EE10FA00F1DB8040F3F38030
:103290000024B2EE046A00E01C4667EE867A631CE6
:1032A0009BB2F4EEE76AF1EE10FAF5DC87EE867A6F
:1032B0004FF0200B0DF116080DF10C0972484FF07C
:1032C000300C4346714EC6EE877A9FED717AFCEE64
:1032D000E76A16EE901AF8EE666A77EEE67A67EE1F
:1032E000877AFCEEE77A17EE905A884203F801CD10
:1032F00006D83022091A01328142D2B2FAD21A70AB
:10330000A6FB002099454FEAD000EED10DF10A0A44
:103310003A464846019351464646FFF7C7FE5A498A
:103320004FF0300EDFF864C1019BA94206F801EDB1
:1033300008D8312000E010466D1A421C8D42D2B2EE
:10334000F9D23070ACFB01219E424FEAD101ECD1A1
:103350002E233A46514648468DF80F30FFF7A6FE19
:10336000BDF80A206521BBF12D0F02F10103B9540C
:103370009BB2ADF80A3004D1023207F803B0ADF8C1
:103380000A20414A30204149A24208F8010D07D8DD
:103390003023A41A01339442DBB2FAD288F8003009
:1033A000A1FB023246454FEAD202EDD13A465146E0
:1033B0004846FFF77BFE07B0BDE8F08F02F1100032
:1033C0000B68302531241B0402F101024CBF02F8C6
:1033D000014C02F8015C90420B684FEA43030B601A
:1033E000F1D100233B7407B0BDE8F08F08287FF4CB
:1033F000C3AE0A68002A07DA2D2201233A700A6850
:10340000ADF80A3052420A600DF10C090DF11604B4
:103410001D4930261D4D914204F8016D08D8312018
:1034200000E01846521A431C8A42DBB2F9D22070DF
:10343000A5FB0131A1454FEAD101ECD10DF10A0AFA
:10344000B4E79FED147A0124F4EEC76AF1EE10FAA6
:103450000ED59FED0B5BB7EEC77A0134A4B227EE11
:10346000057BB7EEC77BF4EEC76AF1EE10FAF2D433
:103470004FF02D0B1EE74FF6FF749FED067A17E70E
:103480009A9999999999B93F00CA9A3BCDCCCCCCDD
:1034900000007A44CDCCCC3D104A114B114930B4D8
:1034A000B2FBF0F00224082540F070600E4AC1F82B
:1034B000D440C1F84852C1F8D840C1F84C52002558
:1034C0009C604FF44024996821F002019960DD600E
:1034D0009D6218615A619C6130BC7047404B4C0042
:1034E0000040184000801F4000001F4049F6404344
:1034F000044901E0013B04D04A691202FAD5C861CF
:10350000704770470040184070B411490D26441EA2
:1035100000F2FF3514F8010F68B149F6404301E0AD
:10352000013B04D04A691202FAD5C86120780A2802
:1035300003D0AC42EED170BC704749F6404301E085
:10354000013BF6D04A691202FAD5CE61F1E700BF1D
:10355000004018400FB42DE9F0498DB014AB53F87A
:10356000046B3178019361B300243046744D4FF001
:103570000D082346734F252928D133445A78CAB100
:10358000623A162A00F29C80DFE802F08C7D689A8D
:10359000479A9A9A9A9A9A9A9A9A9A9A9A0C9A9A6C
:1035A0009A9A3700019B1A1D18680192FFF7ACFF29
:1035B0000134A4B20134A4B2315D2346301900298C
:1035C000D9D10DB0BDE8F04904B0704749F6404389
:1035D00001E0013B03D06A691202FAD5E961037880
:1035E0000A2BE7D149F6404301E0013BE2D06A698A
:1035F0001202FAD5C5F81C80DCE79A78019B622A92
:1036000053F8041B68D0682A73D0772A00F09080A2
:1036100001934FF4006000912DE0019B00200733DF
:1036200023F00703D3E900BC083307EACC02BBF15F
:10363000000F01930CF0804142EA5B727CF10003C1
:10364000B8BF42F0004250EA010300923BD0009B19
:103650004FF4807043F0804300930CE09A78019B14
:10366000622A53F8041B31D0682A4FD0772A53D0EE
:10367000202001930091694602AAFFF74DFD02A8A0
:10368000FFF742FF94E7019A49F64043101D116885
:10369000019001E0013B8BD06A691002FAD5C9B2F2
:1036A000E96185E79A78019B622A53F8041B1AD0D6
:1036B000682A25D0772A35D0019304200091DAE7D3
:1036C0000023009374E74FF48070D4E7013408209E
:1036D000CDE90013A4B2CEE701344FF40070CDE978
:1036E0000013A4B2C7E701340120CDE90013A4B24E
:1036F000C1E701344FF48060CDE90013A4B2BAE70A
:1037000001340220CDE90013A4B2B4E70134102043
:10371000CDE90013A4B2AEE701342020CDE90013B7
:10372000A4B2A8E701340420CDE90013A4B2A2E7B3
:1037300001344FF40060CDE90013A4B29BE700BF51
:1037400000401840F8FFFF3F08B5B8B90E4B4FF0E6
:1037500080421946C3F85821D1F87032DA03FBD5FC
:103760004FF48033084AC1F85431D2F850311B0469
:10377000FBD54FF48033C2F8583108BD034BBF214D
:10378000034A044800F006FC00800D40C47C006041
:10379000EC7C0060D47C0060044B102210B1C3F8B4
:1037A00078227047C3F87422704700BF00800D4034
:1037B000034AD2F8703243F00103C2F87032704706
:1037C00000800D40024B4FF480521A67704700BFD3
:1037D00000800D4030B4184C0379D4F8E0209B03EE
:1037E000C17822F4E03205789BB201F0030142F483
:1037F00080321343C4F8E0300DB141F400518378B6
:103800000BB141F4001143780BB141F480010A4837
:103810000A4BD0F8E040024623401943C0F8E010BC
:10382000D2F8E030002BFBDAD2F8E03023F480331A
:1038300030BCC2F8E030704700800D40FCEFFFFF65
:1038400030B40B4AC500BF2301F03F01802003FACA
:1038500005F4D2F80031A940A84023EA0403194333
:10386000184330BCC2F80001C2F80011704700BF15
:1038700000800D400E4A30B452E8003F43F00C0384
:1038800042E800310029F7D102220A4B05200A49FB
:103890000A4D47F2A004186041F2B0030A600848DC
:1038A0002A60084A0460C1F87431136030BC704764
:1038B00078C00F40D0801F40D4801F40D8801F4068
:1038C00044821F404C821F40FFF7D4BFB44B4FF4DB
:1038D0000041B44A002070B51160D3F8C022B2494B
:1038E00042F48032B14CC3F8C022D3F8C02222F493
:1038F0000032C3F8C0220C60FFF726FFFFF758FF25
:103900000120FFF749FFAA49AA4C0B680A46AA48BA
:1039100023F0FF0343F07F030B60236823F440533D
:1039200043F480532360036843F000730360936C97
:103930009C06FCD4A149CB680A4623F01F0343F040
:103940001203CB601368002BFCDA9B49984A0B6882
:1039500023F4E0530B60936C9807FCD4984A52E828
:10396000003F23F4403342E800310029F7D1944A64
:1039700052E8003F23F4407342E800310029F7D1B8
:10398000904A52E8003F23F4400342E80031002906
:10399000F7D18C4A52E8003F23F0407342E80031EF
:1039A0000029F7D1844888490368814A43F4407369
:1039B00003600B6823F007030B60936CD903FCD4FE
:1039C0007D497F4A0B6823F060530B6052E8003F4B
:1039D00043F4401342E800310029F7D1784A52E815
:1039E000003F43F4400342E800310029F7D1774A11
:1039F00052E8003F43F0407342E800310029F7D11C
:103A0000724A52E8003F43F0406342E80031002927
:103A1000F7D16B4A52E8003F23F4405342E80031AB
:103A20000029F7D16A496B4A0B6823F03F0343F042
:103A300001030B6052E8003F23F00C0342E8003121
:103A40000029F7D1644862490368624A23F460534D
:103A500043F4805303600B6823F480330B6052E817
:103A6000003F23F0300342E800310029F7D15A48E3
:103A700057490368524A23F4E02343F400330360B8
:103A80000B6823F400330B6052E8003F43F003035C
:103A900042E800310029F7D1494A52E8003F23F0BB
:103AA0000C0342E800310029F7D1454A52E8003FB3
:103AB00023F0300342E800310029F7D1404A52E8B0
:103AC000003F23F0C00342E800310029F7D1394913
:103AD0003E4A0B6823F0E05343F080530B600B68C1
:103AE00023F0300343F020030B6052E8003F23F43F
:103AF000400342E800310029F7D137482D490368D7
:103B0000364A43F0C06303600B6823F440430B6004
:103B100052E8003F23F4402342E800310029F7D166
:103B20002F492B480B682D4A23F4E07343F0C00360
:103B30000B600B6823F03F0343F001030B60036845
:103B400023F44063036052E8003F23F4401342E84B
:103B500000310029F7D123491D480B681F4A23F47F
:103B6000E07343F0C0030B600B6823F03F0343F0A6
:103B700001030B60036823F44053036052E8003FE5
:103B800023F4400342E800310029F7D114491048DA
:103B90000B680C4A23F0E07343F440030B6023E00E
:103BA00000800D40300000203400002000366E01FF
:103BB00000C00F4018C00F4014C00F400000084064
:103BC0006CC00F4070C00F4010C00F4068C00F4065
:103BD0001CC00F4080C00F4024C00F407CC00F406D
:103BE00028C00F402CC00F400B6823F47C1343F413
:103BF00080330B60036823F44043036052E8003FC6
:103C000023F0C00342E800310029F7D1A64A52E868
:103C1000003F23F4407342E800310029F7D1A24A63
:103C200052E8003F23F4406342E800310029F7D115
:103C30009E4B9F4A196821F0FC711960196821F4A4
:103C40008021196052E8003F23F4404342E80031EC
:103C50000029F7D1964A52E8003F23F4402342E876
:103C600000310029F7D1924A52E8003F23F4403353
:103C700042E800310029F7D18D4A52E8003F23F491
:103C8000401342E800310029F7D18A498A4A0B687B
:103C900023F0FC0343F004030B600B6823F4407330
:103CA00043F400730B6052E8003F43F0407342E876
:103CB00000310029F7D17E4A52E8003F23F04053FB
:103CC00042E800310029F7D1794A52E8003F23F455
:103CD000405342E800310029F7D1784A52E8003FCA
:103CE00023F0407342E800310029F7D1744A52E8CA
:103CF000003F23F00C0342E800310029F7D1704A5D
:103D000052E8003F23F0C00342E800310029F7D118
:103D1000694A52E8003F23F0406342E8003100293D
:103D2000F7D1684A52E8003F23F4404342E80031AB
:103D30000029F7D1644B604A196821F03F011960EE
:103D4000196821F04001196052E8003F23F4404314
:103D500042E800310029F7D15C4B574A196821F03D
:103D6000606141F000711960196841F0E0711960FB
:103D7000196841F44011196052E8003F23F00C0328
:103D800042E800310029F7D1514A4A4813685149A5
:103D900023F4606343F400731360136843F06063BB
:103DA0001360036843F4C01303600B6823F001033E
:103DB0000B60FFF707FD484B4FF48031474A4848F6
:103DC0001160D3F8702122F40042C3F87021D3F8B7
:103DD000702122F40002C3F870211A6F42F40052DD
:103DE0001A67FFF7F7FC3F483F4902683F4B42F430
:103DF000402202600A6822F000720A609A6C920601
:103E0000FCD438483A4E01683A4A21F440513A4DC0
:103E10003A4C016031683A4821F040013160196E36
:103E200021F070011966196E21F00F0141F00101B6
:103E30001966196E21F460011966196E21F4F811E2
:103E400041F440311966196E21F480711966196EBA
:103E500021F080011966196E21F08071196653688E
:103E600023F007035360536823F03803536053680B
:103E700023F0C0035360536823F4407353605368C6
:103E800023F44063536093681D409560536823F4A6
:103E900000335360536923F080535361536923F017
:103EA00000535361046070BD70C00F4038C00F40B4
:103EB00068C00F4020C00F407CC00F406CC00F4056
:103EC00074C00F4080C00F4024C00F4030C00F406E
:103ED00028C00F400CC00F4000800D4074800D4082
:103EE000047D006018C00F4014C00F4000C00F4098
:103EF0001CC00F4000C00A40FFFF00FB0065CD1D45
:103F0000C80A0000FFF7E2BC704700BF10B51D4CA7
:103F10001D48D4F888301D4943F470031C4AC4F886
:103F20008830038923F001031B041B0C03810B89D8
:103F300023F001031B041B0C0B811368D90703D565
:103F4000136823F0010313600E4B5A69920315D4D2
:103F50005A6912F4003211D1BFF34F8FBFF36F8F44
:103F6000C3F85022BFF34F8FBFF36F8F5A6942F4EB
:103F700000325A61BFF34F8FBFF36F8FFFF7C4FF5B
:103F800010BD00BF00ED00E000800B4000000D40C0
:103F900010E000E000BEFDE70C4A08B5136833B13D
:103FA00018440B49884209D81060184608BD0949D1
:103FB0000B461160064918448842F5D902F064FFA7
:103FC0000C224FF0FF330260184608BD3800002075
:103FD000A0270020A023002008B500F025F900202C
:103FE00008BD00BF38B50446064804F1204104F07E
:103FF00007FB05464FF48051204600F093F8284611
:1040000038BD00BF00802A4038B504460B4672B662
:10401000064804F1204104F0EFFA054662B64FF479
:104020008051204600F07EF8284638BD00802A40A6
:10403000054B1B781BB1054A136801331360044A12
:104040001368013313607047CC0A0000440000205D
:10405000480000200B4AF0B413788BB90A4C4FF09B
:10406000FF300A49F0262360072408600120084930
:10407000084F094D4F6085F823608B600C6010700D
:10408000F0BC70473C0000204400002040000020AD
:1040900010E000E01FA1070000ED00E0014B1868F0
:1040A000704700BF44000020064A1368834206D2CE
:1040B000054B1B68126813440133181A70471368C4
:1040C000181A704744000020400000200A4A30B40B
:1040D00011680A4D04E013685B1A98420AD300BFC6
:1040E00013689942F7D92B681468234401335B1A8B
:1040F0009842F4D230BC70474400002040000020B9
:10410000034B00220349186808601A60704700BF1B
:104110004400002040000020014B1868704700BF99
:104120004800002000290FDD00F01F031944BFF3F1
:104130004F8F064B2039C3F85C0220300029F9DC90
:10414000BFF34F8FBFF36F8F704700BF00ED00E0EC
:10415000094BFF201B6803F5806302E010F1FF307C
:1041600007D353F8042D0132F8D00130034B186007
:1041700070470020704700BF54000020F00A000084
:10418000124B10B50446186800281BDD431E14D4DA
:104190000F4A116851F82320B4EB124F10D06FF082
:1041A0004042024401EB820104E051F8042DB4EBDB
:1041B000124F05D013F1FF33F7D24FF6FF7010BD49
:1041C00090B210BDFFF7C4FFE0E700BFF00A0000A7
:1041D00054000020074B084A1B681268934206D01F
:1041E000064A1268934202D04FF6FF707047FFF7FD
:1041F000C7BF00BF54000020F40A0000F80A000006
:1042000038B5044672B6074804F1204104F0F8F9C5
:10421000054662B64FF480712046FFF783FF2846BB
:1042200038BD00BF00802A4070B5174C237803B119
:1042300070BD72B6154804F0EBF9144804F0E4F9C7
:1042400062B6134E134D306803685A1C15D02A68A5
:104250001268013207D1002B13DB03460E4A1360AC
:104260000123237070BDFFF7CBFF2868FFF7C8FF5D
:1042700033681A68002AF1DA18462B681A68002A8F
:10428000ECDA054B1860EBE75800002000802A406C
:10429000F40A0000F80A00005400002010B5044C95
:1042A000237803B110BDFFF7BFFF0123237010BDBA
:1042B00059000020FFF78EBF0138072816D8DFE825
:1042C00000F02E04161A1E22262A4FF40012152181
:1042D000154BC3F88020BFF34F8FBFF36F8F1020B3
:1042E0001944C3F8802181F800031A6070474FF425
:1042F00080021621ECE74FF400021721E8E74FF0A7
:1043000080721821E4E74FF000721921E0E74FF0C6
:1043100080621A21DCE74FF000621B21D8E74FF4DE
:1043200080121421D4E700BF00E100E0F0B5394D60
:104330008BB0461E07468C4601ACF6B20FCD0FC4BB
:104340000FCD072E2D680FC4256043D8324B53F88C
:10435000261000293ED00AAB03EB870353F8243C18
:1043600018B203F01F03000A06284CD82B4A032476
:1043700002449C40920052E8003F234342E8003050
:104380000028F8D1022F27D031D3082F2FD8244B63
:1043900002200022234C88608868B3FBFCFC20F0DC
:1043A00002004CF070638860CA604C618A620B61E5
:1043B0008A618B6943F400138B61CB698B6943F489
:1043C00040238B61BFF35F8F38460BB0BDE8F040F0
:1043D000FFF772BF0BB0F0BD134B0822C3F81C717E
:1043E000C3F89022C3F82071C3F89422CFE70E4B94
:1043F00002200822C3F8D400C3F84822C3F8D8002A
:10440000C3F84C22C3E7094B4FF4A361084A09489B
:10441000FFF7C0FDB07E0060D47E00601AF003108C
:10442000404B4C0000001F4000801F40087F006090
:10443000F47E0060187F00600138C0B2072807D8FA
:10444000044B53F820301BB19A6922F440229A6140
:10445000704700BFD47E00600138C0B2072807D87B
:10446000044B53F820301BB19A6942F480029A61E0
:10447000704700BFD47E00600138C0B2072807D85B
:10448000044B53F820301BB19A6922F480029A61E0
:10449000704700BFD47E00600138C0B2072804D83E
:1044A000024B53F8203003B1D9617047D47E0060CD
:1044B0000138C0B2072806D8044B53F8200018B1C1
:1044C000C069C0B270470020704700BFD47E006052
:1044D0000138C0B2072807D8044B53F8200020B198
:1044E0004069C0F34050704700207047D47E0060A0
:1044F0000138C0B2072807D8044B53F8200020B178
:104500004069C0F38050704700207047D47E00603F
:104510000138C0B2072807D8044B53F8200020B157
:104520008069C0F38050704700207047D47E0060DF
:1045300008B5012000F0E4F90120BDE8084000F0D2
:10454000BFB900BF08B5022000F0DAF90220BDE8CB
:10455000084000F0B5B900BFF0B5554F85B03B78C5
:10456000002B46D000260196019A022A41D8514CD0
:1045700006E0019B01330193019B022B39D83B7864
:10458000019A1341DA07F4D5019B03EB830354F836
:10459000230000F021FA0390039B142B7FD91423EE
:1045A0000393039B5A1E0392002BE2D0019B03EB63
:1045B000830354F8230000F0F9F905460296019BA5
:1045C000029A03EB830304EB83039B685B889342AB
:1045D000E7D9019B2846029A03EB830304EB83038C
:1045E0009B685B6853F822309847029B0133029323
:1045F000E5E7314D2B78002B4FD000260196019B2B
:10460000022B4AD82B4F01240396039B032B2BD854
:10461000019B039A03EB830307EB83031B7B13418B
:10462000DB071BD5019B03EB830307EB83031B69AC
:1046300043B1019B039803EB8303C0B207EB8303F1
:104640001B6998470399019B04FA01F103EB83036B
:1046500007EB83031A7B22EA01021A73039B0133DF
:104660000393039B032BD3D9EFF3108272B6019B04
:1046700003EB830307EB83031B7B33B901992B788F
:1046800004FA01F123EA01032B7002B962B6019B1F
:1046900001330193019B022BB6D905B0F0BD0199FE
:1046A00001223B788A4023EA02033B7079E700BF8E
:1046B000C4020020000500205A00002038B504463E
:1046C000FFF726FFD0B90E4D04EB840305EB8305FD
:1046D0000AE0686800F080F980B1686800F066F967
:1046E00001462046FFF7D8FE2046FFF701FF0028CD
:1046F000EFD12046BDE83840FFF7AEBE38BD00BF61
:104700000005002070B52C4E05463478002C4AD0A8
:1047100001210024294A2A4B8D42317014701C70EB
:1047200021D0022D1ED1274E28464FF4E131264DCF
:10473000FFF7FCFD30464FF48072244900F04EF93B
:1047400028464FF48072224900F048F9214B224A52
:10475000042022499C6383F834401A63C3E90A6544
:10476000C2E9000170BD1E4E28464FF4E1311D4DD7
:10477000FFF7DCFD30464FF480721B4900F02EF944
:1047800028464FF48072194900F028F9114B184A55
:10479000042018495C6283F82040DA61C3E90565AA
:1047A000C2E9000170BD00F01BFB01232146124845
:1047B0001A4600F0F9FAABE75B000020C4020020C3
:1047C0005A000020A8000020E4020020C4010020BC
:1047D0000004002000050020640000207C00002070
:1047E0008C000020C8020020C4000020000300202C
:1047F0005C0000206C00002059450060022810B5C4
:10480000044600D910BD00EB8002054B03EB820388
:10481000586800F099F82046BDE81040FFF74EBFF9
:10482000000500200EB410B5044683B00A4805AB5D
:1048300004EB840253F8041B00EB82001A46406824
:10484000019300F0C3F92046FFF738FF03B0BDE83D
:10485000104003B0704700BF00050020022810B5CB
:10486000044600D910BD00EB8000054B03EB80032C
:10487000586800F0ABF92046BDE81040FFF71EBFB6
:1048800000050020022830B411D80C4B00EB80004A
:1048900003EB800083685A88188890420AD0551C20
:1048A0005C6800205D8044F8221030BC70474FF0F7
:1048B000FF30FAE76FF00100F7E700BF00050020C6
:1048C00038B50E4D00EB8003044605EB83050AE086
:1048D000686800F081F860B1686800F067F8014628
:1048E0002046FFF7D9FD2046FFF702FE0028EFD152
:1048F00038BD2046BDE83840FFF7BEBD00050020AA
:104900002DE9F04101270E4B00EB8008044687405B
:104910000C4D03EB88087FB20BE0D8F8006020460E
:10492000FFF7C6FD0146304600F00EF82B783B43FA
:104930002B702046FFF7CCFD0028EED1BDE8F081BA
:1049400000050020C402002070B50446EFF3108675
:1049500072B68368026901339342836001D9C368E8
:1049600083601970D4E901239A4223880FD000256F
:104970000133626923800AB12046904706B962B6C6
:1049800025B1A36913B1BDE87040184770BD53B19C
:10499000013221698A42626001D9E2686260013BAA
:1049A00001259BB2E4E71D46E2E700BF30B40346B1
:1049B000EFF3108472B642680188107841B1013279
:1049C0001D69AA425A6001D9DA685A600139198012
:1049D00004B962B630BC704700887047013A0023C2
:1049E00010B40A444C1E03804361C0E90114C0E9BD
:1049F00003125DF8044B7047F0B583B00546002400
:104A00000E4F684600E03446A7FB0132661CD20810
:104A100002EB8203A1EB430391B2303300F8013B78
:104A20000029F0D16C440DF1FF3614F80119284625
:104A3000FFF78AFFB442F8D103B0F0BDCDCCCCCCA7
:104A4000002938B505468CB205DB21462846BDE86D
:104A50003840FFF7D1BF64422D21FFF775FF28468C
:104A6000A4B22146BDE83840FFF7C6BFF0B585B017
:104A7000054600240E4F01A800E03446A7FB013292
:104A8000661CD20802EB8203A1EB430311463033CC
:104A900000F8013B002AF0D101AB1C445E1E14F863
:104AA00001192846FFF750FFB442F8D105B0F0BD18
:104AB000CDCCCCCC38B50C1E054605DB21462846AE
:104AC000BDE83840FFF7D2BF64422D21FFF73CFF1D
:104AD00028462146BDE83840FFF7C8BF70B5082A10
:104AE00084B014460546019128BF082402B3002370
:104AF00004AA02EB530010F80C2C02F00F02092A52
:104B000002F1300688BF02F1370604AAD118023339
:104B100001F8086CDBB210F80C2C1209092A02F11A
:104B2000300088BF02F13700A34201F8070CDFD341
:104B3000013C02AB0DF1070653FA84F414F8011995
:104B40002846FFF701FFA642F8D104B070BD00BFB0
:104B5000FDEEC07A38B517EE904A05462DED028B72
:104B600021B2B0EE408AFFF76BFF9FED160A164B9D
:104B7000284628EE008A2E21BDEEC88A18EE102A9B
:104B800003FB0424FFF7E0FE632C07DDA1B22846F7
:104B9000BDEC028BBDE83840FFF72EBF3021284620
:104BA000FFF7D2FE092CF1DC30212846FFF7CCFEBE
:104BB000002CEBD128463021BDEC028BBDE83840FB
:104BC000FFF7C2BE00007A4418FCFFFF2DE9F04158
:104BD0000B780D4606461746EBB1252B4FF0000823
:104BE0002DD06C1C5C2B19463046254602D123780B
:104BF000252B05D0FFF7A8FE237863B1252B1ED007
:104C000001345C2B194630462546F0D0FFF79CFE58
:104C10002378002BF2D1BDE8F081672B1BD9732BD1
:104C200035D04BD9752B1FD139883046FFF7E4FEBC
:104C3000AB7804370235002BEDD0252BD1D16B7822
:104C4000302BEAD1EB7815F8028F672BA8F13008EA
:104C50005FFA88F8E3D8652B51D2632B45D023D86F
:104C6000002BD8D02B78BCE7782BFBD1B8F1040F00
:104C700057F8041B02D8B8F1000F50D04246304616
:104C8000FFF72CFFAB780235002BD6D1C3E73C6889
:104C9000043721780029F5D03046FFF755FE14F887
:104CA000011F0029F8D1EDE739683046FFF702FF10
:104CB000AB7804370235002BBFD1ACE7692BF3D0BA
:104CC0006C2BCFD1AB7857F8041B643B142B3BD82B
:104CD000DFE803F0353A3A3A3A353A3A3A3A3A3A6C
:104CE0003A3A3A3A3A303A3A2A0039783046FFF7B7
:104CF0002BFEAB7804370235002B9ED18BE70737AC
:104D00003046023527F0070797ED000B0837B7EE5E
:104D1000C00BFFF71DFF2B78002B8ED17BE7042201
:104D20003046FFF7DBFEADE708223046FFF7D6FE40
:104D30000135A7E730460135FFF798FEA2E7304678
:104D40000135FFF7B7FE9DE73046FFF7B3FE99E761
:104D500080688B6898422CBF00200120704700BFFC
:104D60000B68181AB0FA80F04009704738B5FFF7A1
:104D700095F904460B4800F037F9034668B1094D30
:104D80009A6819462846A242A2EB040288BF9A609C
:104D900000F034F903460028F2D1BDE83840FFF7AF
:104DA000AFB900BF440500202DE9F04180460B4813
:104DB0000E4615461F4600F0FBF8044650B1C0F8F9
:104DC0000080FFF76BF905440020E760C4E9016546
:104DD000BDE8F0814FF0FF30FAE700BF4405002046
:104DE000124B30B51C7883B00CB103B030BD01223A
:104DF0000F4D1A70FFF72EF90E4814230E4A10219A
:104E000000900E4800F0ACF80D490C4800F0CCF8CA
:104E10000C490A4800F0CAF80B4B21460B481A46C9
:104E20002C6003B0BDE83040FFF7BEBF4005002056
:104E30003C050020B806002078050020440500202D
:104E4000514D0060614D0060FF6780CC6D4D00608A
:104E50000346006A10B410B102688A421BD05A6A35
:104E600012B114688C4210D018699A8A091A5889AC
:104E700091FBF2F18AB2904211D9D86802EB42015B
:104E800000EB81005DF8044B7047586210461A62CF
:104E90005DF8044B704758625DF8044B7047002082
:104EA000F0E700BFF0B5EFF3108E72B62B4E4589D8
:104EB000318801F1010C1FFA8CFC6545A6F800C091
:104EC00019D9C4680CEB4C0204EB82025368012B25
:104ED00032D0023189B201EB410304EB830403E0D9
:104EE0005768012F30D019464B1C8D42224604F1E1
:104EF0000C049BB2F4D165454FF0000328BF654612
:104F000033808DB1C2685168012915D002F10C01BE
:104F100003E051F8080C01280DD001330A460C318A
:104F20009BB2AB42F5D13380BEF1000F13D162B614
:104F300072461046F0BD338002235360BEF1000F6D
:104F4000F7D162B61046F0BD022331805360BEF146
:104F5000000FF6D0EDE700221046F0BDFC0A00007D
:104F600030B4029C0025818202614381C4600581C6
:104F70000586C0E90055C0E90655C0E90855C0E9F5
:104F80000A557BB1013B204601249BB203EB43034E
:104F900000EB83030C3302600C3040F8084C0A44E9
:104FA0009842F8D130BC704781617047C161704749
:104FB00010B50446FFF776FF034678B1EFF3108192
:104FC00072B6E26A5AB10222E262228E013222866F
:104FD00001B962B6226A1868C4E9083210BDA26A33
:104FE000C4E90A02F1E700BF026A0368C0E90832B7
:104FF0000BB1186870471846704700BF08B5FFF737
:1050000027FF4368032B8CBF1868002008BD00BF32
:1050100030B4AAB10A440C4D11F8013BC0F303347B
:1050200084EA1314914255F8244084EA001083EA7C
:10503000103303F00F0355F8233083EA0010EBD14F
:1050400080B230BC704700BF307F0060164AF8B5B0
:10505000137803B1F8BD154C01254FF0FF302179CD
:10506000157063F3000120600A4663F34102227168
:10507000FFF7ECFF23682B44092B236012D85A1941
:1050800004EB03110A4F0B4E04EB02120A480D7495
:10509000C860C2E90176A36002200849BDE8F84073
:1050A000FFF7F0BBFF23F6E7A8070020F407002076
:1050B0000400010385530060EC79006045520060F4
:1050C0002DE9F0410D4C80460F461646FFF7BEFF16
:1050D00023680133092B23600DD85A1C04EB0315F8
:1050E000D8B204EB02140122C5F80C802A74C4E97A
:1050F0000176BDE8F081FF20BDE8F081F4070020D3
:1051000070B500228AB04D4B0FE0BDF8062012B2F8
:105110003F2A12DCBDF8062012B29A5C202ABDF8A4
:10512000062000F08180013212B2ADF80620BDF8F1
:10513000062012B29A5C0A2AE7D1BDF806200024A4
:105140000132214612B29818ADF806200290BDF83F
:10515000062012B29A5C0A2A33D0BDF8062012B299
:105160003F2A2EDCBDF80620013212B2ADF806202F
:10517000BDF8062012B29A5C202A05D0BDF80620A0
:1051800012B29A5C0A2AE2D1BDF8062001340AA8BC
:1051900012B200EB84059A5C0A2A49D0BDF80600D9
:1051A000BDF8062000B20132195412B29818ADF8B9
:1051B0000620BDF8062045F8200C12B29A5C0A2A97
:1051C000CBD100231E4EADF80630BDF80630326854
:1051D0001BB2934226DC194DBDF8063029461BB29E
:1051E00006EB0313D86802F0BFF902A970B9BDF845
:1051F000063020461BB206EB03139B6933B1BDF8A2
:1052000006301BB206EB03139B699847BDF80630C6
:10521000326801331BB2ADF80630BDF806301BB260
:105220009342D9DD0AB070BD002112B2995484E7CF
:10523000BDF80620002112B29954C2E7B007002041
:10524000F407002038B5224B04461B79DB0713D442
:10525000204D2B78CBB1204A0A2820491368C85426
:1052600030D0082C19D07F2C17D001333F2B13607E
:1052700001DD00232B7038BD01460220FFF7BEFA86
:105280000A2C144D13D02B7863B9242CF3D10121AF
:10529000114B002229701A6038BD002BE9D0013B68
:1052A000136038BD0C4A0D491368CC54D9E7214628
:1052B0000220FFF7A3FA2B78002BDCD0064B074A1D
:1052C0001B68D454FFF71CFF00232B7038BD00BFB0
:1052D000F4070020F0070020AC070020B0070020F2
:1052E0000FB400B583B0022004AB53F8041B1A4678
:1052F0000193FFF7B3FA03B05DF804EB04B0704715
:1053000070B50646084CFEF7C9FE084D04EB0614BE
:10531000024607490220E368002B08BF2B46BDE880
:105320007040FFF77FBA00BFF4070020707F006075
:10533000807F00600EB4124A1168884200B582B0C6
:1053400006DC02EB00131B7C13B113799B0704D519
:1053500002B05DF804EB03B07047FFF7D1FF04AB78
:10536000039902201A460193FFF778FA0D210220D3
:10537000FFF744FA0A210220FFF740FAE8E700BFEE
:10538000F40700202DE9F0430F4683B0054660B3D3
:105390000E686949304602F0E7F848BB8DF807000F
:1053A0009DF80730092B20D8644C654D9DF80730D7
:1053B000284604EB0313DB686BB19DF807109DF8DA
:1053C00007209DF8073004EB021204EB0313D268A8
:1053D0005B69FFF785FF9DF807300133DBB28DF87D
:1053E00007309DF80730092BE0D903B0BDE8F08302
:1053F000524C3046534902F0B7F894F8088048B34D
:105400005149304602F0B0F8A0BB2379012D60F37A
:105410004103237127DD78684C4902F0A5F810BBE1
:105420008DF8070021689DF807308B420FDC0120C2
:105430009DF807209DF8073004EB02120133107429
:10544000DBB28DF807309DF807308B42F0DD404627
:105450003F490AE040463F49FFF76CFF237943F09C
:1054600002032371C1E740463B4903B0BDE8F04366
:10547000FFF760BF3949304602F076F878B9012D60
:1054800006DD7868364902F06FF8034600283ED002
:1054900023794046334943F001032371E5E70023B4
:1054A000D4F800908DF807309DF807304B450ADDA1
:1054B0002AE09DF807300133DBB28DF807309DF804
:1054C00007304B4520DC9DF80730304604EB0313D2
:1054D000D96802F049F80028EBD1012D28DD7D685C
:1054E0001849284602F040F80646B8B12846164941
:1054F00002F03AF840B99DF80720012340461649CA
:1055000004EB02142374B0E740461749ADE7227953
:105510004046164963F300022271A6E740460D4952
:10552000FFF708FF9DF8073004EB031426745CE7CF
:1055300040460F4999E700BF887F0060F4070020CC
:10554000907F0060A87F0060B87F0060C87F006027
:10555000C07F0060B07F0060CC7F0060D47F0060BF
:10556000DC7F0060EC7F006000800060E07F006016
:10557000F47F006008B505494368054A0B60136075
:10558000026882F308889847FEE700BFA008002061
:10559000A4080020014B00221A707047A8080020C0
:1055A000013810B507280DD8DFE800F034100404E6
:1055B0000410041F1E4C2068FEF776FDB0F5967FA0
:1055C0000BD810BD1B4B01221A7010BD184C20685F
:1055D000FEF76AFDB0F57A7FF3D9164A13780133E6
:1055E0001370FEF75BFD206010BD114C2068FEF7C4
:1055F0005BFDB0F5967FE4D90E4A13780133137042
:10560000FEF74CFD20600120FEF716FFBDE81040BC
:1056100000F0DABC074C4FF48040074A2378074972
:1056200001332370FDF7ECFA0548FFF7A3FF00BF35
:10563000AC080020A808002038800060508000607E
:10564000003010602DE9F8431C4E0027DFF874800D
:10565000FEF700FD0120DFF87090FFF753F800F02F
:1056600035F801F07DF801F0A3F93070FEF716FD72
:1056700033780546124A38464146FDF7C1FA08E03C
:105680002046FFF78DFF00F049FC01F0C7F9FEF757
:1056900063FF34782846002CF2D1FEF705FDB0F503
:1056A000FA7FF0D97D1C3B4620464A4641462F46AC
:1056B000FDF7A6FAFEF7F2FC0546E4E7A80800208D
:1056C00014800060508000602C80006000207047D3
:1056D00001480249704700BF4E9F1A00634E562989
:1056E000084B9020792230B4597900250D24587048
:1056F0006FF303011846DD709C7059711A701A71AE
:1057000030BC7047B0080020002070470020704770
:1057100000207047002070470E4AB2F802144B1C5C
:1057200050549BB2B3F5806F0ED2A2F80234B2F897
:105730000014994207D101339BB2B3F5806F08BFC3
:105740000023A2F80034704700210B46A2F802148F
:10575000EDE700BFC0080020014B1860704700BF94
:10576000BC0800202DE9F0411F4C02201F4D23787A
:1057700028605BB1012B03D14FF0FF30BDE8F08111
:1057800000234FF0FF302370BDE8F081184A4FF03E
:10579000050C18490827184E4FF400784FF0800E7A
:1057A0003360C1F8E0C0C1F85472566846EA080692
:1057B0005660C1F8D8C0C1F84C7251680F4E41EA2A
:1057C0000E01C6F800345160C2F88480C2F888E047
:1057D000FEF798FF28780A49FFF754F801234FF0A5
:1057E000FF302370BDE8F081C40C0020B808002011
:1057F00000801B4000801F40BC080020C008002023
:105800001957006070B50D4680260E4904462B4698
:105810000D4AC1F884604FF480400C49FDF7F0F95F
:1058200055B125440A4E013C013D14F8011F307862
:10583000FEF7E4FFAC42F8D1064B1B689847002006
:1058400070BD00BF00801B4054800060508000602D
:10585000B8080020BC080020F0B41E4CB4F8026464
:10586000B4F8002496422BD025D9B51AADB28D429A
:105870002BD86B1E411E002710FA83F00FE0B3F502
:10588000806FA25C34BFA4F80034A4F8007401F85F
:10589000012F81420CD0B4F80264B4F80024531CE8
:1058A000B2429BB2EBD1002201F8012F8142F2D12A
:1058B0002846F0BC704706F58065AD1AADB215B943
:1058C0000020F0BC70478D42D3D98DB2002DD0D1CD
:1058D000F6E700BFC00800200020704770B44C1EDF
:1058E000A4B291B10134FF220A4E044411460A4D7C
:1058F00010F8013B5340A042F25C82EA0102E95CED
:10590000F6D142EA012070BC70474FF6FF7070BCC0
:10591000704700BF68800060688100600B88052BBD
:1059200070B50C4626D1B0F8032040F2CE7152BAC1
:1059300092B2531E9BB28B421CD800250123B0F8B3
:1059400001102580C2F3C70503702388013323802B
:10595000530711D1457049BA26880230013100231E
:10596000013689B2268000F06FFC40B922881544C8
:10597000258070BD032070BD0135EDB2EAE7BDE8BA
:10598000704000F095B900BF0B88052B10B582B0B0
:105990001BD10379CBB9C478621ED2B2FD2A14D9C7
:1059A000FF2CB0F801108DF8053001A808BF0123C5
:1059B00049BA8DF80430012319441A4689B200F01F
:1059C00043FC18B100F074F900E0032002B010BDF0
:1059D00038B50B880C46052B10D9B0F80320457953
:1059E00052BA92B25107C2F3C70301D00133DBB2FE
:1059F000511EB1F5F66F01D2AB4201D0032038BD84
:105A0000B0F801100123063049BA194489B200F0F8
:105A10001BFC10B90522228038BDBDE8384000F0DB
:105A200047B900BF38B50B880C46052B25D1B0F817
:105A3000032040F2CE7152BA92B2531E9BB28B42F7
:105A40001BD800250223B0F801102580C2F3C7053A
:105A50000370238801332380530710D1457049BA5E
:105A6000238802300131013389B2238000F0EEFB3C
:105A700040B922881544258038BD032038BD013542
:105A8000EDB2EBE7BDE8384000F012B908B50B887D
:105A9000052B01D0032008BDB0F80110012303300D
:105AA00049BA1A46194489B200F044FB0028F2D0E2
:105AB000BDE8084000F0FCB80B88052B10B50C467B
:105AC0000BD9B0F8032052BA92B2531E772B04D8E8
:105AD00053004179DBB2994201D0032010BDB0F8E8
:105AE00001100123063049BA194489B200F022FBA3
:105AF00010B90522228010BDBDE8104000F0D8B8D2
:105B0000F8B50B880C460546052B1FD1027996B2D5
:105B1000731E7C2B1AD803200023B5F80110570000
:105B20002380287049BA2288A81C0131013289B229
:105B3000228032466F7025880135258000F0FAFA00
:105B400030B9228802EB46062680F8BD0320F8BD56
:105B5000BDE8F84000F0ACB80B88092B2DE9F04106
:105B60000E46054614D9B0F8034064BAA4B2631EC9
:105B70007C2B0AD8B0F8072052BA92B2531E782B69
:105B800003D8437AB3EB420F05D00320BDE8F08180
:105B90000020BDE8F081B0F8051001230A30B5F807
:105BA000017049BA194489B200F0C4FA034618B129
:105BB000BDE8F04100F07CB81722308079BA4FEA96
:105BC00044082A70224637880131A81C7C1C89B2FF
:105BD000348085F8018034880134348000F0AAFADA
:105BE0000028E5D133889844A6F80080CEE700BFAE
:105BF0000A880346052A70B50C461FD1B0F8032069
:105C000052BA92B2511E7B2918D800260420B3F84C
:105C1000011055002680187049BA2688981C013159
:105C2000013689B226805D7023880133238000F01D
:105C30004DFA28B922881544258070BD032070BD17
:105C4000BDE8704000F034B81D2BF8B51D4617D8DC
:105C50000C1C0C4B0C4E4FF0020718BF012418709F
:105C6000378064425C700DB92846F8BD1146D819DA
:105C70002A46FCF707FD338800201D443580F8BD17
:105C80000420F8BDC80C0020E80C002038B5064CF4
:105C90000D46013005492288FCF7F4FC23880020DA
:105CA00001332B8038BD00BFE80C0020C80C002059
:105CB000072802D8024B185C70470420704700BFC9
:105CC00068820060F8B50D4611461A469DF81830F6
:105CD0006C1EE4B2F62C28D8164C257028BB164E44
:105CE0002846164F164C3760164E174D2660174E35
:105CF000174C2E60174E184D2660184E184C2E600B
:105D0000184E194D2660194E194C2E60194D2560FC
:105D100000F07EFF044648B900F0D6FE40B11649B7
:105D20000122164B0C701A7000E002242046F8BDC8
:105D30000324FBE70D0D0020F80C00205D6C0060D3
:105D4000FC0C00207D6C0060F00C0020096D0060F0
:105D5000EC0C0020956C0060F40C0020556B00608A
:105D6000000D0020696D0060040D0020096E0060C8
:105D7000080D00200D6E0060EB0C0020FE0A0000F4
:105D800008B5064B1B78012B05D1054B186808B1E7
:105D90008047002008BD062008BD00BFFE0A0000A5
:105DA000F40C002010B5064C2378012B05D1054BCF
:105DB0001B6898470020207010BD062010BD00BF52
:105DC000FE0A0000F80C002038B5074D2C7834B9D5
:105DD000064B1B689847012320462B7038BD012CC9
:105DE0000CBF0020062038BDFE0A0000FC0C00207D
:105DF0003F4B2DE9F0411C7882B054B90DF10700FA
:105E000000F076FE012809D00024204602B0BDE84B
:105E1000F0810624204602B0BDE8F0819DF80730ED
:105E2000012B33D0022BF0D1324DDFF8EC80D5F8C6
:105E300000C0314F9CF80020304988F800203870AD
:105E400011F83430E60001341BB19A423AD0102CDC
:105E5000F6D12B4E3378002BD6D00120294F62F09B
:105E60007F0201233B808CF800203B882A68591C64
:105E70003980D054244B1B78012B30D0234B002485
:105E80003A88296830781B689847BEE71C4D204B3C
:105E900028461C4A1B681749984704460028B3D176
:105EA0001C4A2B7812789A4208D03BB1012BABD117
:105EB000FEF7FAF843F697239842A5D8022000F09F
:105EC0000BFEA2E78B190E4E60460E495B689847A1
:105ED00033783870002B97D028B90A4FCAE70220D0
:105EE00000F076FECAE798F80020D5F800C0B5E7C4
:105EF000FE0A0000100D0020EA0C0020000B00003C
:105F0000140D0020160D0020EB0C0020F00C0020DA
:105F1000EC0C00200D0D00200C0D002030B5264C9F
:105F200083B02378032B38D8DFE803F024150B0265
:105F300000F01AFFFFF75CFF03B0BDE8304000F04F
:105F400049BEFFF72FFF78B30023237003B0BDE8ED
:105F5000304000F03FBE0323184A01213420FFF7F0
:105F600073FE0028F0D10223237003B0BDE8304057
:105F700000F030BE0025124B124901221B68284652
:105F800009780095FFF79EFE0028D5D101232370E4
:105F900003B0BDE8304000F01DBEFFF715FFFFF76E
:105FA000EFFE00232370D1E70323237003B0BDE885
:105FB000304000F00FBE00BF9E11002070820060D4
:105FC000840B0000800B000008B5FFF7FDFEFFF713
:105FD000D7FE024B00221A7008BD00BF9E110020A0
:105FE000B0F5165F0BD0B0F5964F08D0B0F5614F05
:105FF00018BFB0F5164F02D0B0F5E13F01D1014B0B
:1060000018607047840B0000431EF62B70B50446E1
:1060100007D8084D2B78834203D0074E33780BB94D
:106020002C7070BDFFF7D0FEFFF7AAFE00232C7086
:106030003370F6E7800B00009E110020014B1878AA
:10604000704700BF800B000030B40B4C23880F2B2F
:106050000BD847F22F52904209D8084A5D1C22F80B
:10606000330002EBC3032580596030BC7047044AFB
:10607000024490B2F1E700BF9C1100201C110020E7
:10608000D08AFFFFF0B50F4FBDF814503C883F2C6D
:1060900017D849F63F46B04203D946F2C036064407
:1060A000B0B24FEA041CDFF820E0013D01340EEBF2
:1060B0000C062EF80C0005443C80F3607580C6E9A0
:1060C0000112F0BD18110020180D0020174BF0B47C
:1060D0001E8876B1164D2B888B420DD0002303E02D
:1060E00035F833408C4208D00133B3424FEAC3073E
:1060F000F6D10120F0BC704700273D446B6892B197
:10610000013A011D0233023092B201EB420113F851
:10611000012C0230023300F8042C13F8042C00F890
:10612000032C8842F3D10020F0BC70479C11002062
:106130001C1100202DE9F04FDFF804B185B0DFF825
:1061400004A1804616460093BBF8002062B13B4B89
:10615000002433F8025C8D4202D81888884207D2A6
:1061600001341033A242F4D1012005B0BDE8F08F14
:10617000431C8C465B1A9E423BDDC1F1010318446F
:1061800080B2331A06469BB2019324014D1B0AEBE1
:1061900004077B6803EB4505009B6BB3012B49D1DA
:1061A00006B3731E08F1020603949BB201335B0031
:1061B0000293EB18994616F8023C28460CF10104AC
:1061C0001FFA8CF16B70023616F8033C023505F8A5
:1061D000023CBB680BB19847A4464D45EBD1DDE9C5
:1061E00002349844019E3EB3544465880135A9B2F7
:1061F000AAE700230193C8E7FB6803B19847002E84
:10620000F0D0701E08F10401023508F1020380B2DB
:1062100001EB400115F8012C0233023503F8042C80
:1062200015F8042C03F8032C8B42F3D1013008EB52
:106230004008D7E7022098E7019896E71A0D00205A
:1062400018110020180D0020012070470120704710
:10625000BFF34F8F0549064BCA6802F4E06213434F
:10626000CB60BFF34F8F00BFFDE700BF00ED00E044
:106270000400FA05024A034B12881A80704700BFD7
:1062800000280060C021002008B502884FF6DE23F8
:106290009A4200D008BDFFF7DBFF00BF0E4B0B4456
:1062A00003F03F023F2A10B403D141F65832914225
:1062B00002D85DF8044B7047012208499B11022067
:1062C0004C8902FA03F3064A234312685DF8044B33
:1062D0004B811080704700BFA8E4FFFFD021002051
:1062E00028220020064A002306491068064A10B4F6
:1062F00001240B6004805DF8044B5381FFF74AB919
:1063000028220020A0110020D021002008B5FFF78E
:1063100095FE014B988008BDF421002070B586B031
:106320000822104904A8104CFCF7ACF9BDF8142061
:10633000BDF812104FF48040BDF81660BDF8105043
:1063400033466281A18102952681E581CDE9002154
:10635000064A0749FCF754FC064B00221A7006B0A7
:1063600070BD00BFE8210020102200206083006083
:1063700050800060F021002030B50F4C83B0042223
:106380000020238865880DEB0201ADF80630ADF8DA
:106390000450FEF73DFE4FF40062211DFEF738FE6B
:1063A000064B1A7812B1002201301A70044B0022F9
:1063B0001881DA8003B030BDA4110020AC21002088
:1063C000D0210020B1F5EE6F70B5044682B021D027
:1063D00040F27473994201D002B070BD104B1B782B
:1063E000002BF9D00F4B02A908220F481D89DE8926
:1063F000ADF806505D899B8921F8086DADF8045011
:10640000ADF8023001F016F80028E5D12088FFF73A
:10641000FBFDE1E7024B01221A7002B070BD00BF24
:10642000F021002010220020E8210020F0B53D4C92
:1064300083B023681B88072B03D041F27B739942FA
:1064400001D003B0F0BD384DFFF796FF6A88EB88A6
:106450009A4204D0236804221A8003B0F0BDAA88AF
:106460002B899A42F6D16A894FF6FF739A4202D07D
:1064700000236B81E5E72D4F4FF480402C4A3B8889
:106480007E882C4906EB03463346FCF7B9FB2A4BC2
:106490002A4A3344934203D9236806221A80E7E745
:1064A000274E394640F60402264F3046FCF7EAF8FC
:1064B000254B7188012032881B6801EB0246387039
:1064C00003F580539E4201D3204B1870204B4FF0B0
:1064D000080CADF804100027ADF8062001981A68E2
:1064E0001C4E1D499042A6F800C00F8016D0042211
:1064F0001A4E18600DEB02013068FEF789FD4FF46B
:1065000000621749FEF784FD164B1A780AB1013074
:106510001F70154B002230601881DA802368072233
:106520001A80A5E728220020D0210020A4110020F5
:10653000B4830060508000600000F09FFF233000B3
:10654000A81900202D22002000220020BA210020BE
:10655000880B00000A2200200C220020A01100203D
:10656000AC190020AD210020B021002070B50E46EE
:10657000044660B10D682049284600F0F5FF38B99F
:10658000012C2FDD70681D4900F0EEFFB8B170BD21
:106590001B49284600F0E8FF58B31A49284600F086
:1065A000E3FF40B11849284600F0DEFF90B9174BD1
:1065B00001221A7070BD164B01221A7070BD154B66
:1065C0001C88FFF7A1F8024613482146BDE8704039
:1065D000FEF786BE114B2A4611491878BDE8704077
:1065E000FEF7A8BE0D4B0F491878BDE87040FEF7C6
:1065F000A1BEFFF72DFE00BFA4820060A88200604C
:10660000088300601083006024830060AD210020B7
:10661000AC21002000280060B08200602C22002005
:106620003C830060EC82006010B5074A4FF40040E4
:1066300006492824FCF7E4FA7D20FDF747FD631E98
:1066400013F0FF04F8D110BD50830060508000604B
:1066500041F28673994210B500D010BD164B59888F
:10666000DA88914204D0154B06221B681A8010BDAF
:106670009A881B899A42F6D1114A124B124C18780B
:10668000013312F8011B88420AD1A342F7D1FDF76A
:1066900005FD0A4B0D4905221B6808601A8010BDD4
:1066A00072B6074A08210748FDF7AEFC62B600281B
:1066B000EDD0FFF7B9FFEAE7B02100202822002043
:1066C0008C0B00000004106008041060FC21002006
:1066D00070B504460B46194A4FF480401849FCF740
:1066E0008FFA23884BF20702934204D04BF27802D0
:1066F000934200D070BD72B6124C4FF48051124DCF
:106700002046FDF76FFC2C6062B6A0B900240F4E46
:106710002B684FF480400E4A09493460FCF770FA48
:10672000FEF738FF0B4B0C4801211A680B4B118008
:1067300004605C8170BDFFF777FFE7E7748300605A
:10674000508000600000106000220020FC2100202A
:106750009483006028220020A0110020D021002076
:106760002DE9F04182B0FEF7D1FF002840F0CA8049
:1067700040F202410023694A4BF2967000910124D5
:1067800067490526FFF77EFC0622664B4BF2B930BF
:1067900000926549654AFFF775FC0922644B4AF28D
:1067A000AC3000926349644AFFF76CFC0321634BF1
:1067B000002200914AF228006149FFF763FC08219A
:1067C000604B002200914BF2B0305F49FFF75AFC5A
:1067D00000235E4A4BF2B8305D490094FFF752FC4B
:1067E00000235C4A4BF2C4305B490096FFF74AFC39
:1067F0005A4D00235A4A5B494BF2CE300094FFF7C2
:1068000041FC0023584A4BF2CF3058490094FFF71F
:1068100039FC294647F23150FFF716FCA91C47F214
:106820003250FFF711FC291D47F23350FFF70CFCE3
:10683000FEF770FF00285FD06E80FEF751FF83885F
:106840004B4F0024AB80FEF743FF4A4D4A4BDFF825
:106850005C81C3E90001FDF721FD3B46474A4FF447
:1068600080402946FCF7CCF9E65DBFF36F8FBFF39C
:106870004F8FBFF35F8F14F00F0F2346404A294616
:106880004FF4805003D0334642464FF480500134D9
:10689000FCF7B6F9402CE7D13A4A4FF4805035491D
:1068A000FCF7AEF90120FDF705FDC0B2FFF7ACFB28
:1068B0000620FDF7FFFC04460720FDF7FBFC44EA39
:1068C0000040314CFFF78CFB1F4A0121002302F1ED
:1068D0000E052E48D1812E492E4A256003600B708B
:1068E0001370FDF779FB08B1FFF79EFE2A4B0022DB
:1068F0001A6002B0BDE8F081FEF70AFF58B102232A
:106900006B809AE7254B264A19882648FEF7D8FB64
:10691000254B18702CE76C808FE700BF9D620060EC
:10692000A411002079630060D02100202D64006054
:106930001D63006010220020C56300600D630060CD
:10694000F421002075620060C0210020D166006043
:10695000BC21002051660060B021002004220020EC
:106960008962006022220020E5620060242200206B
:106970000004106050800060E82100207C820060EC
:1069800094820060C07A006028220020A0110020BC
:106990002D220020BA210020FC21002000280060C8
:1069A0006D650060748200602C2200209C82006073
:1069B000164B2DE9F0411E68032E1FD00325144FFE
:1069C000DFF85480042E0CD0124A3B461C78013369
:1069D00012F8011B8C4204D14345F7D10120BDE8D8
:1069E000F0810120FDF772FB013DEBD1074B0A203E
:1069F0001D60FDF76BFB2846BDE8F08104220120F5
:106A00001A60FDF763FBFFF723FC00BFF8FF0020CF
:106A1000000410608C0B00000804106070B5224C5C
:106A2000237853B9214B186800B970BDFDF73CFBC2
:106A3000B0F5FA7FF9D9FFF70BFC1D4B1D4A1888FA
:106A40005D88117805EB0045D9B91B4E32881202DA
:106A500072B60433A8184FF480711A44FDF7D4FAC3
:106A600062B6F0B93388154A013312889BB29A4254
:106A70003380D7D8124B032200211B6821701A8063
:106A8000D0E70023137072B64FF480512846FDF70B
:106A9000A9FA0C4B1D6062B60028C3D0FFF7C4FDF5
:106AA000C0E7FFF7C1FDDDE72D220020FC2100201B
:106AB000A8190020BA2100200C2200200A22002060
:106AC0002822002000220020024B002201201A7000
:106AD000704700BF2F22002001230349034A08709A
:106AE00018461370704700BF2E2200202F2200206E
:106AF000064A10B413782BB1054900240123097804
:106B00001470017018465DF8044B70472F22002066
:106B10002E220020084A0123D268C2F302229340A9
:106B20000F2BD4BF10235B0083F31188034A136833
:106B300001331360704700BF00ED00E030220020F9
:106B4000034A1368013B13600BB983F31188704744
:106B50003022002008B500F08FF8BDE8084000F0B2
:106B600035B800BF074B00220749A3FB00030120F3
:106B70001B0930B40344054D054C2A6022600B60AC
:106B800030BC7047CDCCCCCC940B0000342200201C
:106B90003822002010B5FDF7BFFA044B044A012447
:106BA0001B68044918440C60106010BD940B000071
:106BB000342200203822002000230249024A0B60C0
:106BC000136070473422002038220020FFF7F4BF02
:106BD000FDF77CBA10B5094C236803B910BDFDF769
:106BE0009BFA074B1A689042F8D9002205492260A7
:106BF00009681A60BDE81040084700BF382200202D
:106C000034220020080D00200320FFF765BF00BFDD
:106C100010B51446FFF77EFF2046FEF7A3FD0C4A91
:106C2000204613680A331360FEF79CFD0948B0FB49
:106C3000F4F080B2FFF796FF012807480CBF00244C
:106C40000324FEF789FDFFF77BFF204610BD00BF40
:106C50004400002060AE0A00096C006008B5FFF730
:106C600059FF044B00221A70FFF794FFBDE808405B
:106C7000FFF766BF3C220020FEF72EBE08B5FFF7E7
:106C800049FFFEF729FEFFF797FFBDE80840FFF731
:106C900057BF00BF2DE9F041DFF868800D46074679
:106CA0001646FFF737FFB8F80010FF291BD8032955
:106CB00013D9104C2046FEF711FE70B92346B8F8E0
:106CC0000020044613F8011B033A397032802B6010
:106CD000FFF736FF2046BDE8F0810524FFF730FFBF
:106CE0002046BDE8F081044BA321044A0448FDF787
:106CF00051F900BF402200200C840060D083006066
:106D0000308400603E220020F8B50E46144C074641
:106D10001546FFF7FFFE30460123238000F8017D72
:106D200022881544ADB225802188FEF7D7FD23883F
:106D30000C49C6B29BB2C0F3072208465D1CADB237
:106D40002580CE5423889BB25D1CADB22580CA54E9
:106D50002188FEF757FDFFF7F3FE0020F8BD00BFC6
:106D60004223002040220020204B1B7830B583B006
:106D7000002B34D11E4C1F48238821881E4D1844F7
:106D8000C1F58071FEF768FD2B78032B06D8DFE88C
:106D900003F00215080208B1FFF7FCFE002003B063
:106DA00030BD2388FF2B0ED80028F7D00190FFF7C5
:106DB000F1FE23880198184480B200E040B9208099
:106DC000002003B030BD032300202B7003B030BD82
:106DD00080B22080FFF7DEFE02232B70DEE7074B38
:106DE000EB21074A0748FDF7D5F800BF3D220020F8
:106DF00040230020402200203C22002048840060E4
:106E0000E0830060308400600020704738B5184C83
:106E10002078C0B2022813D003280AD0B8B1237852
:106E200003F0FF05B3B12378022B02D02378032BA4
:106E300016D1FFF7C1FE002501232846237038BD77
:106E40000C4B00250C4A012019881D801180FFF78A
:106E500043FE0546FFF7B0FE01232846237038BDE8
:106E6000064B40F24711064A0648FDF793F800BF6B
:106E70003C220020402300203E2200206484006049
:106E8000F483006030840060014B1868704700BFD5
:106E9000980B000070B50D4E0D4D761BB61006D048
:106EA0000024013455F8043B9847A642F9D1094E15
:106EB000094D761B01F094FBB61006D00024013476
:106EC00055F8043B9847A642F9D170BD188600607A
:106ED000188600602086006018860060024B01461C
:106EE000186800F003B800BF980B00002DE9F04FC0
:106EF00001F10B05162D83B0064623D8102900F2A8
:106F0000B98000F013FB102518230220C54F3B4425
:106F1000A3F108025C68944200F06681636823F084
:106F200003032344D4E902515A68E96042F00102A4
:106F30008D6030465A6000F0FFFA0834204603B0F6
:106F4000BDE8F08F35F0070500F19480A94200F20A
:106F5000918000F0EBFAB5F5FC7FC0F083816B0AFD
:106F600000F08F80042B00F24681AB0903F1390059
:106F700003F1380CC300AB4F3B44A3F108015C683C
:106F8000A14206D10CE0002A80F21D81E468A142F2
:106F900006D0636823F003035A1B0F2AF3DD604613
:106FA0003C69DFF894C2644571D0636823F0030341
:106FB0005A1B0F2A00F34481002AC7E904CC80F24F
:106FC0002681B3F5007F80F06981DB08591C7A685F
:106FD00057F83180C4F808804FF0010E9B100EFA6C
:106FE00003F307EBC10E1343AEF10802E2607B60CE
:106FF00047F83140C8F80C408210012494409C426C
:107000004BD81C4206D120F0030064001C4200F162
:107010000400FAD007EBC009CE468046DEF80C30FB
:107020009E4507D122E1002A80F22981DB689E4536
:1070300000F01C81596821F003014A1B0F2AF2DD80
:10704000D3E9028E5C1945F001055D6042F001054F
:10705000C8F80CE03046CEF80880C7E90444C4E91B
:1070600002CC65605A50019300F066FA019B03F16F
:10707000080463E700240C232046336003B0BDE816
:10708000F08F4FF4007340204FF03F0C73E77B68A4
:107090008210012494409C42B3D9BC68636823F0F9
:1070A0000309A94503D3A9EB05030F2B7BDC5E4B3A
:1070B000DFF888A11A68DAF80030013305EB02081E
:1070C00000F0488108F5805808F10F0828F47F681F
:1070D00028F00F084146304600F034FAB0F1FF3F87
:1070E000834600F0048104EB0900584500F2FD805E
:1070F0004E4A13684344136000F04D81DAF80010E3
:1071000001311BBFABEB00001B18CAF800B01360C5
:107110001BF0070300F03481C3F10801C3F580536D
:107120008B440833D844C8F30B08A3EB0808414646
:107130003046019200F006FA431C019A00F04681A5
:10714000A0EB0B01414441F001011368C7F808B0FE
:107150004344BC42CBF80410136015D0B9F10F0FB3
:1071600040F230816068A9F10C0121F0070100F0C4
:10717000010004EB010C08434FF0050E0F2960607D
:10718000CCE901EE00F23A81294A2A481168BC682C
:107190008B42016888BF136062688B4222F0030251
:1071A00088BF0360A7E0621943F0010345F00105C1
:1071B00065603046BA60536000F0BEF9083420467E
:1071C00003B0BDE8F08F2344E1685A68A56842F037
:1071D0000102E96030468D605A6000F0ADF9083474
:1071E000204603B0BDE8F08FDC68A34208BF023040
:1071F0003FF4D6AE92E6142B71D9542B00F2AD8039
:107200002B0B03F16F0003F16E0CC300B3E62344B4
:1072100030465A6842F001025A60083400F08CF996
:107220008CE600BFC80F0000742300204423002018
:107230006C23002070230020D00F0000D01300002A
:10724000611945F0010E42F00105C4F804E0304632
:10725000C7E90411C1E902CC4D60E25000F06CF9BD
:1072600008346BE6E80805F108034FE608F1010869
:1072700018F0030F0EF1080E7FF4D0AE52E019445F
:107280001C464A68DB6854F8085F42F001024A6015
:107290003046EB609D6000F04FF94FE65A0A042A31
:1072A00035D9142A6FD802F15C01C9005B3207EBB3
:1072B000010E7958AEF1080E8E4558D04A6822F07A
:1072C00003029A4202D989688E45F7D1D1F80CE0C1
:1072D0007B68C4E9021ECEF80840CC608CE603F15E
:1072E0005C0003F15B0CC30045E6BC4272D0BC6895
:1072F000626822F003029542A2EB050302D80F2B2D
:107300003FF751AF304600F017F9002416E69A090E
:1073100002F13901C9003832C9E7D9F8009099451E
:1073200040F0838010F0030FA9F1080300F1FF3053
:10733000F3D17B6823EA04037B6064009C423FF640
:10734000ACAE1CB9A9E6640008F104081C42FAD0EE
:1073500040465FE608F11008BCE6B3F5AA7F26D8E0
:10736000EB0B03F1780003F1770CC30003E67B68B5
:1073700092104FF0010808FA02F213437B60A8E76D
:107380004FF48053CEE6542A29D81A0B02F16F012C
:10739000C9006E328BE7C0F30B0100297FF4AEAE5B
:1073A00009EB0802B96842F001024A60ECE640F2DB
:1073B000545293421CD8AB0C03F17D0003F17C0CBA
:1073C000C300D8E50123CBF804309BE701214FF03F
:1073D0000008BAE6164A1368434413608EE6B2F515
:1073E000AA7F14D8DA0B02F17801C90077325EE780
:1073F0004FF47E737F204FF07E0CBCE504F1080152
:107400003046019200F04CF9019A1368BCE640F254
:1074100054518A4205D89A0C02F17D01C9007C3290
:1074200045E74FF47E717E2241E77B6885E700BF28
:1074300044230020032A70B414D940EA0105AD07A3
:1074400004460B4622D11D682668AE4219462046E6
:1074500003F1040304F1040418D1043A032A20467A
:107460001946F0D8541E72B102780B789A4208BFC0
:10747000641806D00CE010F8012F11F8013F9A4271
:1074800006D1A142F7D1002070BC7047541EEBE733
:10749000D01A70BC704700BFF0B4860743D0541EAA
:1074A000002A3ED0CAB2034602E014F1FF3438D3BA
:1074B00003F8012B9D07F8D1032C2BD9CDB245EA57
:1074C00005250F2C45EA054516D9A4F110073F09FB
