:0200000460108A
:10000000464346420004015600000000010303007D
:1000100000000000000000000000000000000000E0
:1000200000000000000000000000000000000000D0
:1000300000000000000000000000000000000000C0
:100040001000000001040700000000000000000094
:100050000000800000000000000000000000000020
:100060000000000000000000000000000000000090
:100070000000000000000000000000000000000080
:10008000EB04180A063204260000000000000000FD
:10009000050404240000000000000000000000002F
:1000A0000000000000000000000000000000000050
:1000B0000604000000000000000000000000000036
:1000C0000000000000000000000000000000000030
:1000D00020041808000000000000000000000000DC
:1000E0000000000000000000000000000000000010
:1000F0000000000000000000000000000000000000
:10010000D8041808000000000000000000000000F3
:100110000204180804200000000000000000000095
:1001200000000000000000000000000000000000CF
:10013000600400000000000000000000000000005B
:1001400000000000000000000000000000000000AF
:10015000000000000000000000000000000000009F
:10016000000000000000000000000000000000008F
:10017000000000000000000000000000000000007F
:10018000000000000000000000000000000000006F
:10019000000000000000000000000000000000005F
:1001A000000000000000000000000000000000004F
:1001B000000000000000000000000000000000003F
:1001C000000100000010000001000000000000001D
:1001D000000001000000000000000000000000001E
:1001E000000000000000000000000000000000000F
:1001F00000000000000000000000000000000000FF
:10100000D10020410020106000000000000000001E
:1010100020101060001010600000000000000000B0
:10102000000000600000800000000000FFFFFFFFE4
:102000000000012029251060D52510602D431060A7
:10201000D1251060D1251060D1251060000000008E
:10202000000000000000000000000000DD2510603E
:10203000D125106000000000E125106059351060C6
:10204000E9251060ED251060F1251060F525106080
:10205000F9251060FD25106001261060052610602E
:10206000092610600D2610601126106015261060DC
:10207000192610601D26106021261060252610608C
:1020800029261060D1251060D1251060D12510605F
:102090002D2610606D3710603526106039261060CF
:1020A0003D261060412610604526106049261060CC
:1020B0004D2610605126106055261060592610607C
:1020C0005D2610606126106065261060692610602C
:1020D0006D26106071261060D1251060D12510602A
:1020E000D1251060D1251060D1251060D125106058
:1020F000D1251060D1251060D1251060D125106048
:10210000D1251060D1251060D1251060D125106037
:10211000D1251060D1251060D1251060D125106027
:1021200075261060792610607D261060812610606B
:1021300085261060D1251060D1251060D125106052
:10214000D1251060D1251060D1251060D1251060F7
:10215000D1251060D1251060D1251060D1251060E7
:10216000D1251060D1251060D1251060D1251060D7
:10217000D1251060D1251060D1251060D1251060C7
:10218000D1251060D1251060D1251060D1251060B7
:10219000D1251060D1251060D1251060D1251060A7
:1021A000D1251060D125106089261060D1251060DE
:1021B000D1251060D1251060D1251060D125106087
:1021C000D1251060D1251060D1251060D125106077
:1021D000D1251060D1251060D1251060D125106067
:1021E000D1251060D1251060D1251060D125106057
:1021F0008D261060D1251060912610609526106004
:10220000D1251060D1251060992610609D261060A0
:10221000D1251060D1251060D1251060D125106026
:10222000D1251060D1251060D1251060D125106016
:10223000D1251060D1251060D1251060D125106006
:10224000D1251060D1251060D1251060D1251060F6
:10225000D1251060D1251060D1251060D1251060E6
:10226000D1251060D1251060D1251060D1251060D6
:10227000D1251060D1251060D1251060D1251060C6
:10228000D1251060D1251060D1251060D1251060B6
:10229000D1251060D1251060D1251060D1251060A6
:1022A000D1251060D1251060D1251060D125106096
:1022B000D1251060D1251060D1251060D125106086
:1022C000D1251060D1251060D1251060D125106076
:1022D000D1251060D1251060D1251060D125106066
:1022E000D1251060D1251060D1251060D125106056
:1022F000D1251060D1251060D1251060D125106046
:10230000D1251060D1251060D1251060D125106035
:10231000D1251060D1251060D1251060D125106025
:10232000D1251060D1251060D1251060D125106015
:10233000D1251060D1251060D1251060D125106005
:10234000D1251060D1251060D1251060D1251060F5
:10235000D1251060D1251060D1251060D1251060E5
:10236000D1251060D1251060D1251060D1251060D5
:10237000D1251060D1251060D1251060D1251060C5
:10238000D1251060D1251060D1251060D1251060B5
:10239000D1251060D1251060D1251060D1251060A5
:1023A000D1251060D1251060D1251060D125106095
:1023B000D1251060D1251060D1251060D125106085
:1023C000D1251060D1251060D1251060D125106075
:1023D000D1251060D1251060D1251060D125106065
:1023E000D1251060D1251060D1251060D125106055
:1023F000D1251060D1251060D1251060FFFFFFFFAF
:1024000090F800F06DE9024520F007016FF0000C34
:1024100010F0070491F820F040F049804FF00004DC
:102420006FF00700D1E9002391F840F000F10800B7
:1024300082FA4CF2A4FA8CF283FA4CF3A2FA8CF3EF
:102440004BBBD1E9022382FA4CF200F10800A4FA56
:102450008CF283FA4CF3A2FA8CF3E3B9D1E90423AA
:1024600082FA4CF200F10800A4FA8CF283FA4CF3E1
:10247000A2FA8CF37BB9D1E9062301F1200182FA9B
:102480004CF200F10800A4FA8CF283FA4CF3A2FAA1
:102490008CF3002BC6D0002A04BF04301A4612BAAF
:1024A000B2FA82F2FDE8024500EBD2007047D1E9B2
:1024B000002304F00305C4F100004FEAC50514F041
:1024C000040F91F840F00CFA05F562EA05021CBF12
:1024D00063EA050362464FF00004A9E710B5054C16
:1024E000237833B9044B13B10448AFF300800123C0
:1024F000237010BD0000002000000000344B10606D
:1025000008B5034B1BB103490348AFF3008008BD76
:102510000000000004000020344B106000000000A8
:10252000740F00007C4B106072B61B481B490160A1
:102530000A6882F308881A4880471A491A4A1B4BCE
:102540009B1A03DD043BC858D050FBDC9B1A03DD0B
:10255000043BC858D050FBDC154B00209A42BCBF4E
:1025600042F8040BFAE7002103E0124B5B5843509A
:1025700004311148114B42189A42F6D31049114ABE
:1025800000209142BCBF41F8040BFAE762B60E4846
:1025900080470E480047000008ED00E00020106072
:1025A000BD4410607C4B1060000000200000002043
:1025B000000000207C4B106000000000740F000041
:1025C0000000002098040020414510607541106013
:1025D000FFF7FEBF32480047324800473248004705
:1025E00032480047324800473248004732480047E7
:1025F00032480047324800473248004732480047D7
:1026000032480047324800473248004732480047C6
:1026100032480047324800473248004732480047B6
:1026200032480047324800473248004732480047A6
:102630003248004732480047324800473248004796
:102640003248004732480047324800473248004786
:102650003248004732480047324800473248004776
:102660003248004732480047324800473248004766
:102670003248004732480047324800473248004756
:102680003248004732480047324800473248004746
:102690003248004732480047324800473248004736
:1026A000D52510602D431060DD251060E1251060F8
:1026B00059351060D1251060D1251060D1251060EA
:1026C000D1251060D1251060D1251060D125106072
:1026D000D1251060D1251060D1251060D125106062
:1026E000D1251060D1251060D1251060D125106052
:1026F000D1251060D1251060B9431060D943106016
:10270000F943106019441060394410605944106056
:102710007944106099441060D1251060D125106073
:10272000D1251060D1251060D1251060D125106011
:10273000D1251060D1251060D1251060D125106001
:10274000D1251060D1251060D1251060D1251060F1
:10275000D1251060D1251060D50A0000D125106068
:10276000D1251060D1251060D1251060844641EA42
:10277000000313F003036DD1403A41D351F8043BF9
:1027800040F8043B51F8043B40F8043B51F8043B4B
:1027900040F8043B51F8043B40F8043B51F8043B3B
:1027A00040F8043B51F8043B40F8043B51F8043B2B
:1027B00040F8043B51F8043B40F8043B51F8043B1B
:1027C00040F8043B51F8043B40F8043B51F8043B0B
:1027D00040F8043B51F8043B40F8043B51F8043BFB
:1027E00040F8043B51F8043B40F8043B51F8043BEB
:1027F00040F8043B51F8043B40F8043B403ABDD25A
:10280000303211D351F8043B40F8043B51F8043BFB
:1028100040F8043B51F8043B40F8043B51F8043BBA
:1028200040F8043B103AEDD20C3205D351F8043B8A
:1028300040F8043B043AF9D2043208D0D2071CBF56
:1028400011F8013B00F8013B01D30B88038060467F
:10285000704700BF082A13D38B078DD010F00303F5
:102860008AD0C3F10403D21ADB071CBF11F8013B65
:1028700000F8013B80D331F8023B20F8023B7BE7B4
:10288000043AD9D3013A11F8013B00F8013BF9D2DF
:102890000B7803704B7843708B7883706046704779
:1028A0008C461446194602466346044800B583B078
:1028B000009400F0F1F900BEFDE700BF7047106022
:1028C0002DE9F04F00228FB0037800910392002B86
:1028D0007ED00646904617461446B74D01920DE04D
:1028E0002A7C049322B1AB68012204A928469847A8
:1028F00008F1010801363378002B6AD0252BEFD17F
:102900007378721C4FF00009A3F1300109290CD82B
:1029100009EB8909164603EB490912F8013FA3F1B7
:102920003001A9F130090929F2D92E2B41D0642BAD
:1029300053D0692B51D003F0DF02462A00F04781C3
:10294000582A00F04C81A3F16201CAB2132A00F2A6
:1029500013819A48D040C00740F14B81DDF800E078
:102960004FF0010A954820FA02F2D20740F18E801A
:10297000702B00F09380724652F8043B0092039350
:10298000132900F29880DFE811F01D0196009600EF
:102990009600960096009600960096009600960087
:1029A000960096007F01960096009600960096008D
:1029B0000901164612F8013FA3F130010929B6D8E2
:1029C000164612F8013FA3F130010929F1D9AEE70B
:1029D000984640460FB0BDE8F08FDDF800E00022D9
:1029E0005EF8041B8DF81420002900F0D0800DF152
:1029F000150C05A8724A8A46A2FB0142BAF1090FDA
:102A00004FEAD20101EB8102AAEB420202F130024D
:102A10000CF8012BACEB000404F1FF342746E9D895
:102A200003F0DF020444582A40F0CF8000225EF811
:102A3000041BB3F1780A8DF8142018BF4FF0010A77
:102A40000391002900F0CF80782B0DF1150C14BFF5
:102A50004FF0410B4FF0610BABF10A0B01F00F028D
:102A60000909092A0BEB020498BF02F130040CF8A3
:102A7000014BACEB0004013C27460029EED1A3F149
:102A800062010444CAB2132A7FF66CAF4F45CDF8F9
:102A900000E03ADB002C55D102362CE774460422C4
:102AA00004A903A854F8043B04930094FFF75EFEC6
:102AB00010230193039B00228DF81420002B74D067
:102AC000BAF1000F0DF1150205A8DDF804E014BFFE
:102AD0004FF0410C4FF0610CACF10A0C9A46B3FB7D
:102AE000FEF30EFB13A109290CEB010498BF01F1C1
:102AF0003004D64502F8014BA2EB000404F1FF3488
:102B00002746EBD9B94504441CDDBB464FF0200AEB
:102B10002B7C0BF1010B012204A92846CDF810A053
:102B20000BB1AB689847CB45F2DB08F1010309F123
:102B3000FF38A8EB07084F45A8BF4FF0000898449E
:102B4000002CA9D02378002BA6D004EB080904F1AF
:102B5000FF3A95F810C0A9EB0A08012204A92846FB
:102B600054460493BCF1000F01D0AB6898471AF8A3
:102B70000139002BEDD18FE704932B7C23B1AB6897
:102B8000012204A92846984708F1010884E7302269
:102B9000012405A827468DF8152041E70A22019255
:102BA00000228DF81420002B8AD13023012405A89F
:102BB00027468DF81530A5E71C00002001600800AD
:102BC000CDCCCCCC0222019275E7CDF800E0A3F188
:102BD0006201DDF800E04FF0010ACAB253E7DDF808
:102BE00000E005A822E7302201248DF815202746B1
:102BF00045E7632B10D1DDF800902B7C59F8042BAE
:102C0000049223B1AB68012204A92846984708F131
:102C10000108CDF800903FE7732BADD1009B53F82E
:102C200004BB0093BBF1000F3FF436AF5846FFF7EB
:102C3000E7FB484507462CDA824620212B7C0AF127
:102C4000010A012204911BB1AB6804A928469847E8
:102C5000D145F2D1C144A9EB07099BF80030B3B1CB
:102C6000DA46CBF1010B297C0122049319B1AB6840
:102C700004A9284698470BEB090303EB0A081AF846
:102C8000013F002BEFD107E70822019213E7C84666
:102C900002E7C146E1E700BF0FB400B583B0084BBF
:102CA00004A91B7C51F8040B019133B1FFF708FE16
:102CB00003B05DF804EB04B070474FF0FF30F7E766
:102CC0001C00002070B50446EFF3108572B68368CF
:102CD000026901339342836001D9C368836019702C
:102CE000D4E901239A42238810D0013300269BB2F5
:102CF000626923800AB12046904705B962B626B1C1
:102D0000A36913B1BDE87040184770BD43B10132EB
:102D100021698A42626001D9E26862600126E7E7C0
:102D200001230026E4E700BF034630B4EFF310842C
:102D300072B642680188107841B101321D69AA4219
:102D40005A6001D9DA685A600139198004B962B64B
:102D500030BC704700887047013A0023C1600A44C4
:102D600003804361026110B44C1EC0E901145DF898
:102D7000044B7047F0B50E1E85B0054622DB01AC52
:102D800032460020124FA446A7FB02139646064681
:102D90000130DB08BEF1090F03EB8301A2EB410117
:102DA0001A4601F13001C9B20CF8011BECD82644D7
:102DB00001E016F8011D2846FFF784FFB442F8D160
:102DC00005B0F0BD2D217642FFF77CFFD7E700BFAD
:102DD000CDCCCCCCF0B5082A85B01446064628BF29
:102DE000082402AD019112B300202946034604AA2B
:102DF0000230023102EB530313F80C2C02F00F02E5
:102E0000092A02F1300788BF02F1370701F8027C76
:102E100013F80C3C9F2B4FEA131202F1300388BFCA
:102E200002F1370301F8013CC3B29C42DFD8013CF8
:102E300055FA84F421783046FFF744FFA54204F1A7
:102E4000FF34F7D105B0F0BDFDEEC07A2DE9F041B9
:102E500017EE906A044633042DED028BB0EE408AE3
:102E600082B06ED4B2B26D464FF0000CDFF8E8804D
:102E7000AE46A8FB0213174660460CF1010CDB08B6
:102E8000092F03EB8301A2EB41019AB201F130015A
:102E9000C9B20EF8011BECD82F1801E017F8011D7C
:102EA0002046FFF70FFFAF42F8D19FED290A2E21F0
:102EB000284B204628EE008ABDEEC88A18EE102A5C
:102EC00003FB0626FFF7FEFE632E25DDB6B22F4676
:102ED0000020DFF884E0AEFB0623B4460246013052
:102EE000DB08BCF1090F03EB8301A6EB41019EB2A5
:102EF00001F13001C9B207F8011BECD8AE1801E0AE
:102F000016F8011D2046FFF7DDFEB542F8D102B0EC
:102F1000BDEC028BBDE8F08130212046FFF7D2FEE8
:102F2000092ED3DC30212046FFF7CCFE002ECDD178
:102F30003021204602B0BDEC028BBDE8F041FFF726
:102F4000C1BE2D21FFF7BEFE724292B28BE700BFD9
:102F500000007A4418FCFFFFCDCCCCCC2DE9F04F1B
:102F60000D46097885B0F1B12529064617464FF080
:102F700000081BD06C1C5C293046254602D1237802
:102F8000252B05D0FFF79EFE237863B1252B0DD0AE
:102F900014F8011B30465C292546F0D0FFF792FE5D
:102FA0002378002BF2D105B0BDE8F08F01ACDFF83B
:102FB000A0926B78302B14D0002BF4D0633BDAB2A4
:102FC000152A16D8152B14D8DFE803F0C6261515D8
:102FD0001513261313301313131313138A139C138F
:102FE000134CEB7815F8028FA8F130085FFA88F8D7
:102FF000E2E72978BEE707373046023527F00707B2
:10300000B7EC020BB7EEC00BFFF71EFF29780029C3
:10301000C9D02529AED1CCE757F8041B3046FFF7BD
:10302000A9FEA97802350029F3D1BCE7AB78643B4F
:10303000142B00F2A980DFE813F0AD00A700A70071
:10304000A700A700AD00A700A700A700A700A70042
:10305000A700A700A700A700A700A700E800A700F7
:10306000A700B400B8F1040F00F28280B8F1000F9D
:103070007ED157F8041B4FF0030A01F00F02092A12
:1030800094BF303237328DF80420C1F30312092A7D
:1030900094BF303237328DF80520C1F30322C1F3DB
:1030A0000331092A94BF3032373209298DF80620BE
:1030B00094BF3031373101E013F80C1C0AF1FF3AAC
:1030C0003046FFF7FFFD5FFA8AFA0AF11003BAF102
:1030D000FF0F6B44F0D1A9780235002999D162E73E
:1030E00057F804AB9AF800100029F4D03046FFF7E7
:1030F000E9FD1AF8011F0029F8D1A9780235002945
:1031000087D150E757F8043BA44600209BB2A9FBA7
:10311000032A9E46024601304FEADA0ABEF1090F41
:103120000AEB8A01A3EB41011FFA8AF301F1300196
:10313000C9B20CF8011BEAD804EB020A01E01AF844
:10314000011D3046FFF7BEFDA245F8D1A978023532
:1031500000297FF45EAF26E757F8041B304602359E
:10316000C9B2FFF7AFFD297800297FF452AF1AE703
:1031700057F8041B424630460235FFF72BFE2978EC
:1031800000297FF446AF0EE7304657F8041BFFF7DF
:10319000F1FDA0E7304657F8041B0135FFF7EAFDC3
:1031A00099E757F8043B204600210093C1F34602FB
:1031B0000231023002F110030DEB030212F8103C51
:1031C00003F00F03092B03F1300C88BF03F1370C18
:1031D00000F802CC12F8103C9F2B4FEA131202F1B8
:1031E000300388BF02F13703082900F8013CDDD124
:1031F0000DF10B0A9AF800103046FFF763FDA24567
:103200000AF1FF3AF6D1013565E7A446002057F8E8
:10321000043BA9FB032A9E46024601304FEADA0A24
:10322000BEF1090F0AEB8A01A3EB4101534601F1FC
:103230003001C9B20CF8011BEBD804EB020A01E023
:103240001AF8011D3046FFF73DFDA245F8D1DAE737
:10325000CDCCCCCC10B5044C237803B110BD00F01C
:1032600009F80123237010BD8D04002000F050B830
:1032700000F08CB8F8B5214C237803B1F8BD72B6D4
:103280001F4801F065FC1E4801F06AFC62B61D4F44
:103290001D4E3D682B685A1C29D0326812680132D5
:1032A00007D1002B27DB2B46184A1360012323701C
:1032B000F8BD72B6124805F1204101F055FC62B626
:1032C0004FF48071284601F047F8356872B60C4813
:1032D00005F1204101F048FC62B64FF480712846A8
:1032E00001F03AF83B681A68002ADDDA1D463368B7
:1032F0001A68002AD8DA054B1D60D7E78E04002033
:1033000000802A40440F0000480F000030000020D9
:103310001A4A1B4B11681B68994203D0194B1B6852
:10332000994223D130B4184C2368002B1ADC01F5E4
:10333000806CFF2301E0013B1BD35CF8042D551C7E
:10334000F9D05D1C256001EB830103E05A1C10D00D
:1033500051F8042DB0EB124F03F1FF33F6D190B2C8
:1033600030BC7047013B51F82320ECE74FF6FF706B
:1033700070474FF6FF7030BC704700BF3000002030
:10338000440F0000480F0000400F00002DE9F04FEF
:103390000F4683B08046FFF7BBFFB84270D04A4B60
:1033A000DFF834A11B68DAF80040002B0DDCFF23A6
:1033B00004F5806202E0013BC0F0848052F8041DF5
:1033C0000131F8D00133404A1360FF2B5FDD3F4BE2
:1033D000D3F800B0A34556D05E4672B63C480BF118
:1033E000204101F0C1FB62B64FF4807158460024C1
:1033F0004FF6FF75DFF8D89000F0AEFF1AE03B46BD
:10340000ADF80470ADF80640AB420FD072B604239D
:1034100006F1204148460DEB030201F09DFB62B628
:103420004FF480713046043600F096FF0134B4F555
:10343000807F12D04445E2D0DAF8001001F58062B6
:1034400003E09142ADF80450F0D052F8043DB4EBE3
:10345000134F0193F5D19BB2D6E7DAF8005072B65C
:103460001B4805F1204101F07FFB62B6214628464A
:1034700000F072FF4FF0FF33134ACAF800B0136038
:1034800003B0BDE8F08F134BD3F800B0A4E704EB12
:1034900083041D1DADF80680ADF8047072B60423D8
:1034A00004F120410A480DEB030201F055FB62B61E
:1034B0004FF48071204600F04FFF034B1D6003B0B6
:1034C000BDE8F08F0425E5E7400F0000440F000041
:1034D00000802A40480F00003000002038B5044624
:1034E00072B6074804F1204101F03EFB054662B682
:1034F0004FF48071204600F02FFF284638BD00BFF2
:1035000000802A4038B50446134672B607480A467A
:1035100004F1204101F020FB054662B64FF48071B2
:10352000204600F019FF284638BD00BF00802A4021
:1035300010B44FF0E023064C064AF0205C610021F5
:1035400082F82300072299615DF8044B1A617047E5
:103550001FA1070000ED00E000F038BC133001238C
:10356000074A8340C2F88030BFF34F8FBFF36F8F9D
:1035700010211044C2F8803180F8001313607047A6
:1035800000E100E070B5414C8AB0461E05460DF1E1
:10359000040C8E46072E0FCCACE80F000FCCACE825
:1035A0000F002368CCF8003050D80AAB384A03EB40
:1035B000850302EB853C53F8243C1AB203F01F0349
:1035C000B2F5E06F4FEA122159D2324A0A44032180
:1035D0009200994052E8003F0B4342E80034002C2F
:1035E000F8D1022D34D0EB1E052B3CD802222A49FB
:1035F0000023CCF80820DCF80820B1FBFEF122F013
:10360000020241F07061CCF80820244ACCF80C305A
:10361000CCF81420CCF82830CCF81010CCF81830A6
:10362000DCF8183043F40013CCF81830DCF81C3008
:10363000DCF8183043F44023CCF81830BFF35F8F28
:1036400028460AB0BDE87040FFF788BF0AB070BDD9
:10365000134B0822C3F81C51C3F89022C3F8205121
:10366000C3F89422C2E70E4B02210822C3F8D410FB
:10367000C3F84822C3F8D810C3F84C22B6E7094B68
:103680004FF4A361084A0948FFF70AF93848106067
:10369000000018401AF00310404B4C0000001F407F
:1036A00000801F40B04710605C481060C047106049
:1036B000431E072B06D8044B03EB8030836943F489
:1036C00080038361704700BF00001840431E072B32
:1036D00006D8044B03EB8030836923F480038361B5
:1036E000704700BF00001840431E072B03D8024B51
:1036F00003EB8030C161704700001840431E072B68
:1037000005D8044B03EB8030C069C0B2704700207D
:10371000704700BF00001840431E072B06D8044B1B
:1037200003EB80304069C0F3405070470020704781
:1037300000001840431E072B06D8044B03EB8030D3
:103740004069C0F380507047002070470000184067
:10375000431E072B06D8044B03EB80308069C0F36F
:10376000805070470020704700001840022008B5C4
:1037700000F0DAFC0220BDE8084000F0B5BC00BF54
:103780002DE9F0410746EFF3108572B6264C4689C5
:10379000238801331FFA83FEB645A4F800E01FD248
:1037A000C2680EEB4E034FF0000802EB8303724633
:1037B00005E01FFA8CF24FF00108B24210D25968AE
:1037C000184602F1010C0C330129F2D1B8F1000FB7
:1037D00000D022800223436005B962B6BDE8F081C3
:1037E000B64572464FF0000C28BF3246A4F800C020
:1037F0009AB1FB68614604E0B9B24FF0010C8A420D
:103800000AD05E6818464F1C0C33012EF4D1BCF16F
:10381000000FDFD02180DDE7228015B962B628468F
:10382000DCE70020DAE700BF700F000030B4029C34
:103830000025818202614381C46005810586C0E95B
:103840000055C0E90655C0E90855C0E90A555BB105
:10385000204603EB4303012400EB8303C0E900246B
:103860000C300A449842F9D130BC704781617047EE
:10387000C161704710B50446FFF782FF78B1EFF3DE
:10388000108272B6E36A5BB10223E362238E0133D6
:10389000238602B962B6236A20620068636210BDA3
:1038A000A36AC4E90A03F1E7026A0368C0E90832BF
:1038B00003B11B6818467047036A13B11A68914236
:1038C0001CD0426A10B412B11468A1421DD0046920
:1038D000838A091B428991FBF3F18BB29A4218D972
:1038E0001946C36801EB410103EB81035B685DF896
:1038F000044B032B8CBF18680020704743625B6841
:10390000032B8CBF186800207047C0E908231346BA
:10391000ECE700235B68FFDE00B583B0FFF7AAFC8D
:103920000F48104B0268586022B1D0F800233AB912
:103930000D4A5A600D4B01221A6003B05DF804FB7A
:10394000D0F80423013202D0074A10465A600422FC
:1039500000230DEB02010193FFF7D4FDEAE700BF5E
:1039600000000260380000200003026034000020E4
:10397000124B1B6810B582B00BB9FFF7CDFF104C8E
:103980002046FFF7ABFD0F48FFF7A8FD0E48FFF7F5
:10399000A5FD0E48FFF7A2FD0D48FFF79FFD0D485E
:1039A000FFF79CFD04220C4800230DEB020144604C
:1039B00020460193FFF7A6FD02B010BD34000020A1
:1039C0000000026000010260000202600003026069
:1039D000000402600005026038000020224B1B68D2
:1039E0002DE9F04104460E460BB9FFF795FF1F4B3A
:1039F000002140F2F97E5F6807F50175FC3FB5F8DC
:103A000002C02A460CF1FF339BB2734512D8002046
:103A1000B2F800800CF10703A045C3F38D0312D068
:103A200002EB8302B2F802C00CF1FF339BB2734584
:103A3000EED920B9A5F58075AF42E0D1002006B1DE
:103A40003180BDE8F0810CF10703101D6146C3F31E
:103A50008D0302EB8302B2F8028008F1FF339BB2C0
:103A60007345ECD8C446D3E734000020380000206A
:103A70008C4B2DE9F04F1B6889B0002604460D469B
:103A8000009205960BB9FFF747FF04A92046FFF700
:103A9000A5FFBDF81030AB4200F0FB80DFF814B298
:103AA0004FF6FF7C4FF603094FF6FA78DBF8046017
:103AB00006F5807006F5806AB64630F8FA3CA0F14B
:103AC000FC07ADF8103030F8FC2C62454FF0F802DE
:103AD00018D12FE0A3F2FB7189B2494598BFADF828
:103AE00014403988043989B2414502F1040139444E
:103AF00098BFADF81440814218BFADF81440398822
:103B0000614517D0634517D0AA4215DD0733C3F3CB
:103B10008F03A2EB8302C3F30D0307EB830712B2FB
:103B20007B887745ADF8103001D38742D2D9ADF804
:103B30001440CFE763450DD000F580700EF5807E10
:103B40008245BAD1DFF8708198F80030B3B109B07E
:103B5000BDE8F08FAA42EFDD05A904223846ADF892
:103B60001650ADF814400335FFF7CCFC4FF6FC724D
:103B70000099381D2A40FFF7C5FCE8E706930127A6
:103B80000293494B494A9E42494988F8007008BF50
:103B9000914602F5807218BF994603F5807308BFFD
:103BA0001346A2F5007208BF8A46A1F5FE7118BF40
:103BB0009246A2F5FE7203930CBF0B46134648468D
:103BC0000193FFF78BFC039B1846FFF787FC5046D9
:103BD000FFF784FC2B464FF0F80A25461C460DF1F2
:103BE00012013846FFF7FAFEBDF81220034652458F
:103BF00027D90299012920DD4FF00003ADF81230DA
:103C0000022F4FF00207EAD1234630462C46002609
:103C10001D46FFF763FC07A9042248460796FFF7F5
:103C200071FC009A29462046CBF80490FFF720FF4C
:103C300088F8006009B0BDE8F08F01314FF0F80A54
:103C400002910393002ADBD006A9ADF81A2001984F
:103C50000422ADF81870FFF755FC039B4FF6FC7279
:103C60001946BDF8123003331A40019B181DADF8F8
:103C70001220FFF747FCBDF81230019A04339BB2C3
:103C8000AAEB030A1A44ADF812301FFA8AFA01921D
:103C9000B6E701462A46009800F076FC00287FF43B
:103CA000FDAE54E734000020000002600003026013
:103CB00000050260380000208F04002080688B68B7
:103CC00098422CBF00200120704700BF0B68181AD3
:103CD000B0FA80F04009704738B500F095F8044616
:103CE0000B48FFF7E1FD70B10346094D9A6819468C
:103CF0002846A242A2EB040288BF9A60FFF7DCFDCF
:103D000003460028F2D1BDE8384000F09DB800BF5E
:103D100044000020164B30B51D7883B00DB103B0C0
:103D200030BD01221A7000F059F812481423124ACB
:103D3000102100901148FFF779FD11490F48FFF756
:103D400095FD10490D48FFF793FD0F4B0B481D6083
:103D5000FFF790FD04460028E1D00C4B036000F013
:103D600053F80B4B65601844C4E9020303B030BD3F
:103D700090040020B80100207800002044000020BA
:103D8000BD3C1060CD3C106040000020D93C10606C
:103D9000FF6780CC2DE9F04180460B480D46174661
:103DA0001E46FFF767FD60B1C0F80080044600F0D2
:103DB0002BF800233844E660C4E901501846BDE8FA
:103DC000F0814FF0FF33F9E744000020024A136806
:103DD00001331360704700BFAC02002010B5074CE0
:103DE000237803B110BD06484FF0FF31054A036048
:103DF0001160FFF79DFB0123237010BD910400208B
:103E0000AC020020A8020020014B1868704700BFD8
:103E1000AC0200200A4A30B411680A4D04E013686D
:103E20005B1A98420AD300BF13689942F7D92B68EE
:103E30001468234401335B1A9842F4D230BC7047B3
:103E4000AC020020A8020020034B0022034918689E
:103E500008601A60704700BFAC020020A802002072
:103E60002DE9F041574D84B02B78002B4AD0002625
:103E70000196019A022A45D8534C012706E0019B7E
:103E800001330193019B022B3CD82B78019A1341FB
:103E9000DA07F4D5019B03EB830354F82300FEF704
:103EA00059FF0390039B142B40F283801423039348
:103EB000039B5A1E0392002BE1D0019B03EB83036B
:103EC00054F82300FEF730FF0296019B8046029AC9
:103ED00003EB830304EB83039B685B889342E7D97E
:103EE000019B4046029A03EB830304EB83039B6828
:103EF0005B6853F822309847029B01330293019B81
:103F0000029AE5E7314D2B78002B4FD00026019621
:103F1000019B022B4AD82C4F01240396039B032BB1
:103F20002BD8019B039A03EB830307EB83031B7BD3
:103F30001341DB071BD5019B03EB830307EB8303D3
:103F40001B6943B1019B039803EB8303C0B207EBEA
:103F500083031B6998470399019B04FA01F103EB62
:103F6000830307EB83031A7B22EA01021A73039B84
:103F700001330393039B032BD3D9EFF3108272B663
:103F8000019B03EB830307EB83031B7B33B901998D
:103F90002B7804FA01F123EA01032B7002B962B60F
:103FA000019B01330193019B022BB6D904B0BDE8FC
:103FB000F081019A2B7807FA02F223EA02032B70B0
:103FC00076E700BF94040020200400209204002023
:103FD00038B50E4D00EB8003044605EB83050AE07F
:103FE0006868FEF7B7FE80B16868FEF79DFE01467F
:103FF0002046FFF779FB2046FFF79CFB0028EFD116
:104000002046BDE83840FFF753BB38BD20040020F0
:1040100070B51B4E0446357845B301230025194A77
:10402000022C3370184B15701D7000D070BD174EE8
:1040300020464FF4E131164CFFF7A4FA202215492F
:104040003046FEF789FE4FF4807213492046FEF792
:1040500083FE124A04231360114B5360114BC3E9D2
:104060000A641A639D6383F8345070BDFFF752FEF3
:10407000012329460C481A46FFF78CFECDE700BF06
:10408000930400209404002092040020C802002021
:1040900004030020E402002020030020B0020020DE
:1040A000B802002020040020613E10600EB410B55C
:1040B00083B004460B4B00EB800005AA03EB8003A2
:1040C00052F8041B58680192FEF748FF2046FFF79C
:1040D0003FFB10B92046FFF77BFF03B0BDE810405F
:1040E00003B070472004002038B50E4D00EB80036C
:1040F000044605EB83050AE06868FEF72BFE60B115
:104100006868FEF711FE01462046FFF7EDFA2046EB
:10411000FFF710FB0028EFD138BD2046BDE838403E
:10412000FFF7D4BA200400202DE9F04101270F4BFE
:1041300000EB80080E4D8740044603EB88087FB2F1
:104140000AE0D8F80060FFF7D9FA01463046FEF7DA
:10415000B9FD2B783B432B702046FFF7DDFA034671
:104160002046002BEDD1BDE8F08100BF20040020E7
:10417000940400202DE9F04188B00025FFF72EFEC1
:104180000220FFF745FF5D490220DFF89C81FFF721
:104190008DFF5B490220FFF789FFFFF75BF8ACB2A8
:1041A0002046FFF763F84FF6FF7106462046FFF7FB
:1041B0005FF82046FFF75AF807467100204689B29B
:1041C000FFF756F82046FFF751F804462A46013516
:1041D000334641460220CDE90074FFF767FF102DFA
:1041E000DDD1002447490220FFF760FF4649022045
:1041F000CDE90444CDE90644FFF758FF0DF10E0167
:104200000120FFF7EBFBBDF80E30074601223F49C6
:104210000220FFF74BFFBDF80E306BB1BD1E3C4EC8
:10422000224635F8023F31460220FFF73FFF0134B6
:10423000BDF80E30A342F3D83A887B8801320133AF
:10424000ADF81020ADF81230FFF792FB0DF10E0122
:104250000120FFF7C3FBBDF80E30012205462D49B2
:104260000220FFF723FFBDF80E3073B1023D00249A
:10427000274E224635F8023F31460220FFF716FF4F
:104280000134BDF80E30A342F3D804AA0120022164
:10429000FFF7EEFB0DF10E010120FFF79FFBBDF8CC
:1042A0000E30054601221C490220FFF7FFFEBDF833
:1042B0000E3073B1023D0024154E224635F8023F00
:1042C00031460220FFF7F2FE0134BDF80E30A34262
:1042D000F3D8124E0024124D02201249FFF7E6FED9
:1042E0002246314602200134FFF7E0FE20236420FD
:1042F000C5F88C30FFF78EFDF2E700BF7048106004
:1043000094481060BC481060D4481060E8481060C1
:104310000C491060204910604449106088491060C1
:1043200000801B4068491060A4481060042071465A
:10433000084202D0EFF3098001E0EFF308808169C1
:104340000A884BF6AB639A4200D0FEE702318161E6
:1043500020210160704700BF002910DD00F01F021E
:104360000A44BFF34F8F06490244C1F85C02203073
:10437000131A002BF9DCBFF34F8FBFF36F8F704719
:1043800000ED00E010B4C0000A4CBF2301F03F0173
:10439000D4F800218340814022EA0302802303FAFB
:1043A00000F011431043C4F80001C4F800115DF897
:1043B000044B704700800D40044A0548516808B519
:1043C000044B1B689847BFF34F8F08BD640400205F
:1043D0000040184088040020044A0548916808B548
:1043E000044B1B689847BFF34F8F08BD640400203F
:1043F0000080184088040020044A0548D16808B5A8
:10440000044B1B689847BFF34F8F08BD640400201E
:1044100000C0184088040020044A0548116908B506
:10442000044B1B689847BFF34F8F08BD64040020FE
:104430000000194088040020044A0548516908B565
:10444000044B1B689847BFF34F8F08BD64040020DE
:104450000040194088040020044A0548916908B5C5
:10446000044B1B689847BFF34F8F08BD64040020BE
:104470000080194088040020044A0548D16908B525
:10448000044B1B689847BFF34F8F08BD640400209E
:1044900000C0194088040020044A0548116A08B584
:1044A000044B1B689847BFF34F8F08BD640400207E
:1044B00000001A4088040020704700BF10B51D4C52
:1044C0004FF0E0221C48D4F888301C4943F47003B4
:1044D000C4F88830038923F001031B041B0C0381FB
:1044E0000B8923F001031B041B0C0B811369D907F3
:1044F00003D5136923F0010313610E4B5A6992032C
:1045000015D45A6912F4003211D1BFF34F8FBFF3A3
:104510006F8FC3F85022BFF34F8FBFF36F8F5A696D
:1045200042F400325A61BFF34F8FBFF36F8FFFF732
:10453000C3FF10BD00ED00E000800B4000000D4007
:1045400070B50D4E0D4D761BB61006D0002455F8F3
:10455000043B01349847A642F9D1094E094D761B18
:1045600000F0E8FAB61006D0002455F8043B0134F8
:104570009847A642F9D170BD704B1060704B106027
:10458000784B1060704B1060032A70B515D940EA63
:10459000010C1CF0030F04460B4621D1194620469E
:1045A0000E680568B54204F1040403F1040317D151
:1045B000043A032A20461946F0D8541EA2B100F14D
:1045C000FF3C013901E0C3180CD01CF801EF11F8D1
:1045D000012F9645A4EB0C03F5D0AEEB020070BDA5
:1045E000541EECE7184670BD104670BD830730B509
:1045F00048D0541E002A3FD0CAB2034601E0013C15
:104600003AD303F8012B9D07F9D1032C2DD9CDB254
:1046100045EA05250F2C45EA054536D9A4F11002D7
:1046200022F00F0C03F1200EE6444FEA121C03F1B6
:10463000100242E9045542E9025510327245F8D1A0
:104640000CF1010214F00C0F03EB021204F00F0C3A
:1046500013D0ACF1040323F003030433134442F8F2
:10466000045B9342FBD10CF003042CB1CAB21C448E
:1046700003F8012B9C42FBD130BD64461346002C4D
:10468000F4D1F9E703461446BFE71A46A446E0E72B
:10469000024B13B1024800F005B87047000000005B
:1046A000B1461060002301461A46184600F01AB8B9
:1046B00038B5084B084D5B1B9C1007D0043B1D44CC
:1046C000013C55F804399847002CF9D1BDE8384031
:1046D00000F036BA7C4B1060784B1060704700BF1A
:1046E000704700BF2DE9F047DFF880A00646DAF8F2
:1046F000000098460F469146FFF7F0FF1A4B1B68E3
:10470000D3F8484124B365681F2D26DC5EB96B1CC5
:104710000235DAF80000636044F82570FFF7E0FF27
:104720000020BDE8F08704EB85010123C1F88890E3
:10473000D4F88821AB401A43022EC4F88821C1F86E
:104740000881E4D1D4F88C211343C4F88C31DEE71E
:1047500003F5A674C3F84841D5E7DAF80000FFF77F
:10476000BFFF4FF0FF30DCE7304B10606C0F0000F4
:10477000415353455254204552524F522022202536
:104780007320223A2066696C652022257322204C12
:10479000696E6520222564222066756E6374696FD8
:1047A0006E206E616D652022257322200A000000B4
:1047B000696E646578203C3D2036554C0000000051
:1047C0002F686F6D652F61736D69722F4465736B10
:1047D000746F702F44726F70626F782F4D43552F36
:1047E0006E78702F5254313032312F70726F6A658B
:1047F0006374732F616C656E636F6E2D7379737460
:10480000656D732F6D63752D657870726573736F49
:104810002F656570726F6D2D6E766D2D7465737476
:104820002F647269766572732F66736C5F636C6F49
:10483000636B2E68000000000000000018050000F7
:104840001C0000000C000000180100000203000022
:10485000060300001A0500000E060000434C4F43FB
:104860004B5F436F6E74726F6C476174650000003C
:104870000D0A4D61696E20417070204D494D5852AE
:1048800054313032312048616C20546573740D0A04
:1048900000000000454550524F4D20746573740D63
:1048A0000A000000414444523A202564202D2D2066
:1048B00025642025642025640A0D000045455052DA
:1048C0004F4D207465737420636F6D706C657465F3
:1048D000640A0D004E564D204F424A454354732002
:1048E000746573740A0D00004E564D206265666F44
:1048F0007265206572617365204F424A3A202564D3
:104900002073697A653A2025640A0D0041444452B7
:104910003A202564202D2D2025640A0D000000007A
:104920004E564D2061667465722065726173652014
:104930004F424A3A2025642073697A653A202564FB
:104940000A0D00004E564D20616674657220736535
:1049500074204F424A3A2025642073697A653A20D0
:1049600025640A0D000000004E564D204F424A4576
:10497000435473207465737420636F6D706C657439
:1049800065640A0D0000000055415254323A20255A
:10499000640D0A00EB04180A063204260000000029
:1049A000000000008104042400000000000000005A
:1049B00000000000060400000000000000000000ED
:1049C00000000000D70418080000000000000000EC
:1049D000000000003204180804220000000000005B
:1049E00000000000C70400000000000000000000FC
:1049F000000000000204180804200000000000006D
:104A00000000000003041808042400000000000057
:104A1000000000009F0404240000000000000000CB
:104A2000000000000104042000000000000000005D
:104A3000000000003504000000000000000000003D
:104A400000000000F506000000000000000000006B
:104A50000000000005040424000000000000000025
:104A6000000000000B0418080830042400000000B7
:104A70000000000000000000000000000000000036
:104A80000000000073726320213D204E554C4C0005
:104A900066736C5F666C65787370692E63000000E6
:104AA000696E7374616E6365203C204152524159B6
:104AB0005F53495A4528735F666C65787370694225
:104AC000617365732900000066616C736500000006
:104AD000696E646578203C2036345500464C455854
:104AE0005350495F5570646174654C555400000023
:104AF000464C45585350495F4D656D7365740000D1
:104B0000464C45585350495F436865636B416E643A
:104B1000436C6561724572726F720000464C455875
:104B20005350495F476574496E7374616E636500E5
:104B3000180B0000F8B500BFF8BC08BC9E467047D3
:104B4000F8B500BFF8BC08BC9E46704700000000E6
:104B50005FF800F0FD0200005FF800F0690200005D
:104B60005FF800F0590100005FF800F0E501000077
:084B7000914610600125106060
:044B7800DD241060C8
:104B7C002B494B6930B5DC0385B039D50023C1F81E
:104B8C008430BFF34F8F4B6923F480334B61BFF3F9
:104B9C004F8F02AC03AA01ABC1F87042C1F870226E
:104BAC00C1F87032BFF34F8FBFF36F8FD1F88030E5
:104BBC0043F6E074C3F34E3EC3F3C90501934FEAC9
:104BCC004E1E0EEA040C2B464CEA8372013BC1F8D4
:104BDC0074225A1CF8D1AEF1200E1EF1200FF0D128
:104BEC00CDE90233BFF34F8FBFF36F8F01230370F7
:104BFC000B4B5A69920310D5BFF34F8FBFF36F8FD6
:104C0C005A69002122F400325A61C3F85012BFF3E2
:104C1C004F8FBFF36F8F0123437005B030BD00BFC2
:104C2C0000ED00E010B582B0ADF804009DF8043042
:104C3C005BB32448436913F4803326D1C0F8843025
:104C4C00BFF34F8FD0F8803043F6E074C3F34E3C83
:104C5C00C3F3C90E4FEA4C1C0CEA0401734641EA3B
:104C6C008372013BC0F860225A1CF8D1ACF1200CC5
:104C7C001CF1200FF0D1BFF34F8F436943F4803305
:104C8C004361BFF34F8FBFF36F8F9DF80530B3B106
:104C9C000C4A536913F4003311D1BFF34F8FBFF398
:104CAC006F8FC2F85032BFF34F8FBFF36F8F5369C2
:104CBC0043F400335361BFF34F8FBFF36F8F02B0D8
:104CCC0010BD00BF00ED00E070B58CB04023054670
:104CDC0001A80293FFF74CFF00224FF0817308A943
:104CEC002846CDE9082300F031FC044610B12046DB
:104CFC000CB070BD154A02AB012604A9CDE9040223
:104D0C002846CDE9063600F021FC04460028EED1F9
:104D1C000F4B0890099303AB0B960A9302E0039B8D
:104D2C00DA0706D508A9284600F010FC044600282E
:104D3C00F5D02B6843F001032B602B68DB07FCD408
:104D4C000198FFF76FFF20460CB070BD00030901FE
:104D5C0000020C0170B58AB005460E466846FFF796
:104D6C0007FF4FF0817302A92846CDE9026300F0DA
:104D7C00EDFB044610B120460AB070BD144B02A9DD
:104D8C002846CDE9026300F0E1FB04460028F2D18D
:104D9C00104901AA0123CDE90601CDE9082302E05F
:104DAC00019BDA0706D506A9284600F0CFFB04467E
:104DBC000028F5D02B6843F001032B602B68DB0730
:104DCC00FCD40098FFF72EFF20460AB070BD00BF40
:104DDC000000030100020C012DE9F0418AB00546E8
:104DEC000E46904668461F46FFF7C2FE4FF0817391
:104DFC00284606A9CDE9066300F0A8FB044618B1C5
:104E0C0020460AB0BDE8F081164B02A9284602964E
:104E1C00CDF810800393059700F098FB044600280A
:104E2C00EED1114B01AACDE906030123CDE90823EC
:104E3C0002E0019BDA0706D506A9284600F086FB9E
:104E4C0004460028F5D02B6843F001032B602B6837
:104E5C00DB07FCD40098FFF7E5FE20460AB0BDE85E
:104E6C00F08100BF0003040100020C0110B5CAB0B0
:104E7C000446F02200210EA800F0FAFB6846FFF76A
:104E8C0077FEF0221E490EA800F0FAFB1821022032
:104E9C0000F0EAFB1B4A01A8D36923F0C04343F09E
:104EAC008043D361D36923F0607343F08073D36183
:104EBC0000F03EF9012301A920468DF833308DF81E
:104ECC0036308DF8043040F20113ADF8343000F078
:104EDC006BF800220C49204600F0D4F93C230EAAB2
:104EEC000021204600F05EFA236843F001032360A2
:104EFC002368DB07FCD40098FFF794FE4AB010BD82
:104F0C009449106000C00F404C0F000008B5034AD4
:104F1C007821034B034800F0AFFB00BFF04A106050
:104F2C00844A1060904A106008B5034A8F21034BE5
:104F3C00034800F0A1FB00BF1C4B1060A04A10609E
:104F4C00904A106008B540F60A030B4014D0024694
:104F5C00080513D541F6593051690B435361D2F80A
:104F6C00BC3043F00103C2F8BC30D2F8B83043F087
:104F7C000103C2F8B83008BD184608BD080704D4B0
:104F8C00890705D541F65B30E6E741F65A30E3E791
:104F9C00024BE921024A034800F06EFBC84A10603C
:104FAC00004B1060904A10605D4B98422DE9F04127
:104FBC0001D0FFF7B9FF5B4A02F1800353E8003FD1
:104FCC0043F4406302F1800444E800300028F3D13C
:104FDC00534C236823F002032360236843F001033E
:104FEC002360226812F00102FBD18B7A0878CD780D
:104FFC001B04000143EA053300F030000343087C36
:10500C0043EA0063487843EA8033087943EAC023D3
:10501C00887843EA4033887B43EAC013C87B43EA71
:10502C008013088943F0020323604B8A43EA004350
:10503C0048796360C0040B7DA56840EA03603A4B75
:10504C002B4091F82F5018438B7940EAC33091F8DC
:10505C002E3040EAC32091F83030A0605B01E0684C
:10506C0043EA8513314D20F07800034391F8310069
:10507C0043EA001391F8320043EAC0030846E360A8
:10508C00274C04EB820E90F81680877E0132DEF8F6
:10509C0020304FEA0868C67D042A03EA050308F0AD
:1050AC0040784FEA0646B0F818C043EAC77300F1DF
:1050BC00060006F47026CCF3C70C43EA080343EA57
:1050CC0006034CEA0303CEF82030DAD1D4F8B8301A
:1050DC00002223F03C03C4F8B8300B7BD4F8B800A2
:1050EC00DB08013B9B0003F03C030343C4F8B830DE
:1050FC00D4F8BC3023F03C03C4F8BC30CB7AD4F8E1
:10510C00BC10DB08013B9B0003F03C030B43C4F8D1
:10511C00BC3022666266A266E266BDE8F08100BF22
:10512C0000802A4000C00F40FF77F70000FFF07CA2
:10513C0008B5002841D000F134010346002203F8E1
:10514C00012B8B42FBD140F6FF034FF480714FF6DD
:10515C00FF7C4FF0200E438108230280418000F138
:10516C002E0182808271C2810022037300F116032A
:10517C00A0F808C080F810C0A0F812C080F814E0A5
:10518C0003F8012B8B42FBD101234FF00F0C4FF492
:10519C0080710283837680F817C080F8203080F805
:1051AC001DC0C28380F82630818480F82C30418564
:1051BC00C285028680F8322008BDFFF7A7FE00BF2B
:1051CC005208D0F8E0309B07FBD5D0F8E030DB0775
:1051DC00F7D50368C3F3011CBCF1030F09D04FF4DE
:1051EC008073303240F82230036823F002030360EE
:1051FC0070470B7910B41BBB204B0C689C4222D817
:10520C0091F812C04FF47A711D4B01FB0CFCA3FBFF
:10521C000C13DB0803EB8301C1EB01118C4588BF38
:10522C0001335B0203F4FC4343F4807330325DF8CA
:10523C00044B40F82230036823F0020303607047EC
:10524C004FF48073F2E702F130037921002A40F821
:10525C002310036818BF4FF4403C23F00203036093
:10526C00D0F8E8303CEA0303FAD1642300BF013BD9
:10527C0013F0FF03FAD15DF8044B7047FFE0F5051E
:10528C00B5814E1BF8B50C465508D0F8E0309E079A
:10529C00FBD5D0F8E030D907F7D5A36800EB820135
:1052AC00E6890B66637C277D03F01F0343EA064304
:1052BC00267BF60343EA8723678BB6B23343267CFF
:1052CC00760106F478763343E67CF60206F4F04673
:1052DC003343324E0B6706EA0746637ED1F8807083
:1052EC001B0703F0E04333432D4E3E403343A67D72
:1052FC005EB1013E94F815C076034FEA0C2CB6B2A1
:10530C000CF4706C4CEA06063343267E3EB1013E2B
:10531C00E77D760107F00F07F6B23E433343C1F841
:10532C0080302146FFF74CFF0368227F43F00203D5
:10533C000360D0F89430EAB123F00103C0F8943044
:10534C00D0F89430F5B923F00403C0F89430D0F8B9
:10535C00943043EA8202C0F89420036823F00203DD
:10536C000360D0F8E0309A07FBD5D0F8E030DB07CB
:10537C00F7D5F8BD43F00103C0F89430D0F8943061
:10538C00002DE0D023F00803C0F89430D0F894300E
:10539C0043EAC202C0F89420DFE700BF0000FF0F11
:1053AC00101000803F2910B520D8D0F8E040A40799
:1053BC00FBD5D0F8E040E407F7D5104C8031846180
:1053CC00022400EB810CC4615BB14FF0000E0EF1B6
:1053DC00010E52F8044B0CF1040C73454CF8044CC0
:1053EC00F5D1064A01238261C36110BD044B40F222
:1053FC003F21044A044800F03FF900BFF05AF05A2C
:10540C00D04A1060DC4A1060904A10602DE9F843D5
:10541C00D0F8BC30C3F38308002A3AD008F1010855
:10542C0004460D4616464FEAC8095FEA480814BF01
:10543C004F46042761694B06FCD52046FFF782FDD9
:10544C0098B9B14513D9F11C024621F00301294446
:10545C0055F8046B02F160030132A94244F8236051
:10546C00F6D1636943F040036361BDE8F8832B46D2
:10547C0000F16002013053F8041B404544F822103F
:10548C00F6D36369B6EB09063D4443F04003636110
:10549C00D0D10020E9E700BF2DE9F043D0F8B87077
:1054AC0083B0C7F38307019052B3013704460E460D
:1054BC0015464FEAC7087F0014BFC1464FF00409D8
:1054CC00A84503D925E0FFF73DFDD0B96169204619
:1054DC008B06F8D56169FFF735FD90B9334600F1BD
:1054EC004002013054F82220874243F8042BF6D8AE
:1054FC006369B5EB08054E4443F020036361DFD1CB
:10550C00002003B0BDE8F0836169FFF71BFD0028A4
:10551C00F7D1D4F8F0302046DBB2B5EBC30FF3D89B
:10552C006169FFF70FFD0028EBD103350346AD0889
:10553C0003F14001013354F82110AB4246F8041B2F
:10554C00F6D1636943F020036361DAE730B50B7978
:10555C000D4683B0044600EB8303D3F8802042F061
:10556C000042C3F8802043690A6843F01E0343617C
:10557C00C0F8A020D0F8BC3043F00103C0F8BC3018
:10558C00D0F8B83043F00103C0F8B83049794B1E5D
:10559C00022B22D895F806C0EB79EA684FEA0C4C3E
:1055AC00013B0CF4702C1FFA82FE1B064CEA0E0C0D
:1055BC0003F0E06343EA0C03C0F8A430D0F8B03039
:1055CC0043F00103C0F8B03001F0FD03012B2FD1E3
:1055DC00A968FFF71BFF697912E0EB790020AA7923
:1055EC00013B12041B0602F4702203F0E063134328
:1055FC00C4F8A430D4F8B03043F00103C4F8B03090
:10560C0000230193D4F8E0309A0706D5D4F8E030A3
:10561C00DB0702D529B103B030BD019B01330193E7
:10562C00F0E76169204603B0BDE83040FFF78ABC63
:10563C00022904D1A968FFF72FFF6979E0E7002060
:10564C00DEE700BF044A0548116808B5044B1B6827
:10565C009847BFF34F8F08BD5C04002000802A40A0
:10566C0060040020000000005FF800F0854310602B
:10567C005FF800F0ED4510605FF800F0A1281060B5
:10568C005FF800F06D27106000000000040E0000B1
:10569C006C0E0000D40E00000000000000000000A2
:1056AC0000000000000000000000000000000000EE
:1056BC0000000000000000000000000000000000DE
:1056CC0000000000000000000000000000000000CE
:1056DC0000000000000000000000000000000000BE
:1056EC0000000000000000000000000000000000AE
:1056FC00000000000000000000000000000000009E
:10570C00000000000000000000000000000000008D
:10571C00000000000000000000000000000000007D
:10572C00000000000000000000000000000000006D
:10573C0001000000000000000E33CDAB34126DE60A
:10574C00ECDE05000B000000000000000000000073
:10575C00000000000000000000000000000000003D
:10576C00000000000000000000000000000000002D
:10577C00000000000000000000000000000000001D
:10578C00000000000000000000000000000000000D
:105ABC00FFFFFFFF0000016000100160406BED076D
:105ACC0000000000002000000000020003030000A2
:105ADC000000000001000000000000008C04002009
:045AEC0001000000B5
:040000056010252939
:00000001FF
