:0200000460009A
:10000000464346420004015600000000010303007D
:1000100000000000000000000000000000000000E0
:1000200000000000000000000000000000000000D0
:1000300000000000000000000000000000000000C0
:1000400000000000000406000000000000000000A6
:100050000000800000000000000000000000000020
:100060000000000000000000000000000000000090
:100070000000000000000000000000000000000080
:10008000EB04180A063204260000000000000000FD
:100090000000000000000000000000000000000060
:1000A0000000000000000000000000000000000050
:1000B0000000000000000000000000000000000040
:1000C0000000000000000000000000000000000030
:1000D0000000000000000000000000000000000020
:1000E0000000000000000000000000000000000010
:1000F0000000000000000000000000000000000000
:1001000000000000000000000000000000000000EF
:1001100000000000000000000000000000000000DF
:1001200000000000000000000000000000000000CF
:1001300000000000000000000000000000000000BF
:1001400000000000000000000000000000000000AF
:10015000000000000000000000000000000000009F
:10016000000000000000000000000000000000008F
:10017000000000000000000000000000000000007F
:10018000000000000000000000000000000000006F
:10019000000000000000000000000000000000005F
:1001A000000000000000000000000000000000004F
:1001B000000000000000000000000000000000003F
:1001C000000100000010000000000000000000001E
:1001D000000001000000000000000000000000001E
:1001E000000000000000000000000000000000000F
:1001F00000000000000000000000000000000000FF
:10100000D10020410020006000000000000000002E
:1010100020100060001000600000000000000000D0
:10102000000000600000800000000000FFFFFFFFE4
:102000000000012041240060792E0060892E0060CC
:10201000B92F0060C92F0060D92F006000000000B8
:10202000000000000000000000000000D12400605B
:10203000C524006000000000D5240060F13F00606E
:10204000DD240060E1240060E5240060E9240060F4
:10205000ED240060F1240060F5240060F9240060A4
:10206000FD24006001250060052500600925006051
:102070000D25006011250060152500601925006000
:102080001D250060C5240060C5240060C5240060D3
:1020900021250060C5420060292500602D250060D3
:1020A0003125006035250060392500603D25006040
:1020B0004125006045250060492500604D250060F0
:1020C0005125006055250060592500605D250060A0
:1020D0006125006065250060C5240060C52400609E
:1020E000C5240060C5240060C5240060C5240060CC
:1020F000C5240060C5240060C5240060C5240060BC
:10210000C5240060C5240060C5240060C5240060AB
:10211000C5240060C5240060C5240060C52400609B
:10212000692500606D2500607125006075250060DF
:1021300079250060C5240060C5240060C5240060C6
:10214000C5240060C5240060C5240060C52400606B
:10215000C5240060C5240060C5240060C52400605B
:10216000C5240060C5240060C5240060C52400604B
:10217000C5240060C5240060C5240060C52400603B
:10218000C5240060C5240060C5240060C52400602B
:10219000C5240060C5240060C5240060C52400601B
:1021A000C5240060C52400607D250060C524006052
:1021B000C5240060C5240060C5240060C5240060FB
:1021C000C5240060C5240060C5240060C5240060EB
:1021D000C5240060C5240060C5240060C5240060DB
:1021E000C5240060C5240060C5240060C5240060CB
:1021F00081250060C5240060852500608925006078
:10220000C5240060C52400608D2500609125006014
:10221000C5240060C5240060C5240060C52400609A
:10222000C5240060C5240060C5240060C52400608A
:10223000C5240060C5240060C5240060C52400607A
:10224000C5240060C5240060C5240060C52400606A
:10225000C5240060C5240060C5240060C52400605A
:10226000C5240060C5240060C5240060C52400604A
:10227000C5240060C5240060C5240060C52400603A
:10228000C5240060C5240060C5240060C52400602A
:10229000C5240060C5240060C5240060C52400601A
:1022A000C5240060C5240060C5240060C52400600A
:1022B000C5240060C5240060C5240060C5240060FA
:1022C000C5240060C5240060C5240060C5240060EA
:1022D000C5240060C5240060C5240060C5240060DA
:1022E000C5240060C5240060C5240060C5240060CA
:1022F000C5240060C5240060C5240060C5240060BA
:10230000C5240060C5240060C5240060C5240060A9
:10231000C5240060C5240060C5240060C524006099
:10232000C5240060C5240060C5240060C524006089
:10233000C5240060C5240060C5240060C524006079
:10234000C5240060C5240060C5240060C524006069
:10235000C5240060C5240060C5240060C524006059
:10236000C5240060C5240060C5240060C524006049
:10237000C5240060C5240060C5240060C524006039
:10238000C5240060C5240060C5240060C524006029
:10239000C5240060C5240060C5240060C524006019
:1023A000C5240060C5240060C5240060C524006009
:1023B000C5240060C5240060C5240060C5240060F9
:1023C000C5240060C5240060C5240060C5240060E9
:1023D000C5240060C5240060C5240060C5240060D9
:1023E000C5240060C5240060C5240060C5240060C9
:1023F000C5240060C5240060C5240060FFFFFFFF06
:1024000010B5054C237833B9044B13B10448AFF32E
:1024100000800123237010BD4C0800200000000044
:102420006C5A006008B5034B1BB103490348AFF376
:10243000008008BD00000000500800206C5A0060B9
:1024400072B61548154901600A6882F30888144875
:1024500080471449144A154B9B1A03DD043BC858A6
:10246000D050FBDC9B1A03DD043BC858D050FBDC8A
:102470000F4B00209A42BCBF42F8040BFAE70D490B
:102480000D4A00209142BCBF41F8040BFAE762B646
:102490000A4880470A48004708ED00E00020006035
:1024A000253F0060905A0060000000204C0800208A
:1024B0004C0800204C080020140D0020B54C006092
:1024C00091260060FFF7FEBF3248004732480047C0
:1024D00032480047324800473248004732480047F8
:1024E00032480047324800473248004732480047E8
:1024F00032480047324800473248004732480047D8
:1025000032480047324800473248004732480047C7
:1025100032480047324800473248004732480047B7
:1025200032480047324800473248004732480047A7
:102530003248004732480047324800473248004797
:102540003248004732480047324800473248004787
:102550003248004732480047324800473248004777
:102560003248004732480047324800473248004767
:102570003248004732480047324800473248004757
:102580003248004732480047324800473248004747
:1025900032480047792E0060892E0060D124006007
:1025A000D5240060F13F0060C5240060C5240060B0
:1025B000C5240060C5240060C5240060C5240060F7
:1025C000C5240060C5240060C5240060C5240060E7
:1025D000C5240060C5240060C5240060C5240060D7
:1025E000C5240060C5240060C5240060C5240060C7
:1025F000C5240060C5240060C5240060C5240060B7
:10260000C5240060C5240060C5240060C5240060A6
:10261000C5240060C5240060C5240060C524006096
:10262000C5240060C5240060C5240060C524006086
:10263000C5240060C5240060C5240060C524006076
:10264000C5240060C5240060C5240060C524006066
:10265000C5240060C5240060C5240060C524006056
:1026600010B5074C4FF48040064A2346064900F057
:1026700065FA064B1B68226882F308889847FEE7D4
:1026800000201060C8560060E8560060042010600A
:102690002DE9F04784B0052400F086F8374B38491F
:1026A0000822C3F8D0400020C3F844224B6843F00E
:1026B00020034B608DF80B009DF80B30032B17D8CF
:1026C000304A20240390039B934205D8039B013397
:1026D0000393039B9342F9D9C1F88C409DF80B30CA
:1026E0000133DBB28DF80B309DF80B30032BE9D9A9
:1026F00000F098F9244A3421244800F0C1F900265A
:1027000001F07EFC022001F0BDFE21490220DFF82D
:1027100090A001F005FF1F4B1F4A30461B681F4960
:1027200000F00CFADFF8749000F090F9DFF8748094
:1027300005466421284600F08FF901280446F8D1A7
:10274000771C00F083F9054601F07EFC33460090CB
:10275000524649460020264600F0F0F93A464146E6
:10276000022001F0DDFE064B2022022FC3F88C2050
:10277000DFD1C3F88C20FFF773FF00BF00801F403C
:1027800000801B407FF0FA025856006070560060CF
:10279000785600607C08002090560060E856006083
:1027A000A4560060BC560060F0B5002283B0864B92
:1027B00001925969854E89030DD5BFF34F8FBFF341
:1027C0006F8F596921F400315961C3F85022BFF36A
:1027D0004F8FBFF36F8F7C484369DA032AD50023FC
:1027E000C0F88430BFF34F8F436923F480334361D3
:1027F000BFF34F8FD0F8805043F6E07EC5F3C90792
:10280000C5F34E354FEA877C6D0105EA0E0461463B
:102810003A4644EA0103013A01F14041C0F87432FA
:10282000531CF6D1203D15F1200FEED1BFF34F8F91
:10283000BFF36F8FBFF35F8F63491027644B14247E
:102840004A6A1520634D22F480324A625A6862490E
:1028500022F001025A60DF60604A1D61604DD9605C
:102860001A616049DD601A615F4AD9601A6102F13C
:102870007D425E490E3A5E4DDC6019615D4CD86068
:102880005D491A615D48DD601A611232DC601861D1
:10289000D9601A61019B26FA03F3012B07D9019B2A
:1028A00001330193019B26FA03F3012BF7D8019B17
:1028B000E3B1534BB3FBF6F206FB1232002A70D1A0
:1028C000019901228A40B24277D1019A042A6ED935
:1028D00023F01F033E494B4A43F01903CB60019B91
:1028E000013B5B0003F03E031A430A61384B0522AB
:1028F0003548454C4549DC6019615A60436A43F4E8
:1029000080334362BFF34F8FBFF36F8F436913F47C
:10291000803328D1C0F88430BFF34F8FD0F8805077
:1029200043F6E07CC5F3C906C5F34E35B7079540BD
:1029300005EA0C043946324644EA0103013A01F142
:102940004041C0F86032531CF6D1203D15F1200FF4
:10295000EED1BFF34F8F436943F480334361BFF33C
:102960004F8FBFF36F8F184A536913F4003311D19F
:10297000BFF34F8FBFF36F8FC2F85032BFF34F8F4B
:10298000BFF36F8F536943F400335361BFF34F8F2D
:10299000BFF36F8F00F070FF03B0BDE8F04001F0AF
:1029A000BDBA1B4B75211B4A1B4801F0FFFA1B4B9C
:1029B0007721184A184801F0F9FA194B7621154A7F
:1029C000154801F0F3FA00BF00ED00E00000000040
:1029D00090ED00E03F00001011000080390010036E
:1029E00012000060130000602D0003063B0010037E
:1029F000160000201700202018000080210003038B
:102A000000002020010008031A0000402B001003E2
:102A1000F8560060EC5600601057006038570060B0
:102A20001C570060084B4FF400421A60BFF35F8FE1
:102A30001A681204FCD44BF2CF7140F24172596013
:102A400019680A431A60704700001F40014B586A1A
:102A5000704700BF00001F40084B5B6A984205D8D2
:102A6000181A884234BF002001207047C043184420
:102A7000884234BF00200120704700BF00001F4083
:102A8000F8B5224C1746013800232646217001E094
:102A9000102B39D010F8015F1946013304F8015F9B
:102AA0000578002DF4D1314400234FF4E1304B7010
:102AB00000F092FC164800F0EDFC164800F0EAFC2D
:102AC000154800F0E7FC3946144800F0E3FC144BCD
:102AD00014481C68C4F30362210F00F0DBFCC4F34C
:102AE0000722E3B2C4F307410F4800F0D3FC0F4BB9
:102AF0000F48196800F0CEFC0E4800F0CBFC0E48E1
:102B0000BDE8F84000F0C6BC0F21CCE76808002003
:102B100070580060B8580060EC5800603059006090
:102B200044570060385900604859006040570060C1
:102B30005C590060805700606C5900600CB410F460
:102B400080532DE9F0478CB007460E46149D00F0E7
:102B5000BC8015AB2878019330B32E460023DFF8F4
:102B600014835C1C252805EB040913D12A5DDAB116
:102B7000623A162A00F29580DFE802F07A736193D8
:102B80003F939393939393939393939393369393C6
:102B90009393230000F04AFC33780A2B0CD04E4666
:102BA000307823460028DCD117F4404F7CD10CB09C
:102BB000BDE8F04702B070470D204E4600F036FCED
:102BC000EEE7EA1801999278081D0968622A0190D7
:102BD00000F00681682A00F03581772A00F03F81F5
:102BE0004FF40060009154E0019B1A1D1868019297
:102BF00000F02AFC01342E19D2E7019B0020073394
:102C000023F00703D3E9009A083308EACA02B9F1AE
:102C1000000F01930AF0804142EA59727AF10003F1
:102C2000B8BF42F0004250EA0103009200F0BD80BC
:102C3000009B4FF4807043F08043009329E0EA1832
:102C400001999278081D0968622A019000F0C480F9
:102C5000682A00F0FC80772A00F00681202000918D
:102C600017E0019B1A1D1878019200F0DFFBC1E705
:102C7000EA1801999278081D0968622A019000F00B
:102C8000A780682A00F0DA80772A00F0E480042028
:102C9000009102AA694600F0DFF902A800F0D4FB17
:102CA000A8E700230093A5E71B2000F0BFFB5B20F3
:102CB00000F0BCFB302000F0B9FB6D2000F0B6FB4B
:102CC0000CB0BDE8F04702B070478DF80830FFF750
:102CD000BDFE01A902AA0190202000F0BDF91B2031
:102CE00000F0A4FB5B2000F0A1FB332000F09EFB72
:102CF000322000F09BFB6D2000F098FB5B2000F081
:102D000095FB9DF8080030B102AC00F08FFB14F881
:102D1000010F0028F9D1564C5D2000F087FB637845
:102D2000002B62D11B2000F081FB5B2000F07EFBBA
:102D3000332000F07BFB352000F078FB6D2000F0A5
:102D400075FB7E2000F072FB307828B100F06EFB3E
:102D500016F8010F0028F9D13A2000F067FB202077
:102D600000F064FB1B2000F061FB5B2000F05EFBC9
:102D7000302000F05BFB6D2000F058FB39044DD48F
:102D8000BA0415D47B047FF5E4AE1B2000F04EFBA3
:102D90005B2000F04BFB332000F048FB332000F0B9
:102DA00045FB6D2000F042FBD3E64FF4807070E7E6
:102DB0001B2000F03BFB5B2000F038FB332000F0D1
:102DC00035FB362000F032FB6D2000F02FFBC0E613
:102DD0009C1C009101205CE79C1C0091082058E796
:102DE0009C1C00914FF4007053E71B2004F1110864
:102DF00000F01CFB5B2000F019FB332000F016FBF9
:102E000014F8010B00F012FB6D2000F00FFB14F81A
:102E1000010B00F00BFBA045F9D183E71B2000F06C
:102E200005FB5B2000F002FB332000F0FFFA3120AD
:102E300000F0FCFA6D2000F0F9FA8AE69C1C009183
:102E4000022026E79C1C00914FF4806021E79C1C27
:102E5000009110201DE79C1C0091042019E79C1C88
:102E600000914FF4006014E79C1C0091202010E7B3
:102E700068080020F8FFFF3F08B5024800F00AFB91
:102E8000FEE700BF3C5800601EF0040F0CBFEFF3DC
:102E90000880EFF309808169004A1047A52E006081
:102EA000704700BF03462F4830B51A6889B059688B
:102EB00000929A6801910292D9681A6903912A4C8A
:102EC0000492596904F11005D3E90623059106928D
:102ED000079300F0DFFA03E000F0A8FAAC4204D058
:102EE00014F8013F1846002BF6D1204800F0D2FA22
:102EF00000991F4800F0CEFA01991E4800F0CAFA66
:102F000002991D4800F0C6FA03991C4800F0C2FA65
:102F100004991B4800F0BEFA05991A4800F0BAFA65
:102F20000699194800F0B6FA0799184800F0B2FA65
:102F3000174B1848196800F0ADFA174B1748196875
:102F400000F0A8FA164B1748196800F0A3FA164BC0
:102F50001648196800F09EFA154B1648196800F0DB
:102F600099FAFEE764570060680800206C5700601B
:102F700084570060905700609C570060A85700601D
:102F8000B4570060C0570060CC570060D85700604D
:102F900038ED00E0E457006028ED00E0F0570060F5
:102FA0002CED00E0FC57006030ED00E008580060B8
:102FB0003CED00E01458006008B5024800F06AFAE1
:102FC000FEE700BF2058006008B5024800F062FA32
:102FD000FEE700BF4857006008B5024800F05AFA03
:102FE000FEE700BF5458006070B4002400F10A06E8
:102FF00016F8013DE5B2302B21D00E886C1C93559C
:10300000E4B20B880A2C03F101039BB20B8012D0AF
:10301000C5F10805061BC4F10904EDB20444751B93
:10302000083514F80109D054A5420B8803F10103B7
:103030009BB20B80F5D1002170BCD1547047092C94
:1030400004F10104D4D1088813540B8801339BB2D6
:103050000B80F0E7000000002DE9F04F002387B05F
:10306000102817461370ADF80A3000F0628126D997
:10307000B0F5007F59D040F28D80B0F5806F6FD0F1
:10308000B0F5006F18D1104602F108040B681B0F51
:103090000130DAB2092B02F1300302F1370294BF9A
:1030A00000F8013C00F8012C84420B684FEA03133E
:1030B0000B60ECD100233B7207B0BDE8F08F022813
:1030C00000F01C811BD9042840F0308102F120005F
:1030D0000B6830243125002B02F10102B4BF02F845
:1030E000015C02F8014C90420B684FEA43030B600D
:1030F000F1D1002387F8203007B0BDE8F08F012818
:10310000DAD102F108000B68302531241E0602F1E5
:1031100001024CBF02F8014C02F8015C90420B68BE
:103120004FEA43030B60F1D1C4E70B68C3F3031309
:10313000092B8CBF3733303313700B681A0103F03F
:103140000F03092B0A604FF0000294BF303337336E
:103150007B700B681B010B60BA7007B0BDE8F08F85
:10316000141D0B68C3F303330132092B03F1300044
:1031700003F1370394BF02F8010C02F8013CA242AC
:103180000B684FEA03130B60ECD100233B7107B0CF
:10319000BDE8F08F202800F0CC80B0F5807F8BD187
:1031A000D1ED006AF5EEC06AF1EE10FA06D5F1EE47
:1031B000666A2D2201233A70ADF80A30F7EE007AE4
:1031C000F4EEE76AF1EE10FA00F1DB8040F3F380F1
:1031D0000024B2EE046A00E01C4667EE867A631CA7
:1031E0009BB2F4EEE76AF1EE10FAF5DC87EE867A30
:1031F0004FF0200B0DF116080DF10C0972484FF03D
:10320000300C4346714EC6EE877A9FED717AFCEE24
:10321000E76A16EE901AF8EE666A77EEE67A67EEDF
:10322000877AFCEEE77A17EE905A884203F801CDD0
:1032300006D83022091A01328142D2B2FAD21A706B
:10324000A6FB002099454FEAD000EED10DF10A0A05
:103250003A464846019351464646FFF7C5FE5A494D
:103260004FF0300EDFF864C1019BA94206F801ED72
:1032700008D8312000E010466D1A421C8D42D2B2AF
:10328000F9D23070ACFB01219E424FEAD101ECD162
:103290002E233A46514648468DF80F30FFF7A4FEDC
:1032A000BDF80A206521BBF12D0F02F10103B954CD
:1032B0009BB2ADF80A3004D1023207F803B0ADF882
:1032C0000A20414A30204149A24208F8010D07D89E
:1032D0003023A41A01339442DBB2FAD288F80030CA
:1032E000A1FB023246454FEAD202EDD13A465146A1
:1032F0004846FFF779FE07B0BDE8F08F02F11000F5
:103300000B68302531241B0402F101024CBF02F886
:10331000014C02F8015C90420B684FEA43030B60DA
:10332000F1D100233B7407B0BDE8F08F08287FF48B
:10333000C3AE0A68002A07DA2D2201233A700A6810
:10334000ADF80A3052420A600DF10C090DF1160475
:103350001D4930261D4D914204F8016D08D83120D9
:1033600000E01846521A431C8A42DBB2F9D22070A0
:10337000A5FB0131A1454FEAD101ECD10DF10A0ABB
:10338000B4E79FED147A0124F4EEC76AF1EE10FA67
:103390000ED59FED0B5BB7EEC77A0134A4B227EED2
:1033A000057BB7EEC77BF4EEC76AF1EE10FAF2D4F4
:1033B0004FF02D0B1EE74FF6FF749FED067A17E7CF
:1033C0009A9999999999B93F00CA9A3BCDCCCCCC9E
:1033D00000007A44CDCCCC3D104A114B114930B499
:1033E000B2FBF0F00224082540F070600E4AC1F8EC
:1033F000D440C1F84852C1F8D840C1F84C52002519
:103400009C604FF44024996821F002019960DD60CE
:103410009D6218615A619C6130BC7047404B4C0002
:103420000040184000801F4000001F4049F6404304
:10343000044901E0013B04D04A691202FAD5C8618F
:10344000704770470040184070B411490D26441E63
:1034500000F2FF3514F8010F68B149F6404301E06E
:10346000013B04D04A691202FAD5C86120780A28C3
:1034700003D0AC42EED170BC704749F6404301E046
:10348000013BF6D04A691202FAD5CE61F1E700BFDE
:10349000004018400FB42DE9F0498DB014AB53F83B
:1034A000046B3178019361B300243046744D4FF0C2
:1034B0000D082346734F252928D133445A78CAB1C1
:1034C000623A162A00F29C80DFE802F08C7D689A4E
:1034D000479A9A9A9A9A9A9A9A9A9A9A9A0C9A9A2D
:1034E0009A9A3700019B1A1D18680192FFF7ACFFEA
:1034F0000134A4B20134A4B2315D2346301900294D
:10350000D9D10DB0BDE8F04904B0704749F6404349
:1035100001E0013B03D06A691202FAD5E961037840
:103520000A2BE7D149F6404301E0013BE2D06A694A
:103530001202FAD5C5F81C80DCE79A78019B622A52
:1035400053F8041B68D0682A73D0772A00F0908063
:1035500001934FF4006000912DE0019B00200733A0
:1035600023F00703D3E900BC083307EACC02BBF120
:10357000000F01930CF0804142EA5B727CF1000382
:10358000B8BF42F0004250EA010300923BD0009BDA
:103590004FF4807043F0804300930CE09A78019BD5
:1035A000622A53F8041B31D0682A4FD0772A53D0AF
:1035B000202001930091694602AAFFF74DFD02A861
:1035C000FFF742FF94E7019A49F64043101D116846
:1035D000019001E0013B8BD06A691002FAD5C9B2B3
:1035E000E96185E79A78019B622A53F8041B1AD097
:1035F000682A25D0772A35D0019304200091DAE794
:103600000023009374E74FF48070D4E7013408205E
:10361000CDE90013A4B2CEE701344FF40070CDE938
:103620000013A4B2C7E701340120CDE90013A4B20E
:10363000C1E701344FF48060CDE90013A4B2BAE7CA
:1036400001340220CDE90013A4B2B4E70134102004
:10365000CDE90013A4B2AEE701342020CDE9001378
:10366000A4B2A8E701340420CDE90013A4B2A2E774
:1036700001344FF40060CDE90013A4B29BE700BF12
:1036800000401840F8FFFF3F08B5B8B90E4B4FF0A7
:1036900080421946C3F85821D1F87032DA03FBD5BD
:1036A0004FF48033084AC1F85431D2F850311B042A
:1036B000FBD54FF48033C2F8583108BD034BBF210E
:1036C000034A044800F072FC00800D40B0590060CD
:1036D000D8590060C0590060044B102210B1C3F8E3
:1036E00078227047C3F87422704700BF00800D40F5
:1036F000034AD2F8703243F00103C2F870327047C7
:1037000000800D40194B418A1A46C1F30E0170B476
:103710001E6B047B26F4E036154DA40346F4803678
:10372000A4B234431C631C6B2540047845F4005557
:1037300004F001042C43C5891C6341EA0541446837
:1037400024F040441C65846824F040441C66007CDE
:10375000C00380B201431964136B002BFCDA136BB6
:1037600023F4803370BC1363704700BF00800D40AA
:10377000FECFFFFF024B4FF480521A67704700BF25
:1037800000800D4030B4184C0379D4F8E0209B033E
:10379000C17822F4E03205789BB201F0030142F4D3
:1037A00080321343C4F8E0300DB141F40051837806
:1037B0000BB141F4001143780BB141F480010A4888
:1037C0000A4BD0F8E040024623401943C0F8E0100D
:1037D000D2F8E030002BFBDAD2F8E03023F480336B
:1037E00030BCC2F8E030704700800D40FCEFFFFFB6
:1037F00030B40B4AC500BF2301F03F01802003FA1B
:1038000005F4D2F80031A940A84023EA0403194383
:10381000184330BCC2F80001C2F80011704700BF65
:1038200000800D400E4A30B452E8003F43F00C03D4
:1038300042E800310029F7D102220A4B05200A494B
:103840000A4D47F2A004186041F2B0030A6008482C
:103850002A60084A0460C1F87431136030BC7047B4
:1038600078C00F40D0801F40D4801F40D8801F40B8
:1038700044821F404C821F40FFF7D4BFB34B4FF42C
:103880000041B34A002070B51160D3F8C022B1499D
:1038900042F48032B04CC3F8C022D3F8C02222F4E4
:1038A0000032C3F8C0220C60FFF7EEFEFFF720FFE6
:1038B0000120FFF711FFA949A94C0B680A46A94846
:1038C00023F0FF0343F07F030B60236823F440538E
:1038D00043F480532360036843F000730360936CE8
:1038E0009D06FCD4A049CB680A4623F01F0343F091
:1038F0001203CB601368002BFCDA9A49974A0B68D5
:1039000023F4E0530B60936C9C07FCD4974A52E875
:10391000003F23F4403342E800310029F7D1934AB5
:1039200052E8003F23F4407342E800310029F7D108
:103930008F4A52E8003F23F4400342E80031002957
:10394000F7D18B4A52E8003F23F0407342E8003140
:103950000029F7D1834887490368804A43F44073BC
:1039600003600B6823F007030B60936CD803FCD44F
:103970007C497E4A0B6823F060530B6052E8003F9D
:1039800043F4401342E800310029F7D1774A52E866
:10399000003F43F4400342E800310029F7D1764A62
:1039A00052E8003F43F0407342E800310029F7D16C
:1039B000714A52E8003F43F0406342E80031002979
:1039C000F7D16A4A52E8003F23F4405342E80031FD
:1039D0000029F7D169496A4A0B6823F03F0343F095
:1039E00001030B6052E8003F23F00C0342E8003172
:1039F0000029F7D1634861490368614A23F46053A1
:103A000043F4805303600B6823F480330B6052E867
:103A1000003F23F0300342E800310029F7D1594834
:103A200056490368584A23F4E02343F40033036003
:103A30000B6823F400330B6052E8003F23F030039F
:103A400042E800310029F7D14649444A0B6843F463
:103A5000E0230B60936CD907FCD4424B434A1968AE
:103A600021F080011960196821F04001196052E8C5
:103A7000003F43F0030342E800310029F7D13B4AFD
:103A800052E8003F23F00C0342E800310029F7D14F
:103A9000364A52E8003F23F0300342E80031002963
:103AA000F7D1324A52E8003F23F0C00342E8003128
:103AB0000029F7D12A49304A0B6823F0E05343F03C
:103AC00080530B600B6823F0300343F020030B603E
:103AD00052E8003F23F4400342E800310029F7D1C7
:103AE00028481F490368294A43F0C06303600B68F4
:103AF00023F440430B6052E8003F23F4402342E8A4
:103B000000310029F7D122491C480B681F4A23F4D1
:103B1000E07343F0C0030B600B6823F03F0343F0F6
:103B200001030B60036823F44063036052E8003F25
:103B300023F4401342E800310029F7D115490F481A
:103B40000B68124A23F4E07326E000BF00800D40AA
:103B5000800800208408002000366E0100C00F405D
:103B600018C00F4014C00F40000008406CC00F4048
:103B700070C00F4010C00F4068C00F401CC00F4005
:103B800080C00F4024C00F4074C00F407CC00F4065
:103B900028C00F402CC00F4043F0C0030B600B68DF
:103BA00023F03F0343F001030B60036823F4405309
:103BB000036052E8003F23F4400342E8003100294B
:103BC000F7D1B649B6480B68B64A23F0E07343F420
:103BD00040030B600B6823F47C1343F480330B60C9
:103BE000036823F44043036052E8003F23F0C0031E
:103BF00042E800310029F7D1AA4A52E8003F23F4F5
:103C0000407342E800310029F7D1A64A52E8003F4C
:103C100023F4406342E800310029F7D1A24BA34AC4
:103C2000196821F0FC711960196821F4802119606C
:103C300052E8003F23F4404342E800310029F7D125
:103C40009A4A52E8003F23F4402342E80031002919
:103C5000F7D1964A52E8003F23F4403342E800315E
:103C60000029F7D1914A52E8003F23F4401342E87B
:103C700000310029F7D18E498E4A0B6823F0FC03EE
:103C800043F004030B600B6823F4407343F40073A8
:103C90000B6052E8003F43F0407342E800310029D6
:103CA000F7D1824A52E8003F23F0405342E8003106
:103CB0000029F7D17D4A52E8003F23F4405342E8FF
:103CC00000310029F7D17C4A52E8003F23F04073CD
:103CD00042E800310029F7D1784A52E8003F23F04A
:103CE0000C0342E800310029F7D1744A52E8003F42
:103CF00023F0C00342E800310029F7D16D4A52E8B1
:103D0000003F23F0406342E800310029F7D16C4ABC
:103D100052E8003F23F4404342E800310029F7D144
:103D2000684B644A196821F03F011960196821F055
:103D30004001196052E8003F23F4404342E800315B
:103D40000029F7D1604B5B4A196821F0606141F0AE
:103D500000711960196841F0E0711960196841F447
:103D60004011196052E8003F23F00C0342E8003490
:103D7000002CF7D1494A4E4D1368544923F460632F
:103D8000534843F400731360136843F06063136097
:103D90002B6843F4C0132B600B6823F001030B6006
:103DA000FFF7B0FC20461B21FFF722FD1021012068
:103DB000FFF71EFD12210220FFF71AFD122103203A
:103DC000FFF716FDFFF7D6FC424B4FF48031424A15
:103DD00042481160D3F8702122F40042C3F87021E8
:103DE000D3F8702122F40002C3F870211A6F42F454
:103DF00000521A67FFF7C6FC39483A4902683A4B45
:103E000042F4402202600A6822F000720A609A6C52
:103E10009206FCD43248224E0168344A21F44051C3
:103E2000334D344C01603168334821F0400131603A
:103E3000196E21F070011966196E21F00F0141F021
:103E400001011966196E21F460011966196E21F4D9
:103E5000F81141F440311966196E21F48071196628
:103E6000196E21F080011966196E21F080711966B2
:103E7000536823F007035360536823F038035360FB
:103E8000536823F0C0035360536823F440735360B6
:103E9000536823F44063536093682FE028C00F40B9
:103EA0001CC00F4070C00F4038C00F4068C00F40AA
:103EB00020C00F407CC00F406CC00F4074C00F404A
:103EC00080C00F4024C00F4030C00F400CC00F40D6
:103ED000F859006000800D4074800D40F05900607A
:103EE00018C00F4014C00F4000C00F4000C00A406F
:103EF000FFFF00FB0065CD1D000000201D40956008
:103F0000536823F400335360536923F080535361A3
:103F1000536923F000535361046070BDFFF7AEBCDA
:103F2000704700BF10B51D4C1D48D4F888301D499E
:103F300043F470031C4AC4F88830038923F001035A
:103F40001B041B0C03810B8923F001031B041B0CB6
:103F50000B811368D90703D5136823F0010313609D
:103F60000E4B5A69920315D45A6912F4003211D1DA
:103F7000BFF34F8FBFF36F8FC3F85022BFF34F8F44
:103F8000BFF36F8F5A6942F400325A61BFF34F8F0B
:103F9000BFF36F8FFFF7C4FF10BD00BF00ED00E05F
:103FA00000800B4000000D4010E000E000BEFDE787
:103FB0000C4A08B5136833B118440B49884209D834
:103FC0001060184608BD09490B461160064918449F
:103FD0008842F5D900F068FE0C224FF0FF330260F2
:103FE000184608BD8808002018110020180D002070
:103FF000024A136801331360704700BF9408002021
:104000000B4AF0B413788BB90A4C4FF0FF300A49D1
:10401000F02623600724086001200849084F094D55
:104020004F6085F823608B600C601070F0BC7047A7
:104030008C080020940800209008002010E000E088
:104040001FA1070000ED00E0014B1868704700BF9A
:1040500094080020034B00220349186808601A6086
:10406000704700BF940800209008002001380728FE
:1040700016D8DFE800F02E04161A1E22262A4FF466
:1040800000121521154BC3F88020BFF34F8FBFF3EB
:104090006F8F10201944C3F8802181F800031A6043
:1040A00070474FF480021621ECE74FF4000217210D
:1040B000E8E74FF080721821E4E74FF00072192111
:1040C000E0E74FF080621A21DCE74FF000621B212D
:1040D000D8E74FF480121421D4E700BF00E100E0DC
:1040E000F0B5394D8BB0461E07468C4601ACF6B292
:1040F0000FCD0FC40FCD072E2D680FC4256043D8F8
:10410000324B53F8261000293ED00AAB03EB87034D
:1041100053F8243C18B203F01F03000A06284CD8B9
:104120002B4A032402449C40920052E8003F234360
:1041300042E800300028F8D1022F27D031D3082FD1
:104140002FD8244B02200022234C88608868B3FBC0
:10415000FCFC20F002004CF070638860CA604C6187
:104160008A620B618A618B6943F400138B61CB69AE
:104170008B6943F440238B61BFF35F8F38460BB0EC
:10418000BDE8F040FFF772BF0BB0F0BD134B082243
:10419000C3F81C71C3F89022C3F82071C3F89422AD
:1041A000CFE70E4B02200822C3F8D400C3F8482200
:1041B000C3F8D800C3F84C22C3E7094B4FF4A361FE
:1041C000084A0948FFF7F2FE345600600C5A0060B6
:1041D0001AF00310404B4C0000001F4000801F40AD
:1041E000405A00602C5A0060505A00600138C0B23A
:1041F000072807D8044B53F820301BB19A6942F4C2
:1042000080029A61704700BF0C5A00600138C0B24A
:10421000072807D8044B53F820301BB19A6922F4C1
:1042200080029A61704700BF0C5A00600138C0B22A
:10423000072804D8024B53F8203003B1D9617047E6
:104240000C5A00600138C0B2072806D8044B53F856
:10425000200018B1C069C0B270470020704700BF8D
:104260000C5A00600138C0B2072807D8044B53F835
:10427000200020B14069C0F34050704700207047D3
:104280000C5A00600138C0B2072807D8044B53F815
:10429000200020B14069C0F3805070470020704773
:1042A0000C5A00600138C0B2072807D8044B53F8F5
:1042B000200020B18069C0F3805070470020704713
:1042C0000C5A006008B5022000F066F90220BDE833
:1042D000084000F041B900BFF0B5554F85B03B78BC
:1042E000002B46D000260196019A022A41D8514C53
:1042F00006E0019B01330193019B022B39D83B78E7
:10430000019A1341DA07F4D5019B03EB830354F8B8
:10431000230000F0ADF90390039B142B7FD91423E5
:104320000393039B5A1E0392002BE2D0019B03EBE5
:10433000830354F8230000F085F905460296019B9B
:10434000029A03EB830304EB83039B685B8893422D
:10435000E7D9019B2846029A03EB830304EB83030E
:104360009B685B6853F822309847029B01330293A5
:10437000E5E7314D2B78002B4FD000260196019BAD
:10438000022B4AD82B4F01240396039B032B2BD8D7
:10439000019B039A03EB830307EB83031B7B13410E
:1043A000DB071BD5019B03EB830307EB83031B692F
:1043B00043B1019B039803EB8303C0B207EB830374
:1043C0001B6998470399019B04FA01F103EB8303EE
:1043D00007EB83031A7B22EA01021A73039B013362
:1043E0000393039B032BD3D9EFF3108272B6019B87
:1043F00003EB830307EB83031B7B33B901992B7812
:1044000004FA01F123EA01032B7002B962B6019BA1
:1044100001330193019B022BB6D905B0F0BD019980
:1044200001223B788A4023EA02033B7079E700BF10
:10443000F0080020100A00209808002038B5044633
:10444000FFF730FFD0B90E4D04EB840305EB830575
:104450000AE0686800F00CF980B1686800F0F2F8D2
:1044600001462046FFF7E2FE2046FFF70BFF00283B
:10447000EFD12046BDE83840FFF7B8BE38BD00BFD9
:10448000100A0020F8B51B4D06462C7844B30024D2
:104490000121194A022E194B297014701C7000D08A
:1044A000F8BD174F30464FF4E131164DFFF718FEB7
:1044B00038462022144900F0DDF828464FF4807277
:1044C000124900F0D7F8124B124A042012499C639B
:1044D00083F834401A63C3E90A75C2E90001F8BDE4
:1044E00000F0CAFA012321460C481A4600F0A8FA47
:1044F000CDE700BF99080020F008002098080020B0
:10450000B4080020F4080020D00800201009002082
:10451000100A00209C080020A4080020D942006056
:104520000EB410B5044683B00A4805AB04EB840210
:1045300053F8041B00EB82001A464068019300F018
:1045400091F92046FFF77AFF03B0BDE8104003B0B1
:10455000704700BF100A002038B50E4D00EB8003F5
:10456000044605EB83050AE0686800F081F860B155
:10457000686800F067F801462046FFF757FE2046BE
:10458000FFF780FE0028EFD138BD2046BDE8384057
:10459000FFF73CBE100A00202DE9F04101270E4B29
:1045A00000EB8008044687400C4D03EB88087FB27F
:1045B0000BE0D8F800602046FFF744FE0146304685
:1045C00000F00EF82B783B432B702046FFF74AFE95
:1045D0000028EED1BDE8F081100A0020F00800208C
:1045E00070B50446EFF3108672B683680269013332
:1045F0009342836001D9C36883601970D4E90123B1
:104600009A4223880FD000250133626923800AB1C2
:104610002046904706B962B625B1A36913B1BDE83B
:104620007040184770BD53B1013221698A426260FF
:1046300001D9E2686260013B01259BB2E4E71D46B7
:10464000E2E700BF30B40346EFF3108472B642686D
:104650000188107841B101321D69AA425A6001D91E
:10466000DA685A600139198004B962B630BC704703
:1046700000887047013A002310B40A444C1E03809E
:104680004361C0E90114C0E903125DF8044B7047AF
:10469000F0B583B0054600240E4F684600E034466E
:1046A000A7FB0132661CD20802EB8203A1EB430395
:1046B00091B2303300F8013B0029F0D16C440DF188
:1046C000FF3614F801192846FFF78AFFB442F8D1E3
:1046D00003B0F0BDCDCCCCCC002938B505468CB2AA
:1046E00005DB21462846BDE83840FFF7D1BF6442CC
:1046F0002D21FFF775FF2846A4B22146BDE83840BA
:10470000FFF7C6BFF0B585B0054600240E4F01A8DF
:1047100000E03446A7FB0132661CD20802EB82039C
:10472000A1EB43031146303300F8013B002AF0D1DE
:1047300001AB1C445E1E14F801192846FFF750FF18
:10474000B442F8D105B0F0BDCDCCCCCC38B50C1E00
:10475000054605DB21462846BDE83840FFF7D2BFB5
:1047600064422D21FFF73CFF28462146BDE8384032
:10477000FFF7C8BF70B5082A84B0144605460191FA
:1047800028BF082402B3002304AA02EB530010F848
:104790000C2C02F00F02092A02F1300688BF02F148
:1047A000370604AAD118023301F8086CDBB210F8FE
:1047B0000C2C1209092A02F1300088BF02F13700DF
:1047C000A34201F8070CDFD3013C02AB0DF1070651
:1047D00053FA84F414F801192846FFF701FFA642A2
:1047E000F8D104B070BD00BFFDEEC07A38B517EE49
:1047F000904A05462DED028B21B2B0EE408AFFF7BC
:104800006BFF9FED160A164B284628EE008A2E21D4
:10481000BDEEC88A18EE102A03FB0424FFF7E0FE61
:10482000632C07DDA1B22846BDEC028BBDE8384001
:10483000FFF72EBF30212846FFF7D2FE092CF1DC0E
:1048400030212846FFF7CCFE002CEBD12846302142
:10485000BDEC028BBDE83840FFF7C2BE00007A44D1
:1048600018FCFFFF2DE9F0410B780D460646174670
:10487000EBB1252B4FF000082DD06C1C5C2B19469A
:104880003046254602D12378252B05D0FFF7A8FE18
:10489000237863B1252B1ED001345C2B194630469A
:1048A0002546F0D0FFF79CFE2378002BF2D1BDE81F
:1048B000F081672B1BD9732B35D04BD9752B1FD1AA
:1048C00039883046FFF7E4FEAB7804370235002B19
:1048D000EDD0252BD1D16B78302BEAD1EB7815F8C0
:1048E000028F672BA8F130085FFA88F8E3D8652BB0
:1048F00051D2632B45D023D8002BD8D02B78BCE7DE
:10490000782BFBD1B8F1040F57F8041B02D8B8F18B
:10491000000F50D042463046FFF72CFFAB780235EF
:10492000002BD6D1C3E73C68043721780029F5D0A5
:104930003046FFF755FE14F8011F0029F8D1EDE7C6
:1049400039683046FFF702FFAB7804370235002B99
:10495000BFD1ACE7692BF3D06C2BCFD1AB7857F834
:10496000041B643B142B3BD8DFE803F0353A3A3A9A
:104970003A353A3A3A3A3A3A3A3A3A3A3A303A3AA6
:104980002A0039783046FFF72BFEAB780437023522
:10499000002B9ED18BE707373046023527F00707FB
:1049A00097ED000B0837B7EEC00BFFF71DFF2B7814
:1049B000002B8ED17BE704223046FFF7DBFEADE70C
:1049C00008223046FFF7D6FE0135A7E7304601350D
:1049D000FFF798FEA2E730460135FFF7B7FE9DE7E7
:1049E0003046FFF7B3FE99E780688B6898422CBF8A
:1049F00000200120704700BF0B68181AB0FA80F041
:104A00004009704738B5FFF71FFB04460B4800F01C
:104A100037F9034668B1094D9A6819462846A242FB
:104A2000A2EB040288BF9A6000F034F90346002824
:104A3000F2D1BDE83840FFF70DBB00BF540A00209B
:104A40002DE9F04180460B480E4615461F4600F002
:104A5000FBF8044650B1C0F80080FFF7F5FA0544B2
:104A60000020E760C4E90165BDE8F0814FF0FF3048
:104A7000FAE700BF540A0020124B30B51C7883B00F
:104A80000CB103B030BD01220F4D1A70FFF7B8FA18
:104A90000E4814230E4A102100900E4800F0ACF886
:104AA0000D490C4800F0CCF80C490A4800F0CAF84F
:104AB0000B4B21460B481A462C6003B0BDE8304032
:104AC000FFF7BEBF500A00204C0A0020C80B002090
:104AD000880A0020540A0020E9490060F949006072
:104AE000FF6780CC054A00600346006A10B410B12D
:104AF00002688A421BD05A6A12B114688C4210D0E4
:104B000018699A8A091A588991FBF2F18AB290427F
:104B100011D9D86802EB420100EB81005DF8044B2B
:104B20007047586210461A625DF8044B704758622D
:104B30005DF8044B70470020F0E700BFF0B5EFF3DD
:104B4000108E72B62B4E4589318801F1010C1FFA87
:104B50008CFC6545A6F800C019D9C4680CEB4C0262
:104B600004EB82025368012B32D0023189B201EB8F
:104B7000410304EB830403E05768012F30D019464A
:104B80004B1C8D42224604F10C049BB2F4D16545C6
:104B90004FF0000328BF654633808DB1C26851686D
:104BA000012915D002F10C0103E051F8080C01288D
:104BB0000DD001330A460C319BB2AB42F5D13380A4
:104BC000BEF1000F13D162B672461046F0BD3380BD
:104BD00002235360BEF1000FF7D162B61046F0BD5C
:104BE000022331805360BEF1000FF6D0EDE70022C2
:104BF0001046F0BD0400002030B4029C00258182E4
:104C000002614381C46005810586C0E90055C0E9A1
:104C10000655C0E90855C0E90A557BB1013B20465D
:104C200001249BB203EB430300EB83030C330260CC
:104C30000C3040F8084C0A449842F8D130BC704718
:104C400081617047C161704710B50446FFF776FF78
:104C5000034678B1EFF3108172B6E26A5AB10222CC
:104C6000E262228E0132228601B962B6226A186897
:104C7000C4E9083210BDA26AC4E90A02F1E700BF24
:104C8000026A0368C0E908320BB118687047184619
:104C9000704700BF08B5FFF727FF4368032B8CBFA1
:104CA0001868002008BD00BF014B1868704700BF9E
:104CB0000800002070B50D4E0D4D761BB61006D0C5
:104CC0000024013455F8043B9847A642F9D1094E17
:104CD000094D761B00F0CAFEB61006D00024013440
:104CE00055F8043B9847A642F9D170BD845A00603C
:104CF000845A00608C5A0060845A0060024B01465E
:104D0000186800F003B800BF080000202DE9F04F3C
:104D100001F10B05162D83B0064623D8102900F2A9
:104D2000B98000F097FA102518230220C54F3B44A4
:104D3000A3F108025C68944200F06681636823F086
:104D400003032344D4E902515A68E96042F00102A6
:104D50008D6030465A6000F083FA0834204603B074
:104D6000BDE8F08F35F0070500F19480A94200F20C
:104D7000918000F06FFAB5F5FC7FC0F083816B0A7B
:104D800000F08F80042B00F24681AB0903F139005B
:104D900003F1380CC300AB4F3B44A3F108015C683E
:104DA000A14206D10CE0002A80F21D81E468A142F4
:104DB00006D0636823F003035A1B0F2AF3DD604615
:104DC0003C69DFF894C2644571D0636823F0030343
:104DD0005A1B0F2A00F34481002AC7E904CC80F251
:104DE0002681B3F5007F80F06981DB08591C7A6861
:104DF00057F83180C4F808804FF0010E9B100EFA6E
:104E000003F307EBC10E1343AEF10802E2607B60CF
:104E100047F83140C8F80C408210012494409C426D
:104E20004BD81C4206D120F0030064001C4200F164
:104E30000400FAD007EBC009CE468046DEF80C30FD
:104E40009E4507D122E1002A80F22981DB689E4538
:104E500000F01C81596821F003014A1B0F2AF2DD82
:104E6000D3E9028E5C1945F001055D6042F0010551
:104E7000C8F80CE03046CEF80880C7E90444C4E91D
:104E800002CC65605A50019300F0EAF9019B03F1EE
:104E9000080463E700240C232046336003B0BDE818
:104EA000F08F4FF4007340204FF03F0C73E77B68A6
:104EB0008210012494409C42B3D9BC68636823F0FB
:104EC0000309A94503D3A9EB05030F2B7BDC5E4B3C
:104ED000DFF888A11A68DAF80030013305EB020820
:104EE00000F0488108F5805808F10F0828F47F6821
:104EF00028F00F084146304600F0B8F9B0F1FF3F06
:104F0000834600F0048104EB0900584500F2FD805F
:104F10004E4A13684344136000F04D81DAF80010E4
:104F200001311BBFABEB00001B18CAF800B01360C7
:104F30001BF0070300F03481C3F10801C3F580536F
:104F40008B440833D844C8F30B08A3EB0808414648
:104F50003046019200F08AF9431C019A00F0468124
:104F6000A0EB0B01414441F001011368C7F808B000
:104F70004344BC42CBF80410136015D0B9F10F0FB5
:104F800040F230816068A9F10C0121F0070100F0C6
:104F9000010004EB010C08434FF0050E0F2960607F
:104FA000CCE901EE00F23A81294A2A481168BC682E
:104FB0008B42016888BF136062688B4222F0030253
:104FC00088BF0360A7E0621943F0010345F00105C3
:104FD00065603046BA60536000F042F908342046FC
:104FE00003B0BDE8F08F2344E1685A68A56842F039
:104FF0000102E96030468D605A6000F031F90834F2
:10500000204603B0BDE8F08FDC68A34208BF023041
:105010003FF4D6AE92E6142B71D9542B00F2AD803A
:105020002B0B03F16F0003F16E0CC300B3E62344B6
:1050300030465A6842F001025A60083400F010F914
:105040008CE600BF38040020E80C0020B80C0020DB
:10505000E00C0020E40C0020400400204008002068
:10506000611945F0010E42F00105C4F804E0304634
:10507000C7E90411C1E902CC4D60E25000F0F0F83C
:1050800008346BE6E80805F108034FE608F101086B
:1050900018F0030F0EF1080E7FF4D0AE52E0194461
:1050A0001C464A68DB6854F8085F42F001024A6017
:1050B0003046EB609D6000F0D3F84FE65A0A042AB0
:1050C00035D9142A6FD802F15C01C9005B3207EBB5
:1050D000010E7958AEF1080E8E4558D04A6822F07C
:1050E00003029A4202D989688E45F7D1D1F80CE0C3
:1050F0007B68C4E9021ECEF80840CC608CE603F160
:105100005C0003F15B0CC30045E6BC4272D0BC6896
:10511000626822F003029542A2EB050302D80F2B2E
:105120003FF751AF304600F09BF8002416E69A098D
:1051300002F13901C9003832C9E7D9F80090994520
:1051400040F0838010F0030FA9F1080300F1FF3055
:10515000F3D17B6823EA04037B6064009C423FF642
:10516000ACAE1CB9A9E6640008F104081C42FAD0F0
:1051700040465FE608F11008BCE6B3F5AA7F26D8E2
:10518000EB0B03F1780003F1770CC30003E67B68B7
:1051900092104FF0010808FA02F213437B60A8E76F
:1051A0004FF48053CEE6542A29D81A0B02F16F012E
:1051B000C9006E328BE7C0F30B0100297FF4AEAE5D
:1051C00009EB0802B96842F001024A60ECE640F2DD
:1051D000545293421CD8AB0C03F17D0003F17C0CBC
:1051E000C300D8E50123CBF804309BE701214FF041
:1051F0000008BAE6164A1368434413608EE6B2F517
:10520000AA7F14D8DA0B02F17801C90077325EE781
:105210004FF47E737F204FF07E0CBCE504F1080153
:105220003046019200F0AEF8019A1368BCE640F2F5
:1052300054518A4205D89A0C02F17D01C9007C3292
:1052400045E74FF47E717E2241E77B6885E700BF2A
:10525000B80C0020014800F089B900BFFC0C002008
:10526000014800F085B900BFFC0C002038B5074CA0
:105270000023054608462360FEF79AFE431C00D033
:1052800038BD2368002BFBD02B6038BD100D0020EB
:10529000024B13B1024800F005B87047000000004F
:1052A000B1520060002301461A46184600F062B968
:1052B00038B50A4C0A4D641BA4100AD004F180438F
:1052C000013B05EB8305013C55F804399847002C58
:1052D000F9D1BDE8384000F0CFBB00BF905A006064
:1052E0008C5A0060F8B5244F0C460646FFF7B2FF13
:1052F000BB685D68C4F57E610F3125F00305294464
:1053000021F47F6121F00F01A1F58054B4F5805F95
:1053100007DB00213046FFF7A9FFBB682B4498420A
:1053200004D03046FFF79CFF0020F8BD61423046B4
:10533000FFF79CFF01300DD0104BBA6819682D1B88
:1053400045F001053046091B55601960FFF788FFDD
:105350000120F8BD00213046FFF788FFBA68831AA4
:105360000F2BDEDD064C0549246843F00103001BCA
:1053700053600860D5E700BF38040020B80C002057
:1053800040080020002953D0F8B50C460646FFF728
:1053900061FF54F804CC714F2CF00101A4F1080511
:1053A0006B18B8685A68984222F0030253D01CF078
:1053B000010F5A6003EB02003BD154F808CC40685F
:1053C000A5EB0C0507F1080EAC687445614400F0CC
:1053D000010075D0D5F80CC0C4F80CC0CCF808405A
:1053E00060B341F001036B606950B1F5007F50D3A9
:1053F0004B0A042B70D88B0903F13904E40003F144
:10540000380238193B590838984278D05A6822F047
:1054100003028A4271D99B689842F7D1C368C5E9F3
:1054200002039D60C5603046BDE8F840FFF718BF35
:105430007047406800F001000028D2D19868484CBD
:105440001144A04241F0010262D0DB68C360986061
:105450006A606950C9E71CF0010F0A4407D154F88B
:10546000083CED1A1A44D5E90213CB6099603D4B14
:105470001B6842F0010193426960BD6004D83A4B59
:1054800030461968FFF72EFF3046BDE8F840FFF7B9
:10549000E7BEC90878684A1C012389108B40034382
:1054A00007EBC20157F832007B600839C5E90201F9
:1054B00047F83250C5603046BDE8F840FFF7D0BE2F
:1054C000002845D10A44D3E9021342F00100CB6021
:1054D00099606860AA50D7E7142B08D9542B1ED8BE
:1054E0000B0B03F16F04E40003F16E0289E703F193
:1054F0005C04E40003F15B0283E718468EE7931037
:105500007968012202FA03F30B437B60034686E7C6
:10551000C7E90455C5E902006A606950B4E7B3F50C
:10552000AA7F06D8CB0B03F17804E40003F17702DD
:1055300067E740F25452934206D88B0C03F17D0486
:10554000E40003F17C025CE74FF47E747E2258E7AE
:1055500041F001026A60196096E700BF380400203C
:105560004004002044080020E80C0020704700BFE1
:10557000704700BF2DE9F8432B4D06462868984632
:105580000F469146FFF7F2FF284B1C68D4F84831CC
:10559000002B3DD05A681F2A0DDC02F1010C16BB0E
:1055A0000232C3F804C0286843F82270FFF7E0FF16
:1055B0000020BDE8F8831E4B7BB34FF4C870FFF7A3
:1055C0009DFB034648B3D4F848210021C0E90021DF
:1055D0004FF0010CC4F848010A46C0F88811C0F821
:1055E0008C11002EDCD003EB82010124C1F88890DD
:1055F000D3F8880194402043022EC3F88801C1F8F3
:105600000881CDD1D3F88C110C43C3F88C41C7E786
:1056100004F5A673C4F84831BCE72868FFF7A8FF73
:105620004FF0FF30C5E700BF48080020685A00600F
:10563000FD4C006000000000180500001C00000088
:105640000C00000018010000020300000603000027
:105650001A0500000E060000426F6F746C6F6164E3
:105660006572204D494D585254313032310000009E
:105670005B424F4F545D000053797374656D204950
:105680006E697469616C697A65640D0A00000000D6
:1056900073797374656D2072656164792025642E59
:1056A0002E2E0A00434E542025642054696D654E09
:1056B0006F7728293A2025640A000000554152548A
:1056C000323A2025640D0A006A756D70696E672094
:1056D000746F206D61696E20617070204144445286
:1056E0003A202578200A000053595300696E6974E6
:1056F00053595354454D000021286E6F6E4361632A
:105700006865537461727420252073697A65290075
:1057100073797374656D2E630000000073697A6598
:10572000203D3D202875696E7433325F742928311D
:10573000203C3C206929000069203E3D20350000C6
:1057400023D49A63160100102D3E205359533A205A
:105750004275734661756C745F48616E646C657206
:105760000A0000000A0A2D3E200000003A2048618D
:1057700072644661756C745F48616E646C6572201A
:105780000A0000007230095B25785D0A0000000005
:105790007231095B25785D0A000000007232095BF6
:1057A00025785D0A000000007233095B25785D0AE8
:1057B00000000000723132095B25785D0A000000AC
:1057C0006C72095B25785D0A000000007063095B5C
:1057D00025785D0A00000000707372095B25785D12
:1057E0000A0A000062666172095B25785D0A0000A2
:1057F00063667372095B25785D0A000068667372E0
:10580000095B25785D0A000064667372095B257880
:105810005D0A000061667372095B25785D0A00000D
:105820002D3E205359533A204D656D4D616E616791
:10583000655F48616E646C65720A00002D3E2053FE
:1058400059533A204E4D495F48616E646C65720A47
:10585000000000002D3E205359533A2055736167D4
:10586000654661756C745F48616E646C65720A00B0
:105870000A0A777777777777777777777777777792
:1058800077777777777777777777777777777777A8
:105890007777777777777777777777777777777798
:1058A0007777777777777777777777777777777788
:1058B0007777770A0000000077204952514445531A
:1058C00049474E20642E6F2E6F2E2054757A6C61DE
:1058D00020426F736E696120616E64204865727A40
:1058E00065676F76696E610A00000000772D2D2DC7
:1058F0002D2D2D2D2D2D2D2D2D2D2D2D2D2D2D2DD8
:105900002D2D2D2D2D2D2D2D2D2D2D2D2D2D2D2DC7
:105910002D2D2D2D2D2D2D2D2D2D2D2D2D2D2D2DB7
:105920002D2D2D2D2D2D2D2D2D2D2D2D2D0A000024
:10593000772025730A770A00772068777665723AB0
:105940002025642E25640A00772066777665723AF2
:105950002025642E25642E25642E0A007720746984
:105960006D653A202025780A000000007777777768
:1059700077777777777777777777777777777777B7
:1059800077777777777777777777777777777777A7
:105990007777777777777777777777777777777797
:1059A000777777777777777777777777770A0000E2
:1059B000216279706173735874616C4F7363000076
:1059C0002E2F647269766572732F66736C5F636CD9
:1059D0006F636B2E63000000434C4F434B5F496E77
:1059E000697445787465726E616C436C6B0000007D
:1059F00000010001000000000100000000000000A4
:105A000001000000000000000000000000401840FD
:105A10000080184000C018400000194000401940A4
:105A20000080194000C0194000001A40434C4F4309
:105A30004B5F436F6E74726F6C476174650000005A
:105A4000696E646578203C3D2036554C00000000AE
:105A50002E2F647269766572732F66736C5F636C48
:105A60006F636B2E6800000010000020F8B500BFC7
:105A7000F8BC08BC9E467047F8B500BFF8BC08BC2F
:045A80009E46704787
:085A840091520060252400602E
:045A8C000124006091
:105A900040DCB311010000001000002000000000F5
:105AA00000000000FC02002064030020CC03002062
:105AB00000000000000000000000000000000000E6
:105AC00000000000000000000000000000000000D6
:105AD00000000000000000000000000000000000C6
:105AE00000000000000000000000000000000000B6
:105AF00000000000000000000000000000000000A6
:105B00000000000000000000000000000000000095
:105B10000000000000000000000000000000000085
:105B20000000000000000000000000000000000075
:105B30000000000000000000000000000000000065
:105B40000000000000000000010000000000000054
:105B50000E33CDAB34126DE6ECDE05000B00000019
:105B60000000000000000000000000000000000035
:105B70000000000000000000000000000000000025
:105B80000000000000000000000000000000000015
:105B90000000000000000000000000000000000005
:105ED0003804002038040020400400204004002042
:105EE00048040020480400205004002050040020F2
:105EF00058040020580400206004002060040020A2
:105F00006804002068040020700400207004002051
:105F10007804002078040020800400208004002001
:105F200088040020880400209004002090040020B1
:105F30009804002098040020A0040020A004002061
:105F4000A8040020A8040020B0040020B004002011
:105F5000B8040020B8040020C0040020C0040020C1
:105F6000C8040020C8040020D0040020D004002071
:105F7000D8040020D8040020E0040020E004002021
:105F8000E8040020E8040020F0040020F0040020D1
:105F9000F8040020F804002000050020000500207F
:105FA000080500200805002010050020100500202D
:105FB00018050020180500202005002020050020DD
:105FC000280500202805002030050020300500208D
:105FD000380500203805002040050020400500203D
:105FE00048050020480500205005002050050020ED
:105FF000580500205805002060050020600500209D
:10600000680500206805002070050020700500204C
:1060100078050020780500208005002080050020FC
:1060200088050020880500209005002090050020AC
:106030009805002098050020A0050020A00500205C
:10604000A8050020A8050020B0050020B00500200C
:10605000B8050020B8050020C0050020C0050020BC
:10606000C8050020C8050020D0050020D00500206C
:10607000D8050020D8050020E0050020E00500201C
:10608000E8050020E8050020F0050020F0050020CC
:10609000F8050020F805002000060020000600207A
:1060A0000806002008060020100600201006002028
:1060B00018060020180600202006002020060020D8
:1060C0002806002028060020300600203006002088
:1060D0003806002038060020400600204006002038
:1060E00048060020480600205006002050060020E8
:1060F0005806002058060020600600206006002098
:106100006806002068060020700600207006002047
:1061100078060020780600208006002080060020F7
:1061200088060020880600209006002090060020A7
:106130009806002098060020A0060020A006002057
:10614000A8060020A8060020B0060020B006002007
:10615000B8060020B8060020C0060020C0060020B7
:10616000C8060020C8060020D0060020D006002067
:10617000D8060020D8060020E0060020E006002017
:10618000E8060020E8060020F0060020F0060020C7
:10619000F8060020F8060020000700200007002075
:1061A0000807002008070020100700201007002023
:1061B00018070020180700202007002020070020D3
:1061C0002807002028070020300700203007002083
:1061D0003807002038070020400700204007002033
:1061E00048070020480700205007002050070020E3
:1061F0005807002058070020600700206007002093
:106200006807002068070020700700207007002042
:1062100078070020780700208007002080070020F2
:1062200088070020880700209007002090070020A2
:106230009807002098070020A0070020A007002052
:10624000A8070020A8070020B0070020B007002002
:10625000B8070020B8070020C0070020C0070020B2
:10626000C8070020C8070020D0070020D007002062
:10627000D8070020D8070020E0070020E007002012
:10628000E8070020E8070020F0070020F0070020C2
:10629000F8070020F8070020000800200008002070
:1062A000080800200808002010080020100800201E
:1062B00018080020180800202008002020080020CE
:1062C000280800202808002030080020300800207E
:0C62D000FFFFFFFF00000200EC0C0020AC
:040000056000244132
:00000001FF
